:020000040800F2
:10000000480E0020A9010008DB010008DD010008FE
:10001000DF010008E1010008E30100080000000022
:10002000000000000000000000000000E5010008E2
:10003000E701000800000000E90100089929000814
:10004000ED010008ED010008ED010008ED010008D8
:10005000ED010008ED010008ED010008ED010008C8
:10006000ED010008ED010008FD200008ED01000889
:10007000ED010008ED010008ED010008ED010008A8
:10008000ED010008ED010008ED010008ED01000898
:10009000ED010008ED010008ED010008ED01000888
:1000A000ED010008ED010008ED010008ED01000878
:1000B000ED01000800F002F800F04AF80CA030C88A
:1000C000083824182D18671EA246AB4654465D46D4
:1000D000AC4201D100F03CF87E460F3EB6460FCC54
:1000E0000126334200D0FB1A3343A246AB461847E1
:1000F000485E0000685E0000002300240025002602
:10010000103A01D378C1FBD8520700D330C100D5D3
:100110000B60704710B5662902D105F097F810BD45
:10012000692902D100F0C4F810BD782902D100F08D
:10013000F5F810BD002010BD1FB501F02FFA040026
:100140000020002105F018F8E0601FBD10B510BDBB
:1001500001F00CFE1146FFF7EFFF04F02DFA01F05D
:1001600024FE03B4FFF7F2FF03BC01F075FE0000AC
:1001700070B505460C46164602E00FCC0FC5103E82
:10018000102EFAD2082E02D303CC03C5083E042E4B
:1001900007D301CC01C5361F03E021782970641C08
:1001A0006D1C761EF9D270BD144880F3088814487F
:1001B0000168090E134A9142FFD1134813490160A7
:1001C0001348144901601448124901600E4813494C
:1001D00001601348804713480047FEE7FEE7FEE74B
:1001E000FEE7FEE7FEE7FEE7FEE7FEE7FEE70000CC
:1001F0000D480E490E4A0F4B70470000480E002074
:10020000040000001F0000001C1002400000000459
:1002100018680040120000001C6800400000000048
:10022000B9290008B500000848080020480E002041
:10023000480A0020480A00200FB41CB5074B06AA44
:100240007B4469460090059801F07BF900206946DF
:1002500001F08AF91CBC08BC04B018472513000043
:1002600070B5044685690068C10601D5302600E0F6
:100270002026C00707D070BD62683046A16890474D
:10028000206A401C20626D1EF6D570BD70B5044614
:1002900085690078C00707D170BD6268A168202019
:1002A0009047206A401C20626D1EF6D570BD00008C
:1002B000F7B5002575291068009914A611D0C0461D
:1002C000C046002802DA404211A608E000990968F9
:1002D0008A0701D50FA602E0490704D50EA601251D
:1002E00001E0C046C046009F0024243704E001F02E
:1002F00040F930313955641C0028F8D12B4632467C
:100300002146009800F0B6FEFEBD0000000000008F
:100310002D0000002B0000002000000070B50446F6
:100320000D4621461068C046C0462188090502D501
:100330000F4A7A4402E00E4A7A440E3223460021E4
:10034000243305E006070009360F965D5E54491C0C
:100350000028F7D120780023000705D5702D03D0A1
:10036000002901D002231132204600F083FE70BD27
:10037000264F0000F3B50446002081B020622046DD
:10038000E168884700287DD0252802D06268A168EE
:1003900083E0454F00257F442046E16888472028B8
:1003A000064608DB312E06D2B8192038007800281E
:1003B00001D00543F0E7A80701D5042085430020BC
:1003C000E0610746A0612A2E0AD0304604F0CCFE38
:1003D000002827D0B8000019303E0090866119E04F
:1003E0000298BA00121902C8916102902046E16891
:1003F0008847012F064617D1E06900281FDA202020
:1004000085431CE000980A218069484300998019BF
:10041000303888612046E1688847064604F0A4FE2B
:100420000028EFD1012F0AD02E2E08D12046E168F6
:1004300088470646202005437F1C022FC3DBA069A6
:10044000002803DA4042A06101200543E80701D0FB
:1004500010208543002E24D030464138192803D877
:100460000120C00205432036204625603146029A0D
:100470001546FFF74FFE00280CD0012807D0ED1DD0
:10048000E80800E00DE0C0000830029077E72D1D7D
:10049000029574E762683046A1689047206A401C64
:1004A0006CE7206AFEBD0000EA4E000030B5441C37
:1004B00003E00178401C00290DD08107F9D10B4BD6
:1004C000DD0104C8D11A91432940FAD0001B0A0665
:1004D00003D0C01E30BD001B30BD0A0401D0801EF9
:1004E00030BD0902FCD0401E30BD000001010101F9
:1004F000F8B5042A2CD3830712D00B78491C03705B
:10050000401C521E83070BD00B78491C0370401C03
:10051000521E830704D00B78491C0370401C521EE6
:100520008B079B0F05D0C91ADF002023DE1B08C9EB
:100530000AE0FFF71DFEF8BD1D4608C9FD401C4638
:10054000B4402C4310C0121F042AF5D2F308C91A74
:10055000521EF0D40B78491C0370401C521EEAD482
:100560000B78491C0370401C012AE4D409780170FF
:10057000F8BDD2B210B513029A1813049A1800F0FD
:1005800001F810BD01E004C0091F0429FBD28B074C
:1005900001D50280801CC90700D002707047002975
:1005A0000BD0C30702D00270401C491E022904D39D
:1005B000830702D50280801C891EE3E70022EEE754
:1005C0000022DFE782078B079A423FD170B5920F76
:1005D0000AD0032402780B78401C491C002A33D02F
:1005E0009A4231D12042F5D1214EF40104C808C904
:1005F000951B9543254018D19A420FD104C808C9CC
:10060000951B9543254010D19A4207D104C808C9CB
:10061000951B9543254008D19A42E7D012BA1BBAE0
:1006200001209A4200D2404270BD12BA1BBA2DBAC4
:1006300018241000E0401900E140401A05D12E00B6
:10064000E64002D1083CF4D1D01A70BD02780B7894
:10065000401C491C002A09D09A4207D102780B7825
:10066000401C491C002A01D09A42EFD0D01A704792
:1006700001010101002203098B4273D3030A8B425B
:1006800058D3030B8B423CD3030C8B4221D312E093
:1006900003460B437FD4002243088B4274D30309E3
:1006A0008B425FD3030A8B4244D3030B8B4228D384
:1006B000030C8B420DD30902FF2212BA030C8B42AA
:1006C00002D31212090265D0030B8B4219D300E04A
:1006D000090AC30B8B4201D3CB03C01A5241830BCF
:1006E0008B4201D38B03C01A5241430B8B4201D37F
:1006F0004B03C01A5241030B8B4201D30B03C01AA8
:100700005241C30A8B4201D3CB02C01A5241830A21
:100710008B4201D38B02C01A5241430A8B4201D350
:100720004B02C01A5241030A8B4201D30B02C01A7A
:100730005241CDD2C3098B4201D3CB01C01A5241E1
:1007400083098B4201D38B01C01A524143098B426A
:1007500001D34B01C01A524103098B4201D30B0153
:10076000C01A5241C3088B4201D3CB00C01A524178
:1007700083088B4201D38B00C01A524143088B423D
:1007800001D34B00C01A5241411A00D201465241D6
:10079000104670475DE0CA0F00D04942031000D3F5
:1007A000404253409C46002203098B422DD3030A4A
:1007B0008B4212D38901FC2212BA030A8B420CD35A
:1007C000890192118B4208D3890192118B4204D383
:1007D00089013AD0921100E08909C3098B4201D303
:1007E000CB01C01A524183098B4201D38B01C01A3D
:1007F000524143098B4201D34B01C01A52410309B4
:100800008B4201D30B01C01A5241C3088B4201D362
:10081000CB00C01A524183088B4201D38B00C01A0F
:100820005241D9D243088B4201D34B00C01A5241E6
:10083000411A00D201465241104663465B1001D373
:100840004042002B00D54942704763465B1000D3FD
:10085000404201B50449002802DC491C084000E080
:100860000846C046C04602BDFFFFFF7F7047704785
:10087000704700000246C80FC00781434B0030B5E7
:100880004B405B009B0D20D01923DB06C9180123C8
:100890001B05994220DB0324A40704251346AB4023
:1008A0000BD3002B04D1EB0613409B00E34204D48E
:1008B00001246407002312195941FF231B059942A3
:1008C0000BD2C9000143500F09E0CB0204D501430C
:1008D0000803024305D0054830BDFF21C905084380
:1008E00030BD084607210905884330BD0000C07FA0
:1008F000F0B5F94D0C091E092C402E402F468BB047
:10090000A7437DD0B543FCD0002E7AD0002CFCD07C
:100910000D465D40ED0F2543AC1BFF25AD0464196A
:100920000894C502440DC9022143500DDC02044362
:100930000120C00701430443D2020191200C110C95
:1009400000958C46010423468B430A9161460904B5
:10095000E24D8A430991010A7D4449198039097899
:1009600005464D4301266D18F605751B6943C90CF4
:10097000640B891C4C436418B5012C1B250C2E04F8
:10098000B4434C434D43210C691889090591009DDE
:10099000E90701D00121C90704912C460199670894
:1009A000CD072F434C08059DE10B4D432D0C2946E7
:1009B0006646754302950D4645432E46029D7D1BB6
:1009C000B44100950D465D4301942C0C2F040D4657
:1009D0005543AE462D0C3D43029503947546049C49
:1009E0002D04641B049406D2029C039D641C002603
:1009F00075410395029401AC70CC009F7D1B01E012
:100A00003EE162E1B4410904009507910194059922
:100A1000A4086143090C0C464443650BE7040C46EB
:100A200066467443A646640B3C43039502947446A1
:100A3000049DE4042C1B049406D2029C039D641CB8
:100A4000002675410395029401AC70CC009F7D1B7C
:100A5000B44101940C465C430095650FE7000C46D9
:100A60005443A646640F3C43039502947446049D88
:100A7000E4002C1B049406D2029C039D641C0026F7
:100A800075410395029401AC70CC009F7D1BB4416D
:100A9000AE09AF06049DC900AD092F43049DA4060D
:100AA000AD060495079D344369180791059DE10B38
:100AB0004D432D0C29466646754302950D46454328
:100AC0002E46029D7D1BB44100950D465D43019469
:100AD0002C0C2F040D465543AE462D0C3D4302957C
:100AE00003947546049C2D04641B049406D2029C56
:100AF000039D641C002675410395029401AC70CCE3
:100B0000009F7D1BB44101948C050694079C890AC3
:100B1000611800950791019C0599A4086143090C8F
:100B20000D464543680BEF040D46644665436C0B68
:100B30003C43049FED047D1BAC4602D20025641C9F
:100B40006841009E019D371B854108465843019529
:100B50000C46460FC5005443600F28436546E40029
:100B60002C1B02D20025401C6E41019D3F1AB5414D
:100B70002846BD09800628438446A009BF064E02C8
:100B80000699A40676180743079D002068410A9934
:100B9000079019430020099B00906046FF191343FA
:100BA0004041E20F64003A43A4460446D71A8C4100
:100BB000A04203D90120009020463A46C70F94185E
:100BC00040416246D20F2243644664000494009C74
:100BD000BE466400D71AA446044602978C41774665
:100BE000002F01D1A04204D96046401C8446029ADD
:100BF0002046C40FA64694184041049A0546D20FD9
:100C0000224364466400D31A8D417146002901D104
:100C1000A84202D928461A46641C10430122002823
:100C200000D0164361020020079B891904465C41ED
:100C30000223002C02DB491813466441089DCE0AAA
:100C40002D145D194B056705E10A2C050D1908994E
:100C50003E43C9076940002B08D0934006D30022C9
:100C6000761C5141002B01D1760876001C4A002DDC
:100C700043DB154241D0AA433FD030460BB0F0BD14
:100C800006180D464D41174C7642AC411AD39518C3
:100C90001C465C41134A6D42A24113D30122520506
:100CA0004C00D4420AD15C00D4420BD04B4002D558
:100CB00092021143E2E749004908DFE75940C90FB2
:100CC000C90718E000200849D8E7054801420DD1BE
:100CD0000342F7D0F2E700000000FF0739490000A7
:100CE0000000F07F0000E0FF0000F87F114859404D
:100CF0000143C01241400020C0E70123089A9B062F
:100D00009A4205DC032252078918C90FC907B5E7C3
:100D1000052252078918074A1143D2125140ADE704
:100D200070B515461C4602460B4628462146FFF77D
:100D3000DFFD70BDFFFFFF7F0346CA02400D10B507
:100D400010430A1504D00124E4072043002A05DBE0
:100D50000A4CA21A04D4D040FF2A00DD002010BDA6
:100D60004A00002B01D0012000E0002010180122D1
:100D70005205D042F2D8C817C04310BD1E0400006F
:100D80001F22030C02D10F22000402D0030E03D055
:100D900004E00020014670470002083A030F01D129
:100DA0000001121F830F01D18000921E002801DB79
:100DB0004000521E120551184205C012411810463B
:100DC0007047C10FC90700D040420122920711436A
:100DD000D6E701218907D3E7F0B58B4C0F092546EB
:100DE00089B0BD437BD01D092646AE43FAD00E46DE
:100DF0005E402740F60F3E43254071D0240121423A
:100E0000FBD0FF24AD19A4042D1B039501252D054E
:100E1000DB02DB0AC9022B43C90A29431E0109016F
:100E2000040F130F050121431701880B820391431F
:100E30002D098C46A90B1E438A039543B30B9A03D5
:100E400096433F09BA0B9403A74302962E467E436E
:100E50000497B6464E19D7190C4601965443059788
:100E60007E43371B7646BF1B3601B646BE0B36198E
:100E700000967646BC043719009C01D3641C00948C
:100E80006400002F01D001263443029E049F754365
:100E900066467E430496760034196E003419009439
:100EA000029C019E1C196643751BAE46069465465E
:100EB0004519059C05956C43594375460891691A77
:100EC0000191049E01465143A41B0491611A009CA8
:100ED0000791E10605D061090122114302E072E0A9
:100EE0006EE06109089D00272C0A2D066918049DF3
:100EF0007C412A0A2D066918019D6241AC0DAD02A4
:100F00006D185441079A910D920255196141029A48
:100F1000644658435443069B059A5A43121A131BBE
:100F20009A0E9B015B187A41010B0005C3185141D1
:100F3000220A200644195A419A4200D2491C012033
:100F40004002814203D315230226F64302E0142314
:100F50000326F6432020C51AA9401746AF40DA40C1
:100F60000A4320460399D8400914731819055118EB
:100F7000039A3843D2075140AC4009D00122944033
:100F800006D30022401C5141002C01D140084000F2
:100F90001E4A934212D3012203989206904207DB25
:100FA0000520400709181A480143C012414004E0D7
:100FB000032040070818C10FC907002009B0F0BD81
:100FC0000020F107FAE705180C464C4111486D4224
:100FD000A04115D394181A465A410E4864429041D4
:100FE0000ED301204A004005824209D35A008242B2
:100FF00006D35940C90F084AC90700201143DDE74D
:1010000000200649DAE700000000FF07FE070000A5
:10101000FFFFFF7F0000E0FF0000F07F0000F87F8F
:101020000121C9050123411842001B06D3185B0E9C
:101030000AD0C1100722D206891840075242D14275
:1010400001D5520089187047090208D50146002AC7
:1010500003D0C10FC90700207047104670474202F5
:1010600002D0002002497047072109050143F4E737
:101070000000F87FFFB504460D4681B02430009093
:101080002168880604D51022E0699143216000E0C0
:101090000120A84201DD471B00E000270498A16958
:1010A0007A191018081AA0612078C00602D42046C8
:1010B000FFF7D6F8002608E003986268A168805D13
:1010C0009047206A401C761C206204988642F3DB1D
:1010D0002078C0060AD52046FFF7C2F806E062680D
:1010E000A16830209047206A401C206238467F1E4D
:1010F0000028F4DC07E000986268A168405D904732
:10110000206A401C206228466D1E0028F3DC204621
:10111000FFF7BCF82078000602D5022005B0F0BD2C
:101120000120FBE7FFB50C461E468FB003CA0890AE
:1011300009914F007D0D00D16D1E00210846002051
:10114000C0460321099A89050840002A03DA820073
:10115000801840080840800D01280A9002DD002018
:10116000C0430A90089807430DD0F048F04928186A
:1011700048430714189800281DD07542291E1DDD0C
:101180000A9842421BE01898012802D00020302122
:1011900004E00020F24305E02154401CB042FBDB98
:1011A00030460022189B002121540F998B600A6061
:1011B000486013B0F0BDBD1B6D1CDFE70A9A002923
:1011C00000DA69420BA800F06FFA0BAB07CB03AB58
:1011D00007C30899099800F0D3FA6B4607C3014684
:1011E000D4480918002D00910BDDD24903980A9AC2
:1011F00049424018002303A90390684600F030FDDF
:1012000008E003990A9A0023081803A90390684686
:1012100000F0D0FC6B4607C30004000C03D0002094
:10122000C043410800E01046189A002A03D000226B
:10123000009215461EE0751E05D400F0B3F9303259
:1012400062556D1EF9D501220843079602D000228F
:101250007F1C04E02078302801D100227F1E002A64
:10126000069787D01EE0112D07DA00F09BF9303287
:1012700062556D1C02460A43F5D1084303D000981D
:10128000002819D00EE00021681E05E0235C625C96
:1012900063542254401E491C8142F7DBA81B401EA8
:1012A00007950690079A18990020A0540F98079B5D
:1012B000069A81600CC07CE711260020189059E73F
:1012C000D21DF0B50D460446D10893B0C90003C93C
:1012D0000C900D9103F01AFF02460D98C00F01D03B
:1012E0002D2007E02068810701D52B2002E0400770
:1012F000C00F4001032A0F9001D0072A05DB0346E7
:101300002946204600F08CF90EE12078800601D5B0
:10131000E76900E006272846652D04D0662814D02A
:10132000672D69D12DE00020112F009001DB1123E2
:1013300000E07B1C0CAA03A910A8FFF7F3FE11998B
:10134000002610987D1C0E9142E001203B460CAA1D
:10135000C0070B900120009003A910A8FFF7E2FE40
:10136000119D12981099002600280E9501D1781C25
:101370000D18781B02D446427D1C761EE81B009097
:101380003AE0012F00DA01270020112F009001DD43
:10139000112300E03B460CAA03A910A8FFF7C2FEE8
:1013A00011993D46109800260E91217809070BD41B
:1013B0000E99A94200DA0D4603A9012D04DD4A1950
:1013C000203AD27F302A06D0B84201DA011D04DA71
:1013D000012100910FE06D1EEFE7002802DC861965
:1013E0002D1A03E0411CA94200DD0D46801B401C64
:1013F00000900120C0070B902078000705D40098CA
:10140000A84202DB0020C043009069460020C87259
:101410000B98012102AF0337C907884225D002206B
:1014200010902B2011900B9800280BDA40420B9063
:101430002D20119006E00B9800F09BF830317F1EB4
:101440000B9039701099481E00291090F3DC0B980E
:101450000028F0D111987F1E38702088000501D532
:10146000452000E065207F1E387001A8C01BC01D0C
:101470000B900F98002800D0012041190098C01748
:1014800009180B980818A169081A401EA061207855
:10149000C00602D42046FEF7E3FE0F98002805D0D0
:1014A0006268A1689047206A401C20622078C006CC
:1014B00025D52046FEF7D4FE21E0002E07DB0E984E
:1014C000B04204DD03A86268805DA16802E0626842
:1014D000A16830209047206A761C401C206200984A
:1014E000401E002800900AD100F058F8C0686268D9
:1014F0000168405CA1689047206A401C2062284631
:101500006D1E0028D9DC07E062683878A1687F1C6E
:101510009047206A401C20620B99481E00290B90BE
:10152000F2DC2046FEF7B2FE032042E601FCFFFF9C
:10153000104D0000E1DFFFFF01694A1C02610878DD
:10154000704700B58FB002910021059105490193C4
:1015500079440391114604906846FEF70BFF0FB0E3
:1015600000BD0000E5FFFFFF0A681070521C0A6012
:10157000704701468008081A02091018020A10185C
:10158000020C1018C008820012185200891A01E0DB
:10159000401C0A390A29FBD27047000000487047F6
:1015A000A80600200B4670B502468907800808434C
:1015B00019469D08141AA941250908070543080979
:1015C0002C194841250A01060D43010A2C194141F5
:1015D000200C0D0428430D0C00194D410021401929
:1015E0004D41C00869070843E908840F8D00254371
:1015F000840024184D4124196D41121BAB4107E0B2
:101600000925ED432C11521963410024401C61410E
:101610001C460A250026551BB441F1D270BD0000BE
:10162000F8B51F46044601230068DB020326014685
:101630001840072A05DB002801D017A506E017A5EA
:1016400004E0002801D016A500E016A51020814373
:101650002160A069C01E002FA06101D0401EA061C2
:101660002046FEF7FDFD002F09D038466268A168CC
:101670009047206A401C2062C01C206206E0206A5D
:10168000FAE762682878A1686D1C9047761EF8D248
:101690002046FEF7FBFDF8BD4E414E006E616E0028
:1016A000494E4600696E6600F7B516468AB0334863
:1016B00078446C4603467C33C06F5A689B680DC4FF
:1016C0002E487844763003AC0DC80DC43720C001D5
:1016D000081837211B30FEF7DBFF05460C46803D1E
:1016E0001B3C02D56442012000E000200027099045
:1016F00010E0E0070CD00C202049784379443246B2
:101700004C3941186846012300F054FA6B4607C370
:1017100064107F1C002CECD1184F7F442E3F16E044
:10172000E80712D02001C0190EC80691089307924D
:101730000068F04201D1981908903246012306A9A9
:1017400003A800F037FA03AB07C36D10641C002D2B
:10175000E6D10998002806D032466946012303A83D
:1017600000F07EFA05E001233246694603A800F046
:1017700021FA0A9B07C30DB0F0BD0000643C0000D5
:10178000034640000A4610B5400D0BD00121C907A1
:101790000F24A40200191C0364082143540D2143A3
:1017A000D20207E000210120F2E7D40F49002143D3
:1017B0005200401E0029F8DADB0FDB07184310BD8A
:1017C000FFB50D46144685B04868516803F085FCA6
:1017D00000910190A868A16803F07FFC029103903A
:1017E000A868616803F079FC029A1218824202929A
:1017F00001D2012000E00020019A0B18D218002825
:10180000019202D08A4202D903E08A4201D2012029
:1018100000E000200099081800906868A16803F0B3
:101820005CFC029A12188242029201D2012000E06E
:101830000020019A0B18D2180028019202D08A4287
:1018400002D903E08A4201D2012000E00020009981
:10185000081800902868216840004900400849089D
:101860004018FA49471814E001994000C90F08438D
:101870000090019802994000C90F08430190029816
:1018800003994000C90F08430290039840007F1E4F
:10189000039000980028E7DA0898002801D0EC4E61
:1018A00000E00026B74201DA012000E00020002815
:1018B00004902AD0F71BF806C00E15D0029B2021F9
:1018C000091A039A8B401A430392029A019BC24061
:1018D0008B401A430292019A009BC2408B400099B0
:1018E0001A430192C14000917B110DD06F46032035
:1018F000C11A03D500218200B95003E08A0081009B
:10190000BA587A50401EF3D53746039802990028FA
:1019100000D00120014308980291002808460CD00D
:10192000002800D001200199019A490508430121AE
:10193000D20AC902D202019200E001210E9B0122CB
:10194000D207012B02D0002B03D013E0002807D1CF
:1019500020E0904204D890420CD1019B0B4209D068
:10196000019B5918019105D10099491C009101D1A1
:101970007F1C009200280DD0102108460020C04690
:101980000498002806D00F98002803D008210846A4
:101990000020C04628682168019B009A4840C10F7A
:1019A0000598C90739430EC009B0F0BDFFB587B02F
:1019B000099A089808995368926840688968964619
:1019C0000022039317469446089A12685300099A16
:1019D0005B081268520052089A1A9E4BD4180A9A51
:1019E000002A01D0352200E0402206920022012385
:1019F00015460492DB07059324E0002D05D17546BA
:101A00000346039E4D1BB34109D375466646039BAF
:101A1000491B049D9841059B7519AC465F4163467F
:101A20003B4308D0059B049EDD0776082E435B08E8
:101A30000496059301E0521E641EC50FED07491878
:101A40004041521C069B9A42D7DB002D04D17546BB
:101A5000039A6B1A824101D203200CE0039A0B46D1
:101A60006B404240134303D0014303D0012002E006
:101A7000022000E0002061460191002100970291C0
:101A80000A99002905D0614640020143704B01913B
:101A900002E08007002302909C4201DA012000E06E
:101AA000002007003AD01A1BD006C00E15D0029DA8
:101AB0002021019C091AC5408C402543029C8C4082
:101AC00000D001242543019C0295009DC4408D4017
:101AD00000992C430194C140009154111DD06D46D2
:101AE0000221002202290CD10320001B07E000285C
:101AF00004DB8600AE59002E00D00122401C0328D2
:101B0000F5DB081B02D588002A5004E08000285825
:101B100010438A00A850491EE3D51C460A980028A5
:101B200002980CD0002800D001200199019A4905A3
:101B300008430121D20AC902D202019200E0012128
:101B4000109B0122D207012B02D0002B03D013E0FF
:101B5000002807D11FE0904204D890420CD1019B8D
:101B60000B4209D0019B5918019105D10099491CDC
:101B7000009101D1641C009200280CD0102108466D
:101B80000020C046002F06D01198002803D008215D
:101B900008460020C04608980999019A009B0068F1
:101BA00009684840C10F0798C907214382600AC0ED
:101BB0000BB0F0BD00B585B0019300920A46014616
:101BC000002302A8FFF7FCFD02A807C805B000BD6E
:101BD000FFB50A461F4685B007990193012300917E
:101BE000014602A8FFF7ECFD02990398049ECA0F74
:101BF0004900D20700920F22490892028C1A002154
:101C0000002800DB0C46450013486D08844214D3BD
:101C1000079A002A04DA441E0026104DF64302E01B
:101C200004460D460E46102108460020C046002FEF
:101C300003D0042108460020C0462005E90A0843D5
:101C4000009908436905F20A1143ADE602C0FFFF9F
:101C5000013C0000FF3F0000FF070000FFFFFF7F87
:101C600000B585B0019300920A460146002302A800
:101C7000FFF79CFE02A807C8A8E7FFB50A461F4663
:101C800085B00799019301230091014602A8FFF74F
:101C90008DFE02990398049ECA0F4900D207009254
:101CA0000F22490892028C1A0021002800DB0C4602
:101CB000450011486D08844214D3079A002A04DABB
:101CC000441E00260D4DF64302E004460D460E4626
:101CD000102108460020C046002F03D004210846EA
:101CE0000020C0462005E90A084300990843690519
:101CF000F20A114358E60000FF070000FFFFFF7FD4
:101D000010B5FF231B0644009C421DD84C009C428A
:101D10001AD80346124A0B4307D4401A02D3EFF3F2
:101D2000008010BDEFF3008010BD081A03D3EFF35D
:101D30000080904305E0EFF3008001219043C90744
:101D4000084380F3008810BD0D231B041A4204D001
:101D50001146002000F031F810BD00F045F810BD2C
:101D60000000009000487047880600207546FFF785
:101D7000F9FFAE46050069465346C008C0008546D7
:101D800018B020B5FEF734FA60BCB646002600272E
:101D9000C0C5C0C5C0C5C0C5C0C5C0C5C0C5C0C51B
:101DA000403D490849008D46704710B50446C0467D
:101DB000C0462046FEF7D5F910BDC80212D548032B
:101DC000400F002804D0C803C04301218840704759
:101DD000EFF300800001000903210907084380F3A5
:101DE000008870470020704710B5024800F004F8E2
:101DF00010BD00000000C07F10B50C461107090F90
:101E0000092904D00A290AD008290CD104E0114676
:101E10000820FFF7D2FF06E0510606D501E0510683
:101E200001D50120C007214610BDD10607D501010B
:101E30000909CC084907000E0006044309E0410FD8
:101E400020024907000A0143200E00061D22D1414D
:101E500001430846E7E7000001491820ABBEFEE752
:101E600026000200704770B58C180578401C6B077F
:101E70005B0F01D10378401C2A1106D10278401C67
:101E800003E00678401C0E70491C5B1EF9D12B073D
:101E900005D40023521E0DD40B70491CFAE70378B9
:101EA000401CCB1A921C03E01D780D70491C5B1C72
:101EB000521EF9D5A142D8D3002070BDB0B586B06E
:101EC0001B4C204600F020F801256802294600F04E
:101ED000FDFC00200590A902029120210191A90496
:101EE000049100906946204600F026F820462946D5
:101EF00000F002F806B0B0BD4A1E914142680123CD
:101F00009A4351184160704710B50121084A904228
:101F100004D0084A90420AD18C0200E04C02012110
:101F2000204600F0E1FC0021204600F0DDFC10BD61
:101F3000002401400028014010B54268084B1340BE
:101F40004A681A430B68134343608268054B134089
:101F50000A694C691C43144389682143816010BDA0
:101F60000080FFFF800000FF10B50F22920244683E
:101F700094439A02224342601F2905D801228A40D5
:101F8000C1681143C16010BDFA2906D0FF2908D1EC
:101F9000C168054A0A43C26010BDC168014A0A40CF
:101FA000C26010BD0000FFFFFFCF00004A1E91413C
:101FB0000902012212028368934359188160704715
:101FC0000A490A68002808D0082002430A60012054
:101FD000C2038868104388607047082082430A6003
:101FE0000120C20388689043886070470424014040
:101FF000F0B581B00925EC060821022620463246BC
:1020000000F0E3FB20462946324600F0DEFB0A21C1
:102010002046324600F0D9FB1D4D0D2128463246A0
:1020200000F0D3FB0E212846324600F0CEFB0F21F4
:102030002846324600F0C9FB6E46304600F0DCFB15
:10204000144800902046314600F05EFB01277802DC
:1020500030802046314600F057FBB80230802046E1
:10206000314600F051FB780330802846314600F0BD
:102070004BFBB80330802846314600F045FBF8039F
:1020800030802846314600F03FFB01B0F0BDC0462D
:10209000000400480001031810B50E4800687D21B7
:1020A000C90002F01FFF411E080E00D0FEE70A48DB
:1020B0000A4A51600A490B6803400324A4071B190C
:1020C0000B6000239360072313600A6802400A60D4
:1020D00010BDC046AC000020FFFFFF0010E000E094
:1020E00020ED00E081B00090034800990160016894
:1020F0000029FCD101B070472C08002010B5012444
:10210000600200F055F8002808D0200200F00AF81C
:102110000348007801F006F801F0D4FA10BDC0467B
:1021200020080020214908607047C0464A1E91419E
:10213000026801239A435118016070470168012227
:10214000914301600021016041608160C1601149DB
:1021500088420BDD1049884210D01049884210D0C7
:102160000F49884215D10F2000040EE00D49884226
:102170000AD00D4988420CD1F02006E00F20000261
:1021800003E00F20000300E00F2008490A68024323
:102190000A6070472F0002403000024044000240B5
:1021A00058000240080002401C00024004000240A7
:1021B000024909680840411E8841704700000240FA
:1021C000002A03D002680A430260704702688A430B
:1021D00002607047B0B502680C4B13408C681C431A
:1021E0000D6A4B6A8A6A25430C692C434D69254365
:1021F0008C692C43CD6925431D4315430560CA688E
:1022000042600A6882604968C160B0BD0F80FFFF0C
:10221000F0B58DB01E460092019104460125284676
:10222000294600F029FB2046FFF788FF02AF384619
:1022300000F028F800200C900B9020210A910990C2
:1022400008908021079106900596049000980390CD
:102250000198029020463946FFF7BCFF022620462F
:1022600031462A46FFF7ACFF054831462A4600F0C2
:1022700001FF20462946FFF759FF0DB0F0BDC046CB
:102280000038014080B52C21FEF79AF980BD00008E
:10229000F0B587B00C4607460125EE02304602F045
:1022A00021FE21464143B14200D0FEE700237B4995
:1022B000B44202D91E4606912AE00128029000D8B5
:1022C000029562080592012A00D805950026744AF5
:1022D0000D46019604970393234673435B190693B7
:1022E000022C059B0D4610D32F88974204D15B1E0C
:1022F000AD1C002BF8D109E00919761C029B9E4207
:10230000049F039B654DE7D102E0019E049F039B60
:10231000B042184600D00698002809D05F4988428C
:1023200000D16148011B38462246FEF7E1F800E083
:10233000DC43204607B0F0BDF0B587B00E46054639
:102340000127FC02204602F0CDFD31464143A14267
:1023500000D0FEE733463946059000264F4FA34292
:1023600030460497069327D805980128019000D895
:10237000019158080390012800D803910020484A91
:102380003C46009019464343DB1904930229039B02
:1023900002940FD32188914204D15B1EA41C002B10
:1023A000F8D108E0069B029CE418401C0199884281
:1023B000E8D101E00098069B0599814200D0049E77
:1023C00081421ED11C4600F093F9384600F06EF8A9
:1023D00000F0FCF800F08CF9324800F067F800F0EB
:1023E000F5F800F085F9640852D0002629883846AF
:1023F00000F0F4F8AD1CBF1C761CB0B2A042F5D3BF
:1024000046E0284CE01A864217D11F4600F070F9CA
:10241000204600F04BF800F0D9F800F069F97C088C
:1024200036D000272988304600F0D8F8AD1CB61CFD
:102430007F1CB8B2A042F5D32AE01B48C01A059011
:102440001C4600F055F90598864214D1384600F034
:102450002DF800F0BBF800F04BF9640818D0002705
:102460002988304600F0BAF8AD1CB61C7F1CB8B203
:10247000A042F5D30CE064080AD000272988304632
:1024800000F0ACF8AD1CB61C7F1CB8B2A042F5D36E
:1024900000F09CF8069807B0F0BDC046007C00082C
:1024A000FFFF0000008000080084000882B00146A1
:1024B0008D4A1068C00709D1106840070AD4106817
:1024C000C0060BD5032001280BD02DE001200128E8
:1024D00007D029E00220012803D025E004200128AC
:1024E00022D1384B00200090FF2000900098002857
:1024F00002D00098401EF8E71068C00707D11068A6
:10250000400706D41068C00605D5032004E001206A
:1025100002E0022000E004205B1E012801D1002B14
:10252000E0D1002B00D10520042848D150680223B7
:102530001843506091605068402101435160106819
:10254000C00709D1106840070AD41068C0060BD52F
:10255000032001280BD02CE00120012807D028E01F
:102560000220012803D024E00420012821D11549AC
:1025700000200190FF2001900198002802D00198CE
:10258000401EF8E71068C00708D1106840071846D9
:1025900007D41068C00603D5032002E0012000E044
:1025A0000420491E012801D10029E1D1002900D1D0
:1025B0000520012803D05168034B0B40536002B043
:1025C0007047C046FF0F0000FD1F00000248016871
:1025D00080220A43026070471020024010B582B08A
:1025E0000246414B1868C00709D1186840070AD451
:1025F0001868C0060BD5032001280BD02DE0012060
:10260000012807D029E00220012803D025E004207A
:10261000012822D10F2400200090FF200090009874
:10262000002802D00098401EF8E71868C00707D1BC
:102630001868400706D41868C00605D5032004E0D2
:10264000012002E0022000E00420641E012801D1E4
:10265000002CE0D1002C00D10520042841D15C6879
:10266000012004435C6011801968C9070AD1186809
:10267000400706D41868C0062AD50320012803D0D5
:1026800029E00220012826D10F2100200190FF20FF
:1026900001900198002802D00198401EF8E71868C0
:1026A000C00707D11868400706D41868C00605D5CA
:1026B000032004E0012002E0022000E00420491E83
:1026C000012801D10029E0D1002904D1052002E030
:1026D00004200128D8D0012803D05968034A0A40B1
:1026E0005A6002B010BDC0460C200240FE1F000020
:1026F0000248034901600349016070470420024019
:1027000023016745AB89EFCDF0B586B0CA780F23BA
:10271000144605931C400392D20601D58A781443CF
:1027200009880A060494009023D0024614320292CB
:10273000024610320192026800263746039805E0EF
:102740002B60049C361D7F1C082F10D00123BB403A
:102750000B42F7D02546B540059CB440A2432A431E
:102760002828029DECD04828EBD1019DE8E700988D
:1027700002600A0A27D00246143202920246103240
:10278000019247680020064605E01D60049C001D7C
:10279000761C082E15D001231D02B5402B460B4098
:1027A000AB42F4D123468340059C8440A7431F439A
:1027B000039A282A029BE8D0039A482AE6D1019B73
:1027C000E3E70098476006B0F0BDB0B5082901D333
:1027D000242300E02023C4584907C90E0F258D404B
:1027E000AC43C450C4588A402243C250B0BD806834
:1027F0000840411E884170470249418002490180DA
:102800007047C04602040000FFFF0000002004499A
:10281000044A435C1354401C0C28FAD17047C0464C
:10282000E8F7FF1F1507002070B501788278002AAD
:1028300015D0FC220A400D4BD4588D07ED0EFF2613
:10284000AE40B44340788001C0B2A8402043D0508D
:102850001F200840012181400548016070BD1F20F4
:102860000140012088400349086070BD00E400E099
:1028700000E100E080E100E0054A002903D0116892
:102880000143116070471168814311607047C04671
:1028900014100240054A002903D011680143116059
:1028A00070471168814311607047C0461C10024098
:1028B000054A002903D0116801431160704711686F
:1028C000814311607047C04610100240054A00293C
:1028D00003D0116801431160704711688143116092
:1028E0007047C04618100240054A002903D01168FD
:1028F0000143116070471168814311607047C04601
:102900000C100240B0B504461E4D28680C21014051
:102910000C2912D01C4808291CD1291F0A68920EC4
:10292000521C09684902490F491C2B68DB0306D475
:102930008048504302F0D6FA0CE015480AE02B68B4
:102940009B0303D4504302F0CDFA03E00F485043F9
:1029500002F0C8FA206028680006000F0D490A5CE2
:102960002068D04060602A685205520F8A5C034696
:10297000D340A3602A689204520F895CC840E0608B
:10298000B0BDC0460410024000127A0000093D00AC
:10299000409C0000AC53000805480168002902D0A3
:1029A0000168491E016003480168491C01607047C5
:1029B0002C08002098070020F0B589B0554E3068EB
:1029C00001221043306070685349014071603068E3
:1029D00052490140316090043168814331607F2069
:1029E000000471688143716030684D4F3840306039
:1029F0009F200004B060306802921043306030685D
:102A00008007FCD5474C48482060484D2868102175
:102A10000143296028680721884328602068401EF8
:102A2000434902F05FFA29680143296070687060C9
:102A300070687060029880027168014371600320C1
:102A400001900004716881437160306838403060E3
:102A50002368002001461F46039006460491701C1F
:102A60000590344D039C06E032496D18641C002F1C
:102A7000079206901ED0402C18D00897374628465B
:102A800005991E4602F02EFA3346311A00D2C11AB9
:102A90003E46089F8F42304600D806988F42224615
:102AA00000D8079A8F42DFD30F46DDE7049900294B
:102AB00006D009E00027079206900299002903D169
:102AC000059804280646C9D1124A106814490840DE
:102AD0001060079880060699C9B20905014310687D
:102AE000084310600120000611680143116010685E
:102AF0008001FCD5506801998843506050680221DC
:102B00000143516050680C2101400829FAD109B0F5
:102B1000F0BDC046001002400000FFF0FFFFF6FECF
:102B2000FFFF0F00AC00002000D8B80500200240D5
:102B300000366E01001BB700F0B58FB00091019018
:102B40000124E0022146FFF7C1FEDF4D284600F0D8
:102B5000B1F80AAE304600F033FA002737740D970B
:102B600000980A9001980C900B972846314600F087
:102B7000DFF906AE304600F0AFF950201B49085A85
:102B80007081042007902004019006900997284640
:102B9000314600F0E7F82846314600F01DF9284696
:102BA000314600F059F92846214600F03DF8202131
:102BB0002846224600F0CCF82846214600F06CF862
:102BC00002AE304600F027F8A003B0810848049018
:102BD00008480290019803902846314600F00CF80E
:102BE0002846214600F04CF80FB0F0BD0206002048
:102BF00000100020000800080A884B8813438A88C8
:102C00001A43CB8813430A891A434B891343898992
:102C10001943416470470021818141810181C18054
:102C200081804180018070474268002903D00121E2
:102C30000A434260704767490A4042607047C04695
:102C400010B501238B40046A9C43A3B203628A40FF
:102C500091B2026A0A43026210BD000010B504235B
:102C60008B409BB2054CE41C5C40036A234003622A
:102C70008A4091B2026A0A43026210BDFCFF000062
:102C80000268002903D001210A43026070475149BC
:102C90000A4002607047C046426C054B002903D0D1
:102CA000591C0A43426470471A4042647047C04648
:102CB000FF7F000010B5234988420BDDBD498842E3
:102CC00014DCB74988421AD01F4988422ED101210D
:102CD0000C042EE001218A0790421AD0B24A904299
:102CE00025D0B04A904221D14C030AE0B349884232
:102CF00013D0B149884219D101218C0401E001218E
:102D0000CC022046FFF7F0FD00212046FFF7ECFD46
:102D100010BD0124204621460CE001214C04204630
:102D2000FFF7E2FD00212046FFF7DEFD10BD022483
:102D300001212046FFF7BCFD00212046FFF7B8FD2A
:102D400010BDC046FF2B014000400140416170476B
:102D5000002A03D0C2680A43C2607047C2688A432F
:102D6000C2607047F0B5026AC14B13400362026A49
:102D700002239A430B8913434A881A4345680B88F8
:102D800084698C4EB04206DC864EB04209D0844E37
:102D9000B04206D013E0884EB04202D0874EB04217
:102DA0000DD10C26B2434E890427BE4316438A88B0
:102DB00032437F4E35408E892E43CD893543ADB2A7
:102DC0004560444D2C401C438461C988416391B2E5
:102DD0000162F0BDFEFF0000F0B5026A1A4B13401D
:102DE0000362036A202293434A880C891443220118
:102DF0001A4345680C888369694EB04202D0694E17
:102E0000B04214D1C026B2434E8936014027BE439A
:102E100016438A88120132430C4E35408E89B60023
:102E20000B4F37402F43CD89AD003D43ADB2ADB21E
:102E30004560084D2B4024021C43A3B28361C9881E
:102E4000816391B20162F0BDEFFF0000FFF300006B
:102E5000FCF70000FF8C0000F0B5026A194B13402C
:102E6000036201225202036A93434A880C89144385
:102E700022021A4345680B88C469494EB04202D009
:102E8000484EB04212D10326B602B2434E893602F2
:102E90000E4F374017438A8812023A430C4E354092
:102EA000CE898F8937433E012E43B5B2ADB245601E
:102EB000084D2C401C43C461C988C16391B20162B2
:102EC000F0BDC046FFFE0000002C014000FBFFFFEC
:102ED000FFCF00008CFF00000021C1818181418172
:102EE0000181C180818041800180704710B501233C
:102EF0008B40046A9C43A3B2036218300823DB436F
:102F000019420AD0091F89B24908435807242403EB
:102F1000A34343504018120205E049080B5870249F
:102F2000A3430B50081891B202680A43026010BD17
:102F300002681A4B984207DC01239B07984209D08C
:102F4000194B984206D00AE0154B984202D0154B17
:102F5000984204D1154B1A404B68134300E01346C6
:102F6000134A1A408B89134303608A68C2620A6855
:102F70008262104A904206DC0A4A904209D0084A0E
:102F8000904206D007E00C4A904202D00B4A904291
:102F900001D1097C0163012141617047FF070140B4
:102FA000002C014000080140000400408FFF000099
:102FB000FFFC0000FF430140004801400044014085
:102FC0000021034A0174016041608260C160704762
:102FD000FFFF0000F0B585B005460124A00321469F
:102FE000FFF774FC60042146FFF754FC01AE304645
:102FF00000F0BEF80027B781302002900195032031
:10300000C0040390594D2846314600F043F8284645
:10301000214600F021F80E4C0E4D06E01821E05D2F
:1030200001F0A8FBFF1C122F0FD0E05DA98B81429D
:1030300002D0E98B8142F5D1E619717801F0BCFB31
:10304000B0780028EAD10421E9E705B0F0BDC04618
:10305000235F0008020600208269002903D00121B5
:103060000A438261704702490A4082617047C04644
:10307000FEFF0000002A03D082690A438261704784
:1030800082698A438261704780680840411E884196
:103090007047000070B584B00D460446FF20D03064
:1030A000E1698143A888EA880243288910430843DC
:1030B000E061A88969890143A0691F229043084300
:1030C000A0616E463046FFF71DFC0848844201D0DF
:1030D0000C3600E008363068296801F003FF01096A
:1030E00021620F210140616204B070BD00440040C4
:1030F000C9B2016070470000B0B5044600780028EE
:103100000ED01A4DC1B22846FFF7F2FF0121284622
:10311000FFF7BAFF0028F9D06078641C0028F1D1CD
:10312000B0BDC04610B50146104C2046FFF7E0FF89
:1031300001212046FFF7A8FF0028F9D010BDC046A6
:1031400070B5002910D00C460546084E2978304647
:10315000FFF7CEFF641E01213046FFF795FF0028E0
:10316000F9D06D1C2004F1D170BDC046003801407B
:103170000021818130210322D2044B23DB01036033
:1031800041608260704700000021214A1378834229
:1031900004D0121D491C0D29F8D10D2188001C49AD
:1031A0000818408809280CD87844007940008744E2
:1031B000040B0F13171B1F232B271648006880B220
:1031C0007047002080B270471248406880B2704754
:1031D0001048806880B270470E48C06880B270475F
:1031E0000C48006980B270470A48406980B2704755
:1031F0000848806980B270470648C06980B270474D
:103200000448406A80B270470248006A80B2704742
:10321000BC53000818240140F0B5A7B0DB4C20785F
:10322000801E082800D9BBE04000C0467844808852
:103230004000874408001C006700E200B500280138
:1032400086009400B200FFF7E1FAEB48FFF754FF65
:103250001D200101E948FFF773FFE948FFF74CFF24
:10326000E8480078002800D13AE1E84839E1DE4832
:10327000FFF742FFDD480121017000BF00BF017868
:103280000029FAD12078032800D089E0C24C01251A
:1032900020462946FFF700FD7D2040016063A063C2
:1032A000E063C648222739462A46FDF762F9D0482E
:1032B00039462A46FDF75DF9CE4E304639462A4654
:1032C000FDF757F9B6480188002209E00020C84BF5
:1032D0009854BA4B9854B054521C222A00D1F8E0AA
:1032E00093B29942F2D0AE48871C002420460F2C9E
:1032F00005D0441CBD1C3F889F422F46F6D10E28A6
:10330000E4D9E9E7B348FFF7F7FE0026A44D02E051
:10331000761C212C46D2F4B22888A042F8D0A81CF2
:10332000002211460F2A05D04A1C831C0088A042A7
:103330001846F6D10F29EBD34821204601F01AFA9E
:10334000E6E79848FFF7D8FE9748002101709748B4
:103350000170974801809748017027B0F0BD8D48F3
:10336000FFF7CAFE8C4C01212046FFF795FC002098
:103370006063A063E06389490860894D287804246C
:10338000214601F0F7F9A878214601F0F3F92879F0
:10339000214601F0EFF927B0F0BD7D48FFF7ACFE04
:1033A00027B0F0BD2888002303E001224B1C002A2F
:1033B00012D01946DAB29042F7D0AB1C0026344640
:1033C0000F2E05D0661C9F1C1B8893423B46F6D1EE
:1033D0000F2CEAD30022E9E77F4C21707F48FFF7EA
:1033E0008BFE2078052141437D484018FFF784FE7D
:1033F0007C48FFF781FE27B0F0BD7148FFF77CFEE7
:10340000654D012428462146FFF746FC12946003CF
:103410006863A863E8636B480025057000F00EFF41
:10342000FEF74CFD694B5E4E694C2F46119514E03A
:10343000A178002664483246129D2B46FEF794FD83
:103440002078314601F096F92946119D5F4B544E84
:103450005F4CE1557F1C0D2F35D0BA00985C318848
:1034600081422946F5D09C18B11C00231A460F2B27
:1034700005D0531C8E1C098881423146F6D10F2A93
:10348000D6D20021E2E74C48FFF736FE0024444D37
:103490004A4E02E0641C222C82D0A0B229888142CC
:1034A000F8D0A91C00231A460F2B05D0531C8F1CE3
:1034B000098881423946F6D10F2AEBD3E0B201F0F8
:1034C00035F83055E6E701213F48FEF76FFD27B09C
:1034D000F0BDFF20324948808880088027B0F0BDC9
:1034E0004948FFF709FE4A480068FDF799FD129028
:1034F000119148480178109141780F918478C578EE
:103500000679477981790E91C1790D91017A427AD4
:10351000837AC07A089109920A930B9010980090D0
:103520000F9801A9F1C10E9806900D98079013AC61
:1035300039492046129A119BFCF77EFE2046FFF780
:10354000DBFD3648FFF7D8FD35A0FFF7D5FD3C4839
:10355000FFF7D2FD3B48FFF7CFFD3B48FFF7CCFD1F
:103560003A48FFF7C9FD3A48FFF7C6FD39A0FFF713
:10357000C3FD46A0FFF7C0FD4CA0FFF7BDFD5048BE
:1035800007498022FCF7B4FF27B0F0BD9C0700205C
:10359000F05D0008FE590008002C014034080020AE
:1035A00002060020A45C0008F60600200A0700209E
:1035B0000C070020320800203F5800082407002094
:1035C000FD5800088206002000240140BC5300087A
:1035D000EC0600208B56000830080020CF5D000864
:1035E00000000020925C0008E85B00084008002012
:1035F000480700206C070020F8590008300400201C
:10360000C35D0008940700204E5E0008B55E000808
:103610003C08002015070020945B0008CF5A0008E2
:1036200020202831292D4175746F206465746563ED
:103630007420616C6C2070696E732E0A0D0000009E
:10364000505B00082C5B0008AA5A0008715B000858
:103650000A5B000820202837292D4D6F64696679A0
:1036600020636F6E66696775726174696F6E73202F
:103670006D616E75616C6C7920627920636F6D6D20
:10368000616E64206C696E652E0A0D00202028385A
:10369000292D54657374206D6F746F7220726F746E
:1036A0006174696F6E2E0A0D000000002020283919
:1036B000292D506F776572206F66662E0A0D3E00C9
:1036C000A0070020F0B5A5B0B64D2878401E092807
:1036D00000D9E9E14000C046784480884000874432
:1036E0000900150032004A005C00E3017A009900ED
:1036F000D3001001AC4800780D2802D00A2800D071
:10370000D2E1AA480121017002205EE0A6480078BB
:103710003138082800D9C7E14000C0467844808885
:103720004000874408002F0239023E02430245024E
:103730004F02540269029D48012101700320287044
:103740009B4800F050FC98480078682800DDEFE0C6
:103750000A2802D00D2800D0A6E19548007800285C
:1037600000D1CCE1914801210170042028709148DA
:1037700000210160C5E18C4E30780146623918297C
:1037800000D9E2E101228A408B4B1A4200D1BAE112
:10379000772800D1D5E00421D4E0834800780A28B6
:1037A00005D0662800D12DE10D2800D031E18048F8
:1037B0000178002900D140E180490978002900D131
:1037C0003BE17A48012101700720287079480021E7
:1037D000016025B0F0BD744800780A2805D065283E
:1037E00000D142E10D2800D05EE17548028875499C
:1037F0000B88934200D03BE10222802A00D1BAE13B
:10380000835A8C5A921C9C42F7D06848012101705F
:103810000A20EDE1644800780A2805D0202800D16C
:103820002FE10D2800D030E1674C20780146653942
:10383000132900D944E249007944898849008F441A
:103840001300630287029B02630263026302B502F4
:1038500063026302630263026302BE0263026302E5
:1038600063026302E7022D0305AC8025FF22204698
:103870002946FCF77EFE20462946FEF75DFD00281E
:1038800000D13CE3514899E3474800780A3823289F
:1038900000D909E14000C046784480884000874450
:1038A00023000301030123000301030103010301BA
:1038B00003010301030103010301030103010301E8
:1038C00003010301030103010301030103010301D8
:1038D00003010301030103010301030103010301C8
:1038E0000301050103011001394800244463846386
:1038F000C4632146FFF7D0F93648047000F09EFCFF
:1039000039E1294800786E2800D134E1792816D1B0
:103910002B488021FEF710FD002800D128E12EA0C1
:10392000FFF7EAFB2148012101700220287022E103
:10393000692800D1D4E0792800D1E2E0B4E02CA0DD
:10394000BAE148212C4D287800F014FF1C4C327845
:10395000623A182A00D981E1A11D28485200C046C8
:103960007A449288520097441800790179017901CC
:1039700079015F01790179017901790163017901A7
:1039800079017901790179016E0179017901670184
:1039900079017901790179016B0121460A311848D1
:1039A00051E1C0469C070020200800208E0700201F
:1039B000140700202C08002021042901940700206E
:1039C00002060020A00700200A070020CE5E0008A3
:1039D000002C0140820600200D0A636F6E66696745
:1039E00075726174696F6E2073617665640D0A008B
:1039F0000D0A592F4E3F000030080020BB5D000823
:103A0000915D0008FA4801784A424A41027025B0A7
:103A1000F0BD01463039092946D88000F5494018E3
:103A2000C0380078F44C2083F4A0FFF765FB208BAE
:103A300005214143F34840183EE1F34A002111605B
:103A4000ED4A1488F14B1E88A64208D10224802C2E
:103A500000D190E0165B1F5BA41CB742F7D0FB4A75
:103A6000012313700A222A70BDE2F9480121BAE24B
:103A7000F648012101700A202870F64800210170E3
:103A800012E0F5480178491CADE2F34909780229B2
:103A900000D141E1012900D14CE1002904D1EF49D5
:103AA0000A78002A00D127E225B0F0BDEC48026870
:103AB000E12189008A4200DB0A466432026001ACDF
:103AC00008E0E7480268E7498A4200DC0A46643AAF
:103AD000026005ACE4492046FCF7AEFB2046EBE073
:103AE0005024D74D285B414241412953DF48FFF71D
:103AF00003FB285B002800D18CE0DD488BE000F060
:103B000071FFDC4876E011291FD1DB4C2078482179
:103B100000F030FE2078CA490A8802E00F2D00D359
:103B2000BCE0030601D0401E00E02120C3B29A424F
:103B3000F7D08C1C002635460F2EEFD06E1CA71C2C
:103B400024889C423C46F6D1E8E70D2802D00A289A
:103B500000D0A5E0BF480078002800D1B6E0BB48FF
:103B60000121017005202870B74800210160AFE0F5
:103B7000C2A0FFF7C1FAB5480121017002202870E8
:103B800025B0F0BDB1480121017003202870B14873
:103B900000220270AE4826E2AC48012101700420E8
:103BA00026E0AA4801210170052021E0B94883E000
:103BB000B9480078002800D186E0A44801210170AE
:103BC000072015E0A14801210170082010E09C4861
:103BD0000188212900D964E14188212900D960E1C7
:103BE0008088212800D95CE19848012101700920D2
:103BF000287098480021F6E1A7480078002863D093
:103C0000FA48FFF779FA8E48007D042100F0B2FDF2
:103C100025B0F0BDF648FFF76FFA01204003002100
:103C2000FEF78AFF25B0F0BD21460831F1480AE0D1
:103C300021460E31F04806E021460C31EF4802E003
:103C400021461031EE482A780A80FFF755FA287885
:103C5000052141437B484018FFF74EFA307877281A
:103C600002D0E948FFF748FA2878218801E00F2DB3
:103C700014D2C2B2212A01D0401C00E00020C2B2FE
:103C80009142F6D0A31C002635460F2EEFD06E1CB5
:103C90009F1C1B8893423B46F6D1E8E776490870A3
:103CA000D848FFF729FA7448007805214143FC48B9
:103CB0004018FFF721FAD548FFF71EFA25B0F0BDEE
:103CC000002821D100BF7BE1D148F5E700F08AFE52
:103CD0000025D04E02E06D1C212CE1D2ECB23088E0
:103CE000A042F8D0B01C002211460F2A05D04A1C71
:103CF000831C0088A0421846F6D10F29EBD304217B
:103D0000204600F037FDE6E7EA48FFF7F5F92078AE
:103D1000FFF708FAE8A051E1DE490A78931E5A42FB
:103D20005A4103463A3BDBB25B087B2B00D2BAE038
:103D30000023B9E0D1490A78931E5A425A410346FA
:103D40003A3BDBB25B087B2B00D2B4E00023B3E04C
:103D5000B9A0FFF7D1F90026AE4FBEA4BA5B05ADFE
:103D600028462146FCF768FA2846FFF7C5F9B61C35
:103D7000802EF3D1B9A021E1BA48FFF7BDF90024A4
:103D8000B94DBD4F05AE3046B8A12246FCF754FAF6
:103D90003046FFF7B1F92846FFF7AEF93846FFF78E
:103DA000ABF90E35641C402CECD109E10025ECB2D6
:103DB000204600F025FD6D1C3F2CF8D300E1AF48F4
:103DC0000078022800D0BAE0AD480078AD4C00265B
:103DD0002654A54D20462946FCF7F4FB002800D1C7
:103DE0008FE00E35761C402EF4D1FF248AE0C046C9
:103DF00031080020BC530008020600200D0A56427C
:103E000041543A00000000202C080020A0070020A8
:103E10009A480078022800D09CE099480078994C94
:103E200000262654904D20462946FCF7CBFB00285F
:103E300074D00E35761C402EF5D1FF246FE0C046BD
:103E400002060020000000202C0800208E07002021
:103E50002107002014070020320800200A07002054
:103E6000340800207CFCFFFF885C0008E65C00084A
:103E7000455E000840080020300800200D0A454536
:103E800050524F4D207772697465206661696C6588
:103E9000640D0A00085D00089407002000F0A2FDF0
:103EA0008EE08A4808E701231343012B11D17A4A97
:103EB00013787A4C06E001231343012B14D1704A86
:103EC0001378704CE05402200870581C107025B014
:103ED000F0BD01220A7073490A880A235343C018AF
:103EE0003038088025B0F0BD01220A7066490A7892
:103EF0000A235343C0183038087025B0F0BD48A0DD
:103F00005CE0F4B2FF2C16D16048FFF7F5F85D488D
:103F1000FFF7F2F85E48FFF7EFF80EE0F4B2FF2C7F
:103F200014D15A48FFF7E8F85648FFF7E5F8584823
:103F3000FFF7E2F80CE054480470FF2C40D05248E0
:103F400000783F2839D800F05BFC39E04E48047017
:103F5000FF2C35D04F480078022822D14E480078F7
:103F60004E4C002626544E4D20462946FCF72AFB8F
:103F7000002805D06D1D761C222EF5D1FF2400E00F
:103F8000F4B2FF2C09D148A0FFF7B6F84348FFF779
:103F9000B3F83F48FFF7B0F801E042480480FF2C37
:103FA0000ED0394800783F2807D841003D4A128892
:103FB000184B5A5200F024FC02E03D48FFF79CF8F1
:103FC0004148FFF799F8304800210170134801700B
:103FD00034480180104801702F4801702848017052
:103FE0002C4801702548017025B0F0BD345D0008F3
:103FF000545E0008B35D0008A65D0008995D0008E6
:10400000E65D0008CF5D0008F5590008925C0008E5
:10401000215D000802060020320800200A07002067
:104020000D0A454550524F4D2065726173652066FB
:1040300061696C65640000000D0A75696E74313643
:104040005F742070696E73746F726167655B36347C
:104050005D3D7B0025692C200000000008087D3BA9
:104060000000000006550008B0000020696E64657D
:10407000782025693A200000F5590008F80600204C
:10408000F7060020F9060020F6060020F15C000883
:10409000125F00080F0700200E0700201007002005
:1040A000000000200C0700200D0A70696E2022001D
:1040B000BC5E0008FD5C000822646F6573206E6FB3
:1040C0007420657869737400955C00085D5D000874
:1040D00070B50C4C20680C4D2968081AC92810D3FB
:1040E0000A4E3078002801D0042100E04821084819
:1040F000007800F03FFB2868206030784142414161
:10410000317070BD9007002098070020090700203B
:1041100030080020F0B581B03A4D287800283ED014
:10412000394EB08AFF21B1827082C0B2042100F002
:1041300021FB002702E07F1C212C19D2FCB2308821
:10414000A042F8D00020C043B11C0E2808D08A1C21
:10415000401C0988A1421146F7D10F28EBD302E099
:104160000F200F28E7D34821204600F003FBE2E7A9
:1041700000F070F92549087000283BD02948FEF767
:10418000BBFF708A05246043274F3818FEF7B4FF41
:1041900026A0FEF7B1FFB08A604338182BE0002557
:1041A000194E254F02E06D1C222D28D0ACB230886C
:1041B000A042F8D0B01C002211460F2A05D04A1C9C
:1041C000831C0088A0421846F6D10F29EBD3785DF6
:1041D0000028E8D1E8B200F0A9F90028E3D0748201
:1041E0001048FEF789FF052068430F490818FEF7BD
:1041F00083FFD8E706A0FEF77FFF0020287001B0FC
:10420000F0BDC046210700200206002094070020D0
:10421000576F726B61726F756E64206661696C6551
:1042200064000000DC5D0008000000200D0A4C6105
:104230007463683A0000000024070020F0B581B0E4
:1042400082480078401E824C052829D8784400799D
:1042500040008744023D6083A6C90426002520460D
:1042600031462A46FEF7ECFC204631462A46FEF748
:10427000F5FC6026204629463246FEF737FE01222D
:1042800020462946FEF7DCFC204629462A46FEF752
:10429000E5FC0825204629463246FEF727FEC5E004
:1042A0000025204629462A46FEF7CAFC0426204659
:1042B00029463246FEF7D2FC204631462A46FEF712
:1042C000BFFC204631463246FEF7C8FC0825ADE06B
:1042D0000025204629462A46FEF7B2FC20462946FC
:1042E0002A46FEF7BBFC04276026204639463246A4
:1042F000FEF7FCFD012220463946FEF7A1FC2046D0
:1043000039462A46FEF7AAFC0825204629463246A9
:10431000FEF7ECFD8AE008260025204631462A46B5
:10432000FEF78EFC204631462A46FEF797FC04270E
:104330006026204639463246FEF7D8FD0122204647
:104340003946FEF77DFC204639462A46FEF786FCB4
:10435000204629463246FEF7C9FD67E004260025BF
:10436000204631462A46FEF76BFC204631462A4657
:10437000FEF774FC08276026204639463246FEF7D1
:10438000B5FD012220463946FEF75AFC2046394643
:104390002A46FEF763FC204629463246FEF7A6FD74
:1043A00044E00025204629462A46FEF749FC2046DF
:1043B00029462A46FEF752FC082760262046394641
:1043C0003246FEF793FD012220463946FEF738FCBF
:1043D000204639462A46FEF741FC04252046294658
:1043E0003246FEF783FD21E00826002520463146AF
:1043F0002A46FEF725FC204631462A46FEF72EFCCB
:104400006026204629463246FEF770FD01222046EE
:104410002946FEF715FC204629462A46FEF71EFCD3
:104420000425204629463246FEF760FD002220463C
:104430002946FEF705FC042220462946FEF70EFC1D
:1044400020212046FEF782FC01B0F0BD820600204C
:10445000002C0140F0B581B000F016FD6420FDF79E
:1044600041FE0021A8480F4604E000997F1C212D41
:10447000A5483BD2FDB20288AA42F7D000910022A3
:10448000022411460F2A04D0035B4A1CA41CAB4231
:10449000F7D10F29E9D322480668A048046800989C
:1044A000002804D1984885828021FDF745FFC83651
:1044B000A4B20A340421284600F05CF9009903E014
:1044C00017480068B042D1D89448006880B2154AB5
:1044D0001060A042F4D94821284600F04BF9EB487F
:1044E00085820A20FDF7FEFD0121E9E700290C463F
:1044F00004D10D4981828021FDF71EFF87480068A5
:1045000080B2FCF75EFC02460B4685488549FCF705
:10451000EFF9FCF7AFF984490860E0B201B0F0BDF3
:104520009807002038080020FFFF000010B5062182
:104530004143AF4A505C431E032B09D80920C006F3
:104540007B441B795B009F4408010507AB4804E0EE
:10455000002010BDA84800E0A64851184988FEF781
:1045600046F910BD80B582B001AA01239370517045
:1045700010701046FEF758F902B080BDF0B581B05A
:104580000546C24F3878FFF7D1FF0446B878FFF7E9
:10459000CDFF06463879FFF7C9FF71000919800081
:1045A0000818012D01D00721081AC0B20149085C82
:1045B00001B0F0BDF053000882B00125680429461F
:1045C000FEF75AF9A8042946FEF756F9E8042946E9
:1045D000FEF752F928052946FEF74EF950204A4EBB
:1045E00035521E20F0831D200090B083FDF754FD4E
:1045F000FDF7FEFC680300242146FEF79DFA4B20E0
:104600000002FEF7E7FC0A20214601942246FFF74C
:10461000A9FF3E483E493F4A2B46FDF7F9FD00F011
:10462000C7F900281DD0B08A212805D8C0B248217A
:1046300000F0A0F83848057000F026FC6420FDF773
:1046400051FD3648006880B2FCF7BBFB02460B46C2
:1046500033483449FCF74CF9FCF70CF9324908604F
:1046600009E000F0F9F97D20C000FDF73BFDFFF700
:10467000F1FE294908702D4F3D702D4D3CA628783C
:10468000002803D001982870FEF7C6FD3878401E38
:104690000828F4D878440079400087440807282B7C
:1046A0002E073107040000F0B3FBE8E7E7E721A09D
:1046B000FEF722FD009801012048FEF741FD20A0F1
:1046C000FEF71AFD24A0FEF717FD38780128D6D191
:1046D000019C3046FEF710FD6420FDF703FD601CD1
:1046E0003978302CCBD801290446F2D0C7E700F046
:1046F000D1F9C4E7FFF7ECFCC1E700F0D5F8BEE75D
:10470000FFF708FDBBE7C04602060020300002406C
:104710000438014020080020940700205424014060
:10472000333333333333B3403C0800209C0700203D
:104730008E0700200A0A0A0A0D000000300400203B
:1047400057656C636F6D6520746F2050696E4669A4
:104750006E6465720A0D0000707265737320656E79
:1047600074657220746F20636F6E74696E75650076
:104770002E000000B0B5062343431D4CE05C421EF2
:10478000032A16D80920C0067A44127952009744A9
:1047900006010305194802E0174800E01548054ADC
:1047A000D17003219170E118498811801146FDF7FD
:1047B000ABFFB0BDE8060020B0B50A460621414374
:1047C0000B4B585C441E032C11D80920C006C04670
:1047D0007C4424796400A74406010305074802E0ED
:1047E000054800E0034859180979FDF7EEFFB0BD10
:1047F0003A540008000C0048000800480004004833
:10480000F0B589B004461F48FEF776FC0E206043E1
:104810001D490D182846FEF76FFC2846FBF746FE9B
:104820000D280CD000262020FEF77CFC2846FBF744
:104830003DFE0D21081A761CF1B28842F3D86600BD
:10484000124FBB5B01AD12A128462246FBF7F4FCD8
:104850002846FEF751FC202C11D2BC192820FEF767
:1048600061FC2088222801D30DA003E005214143EB
:104870000A484018FEF740FC2920FEF753FC09B017
:10488000F0BDC046F5590008B00000200206002027
:1048900028253269293A20253569200000000020AA
:1048A0006E6F742073657400F0B589B000242E4ECD
:1048B0001FE001AD284634A12246FBF7BDFC284687
:1048C000FEF71AFC30780521414331484018FEF7C5
:1048D00013FC3846FCF7A4FB02460B4628462DA1E4
:1048E000FBF7AAFC2846FEF707FC361D641C0D2CBE
:1048F00031D01E48005D0028F7D03078FEF744FC28
:10490000FCF767FA05460F4619480068FCF788FB74
:1049100002460B4628463946FCF75EFA00252A4631
:10492000144BFCF759FA2A46134BFCF755FAFBF7E0
:10493000A1FF0746114800780028BAD1384610492F
:1049400000F005FC0028D0D138460E4900F0F4FBF9
:104950000028AED0C9E711A0FEF7CEFB7D200001F4
:10496000FDF7C0FB09B0F0BDBC530008EC06002009
:104970003C08002000003F400000303F310800208C
:104980000000A0410000344225692D3E00000000D7
:10499000000000203A2566560A0D00003D3D3D3DD1
:1049A0003D3D3D3D3D3D3D3D3D3D3D3D0A0D000014
:1049B00010B5A0B06C4680212046FDF769FC402070
:1049C000205A0749884207D1F84869468022FBF7F8
:1049D0008FFD012020B010BD002020B010BDC046CA
:1049E000ABDC0000B0B5F14B1888174A1188814242
:1049F0001FD10020C143921C9B1C3E2912D09C1C3D
:104A0000951C491C1B8812889A4223462A46F4D0DA
:104A10000E4A012313700E4A0A2313700D4A1070B8
:104A20003F290FD309480121017009480221017073
:104A3000B0BD06480121017005480A2101700548F2
:104A400000210170B0BDC046A00700208E070020E5
:104A50009C0700201407002070B50025D34E02E00B
:104A60006D1C212C15D2ECB23088A042F8D0B01CBD
:104A7000002211460F2A05D04A1C831C0088A04240
:104A80001846F6D10F29EBD348212046FFF772FED6
:104A9000E6E770BDF0B583B0C44C6088FF38414292
:104AA00041412088FF38424242410A43A088FF38F2
:104AB000414241411143012900D03EE101200190D2
:104AC0000121BD4E03E00129029900D035E1B8482B
:104AD00002910170FFF7B2FB1E20FDF703FB0025DA
:104AE00008E04E5D701E86414E55B34E6D1C222D62
:104AF00000D1B0E0A8B221888142F7D0A11C0023E8
:104B00001A460F2B05D0531C8E1C09888142314652
:104B1000F6D10F2AA84EE9D3A5480078401E0528F3
:104B2000E4D8C0467844007940008744021C2B4BEF
:104B30006573EFB23846FFF7F9FC002600283046CF
:104B400003D19C48405D411E88419A4948553846EA
:104B5000FFF7ECFC00283046974A02D0505D411E1A
:104B60008841505527E0EFB23846FFF7DFFC0026BA
:104B70000028304603D18F48405D411E88418D4951
:104B800048550CE0EFB23846FFF7D0FC002600286D
:104B90003046884A02D0505D411E88415055384603
:104BA000FFF7C4FC0028304603D18348405D411E16
:104BB0008841814948553846FFF7B8FC00287F49AD
:104BC0008FD191E7EFB23846FFF7B0FC00260028FE
:104BD0003046784A02D0505D411E884150553846D3
:104BE000FFF7A4FC0028304603D17348405D411E06
:104BF00088417149485526E0EFB23846FFF796FCE8
:104C00000026002830466B4A02D0505D411E884184
:104C100050550DE0EFB23846FFF788FC002600281B
:104C2000304603D16348405D411E88416149485583
:104C30003846FFF77BFC002830465F4A02D0505DC3
:104C4000411E884150553846FFF770FC00285B49EB
:104C500000D049E745E70299481C0629014600D2E1
:104C600035E70025564F03E07F1D6D1C222D20D017
:104C70005048405D002806D0258052A0FEF73CFA3F
:104C80003846FEF739FA705D002806D0658050A0DE
:104C9000FEF732FA3846FEF72FFA4848405D002802
:104CA000E2D0A5804DA0FEF727FA3846FEF724FA99
:104CB000DAE72227012202923E4D28463946FBF7C9
:104CC00058FC30463946029AFBF753FC3B483946BC
:104CD0000746029AFBF74DFC2088002106E00022DF
:104CE00072546A547A54491C222913D08AB29042D1
:104CF000F5D0A31C002635460F2E05D06E1C9F1C38
:104D00001B8893423B46F6D10E2D2A4D2A4E2B4F3F
:104D1000E5D9E8E7A188FF39484248416288FF3A6F
:104D2000514251412288FF2A019A00D00A46002AA6
:104D3000019900D0C7E60146C5E62B48002606606B
:104D4000466086602948007800282CD028A0FEF70D
:104D5000D3F9A088618822882B4B344602E0F61CE8
:104D6000422E15D09F5DBA4204D0B94207D0B84256
:104D7000F5D109E09D19AD782C19B942F7D19D19EB
:104D8000AD782C19B842EAD19D19AD782C19E6E717
:104D9000E0B2002804D0032802D01C48FEF7ACF98A
:104DA00000201249087003B0F0BDC0460206002082
:104DB0008206002024070020480700206C070020FE
:104DC000000000200D0A48414C4C413A0000000010
:104DD0000D0A48414C4C423A000000000D0A48417F
:104DE0004C4C433A00000000342C014021070020C5
:104DF0000D0A446574656374696F6E20737563652D
:104E0000737366756C000000F85300085B5E000861
:104E1000B0B5164C2078FFF7B1FB154D29788842C4
:104E200007D02078FFF7AAFB287012490870FFF717
:104E300005FA4A201049095A1048006848431049A9
:104E400001258842294600DC002121707D21C9000E
:104E500000F06AF8FBF7B5FFEA079143FBF76CFF38
:104E60000849086048608860B0BDC0460006002060
:104E700001060020820600200206002034080020DF
:104E8000E7030000342C014070B586B0144C204676
:104E9000FDF73AF8012568022946FDF717FD0026BF
:104EA0000596A802029020200190A8040490009684
:104EB00069462046FDF740F820462946FDF71CF8D4
:104EC0000F21204632463346FDF74EF82846FDF7BF
:104ED00077F820462946FDF769F806B070BDC04650
:104EE0000024014043088B421AD3002203098B425D
:104EF00079D3030A8B425ED3030B8B4242D3030C5C
:104F00008B4227D30902FF2212BA030C8B4202D331
:104F10001212090203D0030B8B4233D31AE0D3E001
:104F2000411A8041401C704703460B4371D443082B
:104F30008B42F5D3002203098B4254D3030A8B42E0
:104F400039D3030B8B421DD3030C8B4202D39446FF
:104F50006EE0090AC30B8B4201D3CB03C01A524146
:104F6000830B8B4201D38B03C01A5241430B8B42FC
:104F700001D34B03C01A5241030B8B4201D30B03E5
:104F8000C01A5241C30A8B4201D3CB02C01A52410C
:104F9000830A8B4201D38B02C01A5241430A8B42CF
:104FA00001D34B02C01A5241030A8B4201D30B02B8
:104FB000C01A5241CDD2C3098B4201D3CB01C01AD2
:104FC000524183098B4201D38B01C01A52414309DC
:104FD0008B4201D34B01C01A524103098B4201D3CA
:104FE0000B01C01A5241C3088B4201D3CB00C01A37
:104FF000524183088B4201D38B00C01A52414308AF
:105000008B4201D34B00C01A5241411A5241100049
:105010007047CA0F00D04942031000D340425340AA
:1050200000229C4603098B422DD3030A8B4212D3E4
:105030008901FC2212BA030A8B420CD38901921116
:105040008B4208D3890192118B4204D3890137D056
:10505000921100E08909C3098B4201D3CB01C01A28
:10506000524183098B4201D38B01C01A524143093B
:105070008B4201D34B01C01A524103098B4201D329
:105080000B01C01A5241C3088B4201D3CB00C01A96
:10509000524183088B4201D38B00C01A5241D9D2AE
:1050A00043088B4201D34B00C01A5241411A00D22F
:1050B00001465241104663465B1000D340427047A0
:1050C00063465B1000D3404201B50021004201D08D
:1050D000C9430846C046C04602BDF8B5040C8BB2B1
:1050E000264682B25E43104658430D0C370C3604F8
:1050F00000218019164679416E43370C3604801919
:10510000264679416E438919F8BD00004900CA025C
:105110000243100000D004204A0D01D001221043A8
:10512000044A490D914201D102210843012800D1CE
:1051300005207047FF07000010B500F033F8EFF3CB
:105140000080800001D5012010BD002010BD10B5E9
:1051500000F052F8EFF300804000800F012801D0EA
:10516000012010BD002010BD30380A2801D20120D6
:10517000704700207047000010B500290AD0087859
:10518000002807D005487844FBF71CFA002801D016
:10519000002010BD0248784410BD0000D20D000070
:1051A000CA0D00000123DB0502000A430DD4DA42D8
:1051B00003D49A4207D488427047D84214D4D942C3
:1051C00012D48842704780427047DA4203D59A422F
:1051D000F9D5814270475B004200DA4204D24A00AE
:1051E000DA4201D28142704710B5024AFCF788FDCD
:1051F00010BD00BF090013040123DB0502000A43B0
:105200000DD4DA4203D49A4207D488427047D84278
:1052100014D4D94212D48842704780427047DA428F
:1052200003D59A42F9D5814270475B004200DA42C9
:1052300004D24A00DA4201D28142704710B5024AD4
:10524000FCF75EFD10BD00BF0900160403B4024860
:105250007844844603BC60476DC0FFFF3031323371
:10526000343536373839414243444546403058009A
:1052700030313233343536373839616263646566CC
:105280004030780004000008000000000000000228
:10529000000100001080807F7E7D7C7B7A797877AA
:1052A0007676757473727171706F6E6E6D6C6C6BF7
:1052B0006A6A696868676666656464636362616197
:1052C00060605F5F5E5E5D5D5C5C5B5B5A5A595916
:1052D0005858575756565555555454535352525281
:1052E00051515050504F4F4F4E4E4D4D4D4C4C4CD8
:1052F0004B4B4B4A4A4A4949494848484747474720
:10530000464646454545444444444343434342425C
:10531000424241414100000002400000000000A064
:105320000000000005400000000000C80000000070
:105330000C4000000000409C0000000019400000EC
:105340000020BCBE0000000034400000BFC91B8E1E
:1053500000000004B5400000504BCFD06607E2CFFC
:10536000010000006C4100003E8251AADFEEA7342C
:1053700001000000D9420000DCB5A0E23A301F97DE
:10538000FFFFFFFFB4450000FD25A0C8E9A3C14F02
:10539000FFFFFFFFFF3F0000000000800000000053
:1053A000FF3F00000000008000000000000000003F
:1053B00001020304010203040607080900000000BB
:1053C00001000100020002000300030004000400C9
:1053D0000500050006000600070007000D00080094
:1053E0000E0009000F000A0017000B00000000006B
:1053F000000305040102060000020101020102028D
:10540000010502010804010904010C02010E040156
:105410001002011702011A06011B06011C060106F3
:1054200001000701000D0100110100120100150625
:105430000016060021050000000001000100000028
:105440000100020001000100040002000100080048
:10545000030001001000040001002000050001000D
:1054600040000600010080000700010000080B005A
:10547000010000100C00010000200D0001000040A0
:105480000E00010000800F00020001000000020079
:1054900002000100020004000200020008000300F4
:1054A000020010000400020020000500020040007D
:1054B0000600020080000700020000010800020050
:1054C00000020900020000040A00020000080B00AC
:1054D000020000100C00030000200D00030000403B
:1054E0000E00030000800F00040001000000040013
:1054F0000200010004000400020004000800030090
:105500000400800007000D0A0A5468697320746F54
:105510006F6C20616C6C6F7720796F7520746F20D1
:105520006D6F6469667920616E64207669657720A5
:10553000616C6C2073617665642070696E6F757440
:105540007320616E642073657474696E67730A0DED
:105550000A0D55736167653A20205B636F6D6D615D
:105560006E645D203C616464726573733E203C76BA
:10557000616C75653E0A0D0A0D436F6D6D616E6459
:10558000733A200A0D0A0D20722020202020726517
:10559000616420736176656420646174610A0D2022
:1055A00077202020202077726974652064617461FF
:1055B0000A0D20682020202020646973706C6179B6
:1055C00020746869732068656C7020706167650A73
:1055D0000D206C20202020206C69737420616C6C7D
:1055E00020646174610A0D206720202020206765F7
:1055F0006E65726174652070696E73746F72616735
:1056000065207661726961626C6520696E69746992
:10561000616C697A657220746F20636F707920699C
:105620006E206669726D776172650A0D20652020B3
:10563000202020657261736520616C6C2064617448
:10564000610A0D207820202020206578697420636D
:105650006F6D6D616E64206C696E6520746F6F6C28
:1056600020616E6420676F206261636B20746F201D
:105670006D61696E206D656E750A0D0A0D41646479
:105680007265737365733A0D0A0A000A0D416C6CFA
:105690002070696E732077696C6C20626520736579
:1056A0007420686967682C207468652073656C6570
:1056B000637465642070696E2077696C6C20626C1D
:1056C000696E6B2C2074686520616C726561647909
:1056D0002073617665642070696E732077696C6CE5
:1056E0002072656D61696E206F66662E20496620A6
:1056F00061204C454420646F6573206E6F74206C8C
:10570000696768742075702C206974206973206241
:10571000726F6B656E2E0D0A707265737320572061
:10572000746F20676F20746F206E657874207069C5
:105730006E0D0A7072657373205320746F20676F4B
:1057400020746F2070726576696F75732070696E52
:105750000A0D5072657373205220746F2073617646
:105760006520617320726564204C45440D0A5072B7
:10577000657373204720746F2073617665206173B1
:1057800020677265656E204C45440D0A5072657342
:1057900073204220746F20736176652061732062EC
:1057A0006C7565204C4544286F72206F72616E677E
:1057B00065206F6E20736F6D6520626F6172642962
:1057C0000D0A5072657373205520746F20736176D3
:1057D00065206173207570706572204C45440D0A18
:1057E0005072657373204C20746F2073617665204E
:1057F0006173206C6F776572204C45440D0A5072BE
:10580000657373205A20746F20736176652061730D
:105810002062757A7A65720D0A707265737320451D
:105820006E74657220746F20676F206261636B20F5
:10583000746F206D61696E206D656E750D0A000DC7
:105840000A507265737320616E642072656C6561C5
:10585000736520706F77657220627574746F6E2047
:105860006F6E636520746F20646574656374206176
:1058700075746F6D617469636C790D0A4966206295
:105880007574746F6E207072657373206973206E07
:105890006F7420726567697374657265642C7072C9
:1058A000657373204520746F20656E61626C65209E
:1058B0006669782C2074686520626F617264206D5F
:1058C00061792061636964656E746C7920706F77AB
:1058D0006572206F66660D0A707265737320456E7F
:1058E00074657220746F2072657475726E20746FA7
:1058F000206D61696E206D656E750D0A000D0A419F
:10590000206C697374206F662070696E20616E640C
:1059100020766F6C746167652077696C6C206265B6
:1059200020646973706C617965642C2063686563B9
:105930006B2074686520626F61726420696E707597
:105940007420766F6C746167652077697468206D68
:10595000756C74696D6574657220616E6420736521
:105960006C6563742074686520636C6F7365737411
:10597000206F6E652E0D0A70726573732046207459
:105980006F20746F67676C65206175746F6D6174EB
:1059900069632070696E2066696C746572696E67F0
:1059A0000D0A707265737320746865206E756D6280
:1059B0006572206174207468652066726F6E742051
:1059C0006F662070696E20746F2073617665206940
:1059D000740D0A707265737320656E74657220743D
:1059E0006F2072657475726E20746F206D61696EC0
:1059F000206D656E750D0A000A0A0A0A0D000D0A6F
:105A00005465737420746865206D6F746F722077AD
:105A10006974682068616C6C2073656E736F7220A6
:105A2000636F6D6D75746174696F6E0D0A70726568
:105A30007373202B20746F20696E637265617365C8
:105A40002073706565640D0A7072657373202D2074
:105A5000746F20646563726561736520737065653A
:105A6000640D0A6E6567617469766520737065659B
:105A70006420746F207370696E206261636B77615C
:105A800072640D0A707265737320456E74657220BE
:105A9000746F2072657475726E20746F206D616909
:105AA0006E206D656E750A0A0D0020202834292DA0
:105AB0004175746F206465746563742062617474E9
:105AC00065727920766F6C746167652E0A0D0057D8
:105AD000656C636F6D6520746F2050696E46696EEA
