:020000040800F2
:10000000480E0020A9010008DB010008DD010008FE
:10001000DF010008E1010008E30100080000000022
:10002000000000000000000000000000E5010008E2
:10003000E701000800000000E9010008AD29000800
:10004000ED010008ED010008ED010008ED010008D8
:10005000ED010008ED010008ED010008ED010008C8
:10006000ED010008ED010008FD200008ED01000889
:10007000ED010008ED010008ED010008ED010008A8
:10008000ED010008ED010008ED010008ED01000898
:10009000ED010008ED010008ED010008ED01000888
:1000A000ED010008ED010008ED010008ED01000878
:1000B000ED01000800F002F800F04AF80CA030C88A
:1000C000083824182D18671EA246AB4654465D46D4
:1000D000AC4201D100F03CF87E460F3EB6460FCC54
:1000E0000126334200D0FB1A3343A246AB461847E1
:1000F0009C620000BC620000002300240025002652
:10010000103A01D378C1FBD8520700D330C100D5D3
:100110000B60704710B5662902D105F08FFA10BD4B
:10012000692902D100F0C4F810BD782902D100F08D
:10013000F5F810BD002010BD1FB501F02FFA040026
:100140000020002105F010FAE0601FBD10B510BDC1
:1001500001F00CFE1146FFF7EFFF04F003FC01F085
:1001600024FE03B4FFF7F2FF03BC01F075FE0000AC
:1001700070B505460C46164602E00FCC0FC5103E82
:10018000102EFAD2082E02D303CC03C5083E042E4B
:1001900007D301CC01C5361F03E021782970641C08
:1001A0006D1C761EF9D270BD144880F3088814487F
:1001B0000168090E134A9142FFD1134813490160A7
:1001C0001348144901601448124901600E4813494C
:1001D00001601348804713480047FEE7FEE7FEE74B
:1001E000FEE7FEE7FEE7FEE7FEE7FEE7FEE70000CC
:1001F0000D480E490E4A0F4B70470000480E002074
:10020000040000001F0000001C1002400000000459
:1002100018680040120000001C6800400000000048
:10022000CD290008B500000848080020480E00202D
:10023000480A0020480A00200FB41CB5074B06AA44
:100240007B4469460090059801F07BF900206946DF
:1002500001F08AF91CBC08BC04B018472513000043
:1002600070B5044685690068C10601D5302600E0F6
:100270002026C00707D070BD62683046A16890474D
:10028000206A401C20626D1EF6D570BD70B5044614
:1002900085690078C00707D170BD6268A168202019
:1002A0009047206A401C20626D1EF6D570BD00008C
:1002B000F7B5002575291068009914A611D0C0461D
:1002C000C046002802DA404211A608E000990968F9
:1002D0008A0701D50FA602E0490704D50EA601251D
:1002E00001E0C046C046009F0024243704E001F02E
:1002F00040F930313955641C0028F8D12B4632467C
:100300002146009800F0B6FEFEBD0000000000008F
:100310002D0000002B0000002000000070B50446F6
:100320000D4621461068C046C0462188090502D501
:100330000F4A7A4402E00E4A7A440E3223460021E4
:10034000243305E006070009360F965D5E54491C0C
:100350000028F7D120780023000705D5702D03D0A1
:10036000002901D002231132204600F083FE70BD27
:1003700016530000F3B50446002081B020622046E9
:10038000E168884700287DD0252802D06268A168EE
:1003900083E0454F00257F442046E16888472028B8
:1003A000064608DB312E06D2B8192038007800281E
:1003B00001D00543F0E7A80701D5042085430020BC
:1003C000E0610746A0612A2E0AD0304605F0C4F845
:1003D000002827D0B8000019303E0090866119E04F
:1003E0000298BA00121902C8916102902046E16891
:1003F0008847012F064617D1E06900281FDA202020
:1004000085431CE000980A218069484300998019BF
:10041000303888612046E1688847064605F09CF838
:100420000028EFD1012F0AD02E2E08D12046E168F6
:1004300088470646202005437F1C022FC3DBA069A6
:10044000002803DA4042A06101200543E80701D0FB
:1004500010208543002E24D030464138192803D877
:100460000120C00205432036204625603146029A0D
:100470001546FFF74FFE00280CD0012807D0ED1DD0
:10048000E80800E00DE0C0000830029077E72D1D7D
:10049000029574E762683046A1689047206A401C64
:1004A0006CE7206AFEBD0000DA52000030B5441C43
:1004B00003E00178401C00290DD08107F9D10B4BD6
:1004C000DD0104C8D11A91432940FAD0001B0A0665
:1004D00003D0C01E30BD001B30BD0A0401D0801EF9
:1004E00030BD0902FCD0401E30BD000001010101F9
:1004F000F8B5042A2CD3830712D00B78491C03705B
:10050000401C521E83070BD00B78491C0370401C03
:10051000521E830704D00B78491C0370401C521EE6
:100520008B079B0F05D0C91ADF002023DE1B08C9EB
:100530000AE0FFF71DFEF8BD1D4608C9FD401C4638
:10054000B4402C4310C0121F042AF5D2F308C91A74
:10055000521EF0D40B78491C0370401C521EEAD482
:100560000B78491C0370401C012AE4D409780170FF
:10057000F8BDD2B210B513029A1813049A1800F0FD
:1005800001F810BD01E004C0091F0429FBD28B074C
:1005900001D50280801CC90700D002707047002975
:1005A0000BD0C30702D00270401C491E022904D39D
:1005B000830702D50280801C891EE3E70022EEE754
:1005C0000022DFE782078B079A423FD170B5920F76
:1005D0000AD0032402780B78401C491C002A33D02F
:1005E0009A4231D12042F5D1214EF40104C808C904
:1005F000951B9543254018D19A420FD104C808C9CC
:10060000951B9543254010D19A4207D104C808C9CB
:10061000951B9543254008D19A42E7D012BA1BBAE0
:1006200001209A4200D2404270BD12BA1BBA2DBAC4
:1006300018241000E0401900E140401A05D12E00B6
:10064000E64002D1083CF4D1D01A70BD02780B7894
:10065000401C491C002A09D09A4207D102780B7825
:10066000401C491C002A01D09A42EFD0D01A704792
:1006700001010101002203098B4273D3030A8B425B
:1006800058D3030B8B423CD3030C8B4221D312E093
:1006900003460B437FD4002243088B4274D30309E3
:1006A0008B425FD3030A8B4244D3030B8B4228D384
:1006B000030C8B420DD30902FF2212BA030C8B42AA
:1006C00002D31212090265D0030B8B4219D300E04A
:1006D000090AC30B8B4201D3CB03C01A5241830BCF
:1006E0008B4201D38B03C01A5241430B8B4201D37F
:1006F0004B03C01A5241030B8B4201D30B03C01AA8
:100700005241C30A8B4201D3CB02C01A5241830A21
:100710008B4201D38B02C01A5241430A8B4201D350
:100720004B02C01A5241030A8B4201D30B02C01A7A
:100730005241CDD2C3098B4201D3CB01C01A5241E1
:1007400083098B4201D38B01C01A524143098B426A
:1007500001D34B01C01A524103098B4201D30B0153
:10076000C01A5241C3088B4201D3CB00C01A524178
:1007700083088B4201D38B00C01A524143088B423D
:1007800001D34B00C01A5241411A00D201465241D6
:10079000104670475DE0CA0F00D04942031000D3F5
:1007A000404253409C46002203098B422DD3030A4A
:1007B0008B4212D38901FC2212BA030A8B420CD35A
:1007C000890192118B4208D3890192118B4204D383
:1007D00089013AD0921100E08909C3098B4201D303
:1007E000CB01C01A524183098B4201D38B01C01A3D
:1007F000524143098B4201D34B01C01A52410309B4
:100800008B4201D30B01C01A5241C3088B4201D362
:10081000CB00C01A524183088B4201D38B00C01A0F
:100820005241D9D243088B4201D34B00C01A5241E6
:10083000411A00D201465241104663465B1001D373
:100840004042002B00D54942704763465B1000D3FD
:10085000404201B50449002802DC491C084000E080
:100860000846C046C04602BDFFFFFF7F7047704785
:10087000704700000246C80FC00781434B0030B5E7
:100880004B405B009B0D20D01923DB06C9180123C8
:100890001B05994220DB0324A40704251346AB4023
:1008A0000BD3002B04D1EB0613409B00E34204D48E
:1008B00001246407002312195941FF231B059942A3
:1008C0000BD2C9000143500F09E0CB0204D501430C
:1008D0000803024305D0054830BDFF21C905084380
:1008E00030BD084607210905884330BD0000C07FA0
:1008F000F0B5F94D0C091E092C402E402F468BB047
:10090000A7437DD0B543FCD0002E7AD0002CFCD07C
:100910000D465D40ED0F2543AC1BFF25AD0464196A
:100920000894C502440DC9022143500DDC02044362
:100930000120C00701430443D2020191200C110C95
:1009400000958C46010423468B430A9161460904B5
:10095000E24D8A430991010A7D4449198039097899
:1009600005464D4301266D18F605751B6943C90CF4
:10097000640B891C4C436418B5012C1B250C2E04F8
:10098000B4434C434D43210C691889090591009DDE
:10099000E90701D00121C90704912C460199670894
:1009A000CD072F434C08059DE10B4D432D0C2946E7
:1009B0006646754302950D4645432E46029D7D1BB6
:1009C000B44100950D465D4301942C0C2F040D4657
:1009D0005543AE462D0C3D43029503947546049C49
:1009E0002D04641B049406D2029C039D641C002603
:1009F00075410395029401AC70CC009F7D1B01E012
:100A00003EE162E1B4410904009507910194059922
:100A1000A4086143090C0C464443650BE7040C46EB
:100A200066467443A646640B3C43039502947446A1
:100A3000049DE4042C1B049406D2029C039D641CB8
:100A4000002675410395029401AC70CC009F7D1B7C
:100A5000B44101940C465C430095650FE7000C46D9
:100A60005443A646640F3C43039502947446049D88
:100A7000E4002C1B049406D2029C039D641C0026F7
:100A800075410395029401AC70CC009F7D1BB4416D
:100A9000AE09AF06049DC900AD092F43049DA4060D
:100AA000AD060495079D344369180791059DE10B38
:100AB0004D432D0C29466646754302950D46454328
:100AC0002E46029D7D1BB44100950D465D43019469
:100AD0002C0C2F040D465543AE462D0C3D4302957C
:100AE00003947546049C2D04641B049406D2029C56
:100AF000039D641C002675410395029401AC70CCE3
:100B0000009F7D1BB44101948C050694079C890AC3
:100B1000611800950791019C0599A4086143090C8F
:100B20000D464543680BEF040D46644665436C0B68
:100B30003C43049FED047D1BAC4602D20025641C9F
:100B40006841009E019D371B854108465843019529
:100B50000C46460FC5005443600F28436546E40029
:100B60002C1B02D20025401C6E41019D3F1AB5414D
:100B70002846BD09800628438446A009BF064E02C8
:100B80000699A40676180743079D002068410A9934
:100B9000079019430020099B00906046FF191343FA
:100BA0004041E20F64003A43A4460446D71A8C4100
:100BB000A04203D90120009020463A46C70F94185E
:100BC00040416246D20F2243644664000494009C74
:100BD000BE466400D71AA446044602978C41774665
:100BE000002F01D1A04204D96046401C8446029ADD
:100BF0002046C40FA64694184041049A0546D20FD9
:100C0000224364466400D31A8D417146002901D104
:100C1000A84202D928461A46641C10430122002823
:100C200000D0164361020020079B891904465C41ED
:100C30000223002C02DB491813466441089DCE0AAA
:100C40002D145D194B056705E10A2C050D1908994E
:100C50003E43C9076940002B08D0934006D30022C9
:100C6000761C5141002B01D1760876001C4A002DDC
:100C700043DB154241D0AA433FD030460BB0F0BD14
:100C800006180D464D41174C7642AC411AD39518C3
:100C90001C465C41134A6D42A24113D30122520506
:100CA0004C00D4420AD15C00D4420BD04B4002D558
:100CB00092021143E2E749004908DFE75940C90FB2
:100CC000C90718E000200849D8E7054801420DD1BE
:100CD0000342F7D0F2E700000000FF07294D0000B3
:100CE0000000F07F0000E0FF0000F87F114859404D
:100CF0000143C01241400020C0E70123089A9B062F
:100D00009A4205DC032252078918C90FC907B5E7C3
:100D1000052252078918074A1143D2125140ADE704
:100D200070B515461C4602460B4628462146FFF77D
:100D3000DFFD70BDFFFFFF7F0346CA02400D10B507
:100D400010430A1504D00124E4072043002A05DBE0
:100D50000A4CA21A04D4D040FF2A00DD002010BDA6
:100D60004A00002B01D0012000E0002010180122D1
:100D70005205D042F2D8C817C04310BD1E0400006F
:100D80001F22030C02D10F22000402D0030E03D055
:100D900004E00020014670470002083A030F01D129
:100DA0000001121F830F01D18000921E002801DB79
:100DB0004000521E120551184205C012411810463B
:100DC0007047C10FC90700D040420122920711436A
:100DD000D6E701218907D3E7F0B58B4C0F092546EB
:100DE00089B0BD437BD01D092646AE43FAD00E46DE
:100DF0005E402740F60F3E43254071D0240121423A
:100E0000FBD0FF24AD19A4042D1B039501252D054E
:100E1000DB02DB0AC9022B43C90A29431E0109016F
:100E2000040F130F050121431701880B820391431F
:100E30002D098C46A90B1E438A039543B30B9A03D5
:100E400096433F09BA0B9403A74302962E467E436E
:100E50000497B6464E19D7190C4601965443059788
:100E60007E43371B7646BF1B3601B646BE0B36198E
:100E700000967646BC043719009C01D3641C00948C
:100E80006400002F01D001263443029E049F754365
:100E900066467E430496760034196E003419009439
:100EA000029C019E1C196643751BAE46069465465E
:100EB0004519059C05956C43594375460891691A77
:100EC0000191049E01465143A41B0491611A009CA8
:100ED0000791E10605D061090122114302E072E0A9
:100EE0006EE06109089D00272C0A2D066918049DF3
:100EF0007C412A0A2D066918019D6241AC0DAD02A4
:100F00006D185441079A910D920255196141029A48
:100F1000644658435443069B059A5A43121A131BBE
:100F20009A0E9B015B187A41010B0005C3185141D1
:100F3000220A200644195A419A4200D2491C012033
:100F40004002814203D315230226F64302E0142314
:100F50000326F6432020C51AA9401746AF40DA40C1
:100F60000A4320460399D8400914731819055118EB
:100F7000039A3843D2075140AC4009D00122944033
:100F800006D30022401C5141002C01D140084000F2
:100F90001E4A934212D3012203989206904207DB25
:100FA0000520400709181A480143C012414004E0D7
:100FB000032040070818C10FC907002009B0F0BD81
:100FC0000020F107FAE705180C464C4111486D4224
:100FD000A04115D394181A465A410E4864429041D4
:100FE0000ED301204A004005824209D35A008242B2
:100FF00006D35940C90F084AC90700201143DDE74D
:1010000000200649DAE700000000FF07FE070000A5
:10101000FFFFFF7F0000E0FF0000F07F0000F87F8F
:101020000121C9050123411842001B06D3185B0E9C
:101030000AD0C1100722D206891840075242D14275
:1010400001D5520089187047090208D50146002AC7
:1010500003D0C10FC90700207047104670474202F5
:1010600002D0002002497047072109050143F4E737
:101070000000F87FFFB504460D4681B02430009093
:101080002168880604D51022E0699143216000E0C0
:101090000120A84201DD471B00E000270498A16958
:1010A0007A191018081AA0612078C00602D42046C8
:1010B000FFF7D6F8002608E003986268A168805D13
:1010C0009047206A401C761C206204988642F3DB1D
:1010D0002078C0060AD52046FFF7C2F806E062680D
:1010E000A16830209047206A401C206238467F1E4D
:1010F0000028F4DC07E000986268A168405D904732
:10110000206A401C206228466D1E0028F3DC204621
:10111000FFF7BCF82078000602D5022005B0F0BD2C
:101120000120FBE7FFB50C461E468FB003CA0890AE
:1011300009914F007D0D00D16D1E00210846002051
:10114000C0460321099A89050840002A03DA820073
:10115000801840080840800D01280A9002DD002018
:10116000C0430A90089807430DD0F048F04928186A
:1011700048430714189800281DD07542291E1DDD0C
:101180000A9842421BE01898012802D00020302122
:1011900004E00020F24305E02154401CB042FBDB98
:1011A00030460022189B002121540F998B600A6061
:1011B000486013B0F0BDBD1B6D1CDFE70A9A002923
:1011C00000DA69420BA800F06FFA0BAB07CB03AB58
:1011D00007C30899099800F0D3FA6B4607C3014684
:1011E000D4480918002D00910BDDD24903980A9AC2
:1011F00049424018002303A90390684600F030FDDF
:1012000008E003990A9A0023081803A90390684686
:1012100000F0D0FC6B4607C30004000C03D0002094
:10122000C043410800E01046189A002A03D000226B
:10123000009215461EE0751E05D400F0B3F9303259
:1012400062556D1EF9D501220843079602D000228F
:101250007F1C04E02078302801D100227F1E002A64
:10126000069787D01EE0112D07DA00F09BF9303287
:1012700062556D1C02460A43F5D1084303D000981D
:10128000002819D00EE00021681E05E0235C625C96
:1012900063542254401E491C8142F7DBA81B401EA8
:1012A00007950690079A18990020A0540F98079B5D
:1012B000069A81600CC07CE711260020189059E73F
:1012C000D21DF0B50D460446D10893B0C90003C93C
:1012D0000C900D9104F012F902460D98C00F01D048
:1012E0002D2007E02068810701D52B2002E0400770
:1012F000C00F4001032A0F9001D0072A05DB0346E7
:101300002946204600F08CF90EE12078800601D5B0
:10131000E76900E006272846652D04D0662814D02A
:10132000672D69D12DE00020112F009001DB1123E2
:1013300000E07B1C0CAA03A910A8FFF7F3FE11998B
:10134000002610987D1C0E9142E001203B460CAA1D
:10135000C0070B900120009003A910A8FFF7E2FE40
:10136000119D12981099002600280E9501D1781C25
:101370000D18781B02D446427D1C761EE81B009097
:101380003AE0012F00DA01270020112F009001DD43
:10139000112300E03B460CAA03A910A8FFF7C2FEE8
:1013A00011993D46109800260E91217809070BD41B
:1013B0000E99A94200DA0D4603A9012D04DD4A1950
:1013C000203AD27F302A06D0B84201DA011D04DA71
:1013D000012100910FE06D1EEFE7002802DC861965
:1013E0002D1A03E0411CA94200DD0D46801B401C64
:1013F00000900120C0070B902078000705D40098CA
:10140000A84202DB0020C043009069460020C87259
:101410000B98012102AF0337C907884225D002206B
:1014200010902B2011900B9800280BDA40420B9063
:101430002D20119006E00B9800F09BF830317F1EB4
:101440000B9039701099481E00291090F3DC0B980E
:101450000028F0D111987F1E38702088000501D532
:10146000452000E065207F1E387001A8C01BC01D0C
:101470000B900F98002800D0012041190098C01748
:1014800009180B980818A169081A401EA061207855
:10149000C00602D42046FEF7E3FE0F98002805D0D0
:1014A0006268A1689047206A401C20622078C006CC
:1014B00025D52046FEF7D4FE21E0002E07DB0E984E
:1014C000B04204DD03A86268805DA16802E0626842
:1014D000A16830209047206A761C401C206200984A
:1014E000401E002800900AD100F058F8C0686268D9
:1014F0000168405CA1689047206A401C2062284631
:101500006D1E0028D9DC07E062683878A1687F1C6E
:101510009047206A401C20620B99481E00290B90BE
:10152000F2DC2046FEF7B2FE032042E601FCFFFF9C
:10153000104D0000E1DFFFFF01694A1C02610878DD
:10154000704700B58FB002910021059105490193C4
:1015500079440391114604906846FEF70BFF0FB0E3
:1015600000BD0000E5FFFFFF0A681070521C0A6012
:10157000704701468008081A02091018020A10185C
:10158000020C1018C008820012185200891A01E0DB
:10159000401C0A390A29FBD27047000000487047F6
:1015A000A80600200B4670B502468907800808434C
:1015B00019469D08141AA941250908070543080979
:1015C0002C194841250A01060D43010A2C194141F5
:1015D000200C0D0428430D0C00194D410021401929
:1015E0004D41C00869070843E908840F8D00254371
:1015F000840024184D4124196D41121BAB4107E0B2
:101600000925ED432C11521963410024401C61410E
:101610001C460A250026551BB441F1D270BD0000BE
:10162000F8B51F46044601230068DB020326014685
:101630001840072A05DB002801D017A506E017A5EA
:1016400004E0002801D016A500E016A51020814373
:101650002160A069C01E002FA06101D0401EA061C2
:101660002046FEF7FDFD002F09D038466268A168CC
:101670009047206A401C2062C01C206206E0206A5D
:10168000FAE762682878A1686D1C9047761EF8D248
:101690002046FEF7FBFDF8BD4E414E006E616E0028
:1016A000494E4600696E6600F7B516468AB0334863
:1016B00078446C4603467C33C06F5A689B680DC4FF
:1016C0002E487844763003AC0DC80DC43720C001D5
:1016D000081837211B30FEF7DBFF05460C46803D1E
:1016E0001B3C02D56442012000E000200027099045
:1016F00010E0E0070CD00C202049784379443246B2
:101700004C3941186846012300F054FA6B4607C370
:1017100064107F1C002CECD1184F7F442E3F16E044
:10172000E80712D02001C0190EC80691089307924D
:101730000068F04201D1981908903246012306A9A9
:1017400003A800F037FA03AB07C36D10641C002D2B
:10175000E6D10998002806D032466946012303A83D
:1017600000F07EFA05E001233246694603A800F046
:1017700021FA0A9B07C30DB0F0BD000054400000E1
:10178000034640000A4610B5400D0BD00121C907A1
:101790000F24A40200191C0364082143540D2143A3
:1017A000D20207E000210120F2E7D40F49002143D3
:1017B0005200401E0029F8DADB0FDB07184310BD8A
:1017C000FFB50D46144685B04868516803F07DFEAC
:1017D00000910190A868A16803F077FE0291039040
:1017E000A868616803F071FE029A121882420292A0
:1017F00001D2012000E00020019A0B18D218002825
:10180000019202D08A4202D903E08A4201D2012029
:1018100000E000200099081800906868A16803F0B3
:1018200054FE029A12188242029201D2012000E074
:101830000020019A0B18D2180028019202D08A4287
:1018400002D903E08A4201D2012000E00020009981
:10185000081800902868216840004900400849089D
:101860004018FA49471814E001994000C90F08438D
:101870000090019802994000C90F08430190029816
:1018800003994000C90F08430290039840007F1E4F
:10189000039000980028E7DA0898002801D0EC4E61
:1018A00000E00026B74201DA012000E00020002815
:1018B00004902AD0F71BF806C00E15D0029B2021F9
:1018C000091A039A8B401A430392029A019BC24061
:1018D0008B401A430292019A009BC2408B400099B0
:1018E0001A430192C14000917B110DD06F46032035
:1018F000C11A03D500218200B95003E08A0081009B
:10190000BA587A50401EF3D53746039802990028FA
:1019100000D00120014308980291002808460CD00D
:10192000002800D001200199019A490508430121AE
:10193000D20AC902D202019200E001210E9B0122CB
:10194000D207012B02D0002B03D013E0002807D1CF
:1019500020E0904204D890420CD1019B0B4209D068
:10196000019B5918019105D10099491C009101D1A1
:101970007F1C009200280DD0102108460020C04690
:101980000498002806D00F98002803D008210846A4
:101990000020C04628682168019B009A4840C10F7A
:1019A0000598C90739430EC009B0F0BDFFB587B02F
:1019B000099A089808995368926840688968964619
:1019C0000022039317469446089A12685300099A16
:1019D0005B081268520052089A1A9E4BD4180A9A51
:1019E000002A01D0352200E0402206920022012385
:1019F00015460492DB07059324E0002D05D17546BA
:101A00000346039E4D1BB34109D375466646039BAF
:101A1000491B049D9841059B7519AC465F4163467F
:101A20003B4308D0059B049EDD0776082E435B08E8
:101A30000496059301E0521E641EC50FED07491878
:101A40004041521C069B9A42D7DB002D04D17546BB
:101A5000039A6B1A824101D203200CE0039A0B46D1
:101A60006B404240134303D0014303D0012002E006
:101A7000022000E0002061460191002100970291C0
:101A80000A99002905D0614640020143704B01913B
:101A900002E08007002302909C4201DA012000E06E
:101AA000002007003AD01A1BD006C00E15D0029DA8
:101AB0002021019C091AC5408C402543029C8C4082
:101AC00000D001242543019C0295009DC4408D4017
:101AD00000992C430194C140009154111DD06D46D2
:101AE0000221002202290CD10320001B07E000285C
:101AF00004DB8600AE59002E00D00122401C0328D2
:101B0000F5DB081B02D588002A5004E08000285825
:101B100010438A00A850491EE3D51C460A980028A5
:101B200002980CD0002800D001200199019A4905A3
:101B300008430121D20AC902D202019200E0012128
:101B4000109B0122D207012B02D0002B03D013E0FF
:101B5000002807D11FE0904204D890420CD1019B8D
:101B60000B4209D0019B5918019105D10099491CDC
:101B7000009101D1641C009200280CD0102108466D
:101B80000020C046002F06D01198002803D008215D
:101B900008460020C04608980999019A009B0068F1
:101BA00009684840C10F0798C907214382600AC0ED
:101BB0000BB0F0BD00B585B0019300920A46014616
:101BC000002302A8FFF7FCFD02A807C805B000BD6E
:101BD000FFB50A461F4685B007990193012300917E
:101BE000014602A8FFF7ECFD02990398049ECA0F74
:101BF0004900D20700920F22490892028C1A002154
:101C0000002800DB0C46450013486D08844214D3BD
:101C1000079A002A04DA441E0026104DF64302E01B
:101C200004460D460E46102108460020C046002FEF
:101C300003D0042108460020C0462005E90A0843D5
:101C4000009908436905F20A1143ADE602C0FFFF9F
:101C5000013C0000FF3F0000FF070000FFFFFF7F87
:101C600000B585B0019300920A460146002302A800
:101C7000FFF79CFE02A807C8A8E7FFB50A461F4663
:101C800085B00799019301230091014602A8FFF74F
:101C90008DFE02990398049ECA0F4900D207009254
:101CA0000F22490892028C1A0021002800DB0C4602
:101CB000450011486D08844214D3079A002A04DABB
:101CC000441E00260D4DF64302E004460D460E4626
:101CD000102108460020C046002F03D004210846EA
:101CE0000020C0462005E90A084300990843690519
:101CF000F20A114358E60000FF070000FFFFFF7FD4
:101D000010B5FF231B0644009C421DD84C009C428A
:101D10001AD80346124A0B4307D4401A02D3EFF3F2
:101D2000008010BDEFF3008010BD081A03D3EFF35D
:101D30000080904305E0EFF3008001219043C90744
:101D4000084380F3008810BD0D231B041A4204D001
:101D50001146002000F031F810BD00F045F810BD2C
:101D60000000009000487047880600207546FFF785
:101D7000F9FFAE46050069465346C008C0008546D7
:101D800018B020B5FEF734FA60BCB646002600272E
:101D9000C0C5C0C5C0C5C0C5C0C5C0C5C0C5C0C51B
:101DA000403D490849008D46704710B50446C0467D
:101DB000C0462046FEF7D5F910BDC80212D548032B
:101DC000400F002804D0C803C04301218840704759
:101DD000EFF300800001000903210907084380F3A5
:101DE000008870470020704710B5024800F004F8E2
:101DF00010BD00000000C07F10B50C461107090F90
:101E0000092904D00A290AD008290CD104E0114676
:101E10000820FFF7D2FF06E0510606D501E0510683
:101E200001D50120C007214610BDD10607D501010B
:101E30000909CC084907000E0006044309E0410FD8
:101E400020024907000A0143200E00061D22D1414D
:101E500001430846E7E7000001491820ABBEFEE752
:101E600026000200704770B58C180578401C6B077F
:101E70005B0F01D10378401C2A1106D10278401C67
:101E800003E00678401C0E70491C5B1EF9D12B073D
:101E900005D40023521E0DD40B70491CFAE70378B9
:101EA000401CCB1A921C03E01D780D70491C5B1C72
:101EB000521EF9D5A142D8D3002070BDB0B586B06E
:101EC0001B4C204600F020F801256802294600F04E
:101ED00007FD00200590A902029120210191A9048B
:101EE000049100906946204600F026F820462946D5
:101EF00000F002F806B0B0BD4A1E914142680123CD
:101F00009A4351184160704710B50121084A904228
:101F100004D0084A90420AD18C0200E04C02012110
:101F2000204600F0EBFC0021204600F0E7FC10BD4D
:101F3000002401400028014010B54268084B1340BE
:101F40004A681A430B68134343608268054B134089
:101F50000A694C691C43144389682143816010BDA0
:101F60000080FFFF800000FF10B50F22920244683E
:101F700094439A02224342601F2905D801228A40D5
:101F8000C1681143C16010BDFA2906D0FF2908D1EC
:101F9000C168054A0A43C26010BDC168014A0A40CF
:101FA000C26010BD0000FFFFFFCF00004A1E91413C
:101FB0000902012212028368934359188160704715
:101FC0000A490A68002808D0082002430A60012054
:101FD000C2038868104388607047082082430A6003
:101FE0000120C20388689043886070470424014040
:101FF000F0B581B00925EC060821022620463246BC
:1020000000F0EDFB20462946324600F0E8FB0A21AD
:102010002046324600F0E3FB1D4D0D212846324696
:1020200000F0DDFB0E212846324600F0D8FB0F21E0
:102030002846324600F0D3FB6E46304600F0E6FB01
:10204000144800902046314600F068FB01277802D2
:1020500030802046314600F061FBB80230802046D7
:10206000314600F05BFB780330802846314600F0B3
:1020700055FBB80330802846314600F04FFBF8038B
:1020800030802846314600F049FB01B0F0BDC04623
:10209000000400480001031810B50E4800687D21B7
:1020A000C90003F017F9411E080E00D0FEE70A48E8
:1020B0000A4A51600A490B6803400324A4071B190C
:1020C0000B6000239360072313600A6802400A60D4
:1020D00010BDC046AC000020FFFFFF0010E000E094
:1020E00020ED00E081B00090034800990160016894
:1020F0000029FCD101B070472C08002010B5012444
:10210000600200F05FF800280CD0200200F014F804
:102110000648007806490978002904D001F012F831
:1021200001F026FB10BD0349087010BD21080020F6
:102130009C07002020080020214908607047C04605
:102140004A1E9141026801239A4351180160704769
:1021500001680122914301600021016041608160BA
:10216000C160114988420BDD1049884210D01049E6
:10217000884210D00F49884215D10F2000040EE08C
:102180000D4988420AD00D4988420CD1F02006E062
:102190000F20000203E00F20000300E00F20084999
:1021A0000A6802430A6070472F0002403000024074
:1021B0004400024058000240080002401C00024057
:1021C00004000240024909680840411E88417047E6
:1021D00000000240002A03D002680A4302607047F0
:1021E00002688A4302607047B0B502680C4B134026
:1021F0008C681C430D6A4B6A8A6A25430C692C4320
:102200004D6925438C692C43CD6925431D431543F6
:102210000560CA6842600A6882604968C160B0BDF2
:102220000F80FFFFF0B58DB01E460092019104466D
:1022300001252846294600F029FB2046FFF788FFA4
:1022400002AF384600F028F800200C900B902021B7
:102250000A910990089080210791069005960490B4
:10226000009803900198029020463946FFF7BCFF82
:102270000226204631462A46FFF7ACFF0548314684
:102280002A4600F0E3FE20462946FFF759FF0DB02D
:10229000F0BDC0460038014080B52C21FEF790F912
:1022A00080BD0000F0B587B00C4607460125EE0260
:1022B000304603F00FF821464143B14200D0FEE71B
:1022C00000237B49B44202D91E4606912AE0012828
:1022D000029000D8029562080592012A00D805955F
:1022E0000026744A0D4601960497039323467343D0
:1022F0005B190693022C059B0D4610D32F8897423D
:1023000004D15B1EAD1C002BF8D109E00919761C25
:10231000029B9E42049F039B654DE7D102E0019E14
:10232000049F039BB042184600D00698002809D0AD
:102330005F49884200D16148011B38462246FEF7BA
:10234000D7F800E0DC43204607B0F0BDF0B587B019
:102350000E4605460127FC02204602F0BBFF31462F
:102360004143A14200D0FEE733463946059000269E
:102370004F4FA34230460497069327D8059801286B
:10238000019000D8019158080390012800D80391CA
:102390000020484A3C46009019464343DB19049309
:1023A0000229039B02940FD32188914204D15B1E22
:1023B000A41C002BF8D108E0069B029CE418401CEA
:1023C00001998842E8D101E00098069B0599814275
:1023D00000D0049E81421ED11C4600F093F938467D
:1023E00000F06EF800F0FCF800F08CF9324800F0D4
:1023F00067F800F0F5F800F085F9640852D000267F
:102400002988384600F0F4F8AD1CBF1C761CB0B229
:10241000A042F5D346E0284CE01A864217D11F4669
:1024200000F070F9204600F04BF800F0D9F800F009
:1024300069F97C0836D000272988304600F0D8F8A2
:10244000AD1CB61C7F1CB8B2A042F5D32AE01B48D5
:10245000C01A05901C4600F055F90598864214D123
:10246000384600F02DF800F0BBF800F04BF9640896
:1024700018D000272988304600F0BAF8AD1CB61CE9
:102480007F1CB8B2A042F5D30CE064080AD0002744
:102490002988304600F0ACF8AD1CB61C7F1CB8B2E1
:1024A000A042F5D300F09CF8069807B0F0BDC046F6
:1024B000007C0008FFFF0000008000080084000886
:1024C00082B001468D4A1068C00709D110684007E4
:1024D0000AD41068C0060BD5032001280BD02DE0CC
:1024E0000120012807D029E00220012803D025E09F
:1024F0000420012822D1384B00200090FF200090BA
:102500000098002802D00098401EF8E71068C00725
:1025100007D11068400706D41068C00605D503200F
:1025200004E0012002E0022000E004205B1E0128FC
:1025300001D1002BE0D1002B00D10520042848D187
:102540005068022318435060916050684021014355
:1025500051601068C00709D1106840070AD410689C
:10256000C0060BD5032001280BD02CE00120012848
:1025700007D028E00220012803D024E0042001280D
:1025800021D1154900200190FF20019001980028D9
:1025900002D00198401EF8E71068C00708D1106803
:1025A0004007184607D41068C00603D5032002E090
:1025B000012000E00420491E012801D10029E1D1B9
:1025C000002900D10520012803D05168034B0B409E
:1025D000536002B07047C046FF0F0000FD1F0000AF
:1025E0000248016880220A430260704710200240BE
:1025F00010B582B00246414B1868C00709D118686F
:1026000040070AD41868C0060BD5032001280BD058
:102610002DE00120012807D029E00220012803D065
:1026200025E00420012822D10F2400200090FF2063
:1026300000900098002802D00098401EF8E7186823
:10264000C00707D11868400706D41868C00605D52A
:10265000032004E0012002E0022000E00420641EC8
:10266000012801D1002CE0D1002C00D10520042844
:1026700041D15C68012004435C6011801968C9077E
:102680000AD11868400706D41868C0062AD5032066
:10269000012803D029E00220012826D10F210020A3
:1026A0000190FF2001900198002802D00198401E5F
:1026B000F8E71868C00707D11868400706D41868FB
:1026C000C00605D5032004E0012002E0022000E05E
:1026D0000420491E012801D10029E0D1002904D19C
:1026E000052002E004200128D8D0012803D0596831
:1026F000034A0A405A6002B010BDC0460C20024096
:10270000FE1F000002480349016003490160704751
:102710000420024023016745AB89EFCDF0B586B0B8
:10272000CA780F23144605931C400392D20601D5A4
:102730008A78144309880A060494009023D002463C
:102740001432029202461032019202680026374685
:10275000039805E02B60049C361D7F1C082F10D0C9
:102760000123BB400B42F7D02546B540059CB44041
:10277000A2432A432828029DECD04828EBD1019D92
:10278000E8E7009802600A0A27D002461432029253
:1027900002461032019247680020064605E01D609F
:1027A000049C001D761C082E15D001231D02B54087
:1027B0002B460B40AB42F4D123468340059C84401A
:1027C000A7431F43039A282A029BE8D0039A482A6A
:1027D000E6D1019BE3E70098476006B0F0BDB0B5D5
:1027E000082901D3242300E02023C4584907C90E37
:1027F0000F258D40AC43C450C4588A402243C25078
:10280000B0BD80680840411E884170470249418040
:10281000024901807047C04602040000FFFF00002B
:1028200000200449044A435C1354401C0C28FAD18C
:102830007047C046E8F7FF1F1507002070B5017804
:102840008278002A15D0FC220A400D4BD4588D07FF
:10285000ED0EFF26AE40B44340788001C0B2A840E0
:102860002043D0501F2008400121814005480160CD
:1028700070BD1F200140012088400349086070BDE1
:1028800000E400E000E100E080E100E0054A00290A
:1028900003D01168014311607047116881431160D2
:1028A0007047C04614100240054A002903D0116841
:1028B0000143116070471168814311607047C04641
:1028C0001C100240054A002903D011680143116021
:1028D00070471168814311607047C0461010024074
:1028E000054A002903D0116801431160704711683F
:1028F000814311607047C04618100240054A002904
:1029000003D0116801431160704711688143116061
:102910007047C0460C100240B0B504461E4D2868F2
:102920000C2101400C2912D01C4808291CD1291F58
:102930000A68920E521C09684902490F491C2B680B
:10294000DB0306D48048504302F0C4FC0CE0154879
:102950000AE02B689B0303D4504302F0BBFC03E066
:102960000F48504302F0B6FC206028680006000FB4
:102970000D490A5C2068D04060602A685205520FF9
:102980008A5C0346D340A3602A689204520F895C94
:10299000C840E060B0BDC0460410024000127A009A
:1029A00000093D00409C00009C5700080548016854
:1029B000002902D00168491E016003480168491CD2
:1029C000016070472C08002098070020F0B589B0FE
:1029D000554E306801221043306070685349014001
:1029E0007160306852490140316090043168814320
:1029F00031607F20000471688143716030684D4F01
:102A0000384030609F200004B0603068029210436C
:102A1000306030688007FCD5474C48482060484DFE
:102A2000286810210143296028680721884328600D
:102A30002068401E434902F04DFC2968014329608B
:102A400070687060706870600298800271680143FD
:102A500071600320019000047168814371603068E7
:102A6000384030602368002001461F460390064628
:102A70000491701C0590344D039C06E032496D189A
:102A8000641C002F079206901ED0402C18D0089787
:102A90003746284605991E4602F01CFC3346311A7B
:102AA00000D2C11A3E46089F8F42304600D8069891
:102AB0008F42224600D8079A8F42DFD30F46DDE7C8
:102AC0000499002906D009E0002707920690029990
:102AD000002903D1059804280646C9D1124A106876
:102AE000144908401060079880060699C9B2090584
:102AF000014310680843106001200006116801437B
:102B0000116010688001FCD55068019988435060BD
:102B1000506802210143516050680C21014008298E
:102B2000FAD109B0F0BDC046001002400000FFF02D
:102B3000FFFFF6FEFFFF0F00AC00002000D8B80535
:102B40000020024000366E01001BB700F0B58FB0C8
:102B5000009101900124E0022146FFF7C1FEDF4D04
:102B6000284600F0B1F80AAE304600F033FA0027EC
:102B700037740D9700980A9001980C900B9728468F
:102B8000314600F0DFF906AE304600F0AFF95020D4
:102B90001B49085A70810420079020040190069078
:102BA00009972846314600F0E7F82846314600F0FC
:102BB0001DF92846314600F059F92846214600F013
:102BC0003DF820212846224600F0CCF82846214630
:102BD00000F06CF802AE304600F027F8A003B08198
:102BE000084804900848029001980390284631460E
:102BF00000F00CF82846214600F04CF80FB0F0BD6C
:102C00000206002000100020000800080A884B88F7
:102C100013438A881A43CB8813430A891A434B8982
:102C2000134389891943416470470021818141819F
:102C30000181C18081804180018070474268002904
:102C400003D001210A434260704767490A4042604D
:102C50007047C04610B501238B40046A9C43A3B261
:102C600003628A4091B2026A0A43026210BD000008
:102C700010B504238B409BB2054CE41C5C40036AF6
:102C8000234003628A4091B2026A0A43026210BD85
:102C9000FCFF00000268002903D001210A43026002
:102CA0007047E9490A4002607047C046426C054BD4
:102CB000002903D0591C0A43426470471A404264F9
:102CC0007047C046FF7F000010B5234988420BDDE6
:102CD000BD49884214DCB74988421AD01F4988424E
:102CE0002ED101210C042EE001218A0790421AD036
:102CF000B24A904225D0B04A904221D14C030AE01A
:102D0000B349884213D0B149884219D101218C04BA
:102D100001E00121CC022046FFF7F0FD0021204612
:102D2000FFF7ECFD10BD0124204621460CE00121F7
:102D30004C042046FFF7E2FD00212046FFF7DEFDB0
:102D400010BD022401212046FFF7BCFD00212046D2
:102D5000FFF7B8FD10BDC046FF2B01400040014009
:102D600041617047002A03D0C2680A43C2607047BD
:102D7000C2688A43C2607047F0B5026AB24B134022
:102D80000362026A02239A430B8913434A881A4357
:102D900045680B8884698C4EB04206DC864EB04292
:102DA00009D0844EB04206D013E0884EB04202D023
:102DB000874EB0420DD10C26B2434E890427BE4344
:102DC00016438A8832437F4E35408E892E43CD8903
:102DD0003543ADB24560444D2C401C438461C988E5
:102DE000416391B20162F0BDFEFF0000F0B5026ADE
:102DF0001A4B13400362036A202293434A880C89CA
:102E0000144322011A4345680C888369694EB04215
:102E100002D0694EB04214D1C026B2434E89360169
:102E20004027BE4316438A88120132430C4E354078
:102E30008E89B6000B4F37402F43CD89AD003D43FF
:102E4000ADB2ADB24560084D2B4024021C43A3B285
:102E50008361C988816391B20162F0BDEFFF000018
:102E6000FFF30000FCF70000FF8C0000F0B5026AE1
:102E7000194B1340036201225202036A93434A88AA
:102E80000C89144322021A4345680B88C469494ED1
:102E9000B04202D0484EB04212D10326B602B2432D
:102EA0004E8936020E4F374017438A8812023A4342
:102EB0000C4E3540CE898F8937433E012E43B5B243
:102EC000ADB24560084D2C401C43C461C988C16344
:102ED00091B20162F0BDC046FFFE0000002C01402F
:102EE00000FBFFFFFFCF00008CFF00000021C1812D
:102EF000818141810181C180818041800180704751
:102F000010B501238B40046A9C43A3B203621830BE
:102F10000823DB4319420AD0091F89B249084358E4
:102F200007242403A34343504018120205E0490834
:102F30000B587024A3430B50081891B202680A433F
:102F4000026010BD02681A4B984207DC01239B0700
:102F5000984209D0194B984206D00AE0154B984286
:102F600002D0154B984204D1154B1A404B681343BD
:102F700000E01346134A1A408B89134303608A68A2
:102F8000C2620A688262104A904206DC0A4A904293
:102F900009D0084A904206D007E00C4A904202D07D
:102FA0000B4A904201D1097C0163012141617047C4
:102FB000FF070140002C01400008014000040040D0
:102FC0008FFF0000FFFC0000FF430140004801406C
:102FD000004401400021034A0174016041608260A5
:102FE000C1607047FFFF000070B584B00546012442
:102FF000A0032146FFF774FC60042146FFF754FC50
:103000006E46304600F0C4F80020B08130200190B8
:1030100000950320C00402905C4D2846314600F024
:1030200049F82846214600F003F804B070BDC046B8
:103030008269002903D001210A4382617047024955
:103040000A4082617047C046FEFF0000002A03D09C
:1030500082690A438261704782698A43826170474C
:10306000F0B581B000240E4D0E4E06E01821285D0B
:1030700001F058FDE41C122C0FD0285DB18B814269
:1030800002D0F18B8142F5D12F19797801F06CFDD6
:10309000B8780028EAD10421E9E701B0F0BDC046C4
:1030A000776300080206002080680840411E8841BE
:1030B0007047000070B584B00D460446FF20D03044
:1030C000E1698143A888EA880243288910430843BC
:1030D000E061A88969890143A0691F2290430843E0
:1030E000A0616E463046FFF717FC0848844201D0C5
:1030F0000C3600E008363068296802F0EBF8010968
:1031000021620F210140616204B070BD00440040A3
:10311000C9B2016070470000B0B5044600780028CD
:103120000ED01A4DC1B22846FFF7F2FF0121284602
:10313000FFF7BAFF0028F9D06078641C0028F1D1AD
:10314000B0BDC04610B50146104C2046FFF7E0FF69
:1031500001212046FFF7A8FF0028F9D010BDC04686
:1031600070B5002910D00C460546084E2978304627
:10317000FFF7CEFF641E01213046FFF795FF0028C0
:10318000F9D06D1C2004F1D170BDC046003801405B
:103190000021818130210322D2044B23DB01036013
:1031A00041608260704700000021214A1378834209
:1031B00004D0121D491C0D29F8D10D2188001C498D
:1031C0000818408809280CD87844007940008744C2
:1031D000040B0F13171B1F232B271648006880B200
:1031E0007047002080B270471248406880B2704734
:1031F0001048806880B270470E48C06880B270473F
:103200000C48006980B270470A48406980B2704734
:103210000848806980B270470648C06980B270472C
:103220000448406A80B270470248006A80B2704722
:10323000AC57000818240140F0B5A7B00A4D287813
:10324000801E082800D9E3E04000C046784480880A
:10325000400087440B001F007E001401DD00610167
:10326000AE00BC00DA00C0469C070020FFF7D8FA89
:10327000F248FFF751FF1D200101F148FFF770FFF1
:10328000F048FFF749FFF0480078002800D17EE1C0
:10329000EE487DE1EE48FFF73FFFEE480124047061
:1032A00000BF00BF01780029FAD12878032800D098
:1032B000AEE0EB4D28462146FFF7F8FC7D204001AB
:1032C0006863A863E863EF4E22253046294622460C
:1032D000FDF74FF9F64F384629462246FDF749F9E2
:1032E000F44829462246FDF744F9F249DE480088B1
:1032F00012900022119403E0521C222A00D13FE1D7
:10330000FE2010400A2801D101251BE093B212983B
:103310009842254616D039463446D348851C0026A7
:1033200030460F2E05D0461CAF1C2D889D423D46D1
:10333000F6D10F2801D3002500E0012526460F46CF
:10334000119CDC49002DD7D00020B854B0548854CB
:10335000D2E7D248FFF7E0FE00260127C24D1297C0
:1033600004E0701CF1B22129064653D27E20304081
:103370000A2801D1012115E0F0B22988814239469D
:1033800010D0A91C00231A460F2B05D0531C8F1CEC
:10339000098881423946F6D10F2A01D3002100E085
:1033A0000121129F0029DCD1F0B2482101F0BAFBC3
:1033B000D7E7AE48FFF7B0FEAD4800210170AD4839
:1033C0000170AD480180AD48017027B0F0BDA34841
:1033D000FFF7A2FEA24C01212046FFF767FC002068
:1033E0006063A063E0639F4908609F4D28780424D0
:1033F000214601F097FBA878214601F093FB28793C
:10340000214601F08FFB27B0F0BD9348FFF784FE03
:1034100027B0F0BD2C88002203E001234A1C002BBA
:103420001CD01146FE220A400A2AF6D0CAB29442A3
:103430003B46F3D02846AB1C00273E460F2F05D055
:10344000771C9D1C1B8893422B46F6D10F2E01D36F
:10345000002300E00123129F0546DFE7904C217016
:103460009048FFF759FE2078052141438E484018C7
:10347000FFF752FE8D48FFF74FFE27B0F0BD8248A0
:10348000FFF74AFE764D012428462146FFF70EFC41
:10349000129460036863A863E8637C4800250570A4
:1034A00000F058FFFEF70AFD7A4C13E079490C183A
:1034B000A1780027012676483A463346FEF754FDA8
:1034C0002078744C394601F02DFB734846556D1C2D
:1034D0000D2D4FD0A800215CFE220A400A2A03D1FC
:1034E0000122002A16D1E1E75F4A12888A42129A25
:1034F0000ED05D4A921C002633460F2E05D05E1C6E
:10350000971C12888A423A46F6D10F2BE8D3002244
:10351000002ACBD00026D8E75948FFF7FDFD00244C
:103520000125514F06E0002100290AD0641C222CFD
:1035300000D16DE7FE2020400A2808D10121002992
:10354000F4D1E0B201F098F84E490855EEE7A0B288
:10355000398881422946E7D0B91C00231A460F2B2F
:1035600005D0531C8E1C098881423146F6D10F2AA2
:10357000E4D3D8E701214648FEF718FD27B0F0BD97
:10358000FF20394948808880088027B0F0BD4A482C
:10359000FFF7C2FD49480068FDF742FD1290119106
:1035A00047480178109141780F918478C578067961
:1035B000477981790E91C1790D91017A427A837AA6
:1035C000C07A089109920A930B90109800900F9876
:1035D00001A9F1C10E9806900D98079013AC3949D6
:1035E0002046129A119BFCF727FE2046FFF794FD18
:1035F0003548FFF791FD35A0FFF78EFD3B48FFF7FB
:103600008BFD3B48FFF788FD3A48FFF785FD3A48B8
:10361000FFF782FD3948FFF77FFD39A0FFF77CFDFA
:1036200045A0FFF779FD4CA0FFF776FD4F480E4906
:103630008022FCF75DFF27B0F0BDC046E85D0008C2
:103640003004002017620008940700200963000876
:10365000D85F00084008002044620008EE5D0008C2
:10366000002C01403408002002060020F860000809
:10367000F60600200A0700200C0700203208002070
:103680002F5C000824070020ED5C00088206002063
:1036900000240140AC570008EC0600207B5A0008CB
:1036A000300800202362000800000020E6600008C7
:1036B000480700206C070020A26200083C08002098
:1036C00015070020845F0008BF5E00082020283115
:1036D000292D4175746F2064657465637420616C75
:1036E0006C2070696E732E0A0D000000405F0008A8
:1036F0001C5F00089A5E0008615F0008FA5E00081F
:1037000020202837292D4D6F6469667920636F6EFC
:1037100066696775726174696F6E73206D616E752D
:10372000616C6C7920627920636F6D6D616E6420CD
:103730006C696E652E0A0D0020202838292D5465ED
:103740007374206D6F746F7220726F746174696F1F
:103750006E2E0A0D0000000020202839292D506F00
:10376000776572206F66662E0A0D3E00A007002066
:10377000F0B5A5B0B74D2878401E092800D9EBE177
:103780004000C04678448088400087440900150006
:1037900032004A005D00E5017B009A00D60012016C
:1037A000AD4800780D2802D00A2800D0D4E1AB48FB
:1037B0000121017002205FE0A74800783138082815
:1037C00000D9C9E14000C046784480884000874461
:1037D00008003B0245024A024F0251025B026002AE
:1037E00075029E4801210170032028709C4800F05A
:1037F00080FC99480078682800DDF1E00A2802D0B2
:103800000D2800D0A8E196480078002800D1CEE12C
:103810009248012101700420287092480021016023
:10382000C7E18D4E307801466239182900D9EEE1A2
:10383000012422468A408C4B1A4200D1BBE17728F2
:1038400000D1D6E00421D5E0834800780A2805D0CD
:10385000662800D12EE10D2800D032E180480178A1
:10386000002900D141E181490978002900D13CE1DA
:103870007A4801210170072028707A4800210160F0
:1038800025B0F0BD744800780A2805D0652800D11D
:1038900043E10D2800D05FE17548028875490B8827
:1038A000934200D03CE10222802A00D1C5E1835A34
:1038B0008C5A921C9C42F7D06848012101700A2062
:1038C000F8E1654800780A2805D0202800D130E1C9
:1038D0000D2800D031E1684C207801466539132964
:1038E00000D95BE24900C0467944898849008F4489
:1038F00013008702AB02BF02870287028702DB0246
:10390000870287028702870287022F0387028702C6
:103910008702870245035B0305AC8025FF22204612
:103920002946FCF726FE20462946FEF70FFD002813
:1039300000D16AE3514800F0C7FB474800780A38D5
:10394000232800D908E1400078448088400087445B
:103950002300030103012300030103010301030109
:103960000301030103010301030103010301030137
:103970000301030103010301030103010301030127
:103980000301030103010301030103010301030117
:1039900003010501030110013948002444638463D5
:1039A000C4632146FFF782F93648047000F0D2FC68
:1039B00043E1294800786E2800D13EE1792816D1EC
:1039C0002B488021FEF7C2FC002800D132E12EA056
:1039D000FFF7A2FB214801210170022028702CE191
:1039E000692800D1D4E0792800D1E2E0B4E02CA02D
:1039F000D0E148212C4D287801F094F83278623AD1
:103A0000182A00D98CE11A48811D28485200C04666
:103A10007A449288520097441800830183018301FD
:103A20008301690183018301830183016D018301A6
:103A30008301830183018301780183018301710183
:103A40008301830183018301750109490A31184803
:103A50005BE1C0469C070020210800208E07002063
:103A6000140700202C0800202104290194070020BD
:103A700002060020A00700200A0700202263000899
:103A8000002C0140820600200D0A636F6E66696794
:103A900075726174696F6E2073617665640D0A00DA
:103AA0000D0A592F4E3F0000300800200F62000819
:103AB000E5610008FB4801784A424A41027025B09E
:103AC000F0BD01463039092946D88000FB4940182D
:103AD000C0380078FA4C2083FAA0FFF71DFB208B3A
:103AE00005214143F948401854E1F94A0021116089
:103AF000F34A1488F74B1E88A64208D10224802C72
:103B000000D19AE0165B1F5BA41CB742F7D0F24AC3
:103B1000012313700A222A70EBE2F0480121E8E247
:103B2000ED48012101700A202870ED480021017044
:103B300012E0EC480178491CDBE2EA4909780229E5
:103B400000D165E1012900D170E1002904D1E649E5
:103B50000A78002A00D155E225B0F0BDE34802689A
:103B6000E12189008A4200DB0A466432026001AC2E
:103B700008E0DE480268DE498A4200DC0A46643A10
:103B8000026005ACDB492046FCF756FB204601E10C
:103B90005024CB4D285B414241412953D648FFF781
:103BA000BBFA285B002800D196E0D44895E001F0EC
:103BB000F1F8D34880E0112929D1D24D2878482145
:103BC00000F0B0FFBE480288287803E00125002DF0
:103BD00000D1D1E0030601D0401E00E02120FE23E9
:103BE00003400A2BF2D0C3B29A422546EFD0B44923
:103BF0008D1C00273E460F2F05D0771CA91C2D8851
:103C00009D420D46F6D10F2EE0D30025DFE70D28AB
:103C100002D00A2800D0B1E0B1480078002800D1D5
:103C2000C2E0AD480121017005202870A84800219C
:103C30000160BBE0B4A0FFF76FFAA7480121017053
:103C40000220287025B0F0BDA34801210170032097
:103C50002870A34800220270A0484AE29E48012131
:103C60000170042026E09C4801210170052021E01C
:103C7000AB488FE0AB480078002800D192E096482E
:103C800001210170072015E09348012101700820EF
:103C900010E08B480188212900D988E14188212939
:103CA00000D984E18088212800D980E18A48012157
:103CB0000170092028708A4800211AE2994800788A
:103CC00000286FD09848FFF727FA7D48007D04212F
:103CD00000F028FF25B0F0BD9448FFF71DFA012041
:103CE00040030021FEF732FF25B0F0BD74490831D2
:103CF0008F480AE072490E318E4806E070490C3157
:103D00008D4802E0FC4910318C482A780A80FFF780
:103D100003FA2878052141436C484018FFF7FCF965
:103D20003078772802D08648FFF7F6F9F248018804
:103D30002878012202E00125002D1DD0C3B2212BDD
:103D400001D0401C00E00020FE2303400A2BF2D0EB
:103D5000C3B299421546EFD0E74CA51C00273E465A
:103D60000F2F05D0771CAC1C2D889D422546F6D11F
:103D70000F2EE0D30025DFE7624908707148FFF796
:103D8000CBF9604800780521414350484018FFF7BF
:103D9000C3F96D48FFF7C0F925B0F0BD00282FD159
:103DA00000BF93E16948F5E700F0F4FF0026012425
:103DB000D14D07E0002100291DD0701CF1B221294E
:103DC0000646DBD27E2030400A2811D0F0B2298886
:103DD00081422146EFD0A91C00231A460F2B05D0A3
:103DE000531C8F1C098881423946F6D10F2AE1D233
:103DF00001210029E1D1F0B2042100F093FEDCE7BB
:103E0000E548FFF789F92078FFF79CF9E3A05BE12B
:103E1000D9490A78931E5A425A4103463A3BDBB2CB
:103E20005B087B2B00D2C4E00023C3E0CC490A78B6
:103E3000931E5A425A4103463A3BDBB25B087B2B46
:103E400000D2BEE00023BDE0B4A0FFF765F9002674
:103E5000A94FB9A4BA5B05AD28462146FCF7ECF999
:103E60002846FFF759F9B61C802EF3D1B4A02BE1F8
:103E7000B548FFF751F90024B44DB84F05AE3046B0
:103E8000B3A12246FCF7D8F93046FFF745F928469A
:103E9000FFF742F93846FFF73FF90E35641C402C16
:103EA000ECD113E1310800200025ECB2204600F0EF
:103EB0007FFE6D1C3F2CF8D308E1C046AC570008CC
:103EC000020600200D0A564241543A00000000202C
:103ED0002C080020A00700208E07002021070020CA
:103EE00014070020320800200A07002034080020B0
:103EF0007CFCFFFFDC6000083A6100089962000862
:103F000040080020300800200D0A454550524F4D12
:103F1000207772697465206661696C65640D0A00BA
:103F20005C6100089407002088610008A86200080E
:103F300007620008FA610008ED6100083A620008B3
:103F4000E55D000823620008E6600008756100086E
:103F500083480078022878D182480078824C002675
:103F600026547A4D20462946FCF72CFB00284ED0DB
:103F70000E35761C402EF5D1FF2449E078480078B4
:103F800002286DD177480078774C002626546F4D73
:103F900020462946FCF716FB002845D00E35761C36
:103FA000402EF5D1FF2440E000F0F4FE8EE0804882
:103FB000F0E601231343012B11D1704A1378704CA2
:103FC00006E001231343012B14D1664A1378664C93
:103FD000E05402200870581C107025B0F0BD01227A
:103FE0000A7069490A880A235343C0183038088088
:103FF00025B0F0BD01220A705C490A780A235343B8
:10400000C0183038087025B0F0BD3EA05CE0F4B2B6
:10401000FF2C16D15648FFF77FF85348FFF77CF87E
:104020005448FFF779F80EE0F4B2FF2C14D1504851
:10403000FFF772F84C48FFF76FF84E48FFF76CF83F
:104040000CE04A480470FF2C40D0484800783F28D4
:1040500039D800F0ADFD39E044480470FF2C35D06C
:1040600045480078022822D144480078444C002674
:104070002654444D20462946FCF7A4FA002805D0D2
:104080006D1D761C222EF5D1FF2400E0F4B2FF2C2A
:1040900009D13EA0FFF740F83948FFF73DF8354811
:1040A000FFF73AF801E038480480FF2C0ED02F4883
:1040B00000783F2807D84100334A12880E4B5A52E5
:1040C00000F076FD02E03348FFF726F83748FFF7A7
:1040D00023F8264800210170094801702A48018010
:1040E00006480170254801701E4801702248017081
:1040F0001B48017025B0F0BD0206002032080020E8
:104100000A0700200D0A454550524F4D2065726147
:104110007365206661696C65640000000D0A75694D
:104120006E7431365F742070696E73746F7261677C
:10413000655B36345D3D7B0025692C200000000066
:1041400008087D3B00000000F6580008B000002081
:10415000696E6465782025693A200000E55D0008F5
:10416000F8060020F7060020F9060020F6060020D9
:1041700045610008666300080F0700200E07002055
:1041800010070020000000200C0700200D0A7069B5
:104190006E202200106300085161000822646F65E0
:1041A00073206E6F7420657869737400E96000088D
:1041B000B161000870B50C4C20680C4D2968081AD4
:1041C000C92810D30A4E3078002801D0042100E01D
:1041D00048210848007800F0A5FC28682060307865
:1041E00041424141317070BD900700209807002086
:1041F0000907002030080020F0B581B0474800785A
:104200000125002849D0464EB08AFF21B182708234
:10421000C0B2042100F086FC002704E0781CF9B24B
:104220002129074622D27E2038400A2801D10120C8
:1042300015E0F9B230888842284610D00020C243E9
:10424000B31C0E2A08D09C1C521C1B888B42234690
:10425000F7D10F2AEBD302E00F220F2AE7D3002871
:10426000DCD1F8B2482100F05DFCD7E700F07EF920
:104270002C490870002848D03048FEF74DFF708A5E
:10428000052460432E4D2818FEF746FF2DA0FEF7AB
:1042900043FFB08A6043281838E00026204C05E030
:1042A000002100291BD0761C222E2CD0FE2030406D
:1042B0000A2811D0B0B2218881422946F1D0A11C30
:1042C00000231A460F2B05D0531C8F1C09888142EE
:1042D0003946F6D10F2AE3D201210029E3D11C4847
:1042E000805D0028DFD1F0B200F0C6F90028DAD0F6
:1042F00066821248FEF710FF052070431049081827
:10430000FEF70AFFCFE701B0F0BD07A0FEF704FFFC
:1043100000200249087001B0F0BDC046210700200E
:104320000206002094070020576F726B61726F7550
:104330006E64206661696C6564000000306200088C
:10434000000000200D0A4C617463683A0000000010
:1043500024070020F0B581B082480078401E824CCE
:10436000052829D87844007940008744023D6083BD
:10437000A6C904260025204631462A46FEF76AFCD7
:10438000204631462A46FEF773FC60262046294621
:104390003246FEF7B5FD012220462946FEF75AFCBB
:1043A000204629462A46FEF763FC08252046294672
:1043B0003246FEF7A5FDC5E00025204629462A46DF
:1043C000FEF748FC0426204629463246FEF750FCFC
:1043D000204631462A46FEF73DFC2046314632460D
:1043E000FEF746FC0825ADE00025204629462A4672
:1043F000FEF730FC204629462A46FEF739FC042702
:104400006026204639463246FEF77AFD01222046D4
:104410003946FEF71FFC204639462A46FEF728FC9F
:104420000825204629463246FEF76AFD8AE008261E
:104430000025204631462A46FEF70CFC2046314630
:104440002A46FEF715FC04276026204639463246E8
:10445000FEF756FD012220463946FEF7FBFB2046BB
:1044600039462A46FEF704FC204629463246FEF726
:1044700047FD67E004260025204631462A46FEF720
:10448000E9FB204631462A46FEF7F2FB0827602664
:10449000204639463246FEF733FD01222046394692
:1044A000FEF7D8FB204639462A46FEF7E1FB2046B8
:1044B00029463246FEF724FD44E0002520462946E1
:1044C0002A46FEF7C7FB204629462A46FEF7D0FBC0
:1044D00008276026204639463246FEF711FD0122A4
:1044E00020463946FEF7B6FB204639462A46FEF7F7
:1044F000BFFB0425204629463246FEF701FD21E098
:1045000008260025204631462A46FEF7A3FB204612
:1045100031462A46FEF7ACFB602620462946324645
:10452000FEF7EEFC012220462946FEF793FB2046CB
:1045300029462A46FEF79CFB04252046294632469A
:10454000FEF7DEFC002220462946FEF783FB04220C
:1045500020462946FEF78CFB20212046FEF700FC72
:1045600001B0F0BD82060020002C0140F0B581B002
:1045700000F082FE6420FDF7B5FD0022F7481746E3
:1045800008E00120002821D0781CF9B22129074633
:10459000F24848D27E2139400A29F2D0FEB2018881
:1045A000B142EED01546811C00231A460F2B05D0D0
:1045B000531C8C1C0988B1422146F6D10F2A01D325
:1045C000002000E001202A460028DDD124480668AA
:1045D000224804680092002A05D1F9B2DF4881829E
:1045E0008021FDF7B3FEC836A4B20A34FDB204211F
:1045F000284600F097FA009A03E019480068B04294
:10460000C2D81648006880B216490860A042F4D9A2
:104610004821284600F086FAD04885820A20FDF716
:1046200061FD0122E9E7002A144604D10E49818286
:104630008021FDF78BFE0948006880B2FCF7C1FBC2
:1046400002460B4609480A49FCF752F9FCF712F9F1
:1046500008490860E0B201B0F0BDC04654240140F2
:104660009807002038080020FFFF00003333333361
:104670003333B3403C08002010B5062141430C4AB7
:10468000505C431E032B09D80920C0067B441B79CC
:104690005B009F4408010507084804E0002010BDA6
:1046A000054800E0034851184988FEF7AAF810BDF4
:1046B0002A580008000C0048000800480004004880
:1046C00080B582B001AA012393705170107010461A
:1046D000FEF7B4F802B080BDF0B589B000248B4D70
:1046E0002646274613E0721C07A831461646C9B273
:1046F00044542878042100F015FA28786978491C78
:10470000C9B200F031FAED1C641C062C07D0A87861
:104710000028E8D07A1C08A839461746E7E70020A9
:10472000012701460290064606970091C8B208A9E3
:104730000D5C0320059045437449485D4C19617830
:1047400000F012FA0196F0B207A90E5C05984643F4
:104750006E49885D89190591497800F005FA6B4822
:10476000405D182100F0DEF96848805D042100F00A
:10477000D9F902990491039102986549087003E000
:10478000681CE9B221292CD205467E2630400A2831
:1047900001D1012117E0E8B25E490988814239461A
:1047A00011D05C49891C00231A460F2B05D0531CDD
:1047B0008F1C098881423946F6D10F2A01D3002186
:1047C00000E00121069F0029DAD12178E8B2884271
:1047D000D6D0059909788842D2D0482100F0A2F9B4
:1047E000CEE74DA00499455C2846FEF7ABFC0A20B5
:1047F000FDF778FC46480078A8423ED10398411C5A
:104800000828B7D921784348818305990978C1835D
:104810008021FDF79BFD0124B04804707D20C0007D
:10482000FDF760FC002508E00021069F00291FD04D
:10483000681CE9B22129054657D2284630400A288B
:104840002146F3D0E8B23349098881423946EDD098
:104850003049891C00231A460F2B05D0531C8F1C8E
:10486000098881423946F6D10F2ADDD20121DCE7E1
:10487000E8B2042100F056F9DAE7002003E0681CF2
:10488000E9B221292BD2054630400A2801D1012165
:1048900017E0E8B21F4909888142394611D01D4905
:1048A000891C00231A460F2B05D0531C8F1C098826
:1048B00081423946F6D10F2A01D3002100E00121BF
:1048C000069F0029DBD12178E8B28842D7D005992C
:1048D00009788842D3D0042100F024F9CFE764207E
:1048E000FDF700FC019E009903E0FEF7B9FB64268A
:1048F0003146491CC8B2032800D216E7761CF0B234
:104900000228029900D810E709B0F0BD77630008CB
:10491000200800200206002048656C6C6F576F72FB
:104920006C640000F0B581B00546C44F3878FFF7DD
:10493000A3FE0446B878FFF79FFE06463879FFF7D6
:104940009BFE7100091980000818012D01D0072174
:10495000081AC0B20249085C01B0F0BD020600208E
:10496000E0570008012460042146FDF78FFFA004F2
:104970002146FDF78BFFE0042146FDF787FF200568
:104980002146FDF783FFFDF787FBFDF731FB600351
:1049900000263146FEF7DAF84B200002FEF724FB32
:1049A0000A2031463246FFF78BFE43484349444ACA
:1049B0002346FDF737FC00F0D3F900281ED041480C
:1049C000808A212805D8C0B2482100F0ABF83E48C3
:1049D000047000F051FC6420FDF784FB3B48006844
:1049E00080B2FCF7EEF902460B4639483949FBF72D
:1049F0007FFFFBF73FFF3849086009E000F004FA49
:104A00007D20C000FDF76EFBFFF7B0FD2E4908705A
:104A10002C48818B212905D8C08B212802D8FEF78C
:104A20001FFB26462D4D2E702D4E3DA430780028BC
:104A300003D000203070FEF7FFFB28780928F5D856
:104A40007844007940008744080B072B2E31073447
:104A5000070400F0D5FBE9E7E8E7FFF73DFEE5E7EF
:104A600020A0FEF759FB1D2001012048FEF778FB2E
:104A70001FA0FEF751FB24A0FEF74EFB287801286B
:104A8000D4D100272046FEF747FB6420FDF72AFB20
:104A9000781C2978302FC9D801290746F2D0C5E7FC
:104AA00000F0DEF9C2E7FFF785FBBFE700F0D4F8BE
:104AB000BCE7FFF7A1FBB9E7300002400438014032
:104AC0002108002002060020940700205424014001
:104AD000333333333333B3403C0800209C0700208A
:104AE0008E0700200A0A0A0A0D0000003004002088
:104AF00057656C636F6D6520746F2050696E4669F1
:104B00006E6465720A0D0000707265737320656EC5
:104B100074657220746F20636F6E74696E756500C2
:104B20002E000000B0B5062343431D4CE05C421E3E
:104B3000032A16D80920C0067A44127952009744F5
:104B400006010305194802E0174800E01548054A28
:104B5000D17003219170E118498811801146FDF749
:104B6000DDFDB0BDE8060020B0B50A460621414390
:104B70000B4B585C441E032C11D80920C006C046BC
:104B80007C4424796400A74406010305074802E039
:104B9000054800E0034859180979FDF720FEB0BD2B
:104BA0002A580008000C004800080048000400488B
:104BB000F0B589B004461F48FEF7AEFA0E206043F8
:104BC0001D490D182846FEF7A7FA2846FBF76EFC8C
:104BD0000D280CD000262020FEF7B4FA2846FBF75B
:104BE00065FC0D21081A761CF1B28842F3D86600E4
:104BF000124FBB5B01AD12A128462246FBF71CFBFE
:104C00002846FEF789FA202C11D2BC192820FEF77D
:104C100099FA2088222801D30DA003E00521414301
:104C20000A484018FEF778FA2920FEF78BFA09B0F7
:104C3000F0BDC046E55D0008B0000020020600207F
:104C400028253269293A20253569200000000020F6
:104C50006E6F742073657400F0B589B000242E4E19
:104C60001FE001AD284634A12246FBF7E5FA2846AD
:104C7000FEF752FA30780521414331484018FEF7DB
:104C80004BFA3846FCF7CCF902460B4628462DA1D4
:104C9000FBF7D2FA2846FEF73FFA361D641C0D2CAE
:104CA00031D01E48005D0028F7D03078FEF77CFA3E
:104CB000FCF78FF805460F4619480068FCF7B0F975
:104CC00002460B4628463946FCF786F800252A4658
:104CD000144BFCF781F82A46134BFCF77DF8FBF7E1
:104CE000C9FD0746114800780028BAD13846104956
:104CF00000F025FC0028D0D138460E4900F014FC05
:104D00000028AED0C9E711A0FEF706FA7D20000109
:104D1000FDF7E8F909B0F0BDAC570008EC0600203B
:104D20003C08002000003F400000303F31080020D8
:104D30000000A0410000344225692D3E0000000023
:104D4000000000203A2566560A0D00003D3D3D3D1D
:104D50003D3D3D3D3D3D3D3D3D3D3D3D0A0D000060
:104D600010B5A0B06C4680212046FDF79BFA40208C
:104D7000205A0749884207D1384869468022FBF704
:104D8000B7FB012020B010BD002020B010BDC046F0
:104D9000ABDC0000B0B5314B1888174A118881424E
:104DA0001FD10020C143921C9B1C3E2912D09C1C89
:104DB000951C491C1B8812889A4223462A46F4D027
:104DC0000E4A012313700E4A0A2313700D4A107005
:104DD0003F290FD3094801210170094802210170C0
:104DE000B0BD06480121017005480A21017005483F
:104DF00000210170B0BDC046A00700208E07002032
:104E00009C0700201407002070B50025E34C07E044
:104E1000012000281CD0681CE9B2212905461CD2BB
:104E20007E2028400A28F3D0E8B221888142EFD0C2
:104E3000A11C00231A460F2B05D0531C8E1C098879
:104E400081423146F6D10F2AE2D300200028E2D178
:104E5000E8B24821FFF766FEDDE770BD02060020DC
:104E6000F0B583B0CD4D6888FF3841424141288874
:104E7000FF38424242410A43A888FF38414241413B
:104E80001143012900D050E101200290012203E0EA
:104E90000122012900D048E1C14801920270FFF7C8
:104EA00059FA1E20FDF71EF9002408E00D5D681E6A
:104EB00085410D55B94D641C222C00D1B3E0FE266E
:104EC000204630400A2801D1012115E0A0B22988EE
:104ED0008142029910D0A91C00231A460F2B05D03D
:104EE000531C8D1C098881422946F6D10F2A01D313
:104EF000002100E00121A94D0029DCD1A84800785B
:104F0000401E0528D7D8C046784400794000874421
:104F1000021827465B69E7B23846FFF7ADFB00256C
:104F20000028284603D19F48005D411E88419D49C5
:104F300008553846FFF7A0FB002828469A4A23D197
:104F400025E0E7B23846FFF797FB00250028284602
:104F500003D19448005D411E8841924908550CE0F8
:104F6000E7B23846FFF788FB0025002828468D4A1F
:104F700002D0105D411E884110553846FFF77CFB7A
:104F800000282846884A02D1105D411E88411055EC
:104F90003846FFF771FB002884498AD086E7E7B2DC
:104FA0003846FFF769FB0025002828467D4A02D0D5
:104FB000105D411E884110553846FFF75DFB002803
:104FC0002846794A26D122E0E7B23846FFF754FB5B
:104FD000002500282846734A02D0105D411E8841F2
:104FE00010550DE0E7B23846FFF746FB00250028D4
:104FF000284603D16B48005D411E88416949085528
:105000003846FFF739FB00282846674A02D0105D72
:10501000411E884110553846FFF72EFB0028634992
:1050200000D046E742E701994A1C062900D233E73F
:1050300000245F4F5C4903E07F1D641C222C23D0B9
:105040005848005D002807D02C805AA0FEF764F86D
:105050003846FEF761F85449085D002807D06C8097
:1050600057A0FEF759F83846FEF756F84E494F4814
:10507000005D0028E0D0AC8054A0FEF74DF8384623
:10508000FEF74AF84849D7E7222401274548214638
:105090003A46FBF76EFA444821463A46FBF769FA6E
:1050A000424821463F4C3A46FBF763FA2888019074
:1050B000002102E0491C222924D00A4632400A2A53
:1050C0003B4616D08AB201989042029B11D0AB1C8D
:1050D00000252C460F2D05D0651C981C1B8893427B
:1050E0000346F6D10F2C01D3002300E001232B4D02
:1050F0002C4C002BDED000202B4A505460542B4AFD
:105100005054D7E7A988FF39484248416A88FF3A96
:10511000514251412A88FF2A029A00D00A46002AA9
:10512000029900D0B4E60146B2E62B48002505609E
:10513000456085602948007800282DD028A0FDF71B
:10514000EBFF164A9088518812882B4B2E4602E0BE
:10515000ED1C422D15D05F5DBA4204D0B94207D094
:10516000B842F5D109E05C19A478A619B942F7D183
:105170005C19A478A619B842EAD15C19A478A619DA
:10518000E6E7F0B2002804D0032802D01B48FDF760
:10519000C3FF00201149087003B0F0BD02060020D3
:1051A0008206002024070020480700206C0700200A
:1051B000000000200D0A48414C4C413A000000001C
:1051C0000D0A48414C4C423A000000000D0A48418B
:1051D0004C4C433A00000000342C014021070020D1
:1051E0000D0A446574656374696F6E207375636539
:1051F000737366756C000000E8570008AF62000822
:10520000B0B5164C2078FFF78DFB154D29788842F4
:1052100007D02078FFF786FB287012490870FFF747
:1052200099F84A201049095A104800684843104923
:1052300001258842294600DC002121707D21C9001A
:1052400000F06AF8FBF7BDFDEA079143FBF774FD38
:105250000849086048608860B0BDC046000600206C
:1052600001060020820600200206002034080020EB
:10527000E7030000342C014070B586B0144C204682
:10528000FCF742FE012568022946FDF729FB0026AE
:105290000596A802029020200190A8040490009690
:1052A00069462046FCF748FE20462946FCF724FEC6
:1052B0000F21204632463346FCF756FE2846FCF7BF
:1052C0007FFE20462946FCF771FE06B070BDC04641
:1052D0000024014043088B421AD3002203098B4269
:1052E00079D3030A8B425ED3030B8B4242D3030C68
:1052F0008B4227D30902FF2212BA030C8B4202D33E
:105300001212090203D0030B8B4233D31AE0D3E00D
:10531000411A8041401C704703460B4371D4430837
:105320008B42F5D3002203098B4254D3030A8B42EC
:1053300039D3030B8B421DD3030C8B4202D394460B
:105340006EE0090AC30B8B4201D3CB03C01A524152
:10535000830B8B4201D38B03C01A5241430B8B4208
:1053600001D34B03C01A5241030B8B4201D30B03F1
:10537000C01A5241C30A8B4201D3CB02C01A524118
:10538000830A8B4201D38B02C01A5241430A8B42DB
:1053900001D34B02C01A5241030A8B4201D30B02C4
:1053A000C01A5241CDD2C3098B4201D3CB01C01ADE
:1053B000524183098B4201D38B01C01A52414309E8
:1053C0008B4201D34B01C01A524103098B4201D3D6
:1053D0000B01C01A5241C3088B4201D3CB00C01A43
:1053E000524183088B4201D38B00C01A52414308BB
:1053F0008B4201D34B00C01A5241411A5241100056
:105400007047CA0F00D04942031000D340425340B6
:1054100000229C4603098B422DD3030A8B4212D3F0
:105420008901FC2212BA030A8B420CD38901921122
:105430008B4208D3890192118B4204D3890137D062
:10544000921100E08909C3098B4201D3CB01C01A34
:10545000524183098B4201D38B01C01A5241430947
:105460008B4201D34B01C01A524103098B4201D335
:105470000B01C01A5241C3088B4201D3CB00C01AA2
:10548000524183088B4201D38B00C01A5241D9D2BA
:1054900043088B4201D34B00C01A5241411A00D23B
:1054A00001465241104663465B1000D340427047AC
:1054B00063465B1000D3404201B50021004201D099
:1054C000C9430846C046C04602BDF8B5040C8BB2BD
:1054D000264682B25E43104658430D0C370C360404
:1054E00000218019164679416E43370C3604801925
:1054F000264679416E438919F8BD00004900CA0269
:105500000243100000D004204A0D01D001221043B4
:10551000044A490D914201D102210843012800D1DA
:1055200005207047FF07000010B500F033F8EFF3D7
:105530000080800001D5012010BD002010BD10B5F5
:1055400000F052F8EFF300804000800F012801D0F6
:10555000012010BD002010BD30380A2801D20120E2
:10556000704700207047000010B500290AD0087865
:10557000002807D005487844FBF724F8002801D01C
:10558000002010BD0248784410BD0000360E000017
:105590002E0E00000123DB0502000A430DD4DA427F
:1055A00003D49A4207D488427047D84214D4D942CF
:1055B00012D48842704780427047DA4203D59A423B
:1055C000F9D5814270475B004200DA4204D24A00BA
:1055D000DA4201D28142704710B5024AFCF790FBD3
:1055E00010BD00BF090013040123DB0502000A43BC
:1055F0000DD4DA4203D49A4207D488427047D84285
:1056000014D4D94212D48842704780427047DA429B
:1056100003D59A42F9D5814270475B004200DA42D5
:1056200004D24A00DA4201D28142704710B5024AE0
:10563000FCF766FB10BD00BF0900160403B4024866
:105640007844844603BC60477DBCFFFF3031323371
:1056500034353637383941424344454640305800A6
:1056600030313233343536373839616263646566D8
:105670004030780004000008000000000000000234
:10568000000100001080807F7E7D7C7B7A797877B6
:105690007676757473727171706F6E6E6D6C6C6B03
:1056A0006A6A6968686766666564646363626161A3
:1056B00060605F5F5E5E5D5D5C5C5B5B5A5A595922
:1056C000585857575656555555545453535252528D
:1056D00051515050504F4F4F4E4E4D4D4D4C4C4CE4
:1056E0004B4B4B4A4A4A494949484848474747472C
:1056F0004646464545454444444443434343424269
:10570000424241414100000002400000000000A070
:105710000000000005400000000000C8000000007C
:105720000C4000000000409C0000000019400000F8
:105730000020BCBE0000000034400000BFC91B8E2A
:1057400000000004B5400000504BCFD06607E2CF08
:10575000010000006C4100003E8251AADFEEA73438
:1057600001000000D9420000DCB5A0E23A301F97EA
:10577000FFFFFFFFB4450000FD25A0C8E9A3C14F0E
:10578000FFFFFFFFFF3F000000000080000000005F
:10579000FF3F00000000008000000000000000004B
:1057A00001020304010203040607080900000000C7
:1057B00001000100020002000300030004000400D5
:1057C0000500050006000600070007000D000800A0
:1057D0000E0009000F000A0017000B000000000077
:1057E0000003050401020600000201010201020299
:1057F000010502010804010904010C02010E040163
:105800001002011702011A06011B06011C060106FF
:1058100001000701000D0100110100120100150631
:105820000016060021050000000001000100000034
:105830000100020001000100040002000100080054
:105840000300010010000400010020000500010019
:1058500040000600010080000700010000080B0066
:10586000010000100C00010000200D0001000040AC
:105870000E00010000800F00020001000000020085
:105880000200010002000400020002000800030000
:105890000200100004000200200005000200400089
:1058A000060002008000070002000001080002005C
:1058B00000020900020000040A00020000080B00B8
:1058C000020000100C00030000200D000300004047
:1058D0000E00030000800F0004000100000004001F
:1058E000020001000400040002000400080003009C
:1058F0000400800007000D0A0A5468697320746F61
:105900006F6C20616C6C6F7720796F7520746F20DD
:105910006D6F6469667920616E64207669657720B1
:10592000616C6C2073617665642070696E6F75744C
:105930007320616E642073657474696E67730A0DF9
:105940000A0D55736167653A20205B636F6D6D6169
:105950006E645D203C616464726573733E203C76C6
:10596000616C75653E0A0D0A0D436F6D6D616E6465
:10597000733A200A0D0A0D20722020202020726523
:10598000616420736176656420646174610A0D202E
:10599000772020202020777269746520646174610B
:1059A0000A0D20682020202020646973706C6179C2
:1059B00020746869732068656C7020706167650A7F
:1059C0000D206C20202020206C69737420616C6C89
:1059D00020646174610A0D20672020202020676503
:1059E0006E65726174652070696E73746F72616741
:1059F00065207661726961626C6520696E6974699F
:105A0000616C697A657220746F20636F70792069A8
:105A10006E206669726D776172650A0D20652020BF
:105A2000202020657261736520616C6C2064617454
:105A3000610A0D2078202020202065786974206379
:105A40006F6D6D616E64206C696E6520746F6F6C34
:105A500020616E6420676F206261636B20746F2029
:105A60006D61696E206D656E750A0D0A0D41646485
:105A70007265737365733A0D0A0A000A0D416C6C06
:105A80002070696E732077696C6C20626520736585
:105A90007420686967682C207468652073656C657C
:105AA000637465642070696E2077696C6C20626C29
:105AB000696E6B2C2074686520616C726561647915
:105AC0002073617665642070696E732077696C6CF1
:105AD0002072656D61696E206F66662E20496620B2
