:020000040800F2
:10000000000A002065010008910100089301000822
:1000100000000000000000000000000000000000E0
:100020000000000000000000000000009501000832
:10003000000000000000000097010008010F000808
:100040009B0100089B0100089B0100089B01000820
:100050009B0100089B0100089B0100089B01000810
:100060009B0100089B010008410900089B01000852
:10007000A5050008911000089B0100085111000817
:100080009D11000800000000000000009B01000816
:10009000000000009B0100089B0100089B01000874
:1000A000000000009B0100089B0100089B01000864
:1000B0009B010008000000009B01000800000000F8
:1000C00000F002F800F03EF80CA030C80838241800
:1000D0002D18671EA246AB4654465D46AC4201D180
:1000E00000F030F87E460F3EB6460FCC0126334274
:1000F00000D0FB1A3343A246AB461847AC210000A0
:10010000CC210000103A02D378C878C1FAD852073F
:1001100001D330C830C101D504680C6070470000BD
:100120000023002400250026103A01D378C1FBD813
:10013000520700D330C100D50B6070471FB51FBDFB
:1001400010B510BD00F0FAF91146FFF7F7FF01F006
:10015000D9FD00F012FA03B4FFF7F2FF03BC00F080
:1001600019FA0000104880F308881048104901600F
:1001700010480168090E104A914205D10F480C49F8
:1001800001600F480F4901600F4880470F48004742
:10019000FEE7FEE7FEE7FEE7FEE7FEE70C480D4957
:1001A0000D4A0E4B70470000000A002060200240FC
:1001B00001000000040000001F00000018100240B1
:1001C00000000140000000001D0F0008C1000008F1
:1001D00000040020000A0020000600200006002085
:1001E000704770477047000030B50346CA02400DA3
:1001F0001043164D164C0A1502D02043002A06DB88
:10020000AA1A002A12DDD040FF2A0BDC30BD5205AD
:10021000520D01D140004008AA1A07D4D0404042F4
:10022000FF2A01DD002030BD0028FCDD4A00002B44
:1002300001D0012000E00020101801225205D04218
:10024000F0D8C817C043604030BD00001E04000055
:10025000000000800346CA02400D10B510430A1585
:1002600004D00124E4072043002A05DB0A4CA21A2B
:1002700004D4D040FF2A00DD002010BD4A00002B2E
:1002800001D0012000E00020101801225205D042C8
:10029000F2D8C817C04310BD1E0400001F22030C73
:1002A00002D10F22000402D0030E03D004E000208C
:1002B000014670470002083A030F01D10001121FE6
:1002C000830F01D18000921E002801DB4000521EE6
:1002D000120551184205C012411810467047C10F4F
:1002E000C90700D04042012292071143D6E70121FD
:1002F0008907D3E7F0B58B4C0F09254689B0BD437C
:100300007BD01D092646AE43FAD00E465E402740FC
:10031000F60F3E43254071D024012142FBD0FF243B
:10032000AD19A4042D1B039501252D05DB02DB0A65
:10033000C9022B43C90A29431E010901040F130FE7
:10034000050121431701880B820391432D098C4637
:10035000A90B1E438A039543B30B9A0396433F09A7
:10036000BA0B9403A74302962E467E430497B646E3
:100370004E19D7190C460196544305977E43371BF7
:100380007646BF1B3601B646BE0B3619009676463A
:10039000BC043719009C01D3641C00946400002F36
:1003A00001D001263443029E049F754366467E4376
:1003B0000496760034196E0034190094029C019E54
:1003C0001C196643751BAE46069465464519059C87
:1003D00005956C43594375460891691A0191049E2D
:1003E00001465143A41B0491611A009C0791E10648
:1003F00005D061090122114302E072E06EE061095B
:10040000089D00272C0A2D066918049D7C412A0AA4
:100410002D066918019D6241AC0DAD026D18544165
:10042000079A910D920255196141029A6446584308
:100430005443069B059A5A43121A131B9A0E9B01AA
:100440005B187A41010B0005C3185141220A2006AE
:1004500044195A419A4200D2491C0120400281426B
:1004600003D315230226F64302E014230326F643A2
:100470002020C51AA9401746AF40DA400A4320465B
:100480000399D8400914731819055118039A384371
:10049000D2075140AC4009D00122944006D300223B
:1004A000401C5141002C01D1400840001E4A93429B
:1004B00012D3012203989206904207DB05204007E1
:1004C00009181A480143C012414004E003204007C4
:1004D0000818C10FC907002009B0F0BD0020F107BE
:1004E000FAE705180C464C4111486D42A04115D35E
:1004F00094181A465A410E48644290410ED3012086
:100500004A004005824209D35A00824206D359402C
:10051000C90F084AC90700201143DDE7002006493A
:10052000DAE700000000FF07FE070000FFFFFF7F83
:100530000000E0FF0000F07F0000F87F754600F04B
:1005400025F8AE46050069465346C008C0008546FA
:1005500018B020B5FFF722FE60BCB6460026002783
:10056000C0C5C0C5C0C5C0C5C0C5C0C5C0C5C0C563
:10057000403D490849008D46704710B50446C046C5
:10058000C0462046FFF7E7FD10BD00000048704759
:100590002800002001491820ABBEFEE7260002001B
:1005A00070470000F0B581B0454C0221204600F0B4
:1005B000DBF8002807D00221204600F0B6F84148B9
:1005C000802100F065FE01252046294600F0D4F880
:1005D000002873D03C4E30787E2808D8401C3070FC
:1005E000A06B80B23D490A681018086062E07F285D
:1005F0001ED13A4F3868C009386001252046294687
:1006000000F07CF84B2080003988081881B2002265
:10061000204600F086F80821204600F078F80221F4
:1006200020462A4600F0B0F83078401C307041E097
:10063000E06B80B2FFF753FE244A254BFFF75AFECA
:100640000026244F32463B46FFF754FEFFF7CCFD11
:1006500021490860A06B2149096880B2401AFFF760
:1006600046FE1F4A1F4BFFF745FE32463B46FFF74B
:1006700041FEFFF7B9FD1C4F386001F025F901F08C
:10068000DBF838681949884200DB35460D482946B1
:1006900000F0F4FD164D287801F0C0FA154E3178BF
:1006A000884207D0287801F0B9FA307012490870F2
:1006B00001F02EF90121204600F03EF801B0F0BD16
:1006C00000240140002C01404C030020DBF97E6A2D
:1006D000BC74A33F00005940F403002038030020FD
:1006E000333333333333D33F34030020E903000083
:1006F0000400002005000020100000204A1E914147
:100700004900426802239A435118416070470F2202
:100710001203836893438360090382680A438260FB
:1007200070470904891801617047012900D002212E
:1007300042690A4342617047012900D0022142699F
:100740000A43426170474A1E9141426801239A431D
:100750005118416070474A1E914189008268042304
:100760009A43511881607047491E4A1E914142695F
:10077000CA40012010407047491E4A1E91414269FB
:10078000CA400120104070478368012905D101212A
:10079000002A05D00B43836070470221002AF9D15B
:1007A0008B4383607047000042680B4B13404360EB
:1007B0004A680B68134342681A4342608268074BD9
:1007C000134083600A694B6913438968194382683F
:1007D0000A4382607047C0460FBCFFFF8FF1F9FFEC
:1007E00010B50F229202446894434460102B00D24B
:1007F0009B0242681A43426001228A40C3689343C5
:10080000C360C3681343C3600804800F04D0034867
:1008100001680C220A43026010BDC0460424014056
:100820004A1E91410902012212028368934359181A
:1008300081607047F0B581B00925EC0608210226D9
:100840002046324600F06FF920462946324600F035
:100850006AF90A212046324600F065F91D4D0D2146
:100860002846324600F05FF90E212846324600F055
:100870005AF90F212846324600F055F96E463046A7
:1008800000F066F9144800902046314600F003F964
:100890000127780230802046314600F0FCF8B8028B
:1008A00030802046314600F0F6F878033080284644
:1008B000314600F0F0F8B80330802846314600F0A9
:1008C000EAF8F80330802846314600F0E4F801B039
:1008D000F0BDC046000400480001031810B50E48E2
:1008E00000687D21C90001F0DFFB411E080E00D029
:1008F000FEE70A480A4A51600A490B68034003248C
:10090000A4071B190B6000239360072313600A6878
:1009100002400A6010BDC04600000020FFFFFF003B
:1009200010E000E020ED00E081B000900348009965
:10093000016001680029FCD101B070476C03002000
:1009400010B50124600200F02BF8002804D020022A
:1009500000F004F801F0C2FA10BD00000F49086071
:100960007047C046026801239A430A4302607047F9
:1009700080B501680122914301600021016041605E
:100980008160C160C0B20838052101F08DFB0F21E4
:100990008140024802680A43026080BD04000240B0
:1009A000024909680840411E884170470000024022
:1009B000002A03D002680A430260704702688A4333
:1009C00002607047B0B5114A1446103403682340E2
:1009D0000C7A8D7D25430C7C2C434D7C25434C8A21
:1009E0002C438D8A25430C8B2C434D8B2543ACB275
:1009F0001C430460036813408A8B1A430260CA6870
:100A000042600A6882604968C160B0BDFF7FFFFF35
:100A1000F0B58BB001931746029104460125284694
:100A2000294600F0A7F92046FFF7A2FF03AE3046A3
:100A300000F026F80020B0832021B175B08230721A
:100A40000990E80307900198069004970298039094
:100A500020463146FFF7B6FF0226204631462A4699
:100A6000FFF7A6FF054831462A4600F019FE20464A
:100A70002946FFF777FF0BB0F0BDC04600380140B4
:100A8000002181838161017201604160C160016167
:100A9000818281757047F0B583B0CB780F221C46F8
:100AA00002921440DD06019301D58D782C4300910C
:100AB0000A880026374603E0361D7F1C082F0CD01D
:100AC0001546FD40ED07F7D02546B540029BB340E3
:100AD0000168994329430160EEE700990988009174
:100AE0000D0A0026374603E0361D7F1C082F0CD068
:100AF0002946F940C907F7D02146B140029BB340CF
:100B000042689A430A434260EEE70199482903D0BC
:100B1000282906D1143000E010300168009A1143F2
:100B2000016003B0F0BDB0B5082901D3242300E073
:100B30002023C4584907C90E0F258D40AC438A4075
:100B40002243C250B0BD80680840411E88417047B2
:100B500002494180024901807047C04602040000FA
:100B6000FFFF0000002A02D010228150704714229B
:100B700081507047F0B587B00D46009001242046A3
:100B8000214600F005F902200190214600F000F90D
:100B900004AF384600F02CFD0026BE723E813D8039
:100BA000BE7000980590A5072846394600F0DEFC87
:100BB00002AF384600F0F1FBBE8003200004029033
:100BC0002846394600F070FB28460199224600F07D
:100BD000EAFB2846214600F082FC042628463146DE
:100BE00000F00EFD4021284600F082FC28463146E8
:100BF00000F0B6FC8021284600F080FC2846214603
:100C000000F034FB07B0F0BD70B582B0134C0D217D
:100C1000062520462A46FFF786FF0E2120462A4653
:100C2000FFF781FF0F2120462A46FFF77CFF0C4883
:100C3000019001AD20462946FFF72DFF0126B003A4
:100C4000288020462946FFF726FFF003288020460B
:100C50002946FFF720FF02B070BDC04600080048DB
:100C60000020030401480249016070470030004041
:100C7000AAAA000080B582B001AA01239370517026
:100C80001070104600F002F802B080BD70B5017817
:100C90008278002A15D0FC220A400D4BD4588D07CB
:100CA000ED0EFF26AE40B44340788001C0B2A840AC
:100CB0002043D0501F200840012181400548016099
:100CC00070BD1F200140012088400349086070BDAD
:100CD00000E400E000E100E080E100E010B5024641
:100CE000124B00201860214800680128044603DBED
:100CF0001F4C2468002C00D41C60511A0C4A146844
:100D000011600A1BB424544307224A431968891806
:100D10000919174A136899420A4602DD814203DD28
:100D200010BD1A468142FBDC104610BD580300205E
:100D30004003002080B50C490A6813180B600B486B
:100D400000688342024607DC0948006883421A466D
:100D500000DC0246834200DA086050037D2149012D
:100D600001F0C4F980BDC0465003002008000020F7
:100D70000C000020054A002903D0116801431160CE
:100D800070471168814311607047C04614100240DB
:100D9000054A002903D011680143116070471168AA
:100DA000814311607047C0461C100240054A00296B
:100DB00003D01168014311607047116881431160CD
:100DC0007047C04618100240154908680C220240BE
:100DD0000C2A01D0144800E012480A681206120FCB
:100DE000124B9A5CD04009684905490F595CC840CC
:100DF0007047C0460A4908680C2202400C2A01D0FC
:100E0000094800E007480A681206120F074B9A5C6F
:100E1000D04009688904490F595CC8407047C046F2
:100E200004100240409C000000127A0011000020D3
:100E300070B584B02A480068EE490968091A684606
:100E4000FF22F632914202D3264900220A60264C44
:100E50002178002941D0C11C09306A4601239370D2
:100E6000224B1380224A12688A70224B1B680B7136
:100E7000E24D2D680570120ACA701A0A4A711E4A9C
:100E800012880A2353430B702A0EC2702A0C8270F8
:100E90002A0A42701A0A4A7000221849154602E0CE
:100EA0005D1C0C2B10D02B466D46ED5C2D026A406C
:100EB000082503E032466D1E2E06F1D0560012B210
:100EC000002AF7D54E40F5E70271110A41716846D4
:100ED0000F2100F045FC0020207004B070BDC0461A
:100EE0002C0300207003002010030020CDAB000075
:100EF00020030020180300201C0300202110000004
:100F000005480168002902D00168491E0160B948FE
:100F10000168491C016070476C030020F0B589B07E
:100F2000514E306801221043306070684F490140D3
:100F3000716030684E4901403160900431688143EE
:100F40003160C32000047168814371603068494991
:100F5000014031609F200004B0603068029210436D
:100F6000306030688007FCD5434C44482060444DD5
:100F700028681021014329602868072188432860D8
:100F80002068401E3F4901F08FF82968014329601D
:100F90007068706070687060032001900004716870
:100FA0008143716030683849084030602368002010
:100FB00001461F46039006460491701C0590334D70
:100FC000039C06E031496D18641C002F07920690BF
:100FD0001ED0402C18D008973746284605991E4643
:100FE00001F062F83346311A00D2C11A3E46089F1A
:100FF0008F42304600D806988F42224600D8079A82
:101000008F42DFD30F46DDE70499002906D009E0BF
:101010000027079206900299002903D10598042819
:101020000646C9D1104A1068174B1840106007983F
:1010300080060699C9B2090501431068084310608B
:10104000581C116801431160506801998843506031
:10105000506802210143516050680C210140082969
:10106000FAD109B0F0BDC046001002400CC0FFF834
:10107000FFFFF6FEFFFF8F000000002000A24A04E1
:101080000020024000366E01FFFF0F00001BB7007A
:1010900080B5E048202100F0E5F880BDF0B58DB0C6
:1010A0000E4601900124E0022146FFF77FFE0AAFC1
:1010B000384600F09DFA0025BD723D813E80BD702E
:1010C00001980B90D348394600F050FA06AE3046EE
:1010D00000F0FEF975720420B07020023080B57205
:1010E000F572357375730795CA4D2846314600F081
:1010F00065F92846314600F08FF92846314600F060
:10110000B9F92846214600F093F8202128462246C6
:1011100000F049F92846214600F0B0F802AE30460A
:1011200000F07DF8A003B0810748049007480290C2
:10113000200403902846314600F062F828462146F4
:1011400000F094F80DB0F0BD001000200008000879
:10115000B0B50125AC070221204600F09BF800281D
:1011600008D0606B00F096FF2049086002212046FD
:1011700000F078F81E480078002805D11B48016867
:10118000494201600020C5431A4800681A490860B6
:101190001A48016849190160B0BDC04610B5124C2B
:1011A0000221204600F076F8002808D0606B00F09D
:1011B00071FF0E4908600221204600F053F80C48E8
:1011C0000078002801D0012005E008480168494264
:1011D00001600020C04307490968074A11600749B8
:1011E0000A681018086010BD000400405C0300206D
:1011F00004000020480300203C03002024030020BA
:101200000A884B8813438A881A43CB8813430A8978
:101210001A434B891343898919434164704700215C
:10122000818141810181C18081804180018070473D
:101230004A1E9141426801239A4351184160704708
:101240008A4001238B40016A994311430162704730
:101250000C2906D08A4004238B40016A994311432C
:101260000162704702698A43026170474A1E9141D8
:10127000026801239A435118016070474A1E914148
:10128000C9030122D203436C934359184164704748
:101290004161704702690A4204D0C0680840411E9B
:1012A0008841704700207047B0B50B780222D341C7
:1012B000032B71D87B441B795B009F440118355088
:1012C0008369F324A3438C788D882D0125431D4326
:1012D0008561036A93434A781A43012313430362E7
:1012E00082690C239A43C97811438161B0BDF3220E
:1012F0001202836993438A7812028C882403144370
:101300001C438461026A20239A434B781B011343D8
:1013100010221A4302620322920283699343C9781E
:10132000090219438161B0BDC269F3239A438B78E6
:101330008C8824011C431443C46103221202036AF3
:1013400093434A7812021A4301231B021343036298
:10135000C2690C239A43C9781143C161B0BDF3221D
:101360001202C36993438A7812028C8824031443BF
:101370001C43C46103221303046A9C434B781B0380
:101380002343012424031C4304629202C369934350
:10139000C97809021943C161B0BD002181800122D1
:1013A000428001807047002A03D0C2680A43C260AD
:1013B0007047C2688A43C26070470000B0B5826956
:1013C00070239A430B78134383610A7A4B78134353
:1013D000046A032294431C4304624B684363824BB8
:1013E000984205D07E4B984202D07E4B98420FD156
:1013F0004B7A8C781C43036A0C25AB43234303626E
:101400004B89898919431202436893430B43436014
:10141000B0BDC046002C0140B0B50722120383695D
:1014200093430A7812021A438261026A30239A4374
:101430000B7A4C781C432301134303624A6882638E
:10144000224A131F984200D0B0BD036AC024A343B0
:101450004C7A8D7825432C011C43046203208002C2
:1014600013688343488989890143880018431060C1
:10147000B0BDC04670B5C26970239A430B78134360
:10148000C36103221302046A9C430B7A4D781D4307
:101490002B02234303624B68C3630C4B1C1FA04207
:1014A00000D070BD9402056AA5434C7A8E7826431D
:1014B00034022C43046210031A68824348898989E4
:1014C000014308011043186070BDC046042C014060
:1014D00000218170018041608160818170474A1ED6
:1014E0009141C901426880239A4351184160704775
:1014F000826870239A430A4382607047826880231F
:101500009A430A438260704710B501238B40046AF6
:101510009C4304620223D941032920D879440979E4
:1015200049008F4401070F158169702399431143C6
:10153000816110BD0721090383698B43110219439F
:10154000816110BDC169702399431143C16110BD10
:1015500007210903C3698B4311021943C16110BDFF
:10156000826807239A430A4382607047032212026B
:10157000036893430A891A430260184A904209DDBE
:10158000174A90421CD0174A904219D0164A9042EE
:1015900007D01BE001229207904202D0134A9042EA
:1015A00014D1026870239A438B78134303600E4A68
:1015B000904205D00A4A904202D00A4A904205D190
:1015C000026BFF239A438B7AD21802634A68C26285
:1015D00009888162012141617047C046FF2B0140AB
:1015E0000048014000440140002C0140000400403C
:1015F00000210181018081728170C943416070477F
:10160000026804239A430A4302607047F0B585B02C
:1016100005460124A0032146FFF7C8FB60042146CC
:10162000FFF7B6FB6F46384600F0B2F800263E736F
:101630003E72BE7130203871182078810095534D6C
:101640002846394600F038F82846214600F022F8AE
:10165000774C062120463246FFF765FA042503221F
:1016600020462946FFF75FFA04AE3046FFF770FACE
:101670000748049020463146FFF70DFAF570102018
:10168000308020463146FFF706FA05B0F0BDC0466F
:1016900040000318826901239A430A43826170471C
:1016A00081690223994352000A438261704780682E
:1016B0000840411E8841704770B50D460446C06918
:1016C0003021884329790143E161E069442188435D
:1016D000A9790143E161E06903218843297A014343
:1016E000E161A0691821884369890143A161A0696A
:1016F00004218843297B0143A1612448844202D00C
:10170000FFF762FB01E0FFF775FB2968064E3046E4
:1017100000F0CAFC000920622968304600F0C4FCD1
:101720000F210140616270BD00A24A04C9B201608C
:1017300070470000B0B50446007800280ED0134D65
:10174000C1B22846FFF7F2FF01212846FFF7AFFF9D
:101750000028F9D06078641C0028F1D1B0BDC046E3
:1017600070B5002910D00C460546084E2978304641
:10177000FFF7DCFF641E01213046FFF798FF0028C9
:10178000F9D06D1C2004F1D170BDC0460038014075
:10179000002101731822428101728171302101718F
:1017A0004B21C90101607047F0B587B06D462846EE
:1017B000FFF7CEF90124670238462146FFF7F6FA13
:1017C0001A4800901A4E30462946FFF764F92C80DB
:1017D00030462946FFF75FF900260696039720203A
:1017E0000290A00405900196124D01A92846FEF72B
:1017F000DBFF28462146FEF7AEFF28462146FEF7CE
:10180000A2FFA7020921284632463B46FEF7E8FF21
:101810000821284622463B46FEF7E2FF284621469D
:101820002246FEF7B1FF07B0F0BDC046020003003C
:101830000004004800240140B0B50C48017840295C
:1018400001D30021017001788A00094B9C58094D91
:101850002D689D50491C0170074801686918091BD3
:101860000160881105490860B0BDC0468C020020A7
:101870008801002034030020880200201803002083
:10188000B0B50C480178202901D3002101700178FE
:101890008A00094B9C58094D2D689D50491C0170C8
:1018A000074801686918091B01604811054908606B
:1018B000B0BDC04630030020900200205C03002031
:1018C000140300201C030020B0B50C480178202927
:1018D00001D30021017001788A00094B9C58094D01
:1018E0002D689D50491C0170074801686918091B43
:1018F0000160481105490860B0BDC046FC030020E6
:1019000074030020F4030020F803002020030020CB
:10191000F0B581B0A4480078401EA44C052839D801
:101920004000C04678448088400087440500550048
:101930008200AF00DD000A01042500950026204644
:1019400029463246FFF77CFC204629463246FFF7FF
:101950007FFC6027204631463A46FFF7D5FD01223D
:1019600020463146FFF76CFC204631463246FFF7F1
:101970006FFC0825204629463A46FFF7C5FD20465C
:1019800029463246FFF75CFC20462946009AFFF7BD
:101990005FFC02E10025204629462A46FFF750FC5D
:1019A000204629462A46FFF753FC042620463146A6
:1019B0002A46FFF745FC204631462A46FFF748FCF9
:1019C0000826204631462A46FFF73AFC2046314693
:1019D0002A46FFF73DFCE0E00025204629462A463E
:1019E000FFF72EFC204629462A46FFF731FC042645
:1019F0006022009220463146FFF786FD01222046F4
:101A00003146FFF71DFC204631462A46FFF720FCF1
:101A1000082720463946009AFFF776FD20463946CA
:101A20002A46FFF70DFC204639463246FFF710FCE8
:101A3000B3E008260025204631462A46FFF700FC81
:101A4000204631462A46FFF703FC0426602720463D
:101A500031463A46FFF758FD012220463146FFF74E
:101A6000EFFB204631462A46FFF7F2FB2046294687
:101A70003A46FFF749FD204629462A46FFF7E0FB94
:101A8000204629463246FFF7E3FB86E00425009511
:101A90000026204629463246FFF7D2FB204629463B
:101AA0003246FFF7D5FB08256027204629463A46EF
:101AB000FFF72AFD012220462946FFF7C1FB2046F9
:101AC00029463246FFF7C4FB204631463A46FFF727
:101AD0001BFD204631463246FFF7B2FB2046314619
:101AE000009AFFF7B5FB58E00025204629462A4614
:101AF000FFF7A6FB204629462A46FFF7A9FB082741
:101B00006026204639463246FFF7FEFC0122204679
:101B10003946FFF795FB204639462A46FFF798FBE2
:101B20000427204639463246FFF7EEFC2046394668
:101B30002A46FFF785FB204639463A46FFF788FBE1
:101B40002BE008260025204631462A46FFF778FB81
:101B5000204631462A46FFF77BFB60262046294671
:101B60003246FFF7D1FC012220462946FFF768FBE9
:101B7000204629462A46FFF76BFB042720463946B4
:101B80003246FFF7C1FC204639462A46FFF758FB8C
:101B9000204639463A46FFF75BFB20212046FFF7F7
:101BA00077FB01B0F0BDC04610000020002C0140C2
:101BB00010B582B001AB0124DC709A7059701870B6
:101BC000184600F003F802B010BD000070B50178AF
:101BD000C278002A15D0FC220A400D4BD4588D073C
:101BE000ED0EFF26AE40B44380788001C0B2A8401D
:101BF0002043D0501F20084001218140054801604A
:101C000070BD1F200140012088400349086070BD5D
:101C100000E400E000E100E080E100E0F0B581B028
:101C2000064601256903AA4F3846FEF78CFF00904F
:101C3000A9033846FEF787FF0446E9033846FEF756
:101C400082FF012E09D1611E8C416100009A8A1821
:101C5000411E8841810011430DE00099002903D104
:101C60000721002C03D103E00621002C00D0FE3117
:101C7000002800D0FC31C8B20149085C01B0F0BDB9
:101C80009E220008F0B581B0012460042146FFF7D0
:101C900071F8A0042146FFF76DF8E0042146FFF734
:101CA00069F820052146FFF765F815480090894E30
:101CB0006D4630462946FEF7EEFE04272F8030465B
:101CC0002946FEF7E8FE200328800920C0062946A1
:101CD000FEF7E1FE2F80784E30462946FEF7DBFE08
:101CE000EF702020288030462946FEF7D4FE60029F
:101CF000288030462946FEF7CEFE01B0F0BDC04632
:101D00000800031082B0FFF7BDFFFEF77DFF6348B8
:101D10000068634900F0C8F901466248FEF72AFFEF
:101D20000F2001252946FEF7A5FFFEF783FD680376
:101D3000002401902146FFF7B1F9FEF7CFFD0D20F9
:101D40002946FEF797FFFFF72FFD0C2021462A4674
:101D5000FFF72EFF4B200002FFF758FC0A20214618
:101D60002246FFF725FF50485049514A2B46FEF7BF
:101D70004FFE504804604460009484604E4C04213F
:101D800020462A46FEF7EEFE20212046FEF7DBFE27
:101D90006F02002818D00125204639462A46FEF752
:101DA000E1FE2846FEF7C0FD002220463946FEF738
:101DB000D9FE2846FEF7B8FDFEF754FF2021204645
:101DC000FEF7C1FE0028E6D13220FEF7ADFD3B480C
:101DD00001252946FEF724FD39A0FFF7ABFC3C4E58
:101DE00030460199FEF7AFFE02460821394C2046E5
:101DF000FEF7B8FEA9033046FEF7A5FE0246042111
:101E00002046FEF7AFFEE9033046FEF79CFE024691
:101E10000920C0062903FEF7A5FE2F480068964951
:101E20000968081A022805D300F0E4F8924800680F
:101E3000294908602021204C2046FEF784FE002816
:101E400002D1FEF70FFFCBE700981A4908604860FF
:101E500088600326012220463946FEF783FE962538
:101E60002846FEF761FD002220463946FEF77AFE3D
:101E70002846FEF759FD761EECD102E000BFFEF7C2
:101E8000F1FE20212046FEF75EFE0028F6D1042157
:101E900000222046FEF766FEFEE7C0460000002056
:101EA000A0860100FFFF000030000240043801401E
:101EB00060030020342C014000040048002401404D
:101EC00068656C6C6F20576F726C640A0D000000BF
:101ED00000080048000C004844030020F0B5002230
:101EE0003A49885E3A4B1B78002803D52F2B6CD1DA
:101EF000002008800C8825B236484355631C0B80AF
:101F0000002C62D09CB2022C0DD132484078364968
:101F10000870022834D001282ED0002855D12E4830
:101F200008210170F0BD1CB22B4B1B789C424CDB8E
:101F30002A4D0D8021188C1E2478491E097809022B
:101F40000919032B21D31A18D21E0024244B06464C
:101F500002E06E1C954217D0354636783602744042
:101F6000082603E03C46761E3706F2D0670024B20E
:101F7000002CF7D55F40F5E717480B210170F0BD45
:101F800015480A210170F0BDA2B291421DD181789D
:101F900001291AD138490968124A1160124B1B787D
:101FA000002B03D0012B0CD1C31D00E0431D1B7877
:101FB0000E4C23700423C3561B02C0781818314BF3
:101FC000186011600A4801210170F0BD280300204B
:101FD00060030020880000202A030020FFFF00008B
:101FE000211000002C0300202B030020FD03002003
:101FF0001003002070B500251D484057002800D46C
:1020000070BDFEF715FFFFF73BFC1A4800681A4940
:102010000968081AFF21F631884204D317480021C5
:1020200001601748016015480168164E3068FEF7D8
:1020300055FE322100F05AF8FEF77CFE0446306867
:10204000002800D10446104804602046FEF747F9F6
:102050000126F2079143FEF7FDF80C49086048603D
:10206000002C00DC2E460A4A1670886070BDC046FF
:102070004C0300203C030020480300201C030020E8
:102080005C0300207003002054030020342C014026
:102090000400002080B54B2189004143014800F035
:1020A00003F880BD0087930343088B421AD30022B4
:1020B00003098B4279D3030A8B425ED3030B8B4215
:1020C00042D3030C8B4227D30902FF2212BA030C1E
:1020D0008B4202D31212090203D0030B8B4233D37B
:1020E0001AE0D3E0411A8041401C704703460B437D
:1020F00071D443088B42F5D3002203098B4254D399
:10210000030A8B4239D3030B8B421DD3030C8B4242
:1021100002D394466EE0090AC30B8B4201D3CB0372
:10212000C01A5241830B8B4201D38B03C01A524118
:10213000430B8B4201D34B03C01A5241030B8B421A
:1021400001D30B03C01A5241C30A8B4201D3CB0205
:10215000C01A5241830A8B4201D38B02C01A5241EA
:10216000430A8B4201D34B02C01A5241030A8B42ED
:1021700001D30B02C01A5241CDD2C3098B4201D305
:10218000CB01C01A524183098B4201D38B01C01A83
:10219000524143098B4201D34B01C01A52410309FA
:1021A0008B4201D30B01C01A5241C3088B4201D3A9
:1021B000CB00C01A524183088B4201D38B00C01A56
:1021C000524143088B4201D34B00C01A5241411A7D
:1021D000524110007047CA0F00D04942031000D38B
:1021E0004042534000229C4603098B422DD3030AF0
:1021F0008B4212D38901FC2212BA030A8B420CD300
:10220000890192118B4208D3890192118B4204D328
:10221000890137D0921100E08909C3098B4201D3AB
:10222000CB01C01A524183098B4201D38B01C01AE2
:10223000524143098B4201D34B01C01A5241030959
:102240008B4201D30B01C01A5241C3088B4201D308
:10225000CB00C01A524183088B4201D38B00C01AB5
:102260005241D9D243088B4201D34B00C01A52418C
:10227000411A00D201465241104663465B1000D31A
:102280004042704763465B1000D3404201B50021D5
:10229000004201D0C9430846C046C04602BD000303
:1022A0000504010206000000C8220008000000200A
:1022B0002800000004010008F02200082800002087
:1022C000D80900002001000800A24A040101000012
:1022D000A00F000060F0FFFF0100000000010203FA
:1022E00004010203040607080900000000000000C2
:04000005080000C12E
:00000001FF
