:020000040800F2
:10000000500E0020B5010008E1010008E3010008DE
:1000100000000000000000000000000000000000E0
:10002000000000000000000000000000E5010008E2
:100030000000000000000000E70100082127000880
:10004000EB010008EB010008EB010008EB010008E0
:10005000EB010008EB010008EB010008EB010008D0
:10006000EB010008EB010008CD200008EB010008BF
:10007000B51E0008EB010008EB010008EB010008C9
:10008000EB0100080000000000000000EB01000888
:1000900000000000EB010008EB010008EB01000884
:1000A00000000000EB010008EB010008EB01000874
:1000B000EB01000800000000EB0100080000000058
:1000C00000F002F800F04AF80CA030C808382418F4
:1000D0002D18671EA246AB4654465D46AC4201D180
:1000E00000F03CF87E460F3EB6460FCC0126334268
:1000F00000D0FB1A3343A246AB461847D85F000036
:10010000F85F00000023002400250026103A01D3E8
:1001100078C1FBD8520700D330C100D50B607047BF
:1001200010B5662902D105F04DF910BD692902D13B
:1001300000F0BAF810BD782902D100F0EBF810BD3C
:10014000002010BD1FB501F025FA04000020002199
:1001500005F0CEF8E0601FBD10B510BD01F002FE45
:100160001146FFF7EFFF04F0C3FA01F01AFE03B4E3
:10017000FFF7F2FF03BC01F06BFE000070B505460F
:100180000C46164602E00FCC0FC5103E102EFAD2D8
:10019000082E02D303CC03C5083E042E07D301CC9E
:1001A00001C5361F03E021782970641C6D1C761E82
:1001B000F9D270BD104880F30888104810490160DA
:1001C00010480168090E104A914205D10F480C49A8
:1001D00001600F480F4901600F4880470F480047F2
:1001E000FEE7FEE7FEE7FEE7FEE7FEE70C480D4907
:1001F0000D4A0E4B70470000500E00206020024058
:1002000001000000040000001F0000001810024060
:10021000000001400000000041270008C100000864
:1002200050080020500E0020500A0020500A0020E4
:100230000FB41CB5074B06AA7B446946009005988D
:1002400001F05BF90020694601F06AF91CBC08BCAA
:1002500004B01847E512000070B5044685690068CF
:10026000C10601D5302600E02026C00707D070BDAA
:1002700062683046A1689047206A401C20626D1E6B
:10028000F6D570BD70B5044685690078C00707D102
:1002900070BD6268A16820209047206A401C2062DF
:1002A0006D1EF6D570BD0000F7B5002575291068E4
:1002B000009914A611D0C046C046002802DA404278
:1002C00011A608E0009909688A0701D50FA602E087
:1002D000490704D50EA6012501E0C046C046009F8F
:1002E0000024243704E001F040F930313955641C12
:1002F0000028F8D12B4632462146009800F096FEA1
:10030000FEBD0000000000002D0000002B000000DA
:100310002000000070B504460D4621461068C04616
:10032000C0462188090502D50F4A7A4402E00E4AE8
:100330007A440E3223460021243305E006070009E3
:10034000360F965D5E54491C0028F7D120780023B3
:10035000000705D5702D03D0002901D002231132EA
:10036000204600F063FE70BDA6500000F3B50446C1
:10037000002081B020622046E168884700287DD0B7
:10038000252802D06268A16883E0454F00257F449C
:100390002046E16888472028064608DB312E06D231
:1003A000B81920380078002801D00543F0E7A807E5
:1003B00001D5042085430020E0610746A0612A2E74
:1003C0000AD0304604F08CFF002827D0B80000196E
:1003D000303E0090866119E00298BA00121902C8F6
:1003E000916102902046E1688847012F064617D1A7
:1003F000E06900281FDA202085431CE000980A21CC
:100400008069484300998019303888612046E16846
:100410008847064604F064FF0028EFD1012F0AD078
:100420002E2E08D12046E168884706462020054345
:100430007F1C022FC3DBA069002803DA4042A061C1
:1004400001200543E80701D010208543002E24D069
:1004500030464138192803D80120C0020543203610
:10046000204625603146029A1546FFF759FE0028BE
:100470000CD0012807D0ED1DE80800E00DE0C00019
:100480000830029077E72D1D029574E762683046C8
:10049000A1689047206A401C6CE7206AFEBD0000FE
:1004A0006A50000030B5441C03E00178401C00296C
:1004B0000DD08107F9D10B4BDD0104C8D11A91434E
:1004C0002940FAD0001B0A0603D0C01E30BD001B15
:1004D00030BD0A0401D0801E30BD0902FCD0401E90
:1004E00030BD000001010101F8B5042A2CD38307B7
:1004F00012D00B78491C0370401C521E83070BD08E
:100500000B78491C0370401C521E830704D00B78E3
:10051000491C0370401C521E8B079B0F05D0C91A43
:10052000DF002023DE1B08C90AE0FFF727FEF8BD25
:100530001D4608C9FD401C46B4402C4310C0121F84
:10054000042AF5D2F308C91A521EF0D40B78491CBC
:100550000370401C521EEAD40B78491C0370401CE7
:10056000012AE4D409780170F8BDD2B210B51302A3
:100570009A1813049A1800F0D8FF10BD82078B0751
:100580009A423FD170B5920F0AD0032402780B78BB
:10059000401C491C002A33D09A4231D12042F5D167
:1005A000214EF40104C808C9951B9543254018D174
:1005B0009A420FD104C808C9951B9543254010D114
:1005C0009A4207D104C808C9951B9543254008D114
:1005D0009A42E7D012BA1BBA01209A4200D2404296
:1005E00070BD12BA1BBA2DBA18241000E0401900D1
:1005F000E140401A05D12E00E64002D1083CF4D17A
:10060000D01A70BD02780B78401C491C002A09D012
:100610009A4207D102780B78401C491C002A01D06D
:100620009A42EFD0D01A704701010101002203095C
:100630008B4273D3030A8B4258D3030B8B423CD3B8
:10064000030C8B4221D312E003460B437FD40022DC
:1006500043088B4274D303098B425FD3030A8B4256
:1006600044D3030B8B4228D3030C8B420DD30902D6
:10067000FF2212BA030C8B4202D31212090265D078
:10068000030B8B4219D300E0090AC30B8B4201D341
:10069000CB03C01A5241830B8B4201D38B03C01A88
:1006A0005241430B8B4201D34B03C01A5241030BFF
:1006B0008B4201D30B03C01A5241C30A8B4201D3B0
:1006C000CB02C01A5241830A8B4201D38B02C01A5B
:1006D0005241430A8B4201D34B02C01A5241030AD2
:1006E0008B4201D30B02C01A5241CDD2C3098B42B7
:1006F00001D3CB01C01A524183098B4201D38B0134
:10070000C01A524143098B4201D34B01C01A5241D6
:1007100003098B4201D30B01C01A5241C3088B421B
:1007200001D3CB00C01A524183088B4201D38B0006
:10073000C01A524143088B4201D34B00C01A5241A8
:10074000411A00D201465241104670475DE0CA0F7F
:1007500000D04942031000D3404253409C4600223F
:1007600003098B422DD3030A8B4212D38901FC2249
:1007700012BA030A8B420CD3890192118B4208D31F
:10078000890192118B4204D389013AD0921100E081
:100790008909C3098B4201D3CB01C01A5241830995
:1007A0008B4201D38B01C01A524143098B4201D3C2
:1007B0004B01C01A524103098B4201D30B01C01AED
:1007C0005241C3088B4201D3CB00C01A5241830867
:1007D0008B4201D38B00C01A5241D9D243088B42BD
:1007E00001D34B00C01A5241411A00D20146524176
:1007F000104663465B1001D34042002B00D54942AE
:10080000704763465B1000D3404201B5044900289D
:1008100002DC491C084000E00846C046C04602BD54
:10082000FFFFFF7F70477047704700000246C80F08
:10083000C00781434B0030B54B405B009B0D20D07F
:100840001923DB06C91801231B05994220DB032469
:10085000A40704251346AB400BD3002B04D1EB06B1
:1008600013409B00E34204D40124640700231219BF
:100870005941FF231B0599420BD2C9000143500F78
:1008800009E0CB0204D501430803024305D0054823
:1008900030BDFF21C905084330BD084607210905C1
:1008A000884330BD0000C07FF0B5F94D0C091E092A
:1008B0002C402E402F468BB0A7437DD0B543FCD0B3
:1008C000002E7AD0002CFCD00D465D40ED0F254364
:1008D000AC1BFF25AD0464190894C502440DC90280
:1008E0002143500DDC0204430120C00701430443AF
:1008F000D2020191200C110C00958C460104234674
:100900008B430A9161460904E24D8A430991010A29
:100910007D4449198039097805464D4301266D18F3
:10092000F605751B6943C90C640B891C4C4364189C
:10093000B5012C1B250C2E04B4434C434D43210C14
:10094000691889090591009DE90701D00121C907AE
:1009500004912C4601996708CD072F434C08059D4B
:10096000E10B4D432D0C29466646754302950D4615
:1009700045432E46029D7D1BB44100950D465D43C7
:1009800001942C0C2F040D465543AE462D0C3D43CF
:10099000029503947546049C2D04641B049406D2AE
:1009A000029C039D641C002675410395029401ACD2
:1009B00070CC009F7D1B01E03EE162E1B44109047F
:1009C0000095079101940599A4086143090C0C4610
:1009D0004443650BE7040C4666467443A646640B25
:1009E0003C43039502947446049DE4042C1B049438
:1009F00006D2029C039D641C002675410395029457
:100A000001AC70CC009F7D1BB44101940C465C434B
:100A10000095650FE7000C465443A646640F3C431F
:100A2000039502947446049DE4002C1B049406D2A2
:100A3000029C039D641C002675410395029401AC41
:100A400070CC009F7D1BB441AE09AF06049DC90068
:100A5000AD092F43049DA406AD060495079D3443BC
:100A600069180791059DE10B4D432D0C29466646FB
:100A7000754302950D4645432E46029D7D1BB441AC
:100A800000950D465D4301942C0C2F040D465543F3
:100A9000AE462D0C3D43029503947546049C2D04EF
:100AA000641B049406D2029C039D641C00267541BD
:100AB0000395029401AC70CC009F7D1BB44101945E
:100AC0008C050694079C890A611800950791019C82
:100AD0000599A4086143090C0D464543680BEF04D2
:100AE0000D46644665436C0B3C43049FED047D1B3F
:100AF000AC4602D20025641C6841009E019D371B54
:100B000085410846584301950C46460FC50054439D
:100B1000600F28436546E4002C1B02D20025401CD0
:100B20006E41019D3F1AB5412846BD098006284304
:100B30008446A009BF064E020699A406761807430C
:100B4000079D002068410A99079019430020099BDE
:100B500000906046FF1913434041E20F64003A439E
:100B6000A4460446D71A8C41A04203D90120009024
:100B700020463A46C70F941840416246D20F22439E
:100B8000644664000494009CBE466400D71AA446E0
:100B9000044602978C417746002F01D1A04204D928
:100BA0006046401C8446029A2046C40FA64694180C
:100BB0004041049A0546D20F224364466400D31A8A
:100BC0008D417146002901D1A84202D928461A4612
:100BD000641C10430122002800D01643610200204B
:100BE000079B891904465C410223002C02DB49184B
:100BF00013466441089DCE0A2D145D194B05670507
:100C0000E10A2C050D1908993E43C9076940002BDC
:100C100008D0934006D30022761C5141002B01D10D
:100C2000760876001C4A002D43DB154241D0AA43CA
:100C30003FD030460BB0F0BD06180D464D41174C65
:100C40007642AC411AD395181C465C41134A6D425A
:100C5000A24113D3012252054C00D4420AD15C00B8
:100C6000D4420BD04B4002D592021143E2E7490037
:100C70004908DFE75940C90FC90718E000200849B3
:100C8000D8E7054801420DD10342F7D0F2E7000052
:100C90000000FF07F94A00000000F07F0000E0FFBD
:100CA0000000F87F114859400143C0124140002024
:100CB000C0E70123089A9B069A4205DC03225207EB
:100CC0008918C90FC907B5E7052252078918074ACD
:100CD0001143D2125140ADE770B515461C4602468D
:100CE0000B4628462146FFF7DFFD70BDFFFFFF7F63
:100CF0000346CA02400D10B510430A1504D0012462
:100D0000E4072043002A05DB0A4CA21A04D4D04091
:100D1000FF2A00DD002010BD4A00002B01D0012079
:100D200000E00020101801225205D042F2D8C81766
:100D3000C04310BD1E0400001F22030C02D10F226D
:100D4000000402D0030E03D004E0002001467047E7
:100D50000002083A030F01D10001121F830F01D1D5
:100D60008000921E002801DB4000521E120551181F
:100D70004205C012411810467047C10FC90700D084
:100D80004042012292071143D6E701218907D3E7A8
:100D9000F0B58B4C0F09254689B0BD437BD01D09AA
:100DA0002646AE43FAD00E465E402740F60F3E433D
:100DB000254071D024012142FBD0FF24AD19A404A9
:100DC0002D1B039501252D05DB02DB0AC9022B43F0
:100DD000C90A29431E010901040F130F050121430C
:100DE0001701880B820391432D098C46A90B1E43E2
:100DF0008A039543B30B9A0396433F09BA0B9403B6
:100E0000A74302962E467E430497B6464E19D7193D
:100E10000C460196544305977E43371B7646BF1B0D
:100E20003601B646BE0B361900967646BC04371915
:100E3000009C01D3641C00946400002F01D00126A3
:100E40003443029E049F754366467E4304967600B3
:100E500034196E0034190094029C019E1C196643DB
:100E6000751BAE46069465464519059C05956C4371
:100E7000594375460891691A0191049E01465143F0
:100E8000A41B0491611A009C0791E10605D0610939
:100E90000122114302E072E06EE06109089D002723
:100EA0002C0A2D066918049D7C412A0A2D06691812
:100EB000019D6241AC0DAD026D185441079A910D30
:100EC000920255196141029A644658435443069B65
:100ED000059A5A43121A131B9A0E9B015B187A410A
:100EE000010B0005C3185141220A200644195A413A
:100EF0009A4200D2491C01204002814203D31523AB
:100F00000226F64302E014230326F6432020C51AE6
:100F1000A9401746AF40DA400A4320460399D8401B
:100F20000914731819055118039A3843D207514010
:100F3000AC4009D00122944006D30022401C51410C
:100F4000002C01D1400840001E4A934212D30122D6
:100F500003989206904207DB0520400709181A48BB
:100F60000143C012414004E0032040070818C10FAC
:100F7000C907002009B0F0BD0020F107FAE7051805
:100F80000C464C4111486D42A04115D394181A46A5
:100F90005A410E48644290410ED301204A00400558
:100FA000824209D35A00824206D35940C90F084AE7
:100FB000C90700201143DDE700200649DAE70000F9
:100FC0000000FF07FE070000FFFFFF7F0000E0FFBB
:100FD0000000F07F0000F87F0121C90501234118BE
:100FE00042001B06D3185B0E0AD0C1100722D2069E
:100FF000891840075242D14201D5520089187047E2
:10100000090208D50146002A03D0C10FC9070020F4
:10101000704710467047420202D0002002497047D4
:10102000072109050143F4E70000F87FFFB50446F6
:101030000D4681B0243000902168880604D5102226
:10104000E0699143216000E00120A84201DD471BD7
:1010500000E000270498A1697A191018081AA06105
:101060002078C00602D42046FFF7F6F8002608E0F4
:1010700003986268A168805D9047206A401C761CD6
:10108000206204988642F3DB2078C0060AD5204609
:10109000FFF7E2F806E06268A16830209047206A16
:1010A000401C206238467F1E0028F4DC07E00098D0
:1010B0006268A168405D9047206A401C2062284613
:1010C0006D1E0028F3DC2046FFF7DCF820780006D0
:1010D00002D5022005B0F0BD0120FBE7FFB50C46AC
:1010E0001E468FB003CA089009914F007D0D00D1B4
:1010F0006D1E002108460020C0460321099A89057B
:101100000840002A03DA8200801840080840800D59
:1011100001280A9002DD0020C0430A900898074386
:101120000DD0F048F04928184843071418980028B3
:101130001DD07542291E1DDD0A9842421BE01898F9
:10114000012802D00020302104E00020F24305E015
:101150002154401CB042FBDB30460022189B00218A
:1011600021540F998B600A60486013B0F0BDBD1B1D
:101170006D1CDFE70A9A002900DA69420BA800F02B
:101180008FFA0BAB07CB03AB07C30899099800F0A4
:10119000F3FA6B4607C30146D4480918002D0091A5
:1011A0000BDDD24903980A9A49424018002303A94B
:1011B0000390684600F050FD08E003990A9A002366
:1011C000081803A90390684600F0F0FC6B4607C3BB
:1011D0000004000C03D00020C043410800E010468A
:1011E000189A002A03D00022009215461EE0751EB0
:1011F00005D400F0D3F9303262556D1EF9D50122C5
:101200000843079602D000227F1C04E02078302893
:1012100001D100227F1E002A069787D01EE0112DE3
:1012200007DA00F0BBF9303262556D1C02460A4302
:10123000F5D1084303D00098002819D00EE0002112
:10124000681E05E0235C625C63542254401E491C06
:101250008142F7DBA81B401E07950690079A189954
:101260000020A0540F98079B069A81600CC07CE771
:1012700011260020189059E7D21DF0B50D460446FE
:10128000D10893B0C90003C90C900D9103F0FAFF87
:1012900002460D98C00F01D02D2007E0206881077D
:1012A00001D52B2002E04007C00F4001032A0F9018
:1012B00001D0072A05DB03462946204600F0ACF999
:1012C0000EE12078800601D5E76900E00627284670
:1012D000652D04D0662814D0672D69D12DE000203B
:1012E000112F009001DB112300E07B1C0CAA03A945
:1012F00010A8FFF7F3FE1199002610987D1C0E919F
:1013000042E001203B460CAAC0070B900120009050
:1013100003A910A8FFF7E2FE119D1298109900266C
:1013200000280E9501D1781C0D18781B02D4464276
:101330007D1C761EE81B00903AE0012F00DA0127A1
:101340000020112F009001DD112300E03B460CAA84
:1013500003A910A8FFF7C2FE11993D461098002678
:101360000E91217809070BD40E99A94200DA0D4697
:1013700003A9012D04DD4A19203AD27F302A06D074
:10138000B84201DA011D04DA012100910FE06D1E5F
:10139000EFE7002802DC86192D1A03E0411CA94260
:1013A00000DD0D46801B401C00900120C0070B9003
:1013B0002078000705D40098A84202DB0020C04333
:1013C000009069460020C8720B98012102AF0337D4
:1013D000C907884225D0022010902B2011900B982D
:1013E00000280BDA40420B902D20119006E00B985C
:1013F00000F0BBF830317F1E0B9039701099481EF9
:1014000000291090F3DC0B980028F0D111987F1E72
:1014100038702088000501D5452000E065207F1E3A
:10142000387001A8C01BC01D0B900F98002800D079
:10143000012041190098C01709180B980818A169D4
:10144000081A401EA0612078C00602D42046FEF78C
:1014500003FF0F98002805D06268A1689047206AB2
:10146000401C20622078C00625D52046FEF7F4FEF9
:1014700021E0002E07DB0E98B04204DD03A862686D
:10148000805DA16802E06268A16830209047206A10
:10149000761C401C20620098401E002800900AD153
:1014A00000F078F8C06862680168405CA168904705
:1014B000206A401C206228466D1E0028D9DC07E007
:1014C00062683878A1687F1C9047206A401C2062BF
:1014D0000B99481E00290B90F2DC2046FEF7D2FE45
:1014E000032042E601FCFFFF104D0000E1DFFFFF9B
:1014F00001694A1C02610878704700B58FB00291FB
:101500000021059105490193794403911146049006
:101510006846FEF72BFF0FB000BD0000E5FFFFFFA0
:101520000A681070521C0A60704701E004C0091F6D
:101530000429FBD28B0701D50280801CC90700D08B
:101540000270704700290BD0C30702D00270401C04
:10155000491E022904D3830702D50280801C891EFC
:10156000E3E70022EEE70022DFE701468008081AE1
:1015700002091018020A1018020C1018C008820084
:1015800012185200891A01E0401C0A390A29FBD2BC
:101590007047000000487047B00600200B4670B549
:1015A000024689078008084319469D08141AA94174
:1015B00025090807054308092C194841250A010691
:1015C0000D43010A2C194141200C0D0428430D0C38
:1015D00000194D41002140194D41C00869070843D9
:1015E000E908840F8D002543840024184D412419F7
:1015F0006D41121BAB4107E00925ED432C11521937
:1016000063410024401C61411C460A250026551BED
:10161000B441F1D270BD0000F8B51F460446012365
:101620000068DB02032601461840072A05DB002874
:1016300001D017A506E017A504E0002801D016A5E3
:1016400000E016A5102081432160A069C01E002F74
:10165000A06101D0401EA0612046FEF7FDFD002FD5
:1016600009D038466268A1689047206A401C206211
:10167000C01C206206E0206AFAE762682878A16848
:101680006D1C9047761EF8D22046FEF7FBFDF8BD94
:101690004E414E006E616E00494E4600696E660016
:1016A000F7B516468AB0334878446C4603467C3317
:1016B000C06F5A689B680DC42E487844763003ACDE
:1016C0000DC80DC43720C001081837211B30FEF7A4
:1016D000BBFF05460C46803D1B3C02D56442012001
:1016E00000E000200027099010E0E0070CD00C205B
:1016F00020497843794432464C39411868460123E1
:1017000000F054FA6B4607C364107F1C002CECD128
:10171000184F7F442E3F16E0E80712D02001C01971
:101720000EC80691089307920068F04201D19819FB
:1017300008903246012306A903A800F037FA03AB4C
:1017400007C36D10641C002DE6D10998002806D04F
:1017500032466946012303A800F07EFA05E0012322
:101760003246694603A800F021FA0A9B07C30DB070
:10177000F0BD0000E43D0000034640000A4610B5FD
:10178000400D0BD00121C9070F24A40200191C032E
:1017900064082143540D2143D20207E000210120B7
:1017A000F2E7D40F490021435200401E0029F8DA25
:1017B000DB0FDB07184310BDFFB50D46144685B09F
:1017C0004868516803F045FD00910190A868A16840
:1017D00003F03FFD02910390A868616803F039FDB2
:1017E000029A12188242029201D2012000E00020E7
:1017F000019A0B18D2180028019202D08A4202D90D
:1018000003E08A4201D2012000E00020009908187C
:1018100000906868A16803F01CFD029A12188242C9
:10182000029201D2012000E00020019A0B18D21888
:101830000028019202D08A4202D903E08A4201D2F2
:10184000012000E000200099081800902868216815
:1018500040004900400849084018FA49471814E078
:1018600001994000C90F0843009001980299400077
:10187000C90F08430190029803994000C90F08431B
:101880000290039840007F1E039000980028E7DA3A
:101890000898002801D0EC4E00E00026B74201DA9B
:1018A000012000E00020002804902AD0F71BF80651
:1018B000C00E15D0029B2021091A039A8B401A43AF
:1018C0000392029A019BC2408B401A430292019AF2
:1018D000009BC2408B4000991A430192C140009185
:1018E0007B110DD06F460320C11A03D50021820061
:1018F000B95003E08A008100BA587A50401EF3D5EF
:10190000374603980299002800D001200143089827
:101910000291002808460CD0002800D0012001992F
:10192000019A490508430121D20AC902D202019253
:1019300000E001210E9B0122D207012B02D0002BD7
:1019400003D013E0002807D120E0904204D8904251
:101950000CD1019B0B4209D0019B5918019105D173
:101960000099491C009101D17F1C009200280DD0E4
:10197000102108460020C0460498002806D00F9881
:10198000002803D0082108460020C04628682168A6
:10199000019B009A4840C10F0598C90739430EC002
:1019A00009B0F0BDFFB587B0099A08980899536847
:1019B00092684068896896460022039317469446C9
:1019C000089A12685300099A5B081268520052087C
:1019D0009A1A9E4BD4180A9A002A01D0352200E0A8
:1019E000402206920022012315460492DB0705934C
:1019F00024E0002D05D175460346039E4D1BB341DF
:101A000009D375466646039B491B049D9841059B77
:101A10007519AC465F4163463B4308D0059B049E65
:101A2000DD0776082E435B080496059301E0521EFD
:101A3000641EC50FED0749184041521C069B9A428F
:101A4000D7DB002D04D17546039A6B1A824101D26F
:101A500003200CE0039A0B466B404240134303D033
:101A6000014303D0012002E0022000E00020614693
:101A700001910021009702910A99002905D0614641
:101A800040020143704B019102E080070023029065
:101A90009C4201DA012000E0002007003AD01A1B26
:101AA000D006C00E15D0029D2021019C091AC54008
:101AB0008C402543029C8C4000D001242543019C8E
:101AC0000295009DC4408D4000992C430194C14073
:101AD000009154111DD06D460221002202290CD123
:101AE0000320001B07E0002804DB8600AE59002E0F
:101AF00000D00122401C0328F5DB081B02D588001A
:101B00002A5004E08000285810438A00A850491E3B
:101B1000E3D51C460A98002802980CD0002800D073
:101B200001200199019A490508430121D20AC902FD
:101B3000D202019200E00121109B0122D207012B69
:101B400002D0002B03D013E0002807D11FE0904201
:101B500004D890420CD1019B0B4209D0019B59182B
:101B6000019105D10099491C009101D1641C00929A
:101B700000280CD0102108460020C046002F06D0B7
:101B80001198002803D0082108460020C046089874
:101B90000999019A009B006809684840C10F07989D
:101BA000C907214382600AC00BB0F0BD00B585B003
:101BB000019300920A460146002302A8FFF7FCFDAC
:101BC00002A807C805B000BDFFB50A461F4685B08C
:101BD0000799019301230091014602A8FFF7ECFD4C
:101BE00002990398049ECA0F4900D20700920F225F
:101BF000490892028C1A0021002800DB0C4645009F
:101C000013486D08844214D3079A002A04DA441E4C
:101C10000026104DF64302E004460D460E46102104
:101C200008460020C046002F03D0042108460020AB
:101C3000C0462005E90A0843009908436905F20AED
:101C40001143ADE602C0FFFF013C0000FF3F000072
:101C5000FF070000FFFFFF7F00B585B001930092F2
:101C60000A460146002302A8FFF79CFE02A807C807
:101C7000A8E7FFB50A461F4685B0079901930123DF
:101C80000091014602A8FFF78DFE02990398049E79
:101C9000CA0F4900D20700920F22490892028C1AFB
:101CA0000021002800DB0C46450011486D088442E5
:101CB00014D3079A002A04DA441E00260D4DF64379
:101CC00002E004460D460E46102108460020C0469C
:101CD000002F03D0042108460020C0462005E90A51
:101CE0000843009908436905F20A114358E60000C9
:101CF000FF070000FFFFFF7F10B5FF231B06440016
:101D00009C421DD84C009C421AD80346124A0B43F1
:101D100007D4401A02D3EFF3008010BDEFF3008028
:101D200010BD081A03D3EFF30080904305E0EFF3F2
:101D3000008001219043C907084380F3008810BD4B
:101D40000D231B041A4204D01146002000F031F884
:101D500010BD00F045F810BD00000090004870472D
:101D6000900600207546FFF7F9FFAE46050069466C
:101D70005346C008C000854618B020B5FEF736FAB5
:101D800060BCB64600260027C0C5C0C5C0C5C0C5DA
:101D9000C0C5C0C5C0C5C0C5403D490849008D4645
:101DA000704710B50446C046C0462046FEF7DFF92E
:101DB00010BDC80212D54803400F002804D0C80344
:101DC000C043012188407047EFF300800001000903
:101DD00003210907084380F30088704700207047FB
:101DE00010B5024800F004F810BD00000000C07FEC
:101DF00010B50C461107090F092904D00A290AD089
:101E000008290CD104E011460820FFF7D2FF06E0B4
:101E1000510606D501E0510601D50120C007214633
:101E200010BDD10607D501010909CC084907000EEC
:101E30000006044309E0410F20024907000A01435C
:101E4000200E00061D22D14101430846E7E70000AD
:101E500001491820ABBEFEE726000200704770B5AE
:101E60008C180578401C6B075B0F01D10378401C70
:101E70002A1106D10278401C03E00678401C0E703F
:101E8000491C5B1EF9D12B0705D40023521E0DD42B
:101E90000B70491CFAE70378401CCB1A921C03E034
:101EA0001D780D70491C5B1C521EF9D5A142D8D378
:101EB000002070BD70470000B0B586B0164C2046BB
:101EC00000F020F801256802294600F0E7FB002019
:101ED0000590A902029120210191A904049100908A
:101EE0006946204600F01AF82046294600F002F81C
:101EF00006B0B0BD4A1E9141426801239A43511871
:101F00004160704780B50449884200D080BD0120FF
:101F1000400202F059FA80BD0024014042680B4B98
:101F2000134043604A680B68134342681A43426097
:101F30008268074B134083600A694B6913438968C1
:101F4000194382680A4382607047C0460FBCFFFF96
:101F50008FF1F9FF10B50F22920244689443446058
:101F6000102B00D29B0242681A43426001228A4031
:101F7000C3689343C360C3681343C3600804800FFE
:101F800004D00E4801680C220A43026010BDC0460E
:101F90004A1E914109020122120283689343591893
:101FA000816070470C2100280A4600D10246034890
:101FB00003688B43134303607047C0460424014009
:101FC000F0B581B00925EC060821022620463246EC
:101FD00000F0F2FA20462946324600F0EDFA0A21D6
:101FE0002046324600F0E8FA1D4D0D2128463246C3
:101FF00000F0E2FA0E212846324600F0DDFA0F2109
:102000002846324600F0D8FA6E46304600F0EAFA2A
:10201000144800902046314600F086FA01277802E5
:1020200030802046314600F07FFAB80230802046EA
:10203000314600F079FA780330802846314600F0C6
:1020400073FAB80330802846314600F06DFAF80381
:1020500030802846314600F067FA01B0F0BDC04636
:10206000000400480001031810B50E4800687D21E7
:10207000C90002F0F3FF411E080E00D0FEE70A4837
:102080000A4A51600A490B6803400324A4071B193C
:102090000B6000239360072313600A6802400A6004
:1020A00010BDC046A8000020FFFFFF0010E000E0C8
:1020B00020ED00E081B000900348009901600168C4
:1020C0000029FCD101B070473408002010B501246C
:1020D000600200F03BF800280CD0200200F014F859
:1020E0000648007806490978002904D000F082FEED
:1020F00001F096F910BD0349087010BD29080020B1
:10210000A4070020280800200F4908607047C04637
:10211000026801239A430A430260704780B5016850
:102120000122914301600021016041608160C16032
:10213000C0B20838052102F091FF0F21814002480A
:1021400002680A43026080BD040002400249096837
:102150000840411E8841704700000240002A03D019
:1021600002680A430260704702688A43026070474F
:10217000B0B5114A14461034036823400C7A8D7DA3
:1021800025430C7C2C434D7C25434C8A2C438D8A63
:1021900025430C8B2C434D8B2543ACB21C43046070
:1021A000036813408A8B1A430260CA6842600A6857
:1021B00082604968C160B0BDFF7FFFFFF0B58BB0A2
:1021C000019317460291044601252846294600F04E
:1021D00049FA2046FFF7A2FF03AE304600F024F88C
:1021E0002020B0750020B08230720990E80307907B
:1021F0000198069004970298039020463146FFF715
:10220000B7FF0226204631462A46FFF7A7FF0548BA
:1022100031462A4600F068FD20462946FFF778FF40
:102220000BB0F0BD00380140002181838161017253
:1022300001604160C1600161818281757047000069
:10224000F0B587B00C4607460125EE02304602F095
:1022500005FF21464143B14200D0FEE700237B4900
:10226000B44202D91E4606912AE00128029000D805
:10227000029562080592012A00D805950026DD4ADC
:102280000D46019604970393234673435B19069307
:10229000022C059B0D4610D32F88974204D15B1E5C
:1022A000AD1C002BF8D109E00919761C029B9E4257
:1022B000049F039B654DE7D102E0019E049F039BB1
:1022C000B042184600D00698002809D05F498842DD
:1022D00000D16048011B38462246FEF705F900E0B0
:1022E000DC43204607B0F0BDF0B587B00E4605468A
:1022F0000127FC02204602F0B1FE31464143A142D3
:1023000000D0FEE733463946059000264F4FA342E2
:1023100030460497069327D805980128019000D8E5
:10232000019158080390012800D803910020B14A78
:102330003C46009019464343DB1904930229039B52
:1023400002940FD32188914204D15B1EA41C002B60
:10235000F8D108E0069B029CE418401C01998842D1
:10236000E8D101E00098069B0599814200D0049EC7
:1023700081421ED11C4600F0CBF8384600F06CF8C4
:1023800000F096F800F0C4F8314800F065F800F06D
:102390008FF800F0BDF8640852D00026298838462E
:1023A00000F08EF8AD1CBF1C761CB0B2A042F5D375
:1023B00046E0274CE01A864217D11F4600F0A8F8E5
:1023C000204600F049F800F073F800F0A1F87C080E
:1023D00036D000272988304600F072F8AD1CB61CB4
:1023E0007F1CB8B2A042F5D32AE01A48C01A059063
:1023F0001C4600F08DF80598864214D1384600F04E
:102400002BF800F055F800F083F8640818D0002786
:102410002988304600F054F8AD1CB61C7F1CB8B2B9
:10242000A042F5D30CE064080AD000272988304682
:1024300000F046F8AD1CB61C7F1CB8B2A042F5D324
:1024400000F036F8069807B0F0BDC04600780008E6
:10245000007C00080080000810B518490B680222B3
:1024600013430B6048600868402303430B600F4B25
:102470000C1F2068C00708D120684007104607D409
:102480002068C00603D5032002E0012000E00420FC
:102490005B1C012801D1002BEAD100220A60342103
:1024A0002160002B00D1052010BDC04601F0FFFFC8
:1024B0000248016880220A430260704710200240EF
:1024C00010B5124A546801231C4354600180002156
:1024D0001068C00718460AD11068400704D4106875
:1024E000C00603D5032002E0022000E004204C1CBB
:1024F000012802D10E292146EAD100215160342160
:1025000011600F2C00D1052010BDC0460C200240E8
:1025100002480349016003490160704704200240FA
:1025200023016745AB89EFCDF0B583B0CB780F229F
:102530001C4602921440DD06019301D58D782C4390
:1025400000910A880026374603E0361D7F1C082FBD
:102550000CD01546FD40ED07F7D02546B540029B4F
:10256000B3400168994329430160EEE70099098867
:1025700000910D0A0026374603E0361D7F1C082F08
:102580000CD02946F940C907F7D02146B140029B3B
:10259000B34042689A430A434260EEE701994829F2
:1025A00003D0282906D1143000E010300168009AC9
:1025B0001143016003B0F0BDB0B5082901D3242355
:1025C00000E02023C4584907C90E0F258D40AC43B5
:1025D0008A402243C250B0BD80680840411E8841F5
:1025E0007047000002494180024901807047C0469F
:1025F00002040000FFFF000000200449044A435C7D
:102600001354401C0C28FAD17047C046E8F7FF1F4E
:102610001D07002070B501788278002A15D0FC22B1
:102620000A400D4BD4588D07ED0EFF26AE40B44343
:1026300040788001C0B2A8402043D0501F200840FD
:10264000012181400548016070BD1F20014001202B
:1026500088400349086070BD00E400E000E100E04C
:1026600080E100E0054A002903D0116801431160B0
:1026700070471168814311607047C04614100240D2
:10268000054A002903D011680143116070471168A1
:10269000814311607047C0461C100240054A002962
:1026A00003D01168014311607047116881431160C4
:1026B0007047C04618100240154908680C220240B5
:1026C0000C2A01D0144800E012480A681206120FC2
:1026D000124B9A5CD04009684905490F595CC840C3
:1026E0007047C0460A4908680C2202400C2A01D0F3
:1026F000094800E007480A681206120F074B9A5C67
:10270000D04009688904490F595CC8407047C046E9
:1027100004100240409C000000127A007F06002056
:1027200005480168002902D00168491E016003487C
:102730000168491C0160704734080020A007002090
:10274000F0B589B0514E3068012210433060706896
:102750004F490140716030684E490140316090043A
:10276000316881433160C320000471688143716026
:1027700030684949014031609F200004B0603068F2
:1027800002921043306030688007FCD5434C4448C7
:102790002060444D286810210143296028680721E2
:1027A000884328602068401E3F4902F057FC296892
:1027B0000143296070687060706870600320019048
:1027C00000047168814371603068384908403060A6
:1027D0002368002001461F46039006460491701CA2
:1027E0000590334D039C06E031496D18641C002FA1
:1027F000079206901ED0402C18D0089737462846DE
:1028000005991E4602F02AFC3346311A00D2C11A3D
:102810003E46089F8F42304600D806988F42224697
:1028200000D8079A8F42DFD30F46DDE704990029CD
:1028300006D009E00027079206900299002903D1EB
:10284000059804280646C9D1104A1068174B18404D
:102850001060079880060699C9B2090501431068FF
:1028600008431060581C11680143116050680199B9
:1028700088435060506802210143516050680C2128
:1028800001400829FAD109B0F0BDC046001002404D
:102890000CC0FFF8FFFFF6FEFFFF8F00A80000202E
:1028A00000A24A040020024000366E01FFFF0F0024
:1028B000001BB700F0B58DB0009101900124E0023B
:1028C0002146FFF7EBFEED4D284600F09BF80AAEDF
:1028D000304600F0D7F90027B77237810098308072
:1028E000B77001980B902846314600F089F906AE82
:1028F000304600F051F90420B07020023080B781DA
:10290000778150201A49085A411E8841C0007072D0
:1029100007972846314600F0B7F82846314600F0C0
:10292000DFF82846314600F009F92846214600F034
:102930003DF820212846224600F09CF828462146F2
:1029400000F056F802AE304600F027F8A003B08140
:102950000848049008480290200403902846314615
:1029600000F00CF82846214600F03AF80DB0F0BD12
:10297000FE05002000100020000800080A884B888F
:1029800013438A881A43CB8813430A891A434B8915
:102990001343898919434164704700218181418132
:1029A0000181C18081804180018070474A1E914130
:1029B000426801239A435118416070478A400123BD
:1029C0008B40016A99431143016270470C2906D07C
:1029D0008A4004238B40016A994311430162704786
:1029E0004A1E9141026801239A43511801607047C1
:1029F0004A1E9141C9030122D203436C93435918E3
:102A00004164704780B5184988420DDC01218A076E
:102A1000904217D09A4A904218D0984A904222D1B8
:102A2000C80201F0D1FC80BD1049884212D0924901
:102A3000884214D08F49884215D10120800401F0CA
:102A4000C3FC80BD012001F0B5FC80BD022001F077
:102A5000B1FC80BD0120000401F0B6FC80BD012066
:102A6000400401F0B1FC80BDFF3F01400040014047
:102A700041617047002A03D0C2680A43C2607047B0
:102A8000C2688A43C2607047B0B5826970239A43B6
:102A90000B78134383610A7A4B781343046A032249
:102AA00094431C4304624B684363744B984205D0C3
:102AB000704B984202D0704B98420FD14B7A8C7871
:102AC0001C43036A0C25AB43234303624B8989896A
:102AD00019431202436893430B434360B0BDC046A1
:102AE000B0B507221203836993430A7812021A438E
:102AF0008261026A30239A430B7A4C781C4323018B
:102B0000134303624A688263224A131F984200D02B
:102B1000B0BD036AC024A3434C7A8D7825432C01B1
:102B20001C43046203208002136883434889898917
:102B30000143880018431060B0BDC04670B5C2693B
:102B400070239A430B781343C36103221302046A70
:102B50009C430B7A4D781D432B02234303624B6841
:102B6000C3630C4B1C1FA04200D070BD9402056AC9
:102B7000A5434C7A8E78264334022C43046210031A
:102B80001A68824348898989014308011043186003
:102B900070BDC046042C014000218170018041605D
:102BA000816081817047000010B501238B40046A69
:102BB0009C4304620223D941032920D8794409792E
:102BC00049008F4401070F15816970239943114310
:102BD000816110BD0721090383698B4311021943E9
:102BE000816110BDC169702399431143C16110BD5A
:102BF00007210903C3698B4311021943C16110BD49
:102C000003221202036893430A891A430260184A96
:102C1000904209DD174A90421CD0174A904219D0C1
:102C2000164A904207D01BE001229207904202D040
:102C3000134A904214D1026870239A438B7813434D
:102C400003600E4A904205D00A4A904202D00A4AD6
:102C5000904205D1026BFF239A438B7AD21802630C
:102C60004A68C26209888162012141617047C04699
:102C7000FF2B01400048014000440140002C01406E
:102C80000004004000210181018081728170C943EC
:102C90004160704770B584B005460124A003214609
:102CA000FFF7FCFC60042146FFF7EAFC6E46304665
:102CB00000F0C6F8002030733072B07130203071EF
:102CC0001820708100955D4D2846314600F03EF891
:102CD0002846214600F002F804B070BD8269012345
:102CE0009A430A43826170478169022399435200E3
:102CF0000A43826170470000F0B581B000240E4D98
:102D00000E4E06E01821285D01F0D0FDE41C0C2CCD
:102D10000FD0285DB18B814202D0F18B8142F5D179
:102D20002F19797801F0E4FDB8780028EAD1042160
:102D3000E9E701B0F0BDC046C5600008FE0500200F
:102D400080680840411E88417047000070B50D46FC
:102D50000446C0693021884329790143E161E06973
:102D600044218843A9790143E161E0690321884353
:102D7000297A0143E161A0691821884369890143E7
:102D8000A161A06904218843297B0143A1612B48EB
:102D9000844202D0FFF790FC01E0FFF7A3FC296812
:102DA000064E304602F05AF9000920622968304682
:102DB00002F054F90F210140616270BD00A24A0483
:102DC000C9B2016070470000B0B504460078002821
:102DD0000ED01A4DC1B22846FFF7F2FF0121284656
:102DE000FFF7AEFF0028F9D06078641C0028F1D10D
:102DF000B0BDC04610B50146104C2046FFF7E0FFBD
:102E000001212046FFF79CFF0028F9D010BDC046E5
:102E100070B5002910D00C460546084E297830467A
:102E2000FFF7CEFF641E01213046FFF789FF00281F
:102E3000F9D06D1C2004F1D170BDC04600380140AE
:102E400000210173182242810172817130210171C8
:102E50004B21C901016070470021214A1378834248
:102E600004D0121D491C0A29F8D10A2188001C49E6
:102E70000818408809280CD8784400794000874415
:102E8000040B0F13171B1F232B271648006880B253
:102E90007047002080B270471248406880B2704787
:102EA0001048806880B270470E48C06880B2704792
:102EB0000C48006980B270470A48406980B2704788
:102EC0000848806980B270470648C06980B2704780
:102ED0000448406A80B270470248006A80B2704776
:102EE0002455000818240140F0B5A7B00A4D2878F1
:102EF000801E082800D9E3E04000C046784480885E
:102F0000400087440B001F007E001401DD006101BA
:102F1000AE00BC00DA00C046A4070020FFF76CFB3F
:102F2000F248FFF751FF1D200101F148FFF770FF44
:102F3000F048FFF749FFF0480078002800D17EE113
:102F4000EE487DE1EE48FFF73FFFEE4801240470B4
:102F500000BF00BF01780029FAD12878032800D0EB
:102F6000AEE0EB4D28462146FFF742FD7D204001B3
:102F70006863A863E863EF4E212530462946224660
:102F8000FDF7F3FAF64F384629462246FDF7EDFAEB
:102F9000F44829462246FDF7E8FAF249DE4800885F
:102FA00012900022119403E0521C212A00D13FE12B
:102FB000FE2010400A2801D101251BE093B212988F
:102FC0009842254616D039463446D348851C0026FB
:102FD00030460F2E05D0461CAF1C2D889D423D4625
:102FE000F6D10F2801D3002500E0012526460F4623
:102FF000119CDC49002DD7D00020B854B05488541F
:10300000D2E7D248FFF7E0FE00260127C24D129713
:1030100004E0701CF1B22029064653D27E203040D5
:103020000A2801D1012115E0F0B2298881423946F0
:1030300010D0A91C00231A460F2B05D0531C8F1C3F
:10304000098881423946F6D10F2A01D3002100E0D8
:103050000121129F0029DCD1F0B2482101F026FCA9
:10306000D7E7AE48FFF7B0FEAD4800210170AD488C
:103070000170AD480180AD48017027B0F0BDA34894
:10308000FFF7A2FEA24C01212046FFF7B1FC002071
:103090006063A063E0639F4908609F4D2878042423
:1030A000214601F003FCA878214601F0FFFB2879B6
:1030B000214601F0FBFB27B0F0BD9348FFF784FEEB
:1030C00027B0F0BD2C88002203E001234A1C002B0E
:1030D0001CD01146FE220A400A2AF6D0CAB29442F7
:1030E0003B46F3D02846AB1C00273E460F2F05D0A9
:1030F000771C9D1C1B8893422B46F6D10F2E01D3C3
:10310000002300E00123129F0546DFE7904C217069
:103110009048FFF759FE2078052141438E4840181A
:10312000FFF752FE8D48FFF74FFE27B0F0BD8248F3
:10313000FFF74AFE764D012428462146FFF758FC4A
:10314000129460036863A863E8637C4800270770F3
:1031500000F06CFFFEF7B0FE7A4D13E079490D18D0
:1031600069880124A302002675483246FEF7F2FE64
:103170002878744D314601F099FB7348C4557F1C83
:103180000A2F4FD0B800295CFE220A400A2A03D138
:103190000122002A16D1E1E75F4A12888A42129A78
:1031A0000ED05D4A921C002423460F2C05D05C1CD7
:1031B000961C12888A423246F6D10F2BE8D30022A1
:1031C000002ACBD00024D8E75948FFF7FDFD0024A2
:1031D0000125514F06E0002100290AD0641C212C52
:1031E00000D16DE7FE2020400A2808D101210029E6
:1031F000F4D1E0B201F0AEF84E490855EEE7A0B2C6
:10320000398881422946E7D0B91C00231A460F2B82
:1032100005D0531C8E1C098881423146F6D10F2AF5
:10322000E4D3D8E701214648FEF7B2FE27B0F0BD4F
:10323000FF20394948808880088027B0F0BD4A487F
:10324000FFF7C2FD49480068FDF7C6FE12901191D4
:1032500047480178109141780F918478C5780679B4
:10326000477981790E91C1790D91017A427A837AF9
:10327000C07A089109920A930B90109800900F98C9
:1032800001A9F1C10E9806900D98079013AC394929
:103290002046129A119BFCF7CBFF2046FFF794FDC6
:1032A0003548FFF791FD35A0FFF78EFD3B48FFF74E
:1032B0008BFD3B48FFF788FD3A48FFF785FD3A480C
:1032C000FFF782FD3948FFF77FFD39A0FFF77CFD4E
:1032D00045A0FFF779FD4CA0FFF776FD4F480E495A
:1032E0008022FDF701F927B0F0BDC046365B00082B
:1032F0002C040020655F00089C0700205760000830
:10330000265D000848080020925F00083C5B00082A
:10331000002C01403C080020FE050020465E00080D
:10332000FE06002012070020140700203A080020A3
:103330007D5900082C0700203B5A00087E0600201B
:103340000024014024550008F4060020C957000855
:1033500038080020715F000800000020345E00087B
:103360005007002074070020F05F00084408002088
:103370001D070020D25C00080D5C000820202831C9
:10338000292D4175746F2064657465637420616CC8
:103390006C2070696E732E0A0D0000008E5C0008B0
:1033A0006A5C0008E85B0008AF5C0008485C000845
:1033B00020202837292D4D6F6469667920636F6E50
:1033C00066696775726174696F6E73206D616E7581
:1033D000616C6C7920627920636F6D6D616E642021
:1033E0006C696E652E0A0D0020202838292D546541
:1033F0007374206D6F746F7220726F746174696F73
:103400006E2E0A0D0000000020202839292D506F53
:10341000776572206F66662E0A0D3E00A8070020B1
:10342000F0B5A5B0B74D2878401E092800D9B8E2FC
:103430004000C04678448088400087440900150059
:1034400032004A005D00B2027B009A00D6001201F1
:10345000AD4800780D2802D00A2800D0A1E2AB4880
:103460000121017002205FE0A74800783138082868
:1034700000D996E24000C0467844808840008744E6
:1034800008003C0246024B02500252025C026102FA
:1034900076029E4801210170032028709C4800F0AC
:1034A00085FC99480078682800DDF1E00A2802D000
:1034B0000D2800D075E296480078002800D1CFE1B1
:1034C0009248012101700420287092480021016077
:1034D000C8E18D4E307801466239182900D9EFE1F4
:1034E000012422468A408C4B1A4200D1BCE1772845
:1034F00000D1D6E00421D5E0834800780A2805D021
:10350000662800D12EE10D2800D032E180480178F4
:10351000002900D142E181490978002900D13DE12B
:103520007A4801210170072028707A480021016043
:1035300025B0F0BD744800780A2805D0652800D170
:1035400044E10D2800D02CE27548028875490B88AB
:10355000934200D03DE10222802A00D1C6E1835A85
:103560008C5A921C9C42F7D06848012101700A20B5
:10357000F9E1654800780A2805D0202800D131E11A
:103580000D2800D032E1684C2078014665391329B6
:1035900000D960E24900C0467944898849008F44D7
:1035A00013009802BC02D5029802980298022B03DD
:1035B000980298029802980298023403980298029E
:1035C000980298024A03600305AC8025FF2220463A
:1035D0002946FCF7CAFF20462946FEF785FE00284B
:1035E00000D16FE3514800F0CCFB474800780A381F
:1035F000232800D9D5E140007844808840008744E2
:103600002300D001D0012300D001D001D001D0018E
:10361000D001D001D001D001D001D001D001D00122
:10362000D001D001D001D001D001D001D001D00112
:10363000D001D001D001D001D001D001D001D00102
:10364000D0010601D001110139480024446384638C
:10365000C4632146FFF7CCF93648047000F0E6FC5D
:1036600044E1294800786E2800D13FE1792816D13D
:103670002B488021FEF738FE002800D133E12EA030
:10368000FFF7A2FB214801210170022028702DE1E3
:10369000692800D1D5E0792800D1E3E081E12CA0B0
:1036A000D5E148212C4D287801F000F93278623AB2
:1036B000182A00D991E11A48811D28485200C046B5
:1036C0007A44928852009744180088018801880142
:1036D00088016E01880188018801880172018801D2
:1036E00088018801880188017D01880188017601AF
:1036F00088018801880188017A0109490A3118483E
:1037000060E1C046A407002029080020950700209A
:103710001C07002034080020210429019C070020F8
:10372000FE050020A8070020120700207060000896
:10373000002C01407E0600200D0A636F6E666967EB
:1037400075726174696F6E2073617665640D0A002D
:103750000D0A592F4E3F0000380800205D5F000819
:10376000335F0008F74801784A424A41027025B0A9
:10377000F0BD01463039092900D912E18000F24933
:103780004018C0380078FE4C2083FEA0FFF71CFBD9
:10379000208B05214143FD48401858E1FC4A002197
:1037A0001160F74A1488FB4B1E88A64208D10224F8
:1037B000802C00D19AE0165B1F5BA41CB742F7D0A7
:1037C000F54A012313700A222A70EFE2F34801211F
:1037D000ECE2F148012101700A202870F048002134
:1037E0000170DEE0EF480178491CDFE2ED4909781D
:1037F000022900D175E1012900D180E1002900D022
:10380000CFE0E9490A78002A00D0CAE057E2E74849
:103810000268E12189008A4200DB0A4664320260C4
:1038200001AC08E0E1480268E1498A4200DC0A464E
:10383000643A026005ACDF492046FCF7F9FC2046FB
:1038400005E15024CE4D285B414241412953DA48DD
:10385000FFF7BAFA285B002800D196E0D74895E038
:1038600001F05CF9D64880E0112929D1D54D28789E
:10387000482101F01BF8C2480288287803E001259E
:10388000002D00D1D5E0030601D0401E00E020202D
:10389000FE2303400A2BF2D0C3B29A422546EFD052
:1038A000B7498D1C00273E460F2F05D0771CA91C59
:1038B0002D889D420D46F6D10F2EE0D30025DFE77F
:1038C0000D2802D00A2800D0B5E0B54800780028BD
:1038D00000D1D2E0B0480121017005202870AC4829
:1038E00000210160CBE0B8A0FFF76EFAAA480121E1
:1038F00001700220287025B0F0BDA7480121017099
:1039000003202870A64800220270A4484EE2A24874
:1039100001210170042026E09F480121017005204B
:1039200021E0AF4893E0AF480078002800D196E04E
:10393000994801210170072015E097480121017085
:10394000082010E08E480188202900D98CE14188A8
:10395000202900D988E18088202800D984E18E4878
:1039600001210170092028708D4800211EE29D4828
:103970000078002873D09C48FFF726FA8048007D25
:10398000042100F093FF25B0F0BD9848FFF71CFA22
:10399000012040030021FEF78DFF894800780028B0
:1039A0005FD025B0F0BD7649083191480AE07449EE
:1039B0000E31904806E072490C31FE4802E0704931
:1039C0001031FD482A780A80FFF7FEF92878052192
:1039D00041436E484018FFF7F7F93078772802D056
:1039E000F648FFF7F1F9F94801882878012202E04A
:1039F0000125002D1DD0C3B2202B01D0401C00E0BA
:103A00000020FE2303400A2BF2D0C3B29942154690
:103A1000EFD0EE4CA51C00273E460F2F05D0771C9B
:103A2000AC1C2D889D422546F6D10F2EE0D30025F3
:103A3000DFE764490870E248FFF7C6F9614800789B
:103A40000521414351484018FFF7BEF9DD48FFF713
:103A5000BBF925B0F0BD00283BD100BF93E1DA48A7
:103A6000F5E7DB4C01212046FEF7C2FF7D20400137
:103A70006063A063E06325B0F0BD01F04FF800265D
:103A80000124D24D07E0002100291DD0701CF1B2A5
:103A900020290646CFD27E2030400A2811D0F0B22D
:103AA000298881422146EFD0A91C00231A460F2BFA
:103AB00005D0531C8F1C098881423946F6D10F2A44
:103AC000E1D201210029E1D1F0B2042100F0EEFEA3
:103AD000DCE7E748FFF778F92078FFF78BF9E5A0F6
:103AE0004FE1DB490A78931E5A425A4103463A3B5A
:103AF000DBB25B087B2B00D2B8E00023B7E0CE49F5
:103B00000A78931E5A425A4103463A3BDBB25B089D
:103B10007B2B00D2B2E00023B1E0B6A0FFF754F94E
:103B20000026AA4FBAA4BA5B05AD28462146FCF789
:103B30007FFB2846FFF748F9B61C802EF3D1B6A0CC
:103B40001FE1C0463908002024550008B448FFF79B
:103B50003BF90024B34DB74F05AE3046B2A1224623
:103B6000FCF766FB3046FFF72FF92846FFF72CF9E4
:103B70003846FFF729F90E35641C402CECD102E1E0
:103B8000FE0500200D0A564241543A000000002074
:103B900034080020A80700209507002029070020EE
:103BA0001C0700203A080020120700203C080020D3
:103BB0007CFCFFFF2A5E0008885E0008E75F0008C3
:103BC00048080020380800200D0A454550524F4D46
:103BD000207772697465206661696C65640D0A00FE
:103BE000AA5E00089C070020D65E0008F65F000869
:103BF000555F0008485F00080025ECB2204600F041
:103C00009BFE6D1C3F2CF8D3BDE08B48007802284A
:103C100078D18A4800788A4C00262654814D204667
:103C20002946FCF7ABFC00284ED00E35761C402E02
:103C3000F5D1FF2449E08048007802286DD17F4803
:103C400000787F4C00262654764D20462946FCF706
:103C500095FC002845D00E35761C402EF5D1FF246A
:103C600040E000F05BFF8EE08748F0E6012313435D
:103C7000012B11D1774A1378774C06E001231343C7
:103C8000012B14D16D4A13786D4CE054022008705A
:103C9000581C107025B0F0BD01220A7070490A88C6
:103CA0000A235343C0183038088025B0F0BD0122E4
:103CB0000A7064490A780A235343C01830380870E0
:103CC00025B0F0BD45A05CE0F4B2FF2C16D15E48F3
:103CD000FFF77AF85A48FFF777F85C48FFF774F86F
:103CE0000EE0F4B2FF2C14D15748FFF76DF854489A
:103CF000FFF76AF85548FFF767F80CE05148047081
:103D0000FF2C40D04F4800783F2839D800F014FEEF
:103D100039E04C480470FF2C35D04D48007802281B
:103D200022D14C4800784C4C002626544B4D20465E
:103D30002946FCF723FC002805D06D1D761C212E9A
:103D4000F5D1FF2400E0F4B2FF2C09D145A0FFF724
:103D50003BF84148FFF738F83C48FFF735F801E0F9
:103D60003F480480FF2C0ED0364800783F2807D803
:103D700041003B4A1288154B5A5200F0DDFD02E02B
:103D80003A48FFF721F83F48FFF71EF82D48002179
:103D9000017011480170324801800E4801702D48B1
:103DA0000170264801702A4801702348017025B02F
:103DB000F0BDC0463B5F0008885F0008335B000829
:103DC000715F0008345E0008C35E0008FE05002035
:103DD000002C01403A080020120700200D0A45453A
:103DE00050524F4D206572617365206661696C6544
:103DF000640000000D0A75696E7431365F742070BE
:103E0000696E73746F726167655B36345D3D7B000C
:103E100025692C200000000008087D3B0000000000
:103E200044560008AC000020696E6465782025695E
:103E30003A200000335B000800070020FF06002046
:103E400001070020FE060020935E0008B460000811
:103E50001707002016070020180700200000002088
:103E6000140700200D0A70696E2022005E600008B1
:103E70009F5E000822646F6573206E6F7420657802
:103E800069737400375E0008FF5E000870B50C4C63
:103E900020680C4D2968081AC92810D30A4E3078BA
:103EA000002801D0042100E048210848007800F0F3
:103EB000FDFC28682060307841424141317070BD7E
:103EC00098070020A00700201107002038080020D4
:103ED000F0B581B0474800780125002849D0464E0A
:103EE000B08AFF21B1827082C0B2042100F0DEFCF2
:103EF000002704E0781CF9B22029074622D27E2050
:103F000038400A2801D1012015E0F9B230888842F2
:103F1000284610D00020C243B31C0E2A08D09C1C97
:103F2000521C1B888B422346F7D10F2AEBD302E0A9
:103F30000F220F2AE7D30028DCD1F8B2482100F085
:103F4000B5FCD7E700F07EF92C490870002848D06E
:103F50003048FEF739FF708A052460432E4D28183B
:103F6000FEF732FF2DA0FEF72FFFB08A604328181E
:103F700038E00026204C05E0002100291BD0761CEB
:103F8000212E2CD0FE2030400A2811D0B0B221883A
:103F900081422946F1D0A11C00231A460F2B05D0DF
:103FA000531C8F1C098881423946F6D10F2AE3D26F
:103FB00001210029E3D11C48805D0028DFD1F0B247
:103FC00000F0C8F90028DAD066821248FEF7FCFE3D
:103FD0000520704310490818FEF7F6FECFE701B040
:103FE000F0BD07A0FEF7F0FE00200249087001B006
:103FF000F0BDC04629070020FE0500209C070020D8
:10400000576F726B61726F756E64206661696C6563
:10401000640000007E5F0008000000200D0A4C6173
:104020007463683A000000002C070020F0B581B0EE
:1040300082480078401E824C052829D878440079AF
:1040400040008744023D6083A6C90426002520461F
:1040500031462A46FEF7B2FC204631462A46FEF794
:10406000B5FC6026204629463246FEF79DFD01221A
:1040700020462946FEF7A2FC204629462A46FEF79E
:10408000A5FC0825204629463246FEF78DFDC5E0F1
:104090000025204629462A46FEF790FC04262046A5
:1040A00029463246FEF792FC204631462A46FEF764
:1040B00085FC204631463246FEF788FC0825ADE0F7
:1040C0000025204629462A46FEF778FC2046294648
:1040D0002A46FEF77BFC04276026204639463246F6
:1040E000FEF762FD012220463946FEF767FC2046B6
:1040F00039462A46FEF76AFC0825204629463246FC
:10410000FEF752FD8AE008260025204631462A4661
:10411000FEF754FC204631462A46FEF757FC04279A
:104120006026204639463246FEF73EFD01222046F3
:104130003946FEF743FC204639462A46FEF746FC40
:10414000204629463246FEF72FFD67E0042600256B
:10415000204631462A46FEF731FC204631462A46A3
:10416000FEF734FC08276026204639463246FEF723
:104170001BFD012220463946FEF720FC2046394629
:104180002A46FEF723FC204629463246FEF70CFD60
:1041900044E00025204629462A46FEF70FFC20462B
:1041A00029462A46FEF712FC082760262046394693
:1041B0003246FEF7F9FC012220463946FEF7FEFBA7
:1041C000204639462A46FEF701FC042520462946AA
:1041D0003246FEF7E9FC21E008260025204631465C
:1041E0002A46FEF7EBFB204631462A46FEF7EEFB59
:1041F0006026204629463246FEF7D6FC012220469C
:104200002946FEF7DBFB204629462A46FEF7DEFB61
:104210000425204629463246FEF7C6FC00222046E9
:104220002946FEF7CBFB042220462946FEF7CEFBAB
:1042300020212046FEF71CFC01B0F0BD7E060020C8
:10424000002C0140F0B581B000F0DAFE6420FDF7EB
:1042500031FF00223848174608E00120002821D00D
:10426000781CF9B220290746334848D27E213940CC
:104270000A29F2D0FEB20188B142EED01546811C67
:1042800000231A460F2B05D0531C8C1C0988B14201
:104290002146F6D10F2A01D3002000E001202A4652
:1042A0000028DDD125480668224804680092002ACB
:1042B00005D1F9B2FE4881828021FEF715F8C83693
:1042C000A4B20A34FDB20421284600F0EFFA009AA5
:1042D00003E01A480068B042C2D81648006880B2AD
:1042E00017490860A042F4D94821284600F0DEFAB8
:1042F000EF4885820A20FDF7DDFE0122E9E7002A6A
:10430000144604D10F4981828021FDF7EDFF094851
:10431000006880B2FCF731FD02460B460A480B49A3
:10432000FCF7C2FAFCF782FA09490860E0B201B072
:10433000F0BDC04654240140FE050020A007002027
:1043400040080020FFFF0000333333333333B340E2
:104350004408002010B5062141430C4A505C431E1E
:10436000032B09D80920C0067B441B795B009F44BE
:1043700008010507084804E0002010BD054800E0DA
:10438000034851184988FEF727F910BD7E550008EB
:10439000000C0048000800480004004880B582B0C6
:1043A00001AA01239370517010701046FEF732F984
:1043B00002B080BD03490A6802430A600A6882436A
:1043C0000A6070471010024003490A6802430A60FD
:1043D0000A6882430A6070470C100240F0B58BB047
:1043E000AE4EB01C00210A460B4609E0571C09AC32
:1043F00015463A46EDB26155C01C491C042907D048
:104400000478002CF2D05F1C0AAC1D463B46F1E755
:1044100009A8643003900AA86430049000240121A4
:1044200008912746214600940191009D705D10215E
:1044300000F03CFA705D71194978491CC9B200F06E
:1044400057FAED1C0C2DF1D10AA8C55D03277D4359
:10445000705D71190791497800F04AFA0294E0B250
:1044600009A90C5C06977C43305D311905914978A8
:1044700000F03EFA705D182100F018FA305D04215A
:1044800000F014FA00242746854E347085A0C55DDF
:104490002846FEF7AFFC0A20FDF70CFE3078A84254
:1044A0004BD1781C082F0746EED907980178E748CA
:1044B000818305990978C1838021FDF715FF0125C6
:1044C000E84805700020754E08E00021734E002971
:1044D00020D0781CF9B2202900D39DE007467E2425
:1044E00020400A282946F2D0F8B2D84909888142EA
:1044F0000899ECD0D549891C00231A460F2B05D00A
:10450000531C8E1C098881423146F6D10F2ADCD219
:104510000121DBE70498007806994843315CF8B242
:104520008842D6D003990978069A5143715C884233
:10453000CFD0482100F0BAF9CBE70020574E06E073
:10454000002100290BD0781CF9B2202929D2074676
:104550007E2528400A280FD101210029F3D1079890
:104560000178F8B28842EED0059909788842EAD0FD
:10457000482100F09BF9E6E7F8B2B4490988814286
:104580000899DED0B149891C00231A460F2B05D0AB
:10459000531C8C1C098881422146F6D10F2ADBD39B
:1045A000CEE70A20FDF786FD002006E00021002965
:1045B0000AD0781CF9B2202928D2074628400A28B8
:1045C0000FD101210029F4D107980178F8B288426F
:1045D000EFD0059909788842EBD0042100F066F904
:1045E000E7E7F8B2F749098881420899DFD0F54931
:1045F000891C00231A460F2B05D0531C8C1C0988DC
:1046000081422146F6D10F2ADBD3CFE76420FDF7A4
:1046100051FD029C019933E07D20C000FDF74AFD69
:10462000002504E0681CE9B22029054624D228466A
:1046300020400A2801D1012117E0E8B2E1490988A8
:104640008142089911D0DF49891C00231A460F2B9B
:1046500005D0531C8E1C098881423146F6D10F2AA1
:1046600001D3002100E001210C4E0029DAD1E8B28B
:10467000042100F01BF9D5E7FEF73EFB6424214638
:10468000491CCFB2022F00D2CEE6641CE0B2002754
:104690000228394600D2C7E60BB0F0BDC56000085D
:1046A0002808002048656C6C6F576F726C640000BE
:1046B000FE050020F0B581B00546C24F3878FFF7FF
:1046C00049FE0446B878FFF745FE06463879FFF7FD
:1046D00041FE7100091980000818012D01D0072141
:1046E000081AC0B20149085C01B0F0BD4C55000881
:1046F000012460042146FDF7B5FFA0042146FDF723
:10470000B1FFE0042146FDF7ADFF20052146FDF78E
:10471000A9FFFDF7A9FCFDF753FC4B200002FEF7B3
:10472000B9FA0A20002631463246FFF737FE4448E0
:104730004449454A2346FDF741FD00F0D5F90028DC
:104740001CD042490F208882482100F0AFF8404831
:10475000047000F055FC6420FDF7ACFC3D48006897
:1047600080B2FCF70AFB02460B463B483B49FCF78C
:104770009BF8FCF75BF83A49086009E000F008FA9A
:104780007D20C000FDF796FCFFF75CFD3049087006
:1047900060033146FEF78EF82C48818B202905D81E
:1047A000C08B202802D8FEF7A7FA26462D4D2E7082
:1047B0002D4E3DA43078002803D000203070FEF745
:1047C00093FB28780928F5D878440079400087447D
:1047D000080B072B2E310734070400F0D5FBE9E75F
:1047E000E8E7FFF7FBFDE5E720A0FEF7EDFA1D2067
:1047F00001012048FEF70CFB1FA0FEF7E5FA24A0FC
:10480000FEF7E2FA28780128D4D100272046FEF7E7
:10481000DBFA6420FDF74EFC781C2978302FC9D8CC
:1048200001290746F2D0C5E700F0DEF9C2E7FFF73D
:104830002DFBBFE700F0D4F8BCE7FFF749FBB9E771
:10484000300002400438014029080020FE05002005
:104850009C07002054240140333333333333B340B7
:1048600044080020A4070020950700200A0A0A0A2D
:104870000D0000002C04002057656C636F6D6520EF
:10488000746F2050696E46696E6465720A0D00008F
:10489000707265737320656E74657220746F206327
:1048A0006F6E74696E7565002E000000B0B506234A
:1048B00043431D4CE05C421E032A16D80920C00663
:1048C0007A4412795200974406010305194802E020
:1048D000174800E01548054AD17003219170E1188E
:1048E000498811801146FDF71FFEB0BDF00600207B
:1048F000B0B50A46062141430B4B585C441E032CBD
:1049000011D80920C006C0467C4424796400A7441D
:1049100006010305074802E0054800E0034859186E
:104920000979FDF749FEB0BD7E550008000C00482E
:104930000008004800040048F0B589B004461F484C
:10494000FEF742FA0E2060431D490D182846FEF777
:104950003BFA2846FBF7A6FD0D280CD000262020A8
:10496000FEF748FA2846FBF79DFD0D21081A761C34
:10497000F1B28842F3D86600124FBB5B01AD12A1C1
:1049800028462246FBF754FC2846FEF71DFA202C49
:1049900011D2BC192820FEF72DFA2088212801D336
:1049A0000DA003E0052141430A484018FEF70CFA28
:1049B0002920FEF71FFA09B0F0BDC046335B00089E
:1049C000AC000020FE05002028253269293A202568
:1049D00035692000000000206E6F7420736574003C
:1049E000F0B589B000242E4E1FE001AD284634A159
:1049F0002246FBF71DFC2846FEF7E6F93078052134
:104A0000414331484018FEF7DFF93846FCF7E4FA35
:104A100002460B4628462DA1FBF70AFC2846FEF766
:104A2000D3F9361D641C0A2C31D01E48005D0028C5
:104A3000F7D03078FEF710FAFCF7A7F905460F46D5
:104A400019480068FCF7C8FA02460B462846394662
:104A5000FCF79EF900252A46144BFCF799F92A46E3
:104A6000134BFCF795F9FBF7E1FE07461148007878
:104A70000028BAD13846104900F025FC0028D0D1D2
:104A800038460E4900F014FC0028AED0C9E711A04A
:104A9000FEF79AF97D200001FDF70CFB09B0F0BD8F
:104AA00024550008F40600204408002000003F4080
:104AB0000000303F390800200000A04100003442CF
:104AC00025692D3E00000000000000203A256656B2
:104AD0000A0D00003D3D3D3D3D3D3D3D3D3D3D3DE3
:104AE0003D3D3D3D0A0D000010B5A0B06C46802153
:104AF0002046FDF7A5FB4020205A0749884207D1F0
:104B0000384869468022FBF7EFFC012020B010BD39
:104B1000002020B010BDC046ABDC0000B0B5314B6A
:104B20001888174A118881421FD10020C143921C66
:104B30009B1C3E2912D09C1C951C491C1B8812886A
:104B40009A4223462A46F4D00E4A012313700E4A95
:104B50000A2313700D4A10703F290FD30948012111
:104B60000170094802210170B0BD064801210170A1
:104B700005480A210170054800210170B0BDC046FA
:104B8000A807002095070020A40700201C0700208C
:104B900070B50025E34C07E0012000281CD0681CFC
:104BA000E9B2202905461CD27E2028400A28F3D0ED
:104BB000E8B221888142EFD0A11C00231A460F2BB6
:104BC00005D0531C8E1C098881423146F6D10F2A2C
:104BD000E2D300200028E2D1E8B24821FFF766FEC8
:104BE000DDE770BDFE050020F0B583B0CD4D6888CF
:104BF000FF38414241412888FF38424242410A433E
:104C0000A888FF38414241411143012900D050E1B9
:104C100001200290012203E00122012900D048E195
:104C2000C14801920270FFF701FA1E20FDF742FA17
:104C3000002408E00D5D681E85410D55B94D641CCA
:104C4000212C00D1B3E0FE26204630400A2801D1B5
:104C5000012115E0A0B229888142029910D0A91C37
:104C600000231A460F2B05D0531C8D1C0988814246
:104C70002946F6D10F2A01D3002100E00121A94DD8
:104C80000029DCD1A8480078401E0528D7D8C046A6
:104C90007844007940008744021827465B69E7B2F0
:104CA0003846FFF757FB00250028284603D19F48C8
:104CB000005D411E88419D4908553846FFF74AFB73
:104CC000002828469A4A23D125E0E7B23846FFF764
:104CD00041FB00250028284603D19448005D411E71
:104CE0008841924908550CE0E7B23846FFF732FB9D
:104CF0000025002828468D4A02D0105D411E8841BB
:104D000010553846FFF726FB00282846884A02D16E
:104D1000105D411E884110553846FFF71BFB0028E7
:104D200084498AD086E7E7B23846FFF713FB0025AF
:104D3000002828467D4A02D0105D411E884110554A
:104D40003846FFF707FB00282846794A26D122E09B
:104D5000E7B23846FFF7FEFA002500282846734AD6
:104D600002D0105D411E884110550DE0E7B2384673
:104D7000FFF7F0FA00250028284603D16B48005DB4
:104D8000411E8841694908553846FFF7E3FA002873
:104D90002846674A02D0105D411E884110553846AA
:104DA000FFF7D8FA0028634900D046E742E70199A7
:104DB0004A1C062900D233E700245F4F5C4903E018
:104DC0007F1D641C212C23D05848005D002807D08B
:104DD0002C805AA0FDF7F8FF3846FDF7F5FF54493F
:104DE000085D002807D06C8057A0FDF7EDFF38461E
:104DF000FDF7EAFF4E494F48005D0028E0D0AC8047
:104E000054A0FDF7E1FF3846FDF7DEFF4849D7E73C
:104E100021240127454821463A46FBF7A6FB444892
:104E200021463A46FBF7A1FB424821463F4C3A4611
:104E3000FBF79BFB28880190002102E0491C2129F7
:104E400024D00A4632400A2A3B4616D08AB201983C
:104E50009042029B11D0AB1C00252C460F2D05D093
:104E6000651C981C1B8893420346F6D10F2C01D376
:104E7000002300E001232B4D2C4C002BDED0002022
:104E80002B4A505460542B4A5054D7E7A988FF3915
:104E9000484248416A88FF3A514251412A88FF2AD4
:104EA000029A00D00A46002A029900D0B4E60146D0
:104EB000B2E62B48002505604560856029480078EA
:104EC00000282DD028A0FDF77FFF164A9088518832
:104ED00012882B4B2E4602E0ED1C2A2D15D05F5D6B
:104EE000BA4204D0B94207D0B842F5D109E05C1902
:104EF000A478A619B942F7D15C19A478A619B842CA
:104F0000EAD15C19A478A619E6E7F0B2002804D02B
:104F1000032802D01B48FDF757FF002011490870F5
:104F200003B0F0BDFE0500207E0600202C07002007
:104F30005007002074070020000000200D0A48419F
:104F40004C4C413A000000000D0A48414C4C423A9A
:104F5000000000000D0A48414C4C433A000000009C
:104F6000342C0140290700200D0A446574656374E0
:104F7000696F6E2073756365737366756C000000EE
:104F800054550008FD5F000870B5164D2878FFF7EE
:104F900091FB154C2178884207D02878FFF78AFBCF
:104FA000207012490870FFF741F84A201049085A4A
:104FB00010490C6844437D20C100204600F070F881
:104FC000FBF7DBFE0126F2079143FBF791FE0A494E
:104FD00008604860094A944200DC00262E70886010
:104FE00070BDC046FC050020FD0500207E060020A7
:104FF000FE0500203C080020342C0140E70300009F
:1050000070B586B0144C2046FCF77CFF0125680281
:105010002946FDF743FB00260596A80202902020B2
:105020000190A8040490009669462046FCF776FF9C
:1050300020462946FCF75EFF0F21204632463346C4
:10504000FCF788FF2846FCF7ADFF20462946FCF711
:105050009FFF06B070BDC0460024014043088B424C
:105060001AD3002203098B4279D3030A8B425ED301
:10507000030B8B4242D3030C8B4227D30902FF223E
:1050800012BA030C8B4202D31212090203D0030B93
:105090008B4233D31AE0D3E0411A8041401C704761
:1050A00003460B4371D443088B42F5D30022030916
:1050B0008B4254D3030A8B4239D3030B8B421DD34B
:1050C000030C8B4202D394466EE0090AC30B8B4259
:1050D00001D3CB03C01A5241830B8B4201D38B0304
:1050E000C01A5241430B8B4201D34B03C01A5241A9
:1050F000030B8B4201D30B03C01A5241C30A8B42EC
:1051000001D3CB02C01A5241830A8B4201D38B02D6
:10511000C01A5241430A8B4201D34B02C01A52417A
:10512000030A8B4201D30B02C01A5241CDD2C309EC
:105130008B4201D3CB01C01A524183098B4201D368
:105140008B01C01A524143098B4201D34B01C01A53
:10515000524103098B4201D30B01C01A5241C308CB
:105160008B4201D3CB00C01A524183088B4201D33A
:105170008B00C01A524143088B4201D34B00C01A26
:105180005241411A524110007047CA0F00D04942A3
:10519000031000D34042534000229C4603098B4237
:1051A0002DD3030A8B4212D38901FC2212BA030ABF
:1051B0008B420CD3890192118B4208D38901921141
:1051C0008B4204D3890137D0921100E08909C309C9
:1051D0008B4201D3CB01C01A524183098B4201D3C8
:1051E0008B01C01A524143098B4201D34B01C01AB3
:1051F000524103098B4201D30B01C01A5241C3082B
:105200008B4201D3CB00C01A524183088B4201D399
:105210008B00C01A5241D9D243088B4201D34B00B4
:10522000C01A5241411A00D201465241104663460B
:105230005B1000D34042704763465B1000D340428E
:1052400001B50021004201D0C9430846C046C0460E
:1052500002BDF8B5040C8BB2264682B25E431046FE
:1052600058430D0C370C360400218019164679413D
:105270006E43370C36048019264679416E438919EE
:10528000F8BD00004900CA020243100000D004200B
:105290004A0D01D001221043044A490D914201D127
:1052A00002210843012800D105207047FF070000B4
:1052B00010B500F033F8EFF30080800001D5012035
:1052C00010BD002010BD10B500F052F8EFF30080C3
:1052D0004000800F012801D0012010BD002010BD2A
:1052E00030380A2801D201207047002070470000A2
:1052F00010B500290AD00878002807D0054878445E
:10530000FBF73CF9002801D0002010BD024878448A
:1053100010BD0000F60D0000EE0D00000123DB05BE
:1053200002000A430DD4DA4203D49A4207D48842D9
:105330007047D84214D4D94212D488427047804270
:105340007047DA4203D59A42F9D5814270475B0033
:105350004200DA4204D24A00DA4201D28142704766
:1053600010B5024AFCF7C8FC10BD00BF09001304C9
:105370000123DB0502000A430DD4DA4203D49A422A
:1053800007D488427047D84214D4D94212D48842F4
:10539000704780427047DA4203D59A42F9D581427C
:1053A00070475B004200DA4204D24A00DA4201D27E
:1053B0008142704710B5024AFCF79EFC10BD00BF49
:1053C0000900160403B402487844844603BC6047CD
:1053D000ADBEFFFF303132333435363738394142D4
:1053E0004344454640305800303132333435363747
:1053F00038396162636465664030780004000008F3
:105400000000000000000002000100001080807F0A
:105410007E7D7C7B7A79787776767574737271711C
:10542000706F6E6E6D6C6C6B6A6A696868676666D1
:10543000656464636362616160605F5F5E5E5D5D61
:105440005C5C5B5B5A5A59595858575756565555D4
:10545000555454535352525251515050504F4F4F34
:105460004E4E4D4D4D4C4C4C4B4B4B4A4A4A494984
:1054700049484848474747474646464545454444C6
:1054800044444343434342424242414141000000BD
:1054900002400000000000A00000000005400000E5
:1054A000000000C8000000000C4000000000409C0C
:1054B00000000000194000000020BCBE00000000F9
:1054C00034400000BFC91B8E00000004B54000003E
:1054D000504BCFD06607E2CF010000006C410000C6
:1054E0003E8251AADFEEA73401000000D94200003D
:1054F000DCB5A0E23A301F97FFFFFFFFB445000084
:10550000FD25A0C8E9A3C14FFFFFFFFFFF3F00003B
:105510000000008000000000FF3F0000000000804D
:105520000000000000000000010001000200020075
:105530000300030004000400050005000600060047
:10554000070007000D0008000E0009000003050415
:10555000010206000004010102010202010601002D
:105560000701000D010010070111070112070113C7
:1055700004011702011A06011B06011C06010100A5
:10558000010000000100020001000100040002000F
:1055900001000800030001001000040001002000C9
:1055A0000500010040000600010080000700010026
:1055B00000080B00010000100C00010000200D008D
:1055C000010000400E00010000800F0002000100F9
:1055D00000000200020001000200040002000200BC
:1055E0000800030002001000040002002000050073
:1055F00002004000060002008000070002000001D7
:105600000800020000020900020000040A00020073
:1056100000080B00020000100C00030000200D0029
:10562000030000400E00030000800F000400010092
:105630000000040002000100040004000200040055
:10564000080003000D0A0A5468697320746F6F6CB8
:1056500020616C6C6F7720796F7520746F206D6F8F
:105660006469667920616E64207669657720616C73
:105670006C2073617665642070696E6F7574732039
:10568000616E642073657474696E67730A0D0A0D28
:1056900055736167653A20205B636F6D6D616E6461
:1056A0005D203C616464726573733E203C76616C7E
:1056B00075653E0A0D0A0D436F6D6D616E64733A38
:1056C000200A0D0A0D2072202020202072656164BE
:1056D00020736176656420646174610A0D2077200F
:1056E00020202020777269746520646174610A0D3E
:1056F00020682020202020646973706C61792074F8
:105700006869732068656C7020706167650A0D2098
:105710006C20202020206C69737420616C6C2064E4
:105720006174610A0D2067202020202067656E6566
:10573000726174652070696E73746F726167652041
:105740007661726961626C6520696E697469616C09
:10575000697A657220746F20636F707920696E209A
:105760006669726D776172650A0D206520202020C0
:1057700020657261736520616C6C20646174610ADC
:105780000D207820202020206578697420636F6DBB
:105790006D616E64206C696E6520746F6F6C206142
:1057A0006E6420676F206261636B20746F206D618F
:1057B000696E206D656E750A0D0A0D41646472652F
:1057C000737365733A0D0A0A000A0D416C6C207000
:1057D000696E732077696C6C206265207365742034
:1057E000686967682C207468652073656C656374EC
:1057F00065642070696E2077696C6C20626C696EDC
:105800006B2C2074686520616C726561647920730B
:10581000617665642070696E732077696C6C2072A4
:10582000656D61696E206F66662E20496620612075
:105830004C454420646F6573206E6F74206C6967FB
:1058400068742075702C2069742069732062726FEF
:105850006B656E2E0D0A7072657373205720746F1E
:1058600020676F20746F206E6578742070696E0DEC
:105870000A7072657373205320746F20676F2074F1
:105880006F2070726576696F75732070696E0A0D8E
:105890005072657373205220746F20736176652097
:1058A000617320726564204C45440D0A5072657323
:1058B00073204720746F20736176652061732067C1
:1058C0007265656E204C45440D0A507265737320F5
:1058D0004220746F207361766520617320626C755D
:1058E00065204C4544286F72206F72616E67652099
:1058F0006F6E20736F6D6520626F617264290D0A8F
:105900005072657373205520746F20736176652023
:105910006173207570706572204C45440D0A507299
:10592000657373204C20746F2073617665206173FA
:10593000206C6F776572204C45440D0A5072657378
:1059400073205A20746F2073617665206173206222
:10595000757A7A65720D0A707265737320456E747C
:10596000657220746F20676F206261636B20746FB3
:10597000206D61696E206D656E750D0A000D0A500F
:105980007265737320616E642072656C6561736506
:1059900020706F77657220627574746F6E206F6E01
:1059A000636520746F206465746563742061757429
:1059B0006F6D617469636C790D0A49662062757454
:1059C000746F6E207072657373206973206E6F74CC
:1059D00020726567697374657265642C7072657393
:1059E00073204520746F20656E61626C6520666966
:1059F000782C2074686520626F617264206D617913
:105A00002061636964656E746C7920706F7765726C
:105A1000206F66660D0A707265737320456E74653B
:105A20007220746F2072657475726E20746F206DB1
:105A300061696E206D656E750D0A000D0A41206C5E
:105A4000697374206F662070696E20616E642076C1
:105A50006F6C746167652077696C6C206265206487
:105A60006973706C617965642C20636865636B2071
:105A700074686520626F61726420696E707574204D
:105A8000766F6C746167652077697468206D756CDA
:105A900074696D6574657220616E642073656C65F0
:105AA00063742074686520636C6F73657374206F12
:105AB0006E652E0D0A7072657373204620746F2018
:105AC000746F67676C65206175746F6D617469636D
:105AD0002070696E2066696C746572696E670D0A64
