:020000040800F2
:10000000A006002065010008910100089301000886
:1000100000000000000000000000000000000000E0
:100020000000000000000000000000009501000832
:10003000000000000000000097010008B907000858
:100040009B0100089B0100089B0100089B01000820
:100050009B0100089B0100089B0100089B01000810
:100060009B0100089B0100087D0400089B0100081B
:100070004D020008990900089B0100089B01000837
:100080009B01000800000000000000009B01000828
:10009000000000009B0100089B0100089B01000874
:1000A000000000009B0100089B0100089B01000864
:1000B0009B010008000000009B01000800000000F8
:1000C00000F002F800F03EF80CA030C80838241800
:1000D0002D18671EA246AB4654465D46AC4201D180
:1000E00000F030F87E460F3EB6460FCC0126334274
:1000F00000D0FB1A3343A246AB4618472015000038
:1001000040150000103A02D378C878C1FAD85207D7
:1001100001D330C830C101D504680C6070470000BD
:100120000023002400250026103A01D378C1FBD813
:10013000520700D330C100D50B6070471FB51FBDFB
:1001400010B510BD00F04FF81146FFF7F7FF01F0B2
:100150007FF800F067F803B4FFF7F2FF03BC00F08C
:100160006DF80000104880F30888104810490160BD
:1001700010480168090E104A914205D10F480C49F8
:1001800001600F480F4901600F4880470F48004742
:10019000FEE7FEE7FEE7FEE7FEE7FEE70C480D4957
:1001A0000D4A0E4B70470000A00600206020024060
:1001B00001000000040000001F00000018100240B1
:1001C0000000014000000000D9070008C10000083D
:1001D000A0000020A0060020A0020020A002002015
:1001E000704770477047754600F024F8AE4605002A
:1001F00069465346C008C000854618B020B5FFF7D1
:10020000CDFF60BCB64600260027C0C5C0C5C0C52E
:10021000C0C5C0C5C0C5C0C5C0C5403D490849002E
:100220008D46704710B50446C046C0462046FFF7CD
:1002300092FF10BD004870471800002001491820A7
:10024000ABBEFEE72600020070470000B0B50A4DC5
:1002500001242846214600F02FF800280BD028461C
:10026000214600F011F8286A04490860286B044907
:100270000C7004490860B0BD002401409C000020BF
:10028000780000207C000020012900D00221426972
:100290000A43426170474A1E9141426801239A43D2
:1002A0005118416070474A1E9141890082680423B9
:1002B0009A43511881607047491E4A1E9141426914
:1002C000CA400120104070478368012905D10121EF
:1002D000002A05D00B43836070470221002AF9D120
:1002E0008B4383607047000042680B4B13404360B0
:1002F0004A680B68134342681A4342608268074B9E
:10030000134083600A694B69134389681943826803
:100310000A4382607047C0460FBCFFFF8FF1F9FFB0
:1003200010B50F229202446894434460102B00D20F
:100330009B0242681A43426001228A40C368934389
:10034000C360C3681343C3600804800F04D003482C
:1003500001680C220A43026010BDC046042401401B
:100360004A1E9141090201221202836893435918DF
:1003700081607047F0B581B00925EC06082102269E
:100380002046324600F06FF920462946324600F0FA
:100390006AF90A212046324600F065F91D4D0D210B
:1003A0002846324600F05FF90E212846324600F01A
:1003B0005AF90F212846324600F055F96E4630466C
:1003C00000F066F9144800902046314600F003F929
:1003D0000127780230802046314600F0FCF8B80250
:1003E00030802046314600F0F6F878033080284609
:1003F000314600F0F0F8B80330802846314600F06E
:10040000EAF8F80330802846314600F0E4F801B0FD
:10041000F0BDC046000400480001031810B50E48A6
:1004200000687D21C90000F0FDFF411E080E00D0CC
:10043000FEE70A480A4A51600A490B680340032450
:10044000A4071B190B6000239360072313600A683D
:1004500002400A6010BDC04600000020FFFFFF0000
:1004600010E000E020ED00E081B00090D848009955
:10047000016001680029FCD101B0704710B501246A
:10048000600200F02DF8002804D0200200F006F8E9
:100490000148047010BDC046980000200F49086054
:1004A0007047C046026801239A430A4302607047BE
:1004B00080B5016801229143016000210160416023
:1004C0008160C160C0B20838052100F0ABFF0F2188
:1004D0008140024802680A43026080BD0400024075
:1004E000024909680840411E8841704700000240E7
:1004F000002A03D002680A430260704702688A43F8
:1005000002607047B0B5114A1446103403682340A6
:100510000C7A8D7D25430C7C2C434D7C25434C8AE5
:100520002C438D8A25430C8B2C434D8B2543ACB239
:100530001C430460036813408A8B1A430260CA6834
:1005400042600A6882604968C160B0BDFF7FFFFFFA
:10055000F0B58BB001931746029104460125284659
:10056000294600F0DBF82046FFF7A2FF03AE304635
:1005700000F026F80020B0832021B175B0823072DF
:100580000990E80307900198069004970298039059
:1005900020463146FFF7B6FF0226204631462A465E
:1005A000FFF7A6FF054831462A4600F02DFD2046FC
:1005B0002946FFF777FF0BB0F0BDC0460038014079
:1005C000002181838161017201604160C16001612C
:1005D000818281757047F0B583B0CB780F221C46BD
:1005E00002921440DD06019301D58D782C430091D1
:1005F0000A880026374603E0361D7F1C082F0CD0E2
:100600001546FD40ED07F7D02546B540029BB340A7
:100610000168994329430160EEE700990988009138
:100620000D0A0026374603E0361D7F1C082F0CD02C
:100630002946F940C907F7D02146B140029BB34093
:1006400042689A430A434260EEE70199482903D081
:10065000282906D1143000E010300168009A1143B7
:10066000016003B0F0BDB0B5082901D3242300E038
:100670002023C4584907C90E0F258D40AC438A403A
:100680002243C250B0BD80680840411E8841704777
:1006900002494180024901807047C04602040000BF
:1006A000FFFF0000002A02D0102281507047142260
:1006B0008150704780B582B001AA012393705170B8
:1006C0001070104600F002F802B080BD70B50178DD
:1006D0008278002A15D0FC220A400D4BD4588D0791
:1006E000ED0EFF26AE40B44340788001C0B2A84072
:1006F0002043D0501F20084001218140054801605F
:1007000070BD1F200140012088400349086070BD72
:1007100000E400E000E100E080E100E0054A00299B
:1007200003D0116801431160704711688143116063
:100730007047C04614100240054A002903D01168D2
:100740000143116070471168814311607047C046D2
:1007500018100240154908680C2202400C2A01D0EA
:100760008C4800E012480A681206120F114B9A5C7E
:10077000D04009684905490F595CC8407047C046D8
:100780000A4908680C2202400C2A01D0814800E086
:1007900007480A681206120F064B9A5CD040096897
:1007A0008904490F595CC8407047C0460410024094
:1007B000409C00000500002005480168002902D087
:1007C0000168491E016003480168491C01607047C7
:1007D0009400002084000020F0B58BB0644F38688E
:1007E00001221043386078686249014079603868B6
:1007F0006149014039609004396881433960C32000
:10080000000479688143796038685C490140396047
:100810009F200004B86000200A90039009901404FF
:1008200038682043386002925004396801400991C9
:100830000A99491C0A910999002904D10521090244
:100840000A9A8A42F1D13968014201D1002000E0C0
:10085000029809900998012800D087E0484D49483E
:100860002860494E3068102101433160306807210B
:10087000884330602868401E444900F0D3FD316849
:100880000143316078687860786878600298800207
:1008900079680143796003200190000479688143FD
:1008A000796038683A490840386078682043786051
:1008B0002B68039801461F4606460491701C05905C
:1008C000344D039C06E033496D18641C002F0792D9
:1008D00006901ED0402C18D0089737462846059918
:1008E0001E4600F09FFD3346311A00D2C11A3E4623
:1008F000089F8F42304600D806988F42224600D883
:10090000079A8F42DFD30F46DDE70499002906D00E
:1009100009E00027079206900299002903D1059863
:1009200004280646C9D1124A1068194908401060C7
:10093000079880060699C9B2090501431068084363
:1009400010600120000611680143116010688001E9
:10095000FCD55068019988435060506802210143DA
:10096000516050680C2101400829FAD10BB0F0BD4C
:10097000001002400CC0FFF8FFFFF6FEFFFF8F00E3
:100980000000002000D8B8050020024000366E01AB
:10099000FFFF0F0000127A00F0B583B0F74C202162
:1009A000204600F09DF985480078401E052800D9B2
:1009B000D2E0C0467844007940008744021C477367
:1009C0009DCF08260025204631462A4600F076F9BC
:1009D000204631462A4600F079F96026204629460D
:1009E000324600F031FA01222046294600F066F92D
:1009F0002046294618E00025204629462A4600F0D0
:100A00005DF9204629462A4600F060F9082760264D
:100A100020463946324600F017FA01222046394670
:100A200000F04CF9204639462A4600F04FF90427D9
:100A300020463946324600F007FA204639462A4613
:100A400000F03CF9204639463A467FE004250295FD
:100A5000002620462946324600F030F92046294635
:100A6000324600F033F908256027204629463A46E9
:100A700000F0EAF901222046294600F01FF920463D
:100A80002946324600F022F9204631463A4600F027
:100A9000DBF920463146324600F010F92046314657
:100AA000029A53E008260025204631462A4600F0E7
:100AB00005F9204631462A4600F008F90426602749
:100AC000204631463A4600F0BFF901222046314621
:100AD00000F0F4F8204631462A4600F0F7F82046A8
:100AE00029463A4600F0B0F9204629462A4600F049
:100AF000E5F82046294628E00025204629462A46D2
:100B000000F0DCF8204629462A4600F0DFF80426EB
:100B1000602202922046314600F096F901222046DA
:100B2000314600F0CBF8204631462A4600F0CEF898
:100B3000082720463946029A00F086F920463946B1
:100B40002A4600F0BBF820463946324600F0BEF88F
:100B50001A490878461C0E7003B0F0BD04250295B2
:100B60000027204629463A4600F0A8F820462946A4
:100B70003A4600F0ABF8602201922046394600F078
:100B800063F9012620463946324600F097F82046A0
:100B900039463A4600F09AF8082520462946019A37
:100BA00000F052F9204629463A4600F087F82046E0
:100BB0002946029A00F08AF80049CCE70400002098
:100BC000F0B58DB00E4601902948401C0124214605
:100BD000FFF7B2FD0AAF384600F0A4F90025BD7258
:100BE0003D813E80BD7001980B90CC48394600F0A5
:100BF00057F906AE304600F01FF96002B0812002BE
:100C0000708175720421B170308019480790C34D0E
:100C10002846314600F086F82846314600F0B0F804
:100C20002846314600F0DAF82846214600F03EF822
:100C300020212846224600F06BF82846214600F085
:100C40005BF802AE304600F028F8A003B0810948F6
:100C5000049009480290200403902846314600F091
:100C60000DF82846214600F03FF80DB0F0BDC04613
:100C7000FF07000000100020000800080A884B88C9
:100C800013438A881A43CB8813430A891A434B8932
:100C9000134389891943416470470021818141814F
:100CA0000181C18081804180018070474A1E91414D
:100CB000426801239A435118416070478A400123DA
:100CC0008B40016A99431143016270470C2906D099
:100CD0008A4004238B40016A9943114301627047A3
:100CE00002698A43026170474A1E914102680123EA
:100CF0009A435118016070474A1E9141C90301226D
:100D0000D203436C93435918416470474161704763
:100D1000002A03D0C2680A43C2607047C2688A438F
:100D2000C2607047B0B5826970239A430B78134351
:100D300083610A7A4B781343046A032294431C4369
:100D400004624B684363754B984205D0714B9842DF
:100D500002D0714B98420FD14B7A8C781C43036AB6
:100D60000C25AB43234303624B8989891943120243
:100D7000436893430B434360B0BDC046002C014021
:100D8000B0B507221203836993430A7812021A430B
:100D90008261026A30239A430B7A4C781C43230108
:100DA000134303624A688263224A131F984200D0A9
:100DB000B0BD036AC024A3434C7A8D7825432C012F
:100DC0001C43046203208002136883434889898995
:100DD0000143880018431060B0BDC04670B5C269B9
:100DE00070239A430B781343C36103221302046AEE
:100DF0009C430B7A4D781D432B02234303624B68BF
:100E0000C3630C4B1C1FA04200D070BD9402056A46
:100E1000A5434C7A8E78264334022C430462100397
:100E20001A68824348898989014308011043186080
:100E300070BDC046042C01400021817001804160DA
:100E4000816081817047000010B501238B40046AE6
:100E50009C4304620223D941032920D879440979AB
:100E600049008F4401070F1581697023994311438D
:100E7000816110BD0721090383698B431102194366
:100E8000816110BDC169702399431143C16110BDD7
:100E900007210903C3698B4311021943C16110BDC6
:100EA00003221202036893430A891A430260184A14
:100EB000904209DD174A90421CD0174A904219D03F
:100EC000164A904207D01BE001229207904202D0BE
:100ED000134A904214D1026870239A438B781343CB
:100EE00003600E4A904205D00A4A904202D00A4A54
:100EF000904205D1026BFF239A438B7AD21802638A
:100F00004A68C26209888162012141617047C04616
:100F1000FF2B01400048014000440140002C0140EB
:100F20000004004000210181018081728170C94369
:100F300041607047F0B585B006460124A003214604
:100F4000FFF7FAFB6F46384600F0A9F800253D731D
:100F50003D72BD71302038711820788100964D4E59
:100F60003046394600F05CF83046214600F046F83D
:100F7000B64C062120462A46FFF775FB04250322BE
:100F800020462946FFF76FFB04AE3046FFF780FB93
:100F90000748049020463146FFF71DFBF5701020EE
:100FA000308020463146FFF716FB05B0F0BDC04645
:100FB00040000318B0B50446007800280ED0354D27
:100FC000C1B2284600F068F80121284600F023F855
:100FD0000028F9D06078641C0028F1D1B0BDC0466B
:100FE00010B501462B4C204600F056F80121204652
:100FF00000F011F80028F9D010BDC0468269012325
:101000009A430A43826170478169022399435200DF
:101010000A438261704780680840411E88417047DA
:1010200070B50D460446C0693021884329790143D3
:10103000E161E06944218843A9790143E161E06904
:1010400003218843297A0143E161A069182188437B
:1010500069890143A161A06904218843297B014377
:10106000A1610C48844203D0FFF774FB064602E0FE
:10107000FFF786FB06462968304600F0D3F90009E1
:1010800020622968304600F0CDF90F2101406162ED
:1010900070BDC04600380140C9B2016070470021F0
:1010A00001731822428101728171302101714B213B
:1010B000C901016070470000F0B587B06D46284651
:1010C000FFF7E6FA0124660230462146FFF734FBBB
:1010D00018480090C7482946FFF77DFA80202880ED
:1010E0000920C0062946FFF776FA002506950396E3
:1010F00020200290A00405900195C04E01A9304621
:10110000FFF7F2F830462146FFF7CDF8304621468A
:10111000FFF7C1F8A702022130462A463B46FFF7F7
:10112000FFF80621304622463B46FFF7F9F807B0A4
:10113000F0BDC0460200030010B582B001AB01242F
:10114000DC709A7059701870184600F003F802B0FD
:1011500010BD000070B50178C278002A15D0FC22BD
:101160000A400D4BD4588D07ED0EFF26AE40B44318
:1011700080788001C0B2A8402043D0501F20084092
:10118000012181400548016070BD1F200140012000
:1011900088400349086070BD00E400E000E100E021
:1011A00080E100E0F0B581B0012460042146FFF742
:1011B000B5FAA0042146FFF7B1FAE0042146FFF793
:1011C000ADFA20052146FFF7A9FA1F480090092033
:1011D000C0066D462946FFF7FEF904262E80894F8A
:1011E00038462946FFF7F7F908202880384629466F
:1011F000FFF7F1F92E807F4F38462946FFF7EBF9CC
:101200006002288038462946FFF7E5F94820E87053
:10121000600328807A4F38462946FFF7DCF9A0039F
:10122000288038462946FFF7D6F9E003288038465B
:101230002946FFF7D0F9EE70202028806D48294616
:10124000FFF7C9F901B0F0BD00100110000400481B
:1012500082B0FFF7A7FFFFF78DF862480025294607
:10126000FFF7AEFCFFF7DAF80D2001242146FFF767
:1012700021FAFFF721FF0C2029462246FFF75CFFE9
:101280004B200002FFF756FE0A20294600952A4609
:10129000FFF752FF54485549554A2346FFF758F97E
:1012A000544F042138462246FFF7FCF920213846E6
:1012B000FFF7E9F96602002816D0012438463146C6
:1012C0002246FFF7EFF92046FFF7CEF80022384616
:1012D0003146FFF7E7F92046FFF7C6F820213846E8
:1012E000FFF7D1F90028E8D10520FFF7BDF87D20F0
:1012F000C000414948638863C863404D01242846C3
:101300002146FFF72DF8284621462246FEF7DCFF4E
:10131000019461033A480546FFF7B5F902460920F2
:10132000C0063049491CFFF7BDF9A1032846FFF765
:10133000AAF9024604212546324C2046FFF7B2F9AD
:10134000E9032F48FFF79FF9024608212046FFF7DF
:10135000A9F90520FFF788F82B4C2078002805D044
:1013600023480078FFF73CFE00982070274800686B
:1013700027490968081A65280AD320211E48FFF763
:10138000C5FC234800682149086022A0FFF712FE2F
:1013900020213846FFF777F90028019CB9D00324B3
:1013A000012238463146FFF77DF90A252846FFF726
:1013B0005BF8002238463146FFF774F92846FFF7FC
:1013C00053F8641EECD100E000BF20213846FFF73F
:1013D0005AF90028F8D1042100223846FFF762F9B3
:1013E000019C96E7FF0F00003000024004380140E6
:1013F0008800002000040048002C01400024014027
:1014000000080048000C00489800002080000020E0
:101410008400002068656C6C6F576F726C640D0AF5
:101420000000000043088B421AD3002203098B42BC
:1014300079D3030A8B425ED3030B8B4242D3030C56
:101440008B4227D30902FF2212BA030C8B4202D32C
:101450001212090203D0030B8B4233D31AE0D3E0FC
:10146000411A8041401C704703460B4371D4430826
:101470008B42F5D3002203098B4254D3030A8B42DB
:1014800039D3030B8B421DD3030C8B4202D39446FA
:101490006EE0090AC30B8B4201D3CB03C01A524141
:1014A000830B8B4201D38B03C01A5241430B8B42F7
:1014B00001D34B03C01A5241030B8B4201D30B03E0
:1014C000C01A5241C30A8B4201D3CB02C01A524107
:1014D000830A8B4201D38B02C01A5241430A8B42CA
:1014E00001D34B02C01A5241030A8B4201D30B02B3
:1014F000C01A5241CDD2C3098B4201D3CB01C01ACD
:10150000524183098B4201D38B01C01A52414309D6
:101510008B4201D34B01C01A524103098B4201D3C4
:101520000B01C01A5241C3088B4201D3CB00C01A31
:10153000524183088B4201D38B00C01A52414308A9
:101540008B4201D34B00C01A5241411A5241100044
:101550007047CA0F00D04942031000D340425340A5
:1015600000229C4603098B422DD3030A8B4212D3DF
:101570008901FC2212BA030A8B420CD38901921111
:101580008B4208D3890192118B4204D3890137D051
:10159000921100E08909C3098B4201D3CB01C01A23
:1015A000524183098B4201D38B01C01A5241430936
:1015B0008B4201D34B01C01A524103098B4201D324
:1015C0000B01C01A5241C3088B4201D3CB00C01A91
:1015D000524183088B4201D38B00C01A5241D9D2A9
:1015E00043088B4201D34B00C01A5241411A00D22A
:1015F00001465241104663465B1000D3404270479B
:1016000063465B1000D3404201B50021004201D087
:10161000C9430846C046C04602BD00004016000847
:1016200000000020180000000401000858160008FF
:1016300018000020880600002001000800000000BB
:1016400000D8B805010000000001020304010203F4
:08165000040607080900000070
:04000005080000C12E
:00000001FF
