:020000040800F2
:10000000400E0020A9010008DB010008DD01000806
:10001000DF010008E1010008E30100080000000022
:10002000000000000000000000000000E5010008E2
:10003000E701000800000000E9010008C9290008E4
:10004000ED010008ED010008ED010008ED010008D8
:10005000ED010008ED010008ED010008ED010008C8
:10006000ED010008ED010008FD2000082D21000829
:10007000ED010008ED010008ED010008ED010008A8
:10008000ED010008ED010008ED010008ED01000898
:10009000ED010008ED010008ED010008ED01000888
:1000A000ED010008ED010008ED010008ED01000878
:1000B000ED01000800F002F800F04AF80CA030C88A
:1000C000083824182D18671EA246AB4654465D46D4
:1000D000AC4201D100F03CF87E460F3EB6460FCC54
:1000E0000126334200D0FB1A3343A246AB461847E1
:1000F0008C640000AC64000000230024002500266E
:10010000103A01D378C1FBD8520700D330C100D5D3
:100110000B60704710B5662902D105F04BFB10BD8E
:10012000692902D100F0C4F810BD782902D100F08D
:10013000F5F810BD002010BD1FB501F02FFA040026
:100140000020002105F0CCFAE0601FBD10B510BD05
:1001500001F00CFE1146FFF7EFFF04F0AFFC01F0D9
:1001600024FE03B4FFF7F2FF03BC01F075FE0000AC
:1001700070B505460C46164602E00FCC0FC5103E82
:10018000102EFAD2082E02D303CC03C5083E042E4B
:1001900007D301CC01C5361F03E021782970641C08
:1001A0006D1C761EF9D270BD144880F3088814487F
:1001B0000168090E134A9142FFD1134813490160A7
:1001C0001348144901601448124901600E4813494C
:1001D00001601348804713480047FEE7FEE7FEE74B
:1001E000FEE7FEE7FEE7FEE7FEE7FEE7FEE70000CC
:1001F0000D480E490E4A0F4B70470000400E00207C
:10020000040000001F0000001C1002400000000459
:1002100018680040120000001C6800400000000048
:10022000E9290008B500000840080020400E002021
:10023000400A0020400A00200FB41CB5074B06AA54
:100240007B4469460090059801F07BF900206946DF
:1002500001F08AF91CBC08BC04B018472513000043
:1002600070B5044685690068C10601D5302600E0F6
:100270002026C00707D070BD62683046A16890474D
:10028000206A401C20626D1EF6D570BD70B5044614
:1002900085690078C00707D170BD6268A168202019
:1002A0009047206A401C20626D1EF6D570BD00008C
:1002B000F7B5002575291068009914A611D0C0461D
:1002C000C046002802DA404211A608E000990968F9
:1002D0008A0701D50FA602E0490704D50EA601251D
:1002E00001E0C046C046009F0024243704E001F02E
:1002F00040F930313955641C0028F8D12B4632467C
:100300002146009800F0B6FEFEBD0000000000008F
:100310002D0000002B0000002000000070B50446F6
:100320000D4621461068C046C0462188090502D501
:100330000F4A7A4402E00E4A7A440E3223460021E4
:10034000243305E006070009360F965D5E54491C0C
:100350000028F7D120780023000705D5702D03D0A1
:10036000002901D002231132204600F083FE70BD27
:100370008E540000F3B50446002081B02062204670
:10038000E168884700287DD0252802D06268A168EE
:1003900083E0454F00257F442046E16888472028B8
:1003A000064608DB312E06D2B8192038007800281E
:1003B00001D00543F0E7A80701D5042085430020BC
:1003C000E0610746A0612A2E0AD0304605F080F988
:1003D000002827D0B8000019303E0090866119E04F
:1003E0000298BA00121902C8916102902046E16891
:1003F0008847012F064617D1E06900281FDA202020
:1004000085431CE000980A218069484300998019BF
:10041000303888612046E1688847064605F058F97B
:100420000028EFD1012F0AD02E2E08D12046E168F6
:1004300088470646202005437F1C022FC3DBA069A6
:10044000002803DA4042A06101200543E80701D0FB
:1004500010208543002E24D030464138192803D877
:100460000120C00205432036204625603146029A0D
:100470001546FFF74FFE00280CD0012807D0ED1DD0
:10048000E80800E00DE0C0000830029077E72D1D7D
:10049000029574E762683046A1689047206A401C64
:1004A0006CE7206AFEBD00005254000030B5441CC9
:1004B00003E00178401C00290DD08107F9D10B4BD6
:1004C000DD0104C8D11A91432940FAD0001B0A0665
:1004D00003D0C01E30BD001B30BD0A0401D0801EF9
:1004E00030BD0902FCD0401E30BD000001010101F9
:1004F000F8B5042A2CD3830712D00B78491C03705B
:10050000401C521E83070BD00B78491C0370401C03
:10051000521E830704D00B78491C0370401C521EE6
:100520008B079B0F05D0C91ADF002023DE1B08C9EB
:100530000AE0FFF71DFEF8BD1D4608C9FD401C4638
:10054000B4402C4310C0121F042AF5D2F308C91A74
:10055000521EF0D40B78491C0370401C521EEAD482
:100560000B78491C0370401C012AE4D409780170FF
:10057000F8BDD2B210B513029A1813049A1800F0FD
:1005800001F810BD01E004C0091F0429FBD28B074C
:1005900001D50280801CC90700D002707047002975
:1005A0000BD0C30702D00270401C491E022904D39D
:1005B000830702D50280801C891EE3E70022EEE754
:1005C0000022DFE782078B079A423FD170B5920F76
:1005D0000AD0032402780B78401C491C002A33D02F
:1005E0009A4231D12042F5D1214EF40104C808C904
:1005F000951B9543254018D19A420FD104C808C9CC
:10060000951B9543254010D19A4207D104C808C9CB
:10061000951B9543254008D19A42E7D012BA1BBAE0
:1006200001209A4200D2404270BD12BA1BBA2DBAC4
:1006300018241000E0401900E140401A05D12E00B6
:10064000E64002D1083CF4D1D01A70BD02780B7894
:10065000401C491C002A09D09A4207D102780B7825
:10066000401C491C002A01D09A42EFD0D01A704792
:1006700001010101002203098B4273D3030A8B425B
:1006800058D3030B8B423CD3030C8B4221D312E093
:1006900003460B437FD4002243088B4274D30309E3
:1006A0008B425FD3030A8B4244D3030B8B4228D384
:1006B000030C8B420DD30902FF2212BA030C8B42AA
:1006C00002D31212090265D0030B8B4219D300E04A
:1006D000090AC30B8B4201D3CB03C01A5241830BCF
:1006E0008B4201D38B03C01A5241430B8B4201D37F
:1006F0004B03C01A5241030B8B4201D30B03C01AA8
:100700005241C30A8B4201D3CB02C01A5241830A21
:100710008B4201D38B02C01A5241430A8B4201D350
:100720004B02C01A5241030A8B4201D30B02C01A7A
:100730005241CDD2C3098B4201D3CB01C01A5241E1
:1007400083098B4201D38B01C01A524143098B426A
:1007500001D34B01C01A524103098B4201D30B0153
:10076000C01A5241C3088B4201D3CB00C01A524178
:1007700083088B4201D38B00C01A524143088B423D
:1007800001D34B00C01A5241411A00D201465241D6
:10079000104670475DE0CA0F00D04942031000D3F5
:1007A000404253409C46002203098B422DD3030A4A
:1007B0008B4212D38901FC2212BA030A8B420CD35A
:1007C000890192118B4208D3890192118B4204D383
:1007D00089013AD0921100E08909C3098B4201D303
:1007E000CB01C01A524183098B4201D38B01C01A3D
:1007F000524143098B4201D34B01C01A52410309B4
:100800008B4201D30B01C01A5241C3088B4201D362
:10081000CB00C01A524183088B4201D38B00C01A0F
:100820005241D9D243088B4201D34B00C01A5241E6
:10083000411A00D201465241104663465B1001D373
:100840004042002B00D54942704763465B1000D3FD
:10085000404201B50449002802DC491C084000E080
:100860000846C046C04602BDFFFFFF7F7047704785
:10087000704700000246C80FC00781434B0030B5E7
:100880004B405B009B0D20D01923DB06C9180123C8
:100890001B05994220DB0324A40704251346AB4023
:1008A0000BD3002B04D1EB0613409B00E34204D48E
:1008B00001246407002312195941FF231B059942A3
:1008C0000BD2C9000143500F09E0CB0204D501430C
:1008D0000803024305D0054830BDFF21C905084380
:1008E00030BD084607210905884330BD0000C07FA0
:1008F000F0B5F94D0C091E092C402E402F468BB047
:10090000A7437DD0B543FCD0002E7AD0002CFCD07C
:100910000D465D40ED0F2543AC1BFF25AD0464196A
:100920000894C502440DC9022143500DDC02044362
:100930000120C00701430443D2020191200C110C95
:1009400000958C46010423468B430A9161460904B5
:10095000E24D8A430991010A7D4449198039097899
:1009600005464D4301266D18F605751B6943C90CF4
:10097000640B891C4C436418B5012C1B250C2E04F8
:10098000B4434C434D43210C691889090591009DDE
:10099000E90701D00121C90704912C460199670894
:1009A000CD072F434C08059DE10B4D432D0C2946E7
:1009B0006646754302950D4645432E46029D7D1BB6
:1009C000B44100950D465D4301942C0C2F040D4657
:1009D0005543AE462D0C3D43029503947546049C49
:1009E0002D04641B049406D2029C039D641C002603
:1009F00075410395029401AC70CC009F7D1B01E012
:100A00003EE162E1B4410904009507910194059922
:100A1000A4086143090C0C464443650BE7040C46EB
:100A200066467443A646640B3C43039502947446A1
:100A3000049DE4042C1B049406D2029C039D641CB8
:100A4000002675410395029401AC70CC009F7D1B7C
:100A5000B44101940C465C430095650FE7000C46D9
:100A60005443A646640F3C43039502947446049D88
:100A7000E4002C1B049406D2029C039D641C0026F7
:100A800075410395029401AC70CC009F7D1BB4416D
:100A9000AE09AF06049DC900AD092F43049DA4060D
:100AA000AD060495079D344369180791059DE10B38
:100AB0004D432D0C29466646754302950D46454328
:100AC0002E46029D7D1BB44100950D465D43019469
:100AD0002C0C2F040D465543AE462D0C3D4302957C
:100AE00003947546049C2D04641B049406D2029C56
:100AF000039D641C002675410395029401AC70CCE3
:100B0000009F7D1BB44101948C050694079C890AC3
:100B1000611800950791019C0599A4086143090C8F
:100B20000D464543680BEF040D46644665436C0B68
:100B30003C43049FED047D1BAC4602D20025641C9F
:100B40006841009E019D371B854108465843019529
:100B50000C46460FC5005443600F28436546E40029
:100B60002C1B02D20025401C6E41019D3F1AB5414D
:100B70002846BD09800628438446A009BF064E02C8
:100B80000699A40676180743079D002068410A9934
:100B9000079019430020099B00906046FF191343FA
:100BA0004041E20F64003A43A4460446D71A8C4100
:100BB000A04203D90120009020463A46C70F94185E
:100BC00040416246D20F2243644664000494009C74
:100BD000BE466400D71AA446044602978C41774665
:100BE000002F01D1A04204D96046401C8446029ADD
:100BF0002046C40FA64694184041049A0546D20FD9
:100C0000224364466400D31A8D417146002901D104
:100C1000A84202D928461A46641C10430122002823
:100C200000D0164361020020079B891904465C41ED
:100C30000223002C02DB491813466441089DCE0AAA
:100C40002D145D194B056705E10A2C050D1908994E
:100C50003E43C9076940002B08D0934006D30022C9
:100C6000761C5141002B01D1760876001C4A002DDC
:100C700043DB154241D0AA433FD030460BB0F0BD14
:100C800006180D464D41174C7642AC411AD39518C3
:100C90001C465C41134A6D42A24113D30122520506
:100CA0004C00D4420AD15C00D4420BD04B4002D558
:100CB00092021143E2E749004908DFE75940C90FB2
:100CC000C90718E000200849D8E7054801420DD1BE
:100CD0000342F7D0F2E700000000FF07A14E00003A
:100CE0000000F07F0000E0FF0000F87F114859404D
:100CF0000143C01241400020C0E70123089A9B062F
:100D00009A4205DC032252078918C90FC907B5E7C3
:100D1000052252078918074A1143D2125140ADE704
:100D200070B515461C4602460B4628462146FFF77D
:100D3000DFFD70BDFFFFFF7F0346CA02400D10B507
:100D400010430A1504D00124E4072043002A05DBE0
:100D50000A4CA21A04D4D040FF2A00DD002010BDA6
:100D60004A00002B01D0012000E0002010180122D1
:100D70005205D042F2D8C817C04310BD1E0400006F
:100D80001F22030C02D10F22000402D0030E03D055
:100D900004E00020014670470002083A030F01D129
:100DA0000001121F830F01D18000921E002801DB79
:100DB0004000521E120551184205C012411810463B
:100DC0007047C10FC90700D040420122920711436A
:100DD000D6E701218907D3E7F0B58B4C0F092546EB
:100DE00089B0BD437BD01D092646AE43FAD00E46DE
:100DF0005E402740F60F3E43254071D0240121423A
:100E0000FBD0FF24AD19A4042D1B039501252D054E
:100E1000DB02DB0AC9022B43C90A29431E0109016F
:100E2000040F130F050121431701880B820391431F
:100E30002D098C46A90B1E438A039543B30B9A03D5
:100E400096433F09BA0B9403A74302962E467E436E
:100E50000497B6464E19D7190C4601965443059788
:100E60007E43371B7646BF1B3601B646BE0B36198E
:100E700000967646BC043719009C01D3641C00948C
:100E80006400002F01D001263443029E049F754365
:100E900066467E430496760034196E003419009439
:100EA000029C019E1C196643751BAE46069465465E
:100EB0004519059C05956C43594375460891691A77
:100EC0000191049E01465143A41B0491611A009CA8
:100ED0000791E10605D061090122114302E072E0A9
:100EE0006EE06109089D00272C0A2D066918049DF3
:100EF0007C412A0A2D066918019D6241AC0DAD02A4
:100F00006D185441079A910D920255196141029A48
:100F1000644658435443069B059A5A43121A131BBE
:100F20009A0E9B015B187A41010B0005C3185141D1
:100F3000220A200644195A419A4200D2491C012033
:100F40004002814203D315230226F64302E0142314
:100F50000326F6432020C51AA9401746AF40DA40C1
:100F60000A4320460399D8400914731819055118EB
:100F7000039A3843D2075140AC4009D00122944033
:100F800006D30022401C5141002C01D140084000F2
:100F90001E4A934212D3012203989206904207DB25
:100FA0000520400709181A480143C012414004E0D7
:100FB000032040070818C10FC907002009B0F0BD81
:100FC0000020F107FAE705180C464C4111486D4224
:100FD000A04115D394181A465A410E4864429041D4
:100FE0000ED301204A004005824209D35A008242B2
:100FF00006D35940C90F084AC90700201143DDE74D
:1010000000200649DAE700000000FF07FE070000A5
:10101000FFFFFF7F0000E0FF0000F07F0000F87F8F
:101020000121C9050123411842001B06D3185B0E9C
:101030000AD0C1100722D206891840075242D14275
:1010400001D5520089187047090208D50146002AC7
:1010500003D0C10FC90700207047104670474202F5
:1010600002D0002002497047072109050143F4E737
:101070000000F87FFFB504460D4681B02430009093
:101080002168880604D51022E0699143216000E0C0
:101090000120A84201DD471B00E000270498A16958
:1010A0007A191018081AA0612078C00602D42046C8
:1010B000FFF7D6F8002608E003986268A168805D13
:1010C0009047206A401C761C206204988642F3DB1D
:1010D0002078C0060AD52046FFF7C2F806E062680D
:1010E000A16830209047206A401C206238467F1E4D
:1010F0000028F4DC07E000986268A168405D904732
:10110000206A401C206228466D1E0028F3DC204621
:10111000FFF7BCF82078000602D5022005B0F0BD2C
:101120000120FBE7FFB50C461E468FB003CA0890AE
:1011300009914F007D0D00D16D1E00210846002051
:10114000C0460321099A89050840002A03DA820073
:10115000801840080840800D01280A9002DD002018
:10116000C0430A90089807430DD0F048F04928186A
:1011700048430714189800281DD07542291E1DDD0C
:101180000A9842421BE01898012802D00020302122
:1011900004E00020F24305E02154401CB042FBDB98
:1011A00030460022189B002121540F998B600A6061
:1011B000486013B0F0BDBD1B6D1CDFE70A9A002923
:1011C00000DA69420BA800F06FFA0BAB07CB03AB58
:1011D00007C30899099800F0D3FA6B4607C3014684
:1011E000D4480918002D00910BDDD24903980A9AC2
:1011F00049424018002303A90390684600F030FDDF
:1012000008E003990A9A0023081803A90390684686
:1012100000F0D0FC6B4607C30004000C03D0002094
:10122000C043410800E01046189A002A03D000226B
:10123000009215461EE0751E05D400F0B3F9303259
:1012400062556D1EF9D501220843079602D000228F
:101250007F1C04E02078302801D100227F1E002A64
:10126000069787D01EE0112D07DA00F09BF9303287
:1012700062556D1C02460A43F5D1084303D000981D
:10128000002819D00EE00021681E05E0235C625C96
:1012900063542254401E491C8142F7DBA81B401EA8
:1012A00007950690079A18990020A0540F98079B5D
:1012B000069A81600CC07CE711260020189059E73F
:1012C000D21DF0B50D460446D10893B0C90003C93C
:1012D0000C900D9104F0CEF902460D98C00F01D08C
:1012E0002D2007E02068810701D52B2002E0400770
:1012F000C00F4001032A0F9001D0072A05DB0346E7
:101300002946204600F08CF90EE12078800601D5B0
:10131000E76900E006272846652D04D0662814D02A
:10132000672D69D12DE00020112F009001DB1123E2
:1013300000E07B1C0CAA03A910A8FFF7F3FE11998B
:10134000002610987D1C0E9142E001203B460CAA1D
:10135000C0070B900120009003A910A8FFF7E2FE40
:10136000119D12981099002600280E9501D1781C25
:101370000D18781B02D446427D1C761EE81B009097
:101380003AE0012F00DA01270020112F009001DD43
:10139000112300E03B460CAA03A910A8FFF7C2FEE8
:1013A00011993D46109800260E91217809070BD41B
:1013B0000E99A94200DA0D4603A9012D04DD4A1950
:1013C000203AD27F302A06D0B84201DA011D04DA71
:1013D000012100910FE06D1EEFE7002802DC861965
:1013E0002D1A03E0411CA94200DD0D46801B401C64
:1013F00000900120C0070B902078000705D40098CA
:10140000A84202DB0020C043009069460020C87259
:101410000B98012102AF0337C907884225D002206B
:1014200010902B2011900B9800280BDA40420B9063
:101430002D20119006E00B9800F09BF830317F1EB4
:101440000B9039701099481E00291090F3DC0B980E
:101450000028F0D111987F1E38702088000501D532
:10146000452000E065207F1E387001A8C01BC01D0C
:101470000B900F98002800D0012041190098C01748
:1014800009180B980818A169081A401EA061207855
:10149000C00602D42046FEF7E3FE0F98002805D0D0
:1014A0006268A1689047206A401C20622078C006CC
:1014B00025D52046FEF7D4FE21E0002E07DB0E984E
:1014C000B04204DD03A86268805DA16802E0626842
:1014D000A16830209047206A761C401C206200984A
:1014E000401E002800900AD100F058F8C0686268D9
:1014F0000168405CA1689047206A401C2062284631
:101500006D1E0028D9DC07E062683878A1687F1C6E
:101510009047206A401C20620B99481E00290B90BE
:10152000F2DC2046FEF7B2FE032042E601FCFFFF9C
:10153000104D0000E1DFFFFF01694A1C02610878DD
:10154000704700B58FB002910021059105490193C4
:1015500079440391114604906846FEF70BFF0FB0E3
:1015600000BD0000E5FFFFFF0A681070521C0A6012
:10157000704701468008081A02091018020A10185C
:10158000020C1018C008820012185200891A01E0DB
:10159000401C0A390A29FBD27047000000487047F6
:1015A000A80600200B4670B502468907800808434C
:1015B00019469D08141AA941250908070543080979
:1015C0002C194841250A01060D43010A2C194141F5
:1015D000200C0D0428430D0C00194D410021401929
:1015E0004D41C00869070843E908840F8D00254371
:1015F000840024184D4124196D41121BAB4107E0B2
:101600000925ED432C11521963410024401C61410E
:101610001C460A250026551BB441F1D270BD0000BE
:10162000F8B51F46044601230068DB020326014685
:101630001840072A05DB002801D017A506E017A5EA
:1016400004E0002801D016A500E016A51020814373
:101650002160A069C01E002FA06101D0401EA061C2
:101660002046FEF7FDFD002F09D038466268A168CC
:101670009047206A401C2062C01C206206E0206A5D
:10168000FAE762682878A1686D1C9047761EF8D248
:101690002046FEF7FBFDF8BD4E414E006E616E0028
:1016A000494E4600696E6600F7B516468AB0334863
:1016B00078446C4603467C33C06F5A689B680DC4FF
:1016C0002E487844763003AC0DC80DC43720C001D5
:1016D000081837211B30FEF7DBFF05460C46803D1E
:1016E0001B3C02D56442012000E000200027099045
:1016F00010E0E0070CD00C202049784379443246B2
:101700004C3941186846012300F054FA6B4607C370
:1017100064107F1C002CECD1184F7F442E3F16E044
:10172000E80712D02001C0190EC80691089307924D
:101730000068F04201D1981908903246012306A9A9
:1017400003A800F037FA03AB07C36D10641C002D2B
:10175000E6D10998002806D032466946012303A83D
:1017600000F07EFA05E001233246694603A800F046
:1017700021FA0A9B07C30DB0F0BD0000CC41000068
:10178000034640000A4610B5400D0BD00121C907A1
:101790000F24A40200191C0364082143540D2143A3
:1017A000D20207E000210120F2E7D40F49002143D3
:1017B0005200401E0029F8DADB0FDB07184310BD8A
:1017C000FFB50D46144685B04868516803F039FFEF
:1017D00000910190A868A16803F033FF0291039083
:1017E000A868616803F02DFF029A121882420292E3
:1017F00001D2012000E00020019A0B18D218002825
:10180000019202D08A4202D903E08A4201D2012029
:1018100000E000200099081800906868A16803F0B3
:1018200010FF029A12188242029201D2012000E0B7
:101830000020019A0B18D2180028019202D08A4287
:1018400002D903E08A4201D2012000E00020009981
:10185000081800902868216840004900400849089D
:101860004018FA49471814E001994000C90F08438D
:101870000090019802994000C90F08430190029816
:1018800003994000C90F08430290039840007F1E4F
:10189000039000980028E7DA0898002801D0EC4E61
:1018A00000E00026B74201DA012000E00020002815
:1018B00004902AD0F71BF806C00E15D0029B2021F9
:1018C000091A039A8B401A430392029A019BC24061
:1018D0008B401A430292019A009BC2408B400099B0
:1018E0001A430192C14000917B110DD06F46032035
:1018F000C11A03D500218200B95003E08A0081009B
:10190000BA587A50401EF3D53746039802990028FA
:1019100000D00120014308980291002808460CD00D
:10192000002800D001200199019A490508430121AE
:10193000D20AC902D202019200E001210E9B0122CB
:10194000D207012B02D0002B03D013E0002807D1CF
:1019500020E0904204D890420CD1019B0B4209D068
:10196000019B5918019105D10099491C009101D1A1
:101970007F1C009200280DD0102108460020C04690
:101980000498002806D00F98002803D008210846A4
:101990000020C04628682168019B009A4840C10F7A
:1019A0000598C90739430EC009B0F0BDFFB587B02F
:1019B000099A089808995368926840688968964619
:1019C0000022039317469446089A12685300099A16
:1019D0005B081268520052089A1A9E4BD4180A9A51
:1019E000002A01D0352200E0402206920022012385
:1019F00015460492DB07059324E0002D05D17546BA
:101A00000346039E4D1BB34109D375466646039BAF
:101A1000491B049D9841059B7519AC465F4163467F
:101A20003B4308D0059B049EDD0776082E435B08E8
:101A30000496059301E0521E641EC50FED07491878
:101A40004041521C069B9A42D7DB002D04D17546BB
:101A5000039A6B1A824101D203200CE0039A0B46D1
:101A60006B404240134303D0014303D0012002E006
:101A7000022000E0002061460191002100970291C0
:101A80000A99002905D0614640020143704B01913B
:101A900002E08007002302909C4201DA012000E06E
:101AA000002007003AD01A1BD006C00E15D0029DA8
:101AB0002021019C091AC5408C402543029C8C4082
:101AC00000D001242543019C0295009DC4408D4017
:101AD00000992C430194C140009154111DD06D46D2
:101AE0000221002202290CD10320001B07E000285C
:101AF00004DB8600AE59002E00D00122401C0328D2
:101B0000F5DB081B02D588002A5004E08000285825
:101B100010438A00A850491EE3D51C460A980028A5
:101B200002980CD0002800D001200199019A4905A3
:101B300008430121D20AC902D202019200E0012128
:101B4000109B0122D207012B02D0002B03D013E0FF
:101B5000002807D11FE0904204D890420CD1019B8D
:101B60000B4209D0019B5918019105D10099491CDC
:101B7000009101D1641C009200280CD0102108466D
:101B80000020C046002F06D01198002803D008215D
:101B900008460020C04608980999019A009B0068F1
:101BA00009684840C10F0798C907214382600AC0ED
:101BB0000BB0F0BD00B585B0019300920A46014616
:101BC000002302A8FFF7FCFD02A807C805B000BD6E
:101BD000FFB50A461F4685B007990193012300917E
:101BE000014602A8FFF7ECFD02990398049ECA0F74
:101BF0004900D20700920F22490892028C1A002154
:101C0000002800DB0C46450013486D08844214D3BD
:101C1000079A002A04DA441E0026104DF64302E01B
:101C200004460D460E46102108460020C046002FEF
:101C300003D0042108460020C0462005E90A0843D5
:101C4000009908436905F20A1143ADE602C0FFFF9F
:101C5000013C0000FF3F0000FF070000FFFFFF7F87
:101C600000B585B0019300920A460146002302A800
:101C7000FFF79CFE02A807C8A8E7FFB50A461F4663
:101C800085B00799019301230091014602A8FFF74F
:101C90008DFE02990398049ECA0F4900D207009254
:101CA0000F22490892028C1A0021002800DB0C4602
:101CB000450011486D08844214D3079A002A04DABB
:101CC000441E00260D4DF64302E004460D460E4626
:101CD000102108460020C046002F03D004210846EA
:101CE0000020C0462005E90A084300990843690519
:101CF000F20A114358E60000FF070000FFFFFF7FD4
:101D000010B5FF231B0644009C421DD84C009C428A
:101D10001AD80346124A0B4307D4401A02D3EFF3F2
:101D2000008010BDEFF3008010BD081A03D3EFF35D
:101D30000080904305E0EFF3008001219043C90744
:101D4000084380F3008810BD0D231B041A4204D001
:101D50001146002000F031F810BD00F045F810BD2C
:101D60000000009000487047880600207546FFF785
:101D7000F9FFAE46050069465346C008C0008546D7
:101D800018B020B5FEF734FA60BCB646002600272E
:101D9000C0C5C0C5C0C5C0C5C0C5C0C5C0C5C0C51B
:101DA000403D490849008D46704710B50446C0467D
:101DB000C0462046FEF7D5F910BDC80212D548032B
:101DC000400F002804D0C803C04301218840704759
:101DD000EFF300800001000903210907084380F3A5
:101DE000008870470020704710B5024800F004F8E2
:101DF00010BD00000000C07F10B50C461107090F90
:101E0000092904D00A290AD008290CD104E0114676
:101E10000820FFF7D2FF06E0510606D501E0510683
:101E200001D50120C007214610BDD10607D501010B
:101E30000909CC084907000E0006044309E0410FD8
:101E400020024907000A0143200E00061D22D1414D
:101E500001430846E7E7000001491820ABBEFEE752
:101E600026000200704770B58C180578401C6B077F
:101E70005B0F01D10378401C2A1106D10278401C67
:101E800003E00678401C0E70491C5B1EF9D12B073D
:101E900005D40023521E0DD40B70491CFAE70378B9
:101EA000401CCB1A921C03E01D780D70491C5B1C72
:101EB000521EF9D5A142D8D3002070BDB0B586B06E
:101EC0001B4C204600F020F801256802294600F04E
:101ED00015FD00200590A902029120210191A9047D
:101EE000049100906946204600F026F820462946D5
:101EF00000F002F806B0B0BD4A1E914142680123CD
:101F00009A4351184160704710B50121084A904228
:101F100004D0084A90420AD18C0200E04C02012110
:101F2000204600F0F9FC0021204600F0F5FC10BD31
:101F3000002401400028014010B54268084B1340BE
:101F40004A681A430B68134343608268054B134089
:101F50000A694C691C43144389682143816010BDA0
:101F60000080FFFF800000FF10B50F22920244683E
:101F700094439A02224342601F2905D801228A40D5
:101F8000C1681143C16010BDFA2906D0FF2908D1EC
:101F9000C168054A0A43C26010BDC168014A0A40CF
:101FA000C26010BD0000FFFFFFCF00004A1E91413C
:101FB0000902012212028368934359188160704715
:101FC0000A490A68002808D0082002430A60012054
:101FD000C2038868104388607047082082430A6003
:101FE0000120C20388689043886070470424014040
:101FF000F0B581B00925EC060821022620463246BC
:1020000000F0FBFB20462946324600F0F6FB0A2191
:102010002046324600F0F1FB1D4D0D212846324688
:1020200000F0EBFB0E212846324600F0E6FB0F21C4
:102030002846324600F0E1FB6E46304600F0F4FBE5
:10204000144800902046314600F076FB01277802C4
:1020500030802046314600F06FFBB80230802046C9
:10206000314600F069FB780330802846314600F0A5
:1020700063FBB80330802846314600F05DFBF8036F
:1020800030802846314600F057FB01B0F0BDC04615
:10209000000400480001031810B50E4800687D21B7
:1020A000C90003F0D3F9411E080E00D0FEE70A482C
:1020B0000A4A51600A490B6803400324A4071B190C
:1020C0000B6000239360072313600A6802400A60D4
:1020D00010BDC046AC000020FFFFFF0010E000E094
:1020E00020ED00E081B00090034800990160016894
:1020F0000029FCD101B070472C08002010B5012444
:10210000600200F077F800280CD0200200F02CF8D4
:102110001248007812490978002904D001F044F8E7
:1021200001F076FB10BD0F49087010BD10B50124F9
:10213000600400F05FF800280CD0200400F014F8D0
:102140000648007806490978002904D001F02CF8E7
:1021500001F05EFB10BD0349087010BD210800208E
:102160009C07002020080020214908607047C046D5
:102170004A1E9141026801239A4351180160704739
:10218000016801229143016000210160416081608A
:10219000C160114988420BDD1049884210D01049B6
:1021A000884210D00F49884215D10F2000040EE05C
:1021B0000D4988420AD00D4988420CD1F02006E032
:1021C0000F20000203E00F20000300E00F20084969
:1021D0000A6802430A6070472F0002403000024044
:1021E0004400024058000240080002401C00024027
:1021F00004000240024909680840411E88417047B6
:1022000000000240002A03D002680A4302607047BF
:1022100002688A4302607047B0B502680C4B1340F5
:102220008C681C430D6A4B6A8A6A25430C692C43EF
:102230004D6925438C692C43CD6925431D431543C6
:102240000560CA6842600A6882604968C160B0BDC2
:102250000F80FFFFF0B58DB01E460092019104463D
:1022600001252846294600F01FFB2046FFF788FF7E
:1022700002AF384600F01FF800200C900B90202190
:102280000A91099008908021079106900596049084
:10229000009803900198029020463946FFF7BCFF52
:1022A000022120462A46FFF7ADFF20462946FFF7C8
:1022B0005FFF0DB0F0BD80B52C21FEF781F980BD28
:1022C000F0B587B00C4607460125EE02304603F014
:1022D000BDF821464143B14200D0FEE700237B49CF
:1022E000B44202D91E4606912AE00128029000D885
:1022F000029562080592012A00D805950026744AC5
:102300000D46019604970393234673435B19069386
:10231000022C059B0D4610D32F88974204D15B1EDB
:10232000AD1C002BF8D109E00919761C029B9E42D6
:10233000049F039B654DE7D102E0019E049F039B30
:10234000B042184600D00698002809D05F4988425C
:1023500000D16148011B38462246FEF7C9F800E06B
:10236000DC43204607B0F0BDF0B587B00E46054609
:102370000127FC02204603F069F831464143A1429F
:1023800000D0FEE733463946059000264F4FA34262
:1023900030460497069327D805980128019000D865
:1023A000019158080390012800D803910020484A61
:1023B0003C46009019464343DB1904930229039BD2
:1023C00002940FD32188914204D15B1EA41C002BE0
:1023D000F8D108E0069B029CE418401C0199884251
:1023E000E8D101E00098069B0599814200D0049E47
:1023F00081421ED11C4600F093F9384600F06EF879
:1024000000F0FCF800F08CF9324800F067F800F0BA
:10241000F5F800F085F9640852D00026298838467E
:1024200000F0F4F8AD1CBF1C761CB0B2A042F5D38E
:1024300046E0284CE01A864217D11F4600F070F99A
:10244000204600F04BF800F0D9F800F069F97C085C
:1024500036D000272988304600F0D8F8AD1CB61CCD
:102460007F1CB8B2A042F5D32AE01B48C01A0590E1
:102470001C4600F055F90598864214D1384600F004
:102480002DF800F0BBF800F04BF9640818D00027D5
:102490002988304600F0BAF8AD1CB61C7F1CB8B2D3
:1024A000A042F5D30CE064080AD000272988304602
:1024B00000F0ACF8AD1CB61C7F1CB8B2A042F5D33E
:1024C00000F09CF8069807B0F0BDC0460078000800
:1024D000FFFF0000007C00080080000882B0014679
:1024E0008D4A1068C00709D1106840070AD41068E7
:1024F000C0060BD5032001280BD02DE001200128B8
:1025000007D029E00220012803D025E0042001287B
:1025100022D1384B00200090FF2000900098002826
:1025200002D00098401EF8E71068C00707D1106875
:10253000400706D41068C00605D5032004E001203A
:1025400002E0022000E004205B1E012801D1002BE4
:10255000E0D1002B00D10520042848D15068022387
:1025600018435060916050684021014351601068E9
:10257000C00709D1106840070AD41068C0060BD5FF
:10258000032001280BD02CE00120012807D028E0EF
:102590000220012803D024E00420012821D115497C
:1025A00000200190FF2001900198002802D001989E
:1025B000401EF8E71068C00708D1106840071846A9
:1025C00007D41068C00603D5032002E0012000E014
:1025D0000420491E012801D10029E1D1002900D1A0
:1025E0000520012803D05168034B0B40536002B013
:1025F0007047C046FF0F0000FD1F00000248016841
:1026000080220A43026070471020024010B582B059
:102610000246414B1868C00709D1186840070AD420
:102620001868C0060BD5032001280BD02DE001202F
:10263000012807D029E00220012803D025E004204A
:10264000012822D10F2400200090FF200090009844
:10265000002802D00098401EF8E71868C00707D18C
:102660001868400706D41868C00605D5032004E0A2
:10267000012002E0022000E00420641E012801D1B4
:10268000002CE0D1002C00D10520042841D15C6849
:10269000012004435C6011801968C9070AD11868D9
:1026A000400706D41868C0062AD50320012803D0A5
:1026B00029E00220012826D10F2100200190FF20CF
:1026C00001900198002802D00198401EF8E7186890
:1026D000C00707D11868400706D41868C00605D59A
:1026E000032004E0012002E0022000E00420491E53
:1026F000012801D10029E0D1002904D1052002E000
:1027000004200128D8D0012803D05968034A0A4080
:102710005A6002B010BDC0460C200240FE1F0000EF
:1027200002480349016003490160704704200240E8
:1027300023016745AB89EFCDF0B586B0CA780F238A
:10274000144605931C400392D20601D58A7814439F
:1027500009880A060494009023D00246143202929B
:10276000024610320192026800263746039805E0BF
:102770002B60049C361D7F1C082F10D00123BB400A
:102780000B42F7D02546B540059CB440A2432A43EE
:102790002828029DECD04828EBD1019DE8E700985D
:1027A00002600A0A27D00246143202920246103210
:1027B000019247680020064605E01D60049C001D4C
:1027C000761C082E15D001231D02B5402B460B4068
:1027D000AB42F4D123468340059C8440A7431F436A
:1027E000039A282A029BE8D0039A482AE6D1019B43
:1027F000E3E70098476006B0F0BDB0B5082901D303
:10280000242300E02023C4584907C90E0F258D401A
:10281000AC43C450C4588A402243C250B0BD806803
:102820000840411E884170470249418002490180A9
:102830007047C04602040000FFFF0000002004496A
:10284000044A435C1354401C0C28FAD17047C0461C
:10285000E8F7FF1F1507002070B501788278002A7D
:1028600015D0FC220A400D4BD4588D07ED0EFF26E3
:10287000AE40B44340788001C0B2A8402043D0505D
:102880001F200840012181400548016070BD1F20C4
:102890000140012088400349086070BD00E400E069
:1028A00000E100E080E100E0054A002903D0116862
:1028B0000143116070471168814311607047C04641
:1028C00014100240054A002903D011680143116029
:1028D00070471168814311607047C0461C10024068
:1028E000054A002903D0116801431160704711683F
:1028F000814311607047C04610100240054A00290C
:1029000003D0116801431160704711688143116061
:102910007047C04618100240054A002903D01168CC
:102920000143116070471168814311607047C046D0
:102930000C100240B0B504461E4D28680C21014021
:102940000C2912D01C4808291CD1291F0A68920E94
:10295000521C09684902490F491C2B68DB0306D445
:102960008048504302F072FD0CE015480AE02B68E5
:102970009B0303D4504302F069FD03E00F4850432A
:1029800002F064FD206028680006000F0D490A5C13
:102990002068D04060602A685205520F8A5C034666
:1029A000D340A3602A689204520F895CC840E0605B
:1029B000B0BDC0460410024000127A0000093D007C
:1029C000409C00001459000805480168002902D005
:1029D0000168491E016003480168491C0160704795
:1029E0002C08002098070020F0B589B0554E3068BB
:1029F00001221043306070685349014071603068B3
:102A000052490140316090043168814331607F2038
:102A1000000471688143716030684D4F3840306008
:102A20009F200004B060306802921043306030682C
:102A30008007FCD5474C48482060484D2868102145
:102A40000143296028680721884328602068401EC8
:102A5000434902F0FBFC29680143296070687060FB
:102A60007068706002988002716801437160032091
:102A700001900004716881437160306838403060B3
:102A80002368002001461F46039006460491701CEF
:102A90000590344D039C06E032496D18641C002FEC
:102AA000079206901ED0402C18D00897374628462B
:102AB00005991E4602F0CAFC3346311A00D2C11AEB
:102AC0003E46089F8F42304600D806988F422246E5
:102AD00000D8079A8F42DFD30F46DDE7049900291B
:102AE00006D009E00027079206900299002903D139
:102AF000059804280646C9D1124A106814490840AE
:102B00001060079880060699C9B20905014310684C
:102B1000084310600120000611680143116010682D
:102B20008001FCD5506801998843506050680221AB
:102B30000143516050680C2101400829FAD109B0C5
:102B4000F0BDC046001002400000FFF0FFFFF6FE9F
:102B5000FFFF0F00AC00002000D8B80500200240A5
:102B600000366E01001BB700F0B58FB000910190E8
:102B70000124E0022146FFF7C1FEE14D284600F0A6
:102B8000B5F80AAE304600F037FA002737740D97D3
:102B900000980A9001980C900B972846314600F057
:102BA000E3F906AE304600F0B3F950201D49085A4B
:102BB000411E8841C00070810420079020040190CC
:102BC000069009972846314600F0E8F82846314635
:102BD00000F01EF92846314600F05AF928462146F1
:102BE00000F03EF820212846224600F0CDF8284685
:102BF000214600F06DF802AE304600F028F8A00340
:102C0000B081094804900948029001980390284631
:102C1000314600F00DF82846214600F04DF80FB07F
:102C2000F0BDC04602060020001000200008000889
:102C30000A884B8813438A881A43CB8813430A892E
:102C40001A434B8913438989194341647047002112
:102C5000818141810181C1808180418001807047F3
:102C60004268002903D001210A4342607047674946
:102C70000A4042607047C04610B501238B40046A89
:102C80009C43A3B203628A4091B2026A0A43026281
:102C900010BD000010B504238B409BB2054CE41C12
:102CA0005C40036A234003628A4091B2026A0A438D
:102CB000026210BDFCFF00000268002903D0012160
:102CC0000A430260704751490A4002607047C0469B
:102CD000426C054B002903D0591C0A4342647047DB
:102CE0001A4042647047C046FF7F000010B5234978
:102CF00088420BDDBD49884214DCB74988421AD0AE
:102D00001F4988422ED101210C042EE001218A079F
:102D100090421AD0B24A904225D0B04A904221D176
:102D20004C030AE0B349884213D0B149884219D113
:102D300001218C0401E00121CC022046FFF7ECFDCB
:102D400000212046FFF7E8FD10BD01242046214662
:102D50000CE001214C042046FFF7DEFD0021204657
:102D6000FFF7DAFD10BD022401212046FFF7B8FD70
:102D700000212046FFF7B4FD10BDC046FF2B0140E7
:102D80000040014041617047002A03D0C2680A43F5
:102D9000C2607047C2688A43C2607047F0B5026A79
:102DA000BC4B13400362026A02239A430B8913430C
:102DB0004A881A4345680B8884698C4EB04206DC09
:102DC000864EB04209D0844EB04206D013E0884E01
:102DD000B04202D0874EB0420DD10C26B2434E898C
:102DE0000427BE4316438A8832437F4E35408E897E
:102DF0002E43CD893543ADB24560444D2C401C4334
:102E00008461C988416391B20162F0BDFEFF000098
:102E1000F0B5026A1A4B13400362036A20229343FF
:102E20004A880C89144322011A4345680C88836937
:102E3000694EB04202D0694EB04214D1C026B243AE
:102E40004E8936014027BE4316438A881201324319
:102E50000C4E35408E89B6000B4F37402F43CD893D
:102E6000AD003D43ADB2ADB24560084D2B402402EC
:102E70001C43A3B28361C988816391B20162F0BD32
:102E8000EFFF0000FFF30000FCF70000FF8C0000E4
:102E9000F0B5026A194B1340036201225202036A21
:102EA00093434A880C89144322021A4345680B88CD
:102EB000C469494EB04202D0484EB04212D10326F6
:102EC000B602B2434E8936020E4F374017438A8806
:102ED00012023A430C4E3540CE898F8937433E016A
:102EE0002E43B5B2ADB24560084D2C401C43C461C1
:102EF000C988C16391B20162F0BDC046FFFE000007
:102F0000002C014000FBFFFFFFCF00008CFF000002
:102F10000021C181818141810181C1808180418005
:102F20000180704710B501238B40046A9C43A3B213
:102F3000036218300823DB4319420AD0091F89B203
:102F40004908435807242403A3434350401812025E
:102F500005E049080B587024A3430B50081891B2A0
:102F600002680A43026010BD02681A4B984207DCEF
:102F700001239B07984209D0194B984206D00AE0DA
:102F8000154B984202D0154B984204D1154B1A406C
:102F90004B68134300E01346134A1A408B891343CE
:102FA00003608A68C2620A688262104A904206DC44
:102FB0000A4A904209D0084A904206D007E00C4ADB
:102FC000904202D00B4A904201D1097C0163012159
:102FD00041617047FF070140002C0140000801409B
:102FE000000400408FFF0000FFFC0000FF43014091
:102FF00000480140004401400021034A017401607F
:1030000041608260C1607047FFFF0000F0B585B08D
:1030100005460124A0032146FFF770FC6004214609
:10302000FFF750FC01AF384600F002F90020B881EC
:103030003020029001950320C00403907B4D284668
:10304000394600F05DF8784E3046394600F058F8C1
:103050002846214600F012F83046214600F00EF8CE
:10306000022728463946224600F016F830463946EF
:10307000224600F011F805B0F0BDC0468269002973
:1030800003D001210A438261704702490A408261EC
:103090007047C046FEFF0000002A03D082690A4341
:1030A0008261704782698A4382617047F0B581B05E
:1030B00000240E4D0E4E06E01821285D01F0EEFDB5
:1030C000241D282C0FD0285DB18B814202D0F18BBA
:1030D0008142F5D12F19797801F002FEB8780028E5
:1030E000EAD10421E9E701B0F0BDC046536500080C
:1030F0000206002080680840411E88417047000099
:1031000070B584B00D460446FF20D030E16981439C
:10311000A888EA880243288910430843E061A88907
:1031200069890143A0691F2290430843A0616E464C
:103130003046FFF7FFFB3C48844201D00C3600E0EC
:1031400008363068296802F081F9010921620F21EF
:103150000140616204B070BDC9B2016070470000F7
:10316000F0B581B00446007800281AD02E4D2F4EBD
:10317000C7B230463946FFF7EFFF28463946FFF71A
:10318000EBFF01213046FFF7B5FF0028F9D0012100
:103190002846FFF7AFFF0028F3D06078641C0028B2
:1031A000E6D101B0F0BDC04670B506461F4C2046C2
:1031B0003146FFF7D1FF1C4D28463146FFF7CCFFC3
:1031C00001212046FFF796FF0028F9D0012128466B
:1031D000FFF790FF0028F3D070BDC046F0B581B076
:1031E00000291ED00C4605460F4E104F00942C7837
:1031F00038462146FFF7B0FF30462146009CFFF7D6
:10320000ABFF641E01213846FFF774FF0028F9D098
:1032100001213046FFF76EFF0028F3D06D1C20041B
:10322000E4D101B0F0BDC046004400400038014088
:103230000021818130210322D2044B23DB01036072
:1032400041608260704700000021214A1378834268
:1032500004D0121D491C0D29F8D10D2188001C49EC
:103260000818408809280CD8784400794000874421
:10327000040B0F13171B1F232B271648006880B25F
:103280007047002080B270471248406880B2704793
:103290001048806880B270470E48C06880B270479E
:1032A0000C48006980B270470A48406980B2704794
:1032B0000848806980B270470648C06980B270478C
:1032C0000448406A80B270470248006A80B2704782
:1032D0002459000818240140F0B5A7B00A4D2878F9
:1032E000801E082800D9E3E04000C046784480886A
:1032F000400087440B001F007E001401DD006101C7
:10330000AE00BC00DA00C0469C070020FFF796FA2A
:10331000F248FFF725FF1D200101F148FFF75EFF8E
:10332000F048FFF71DFFF0480078002800D17EE14B
:10333000EE487DE1EE48FFF713FFEE4801240470EC
:1033400000BF00BF01780029FAD12878032800D0F7
:10335000AEE0EB4D28462146FFF7BAFC7D20400148
:103360006863A863E863EF4E22253046294622466B
:10337000FDF7FFF8F64F384629462246FDF7F9F8E3
:10338000F44829462246FDF7F4F8F249DE48008861
:1033900012900022119403E0521C222A00D13FE136
:1033A000FE2010400A2801D101251BE093B212989B
:1033B0009842254616D039463446D348851C002607
:1033C00030460F2E05D0461CAF1C2D889D423D4631
:1033D000F6D10F2801D3002500E0012526460F462F
:1033E000119CDC49002DD7D00020B854B05488542B
:1033F000D2E7D248FFF7B4FE00260127C24D12974C
:1034000004E0701CF1B22129064653D27E203040E0
:103410000A2801D1012115E0F0B2298881423946FC
:1034200010D0A91C00231A460F2B05D0531C8F1C4B
:10343000098881423946F6D10F2A01D3002100E0E4
:103440000121129F0029DCD1F0B2482101F026FCB5
:10345000D7E7AE48FFF784FEAD4800210170AD48C4
:103460000170AD480180AD48017027B0F0BDA348A0
:10347000FFF776FEA24C01212046FFF729FC002031
:103480006063A063E0639F4908609F4D287804242F
:10349000214601F003FCA878214601F0FFFB2879C2
:1034A000214601F0FBFB27B0F0BD9348FFF758FE23
:1034B00027B0F0BD2C88002203E001234A1C002B1A
:1034C0001CD01146FE220A400A2AF6D0CAB2944203
:1034D0003B46F3D02846AB1C00273E460F2F05D0B5
:1034E000771C9D1C1B8893422B46F6D10F2E01D3CF
:1034F000002300E00123129F0546DFE7904C217076
:103500009048FFF72DFE2078052141438E48401852
:10351000FFF726FE8D48FFF723FE27B0F0BD824857
:10352000FFF71EFE764D012428462146FFF7D0FB0B
:10353000129460036863A863E8637C480025057003
:1035400000F05EFFFEF7BAFC7A4C13E079490C18E4
:10355000A1780027012676483A463346FEF704FD57
:103560002078744C394601F099FB734846556D1C20
:103570000D2D4FD0A800215CFE220A400A2A03D15B
:103580000122002A16D1E1E75F4A12888A42129A84
:103590000ED05D4A921C002633460F2E05D05E1CCD
:1035A000971C12888A423A46F6D10F2BE8D30022A4
:1035B000002ACBD00026D8E75948FFF7D1FD0024D8
:1035C0000125514F06E0002100290AD0641C222C5D
:1035D00000D16DE7FE2020400A2808D101210029F2
:1035E000F4D1E0B201F076F84E490855EEE7A0B20A
:1035F000398881422946E7D0B91C00231A460F2B8F
:1036000005D0531C8E1C098881423146F6D10F2A01
:10361000E4D3D8E701214648FEF7C8FC27B0F0BD47
:10362000FF20394948808880088027B0F0BD4A488B
:10363000FFF796FD49480068FDF7F2FC12901191E2
:1036400047480178109141780F918478C5780679C0
:10365000477981790E91C1790D91017A427A837A05
:10366000C07A089109920A930B90109800900F98D5
:1036700001A9F1C10E9806900D98079013AC394935
:103680002046129A119BFCF7D7FD2046FFF768FDF4
:103690003548FFF765FD35A0FFF762FD3B48FFF7B2
:1036A0005FFD3B48FFF75CFD3A48FFF759FD3A489C
:1036B000FFF756FD3948FFF753FD39A0FFF750FDDE
:1036C00045A0FFF74DFD4CA0FFF74AFD4F480E49BE
:1036D0008022FCF70DFF27B0F0BDC046825F0008D6
:1036E00030040020CC63000894070020B96400086F
:1036F000726100083C080020F4630008885F00083D
:10370000002C0140340800200206002092620008CC
:10371000F60600200A0700200C07002032080020CF
:10372000C95D000824070020875E0008820600208B
:103730000024014024590008EC060020155C000814
:1037400030080020D86300080000002080620008D4
:10375000480700206C070020526400083808002049
:10376000150700201E61000859600008202028313C
:10377000292D4175746F2064657465637420616CD4
:103780006C2070696E732E0A0D000000DA6000086C
:10379000B660000834600008FB6000089460000810
:1037A00020202837292D4D6F6469667920636F6E5C
:1037B00066696775726174696F6E73206D616E758D
:1037C000616C6C7920627920636F6D6D616E64202D
:1037D0006C696E652E0A0D0020202838292D54654D
:1037E0007374206D6F746F7220726F746174696F7F
:1037F0006E2E0A0D0000000020202839292D506F60
:10380000776572206F66662E0A0D3E00A0070020C5
:10381000F0B5A5B0B74D2878401E092800D9B8E208
:103820004000C04678448088400087440900150065
:1038300032004A005D00B2027B009A00D6001201FD
:10384000AD4800780D2802D00A2800D0A1E2AB488C
:103850000121017002205FE0A74800783138082874
:1038600000D996E24000C0467844808840008744F2
:1038700008003C0246024B02500252025C02610206
:1038800076029E4801210170032028709C4800F0B8
:1038900097FC99480078682800DDF1E00A2802D0FA
:1038A0000D2800D075E296480078002800D1CFE1BD
:1038B0009248012101700420287092480021016083
:1038C000C8E18D4E307801466239182900D9EFE100
:1038D000012422468A408C4B1A4200D1BCE1772851
:1038E00000D1D6E00421D5E0834800780A2805D02D
:1038F000662800D12EE10D2800D032E18048017801
:10390000002900D142E181490978002900D13DE137
:103910007A4801210170072028707A48002101604F
:1039200025B0F0BD744800780A2805D0652800D17C
:1039300044E10D2800D02CE27548028875490B88B7
:10394000934200D03DE10222802A00D1C6E1835A91
:103950008C5A921C9C42F7D06848012101700A20C1
:10396000F9E1654800780A2805D0202800D131E126
:103970000D2800D032E1684C2078014665391329C2
:1039800000D960E24900C0467944898849008F44E3
:103990001300B502BD02DF02F902B502B5023D0314
:1039A000B502B502B502B502B5024603B502B502CD
:1039B000B502B5025C03720305AC8025FF222046E8
:1039C0002946FCF7D6FD20462946FEF7CDFC002807
:1039D00000D181E3514800F0DEFB474800780A3807
:1039E000232800D9D5E140007844808840008744EE
:1039F0002300D001D0012300D001D001D001D0019B
:103A0000D001D001D001D001D001D001D001D0012E
:103A1000D001D001D001D001D001D001D001D0011E
:103A2000D001D001D001D001D001D001D001D0010E
:103A3000D0010601D0011101394800244463846398
:103A4000C4632146FFF744F93648047000F0D8FCFF
:103A500044E1294800786E2800D13FE1792816D149
:103A60002B488021FEF780FC002800D133E12EA0F6
:103A7000FFF776FB214801210170022028702DE11B
:103A8000692800D1D5E0792800D1E3E081E12CA0BC
:103A9000D5E148212C4D287801F000F93278623ABE
:103AA000182A00D991E11A48811D28485200C046C1
:103AB0007A4492885200974418008801880188014E
:103AC00088016E01880188018801880172018801DE
:103AD00088018801880188017D01880188017601BB
:103AE00088018801880188017A0109490A3118484A
:103AF00060E1C0469C070020210800208E070020BE
:103B0000140700202C08002021042901940700201C
:103B100002060020A00700200A070020D264000847
:103B2000002C0140820600200D0A636F6E666967F3
:103B300075726174696F6E2073617665640D0A0039
:103B40000D0A592F4E3F000030080020BC630008CA
:103B500092630008F74801784A424A41027025B052
:103B6000F0BD01463039092900D912E18000F2493F
:103B70004018C0380078F14C2083F148FFF7F0FA84
:103B8000208B05214143EF48401858E1EE4A0021BF
:103B90001160FD4A1488ED4B1E88A64208D102240C
:103BA000802C00D19AE0165B1F5BA41CB742F7D0B3
:103BB000F84A012313700A222A7001E3F648012112
:103BC000FEE2F448012101700A202870F348002128
:103BD0000170DEE0F2480178491CF1E2F049097811
:103BE000022900D16EE1012900D179E1002900D03C
:103BF000CFE0EC490A78002A00D0CAE069E2EA483E
:103C00000268E12189008A4200DB0A4664320260D0
:103C100001AC08E0E4480268E4498A4200DC0A4654
:103C2000643A026005ACE2492046FCF705FB2046F9
:103C300005E15024D44D285B414241412953DD48E0
:103C4000FFF78EFA285B002800D196E0DA4895E06D
:103C500001F05CF9D94880E0112929D1D84D2878A4
:103C6000482101F01BF8C8480288287803E00125A4
:103C7000002D00D1D5E0030601D0401E00E0212038
:103C8000FE2303400A2BF2D0C3B29A422546EFD05E
:103C9000BD498D1C00273E460F2F05D0771CA91C5F
:103CA0002D889D420D46F6D10F2EE0D30025DFE78B
:103CB0000D2802D00A2800D0B5E0B84800780028C6
:103CC00000D1D2E0B3480121017005202870B0482E
:103CD00000210160CBE0BBA0FFF742FAAD48012113
:103CE00001700220287025B0F0BDAA4801210170A2
:103CF00003202870A94800220270A74860E2A54866
:103D000001210170042026E0A24801210170052054
:103D100021E0B24893E0B2480078002800D196E054
:103D20009C4801210170072015E09A48012101708B
:103D3000082010E094480188212900D99EE141889B
:103D4000212900D99AE18088212800D996E191485B
:103D500001210170092028709048002130E2A0481C
:103D60000078002873D09F48FFF7FAF98648007D55
:103D7000042100F093FF25B0F0BD9B48FFF7F0F958
:103D8000012040030021FEF7EFFE8C480078002858
:103D90005FD025B0F0BD7C49083194480AE07A49EB
:103DA0000E31934806E078490C31924802E076499A
:103DB000103191482A780A80FFF7D2F92878052136
:103DC000414372484018FFF7CBF93078772802D08A
:103DD0008A48FFF7C5F9FC4801882878012202E0EB
:103DE0000125002D1DD0C3B2212B01D0401C00E0C5
:103DF0000020FE2303400A2BF2D0C3B2994215469D
:103E0000EFD0F14CA51C00273E460F2F05D0771CA4
:103E1000AC1C2D889D422546F6D10F2EE0D30025FF
:103E2000DFE7674908707648FFF79AF96448007839
:103E30000521414355484018FFF792F97148FFF7B3
:103E40008FF925B0F0BD002858D100BFA5E16E481C
:103E5000F5E7DE4C01212046FEF73AFF7D204001C8
:103E60006063A063E06325B0F0BD01F04FF8002669
:103E70000124D54D07E0002100290BD0701CF1B2C0
:103E800021290646CFD27E2030400A2807D10121C1
:103E90000029F3D1F0B2042100F000FFEEE7F0B208
:103EA000298881422146E7D0A91C00231A460F2BFE
:103EB00005D0531C8F1C098881423946F6D10F2A40
:103EC000E5D3D8E7E7490A78931E5A425A41034698
:103ED0003A3BDBB25B087B2B00D2D1E00023D0E081
:103EE000DA490A78931E5A425A4103463A3BDBB2FA
:103EF0005B087B2B00D2CBE00023CAE0DF48FFF752
:103F00002FF92078FFF750F9DD4844E1C748FFF763
:103F100027F90026AC4FC6A4BA5B05AD284621465A
:103F2000FCF78AF92846FFF71BF9B61C802EF3D15F
:103F3000C14830E131080020245900080206002061
:103F4000C4630008000000202C080020A007002007
:103F5000BA48FFF705F90024B94DBB4F05AE30460E
:103F6000B8492246FCF768F93046FFF7F9F82846C9
:103F7000FFF7F6F83846FFF7F3F80E35641C402CCF
:103F8000ECD10AE194A006E1020600200000002026
:103F90002C0800208E070020210700201407002095
:103FA000320800200A070020340800207CFCFFFFB4
:103FB00076620008DF620008496400083C080020BF
:103FC000300800200D0A454550524F4D2077726948
:103FD0007465206661696C65640D0A0009630008F8
:103FE000940700203563000858640008B463000893
:103FF000A76300089A630008E56300087F5F000874
:10400000D863000880620008226300080025ECB233
:10401000204600F089FE6D1C3F2CF8D3BDE08B4894
:104020000078022878D18A4800788A4C00262654E5
:10403000834D20462946FCF7C5FA00284ED00E35A0
:10404000761C402EF5D1FF2449E0804800780228F4
:104050006DD17F4800787F4C00262654784D20464D
:104060002946FCF7AFFA002845D00E35761C402EC5
:10407000F5D1FF2440E000F049FF8EE08248DEE603
:1040800001231343012B11D1774A1378774C06E0B3
:1040900001231343012B14D16D4A13786D4CE05466
:1040A00002200870581C107025B0F0BD01220A7063
:1040B0006F490A880A235343C0183038088025B056
:1040C000F0BD01220A7064490A780A235343C018DC
:1040D0003038087025B0F0BD4EA05CE0F4B2FF2C83
:1040E00016D15E48FFF73CF85A48FFF739F85C48AC
:1040F000FFF736F80EE0F4B2FF2C14D15748FFF763
:104100002FF85448FFF72CF85548FFF729F80CE032
:1041100051480470FF2C40D04F4800783F2839D8D0
:1041200000F002FE39E04C480470FF2C35D04D48B9
:104130000078022822D14C4800784C4C00262654A6
:10414000AE4D20462946FCF73DFA002805D06D1DEE
:10415000761C222EF5D1FF2400E0F4B2FF2C09D109
:104160004448FEF7FDFF4148FEF7FAFF3C48FEF7E2
:10417000F7FF01E03E480480FF2C0ED0364800785F
:104180003F2807D841003A4A12880F4B5A5200F094
:10419000CBFD02E03848FEF7E3FF3A48FEF7E0FFC8
:1041A0002D48002101700B480170314801800848FA
:1041B00001702D480170264801702A48017023487B
:1041C000017025B0F0BDC04602060020002C014061
:1041D000320800200A0700200D0A50696E46696EF9
:1041E000646572206265746120763136300D0A6331
:1041F00068616E67656C6F673A6175746F6465744A
:1042000065637420756172743120616E642075611C
:10421000727432000D0A454550524F4D206572614F
:104220007365206661696C6564000000376500088D
:1042300025692C2000000000EF6300086E5A00087A
:10424000B0000020D46200087F5F0008F80600205C
:10425000F7060020F9060020F6060020F2620008AA
:10426000166500080F0700200E0700201007002029
:104270000C070020EA620008C0640008FE62000823
:1042800027650008836200085E63000870B50C4C67
:1042900020680C4D2968081AC92810D30A4E3078B6
:1042A000002801D0042100E048210848007800F0EF
:1042B000F5FC28682060307841424141317070BD82
:1042C00090070020980700200907002030080020F0
:1042D000F0B581B03D480078012500283DD03C4E26
:1042E000B08AFF21B1827082C0B2042100F0D6FCF6
:1042F000002704E0781CF9B22129074621D27E204C
:1043000038400A2811D0F9B23088884228460DD0AA
:104310000020C243B31C0E2A0FD09C1C521C1B88C9
:104320008B422346F7D10F2A00D201200028E1D189
:10433000F8B2482100F0B2FCDCE70F220F2AF4D3D8
:10434000F4E700F069F923480024047022A0FEF786
:1043500007FF1E48047001B0F0BD00261C4C05E0AC
:104360000021002909D0761C222E2DD0FE203040BD
:104370000A2816D101210029F5D11C48805D0028AA
:10438000F1D1F0B200F0A6F90028ECD0668218A0B6
:10439000FEF7E6FE0520704318490818FEF7E0FE18
:1043A000E1E7B0B2218881422946DAD0A11C00237E
:1043B0001A460F2B05D0531C8F1C098881423946A1
:1043C000F6D10F2AD6D3CBE701B0F0BD21070020EC
:1043D0000206002094070020576F726B61726F75A0
:1043E0006E64206661696C6564000000240700202B
:1043F0000D0A427574746F6E3A00000000000020D0
:10440000F0B581B082480078401E824C052829D83A
:104410007844007940008744023D6083A6C90426A1
:104420000025204631462A46FEF726FC2046314626
:104430002A46FEF72FFC6026204629463246FEF724
:1044400071FD012220462946FEF716FC204629462A
:104450002A46FEF71FFC0825204629463246FEF76D
:1044600061FDC5E00025204629462A46FEF704FCEA
:104470000426204629463246FEF70CFC20463146EB
:104480002A46FEF7F9FB204631463246FEF702FC8B
:104490000825ADE00025204629462A46FEF7ECFB1C
:1044A000204629462A46FEF7F5FB042760262046CB
:1044B00039463246FEF736FD012220463946FEF7E0
:1044C000DBFB204639462A46FEF7E4FB082520465A
:1044D00029463246FEF726FD8AE0082600252046BA
:1044E00031462A46FEF7C8FB204631462A46FEF7EB
:1044F000D1FB04276026204639463246FEF712FDDE
:10450000012220463946FEF7B7FB204639462A46A7
:10451000FEF7C0FB204629463246FEF703FD67E062
:1045200004260025204631462A46FEF7A5FB2046F4
:1045300031462A46FEF7AEFB08276026204639465C
:104540003246FEF7EFFC012220463946FEF794FB87
:10455000204639462A46FEF79DFB2046294632462C
:10456000FEF7E0FC44E00025204629462A46FEF7F7
:1045700083FB204629462A46FEF78CFB0827602647
:10458000204639463246FEF7CDFC01222046394608
:10459000FEF772FB204639462A46FEF77BFB0425D0
:1045A000204629463246FEF7BDFC21E008260025BC
:1045B000204631462A46FEF75FFB204631462A4612
:1045C000FEF768FB6026204629463246FEF7AAFC25
:1045D000012220462946FEF74FFB204629462A465F
:1045E000FEF758FB0425204629463246FEF79AFC82
:1045F000002220462946FEF73FFB0422204629469A
:10460000FEF748FB20212046FEF7BCFB01B0F0BDC1
:1046100082060020002C0140F0B581B000F0E8FED9
:104620006420FDF75FFD0027244E254C07E00120A4
:1046300000281CD0781CF9B22129074626D27E20FA
:1046400038400A28F3D0F8B221888142EFD0A11C6B
:1046500000231A460F2B05D0531C8D1C098881425C
:104660002946F6D10F2AE2D300200028E2D1FDB27C
:10467000A582306880212046FDF776FE002128467D
:1046800000F00CFBFA20FDF72DFDD3E70D48A082CA
:1046900080212046FDF768FE306880B2FCF791FB70
:1046A00002460B4608480949FCF722F9FCF7E2F8F4
:1046B00007490860002001B0F0BDC0465424014005
:1046C00002060020FFFF0000333333333333B3409F
:1046D0003808002010B5062141430C4A505C431EA7
:1046E000032B09D80920C0067B441B795B009F443B
:1046F00008010507084804E0002010BD054800E057
:10470000034851184988FEF78AF810BDA2590008DD
:10471000000C0048000800480004004880B582B042
:1047200001AA01239370517010701046FEF794F89F
:1047300002B080BDF0B591B0CB4F3888099000220F
:1047400001200A90C9480892114609E0089D681C9A
:104750000BAC0890E8B22254C448521C0A2A28D054
:104760009400055DFE232B400A2B01D1012614E0A5
:104770000998A8420A9E10D0BE1C00231F460F2B8A
:1047800005D07B1CB01C3688AE420646F6D10F2FF2
:1047900001D3002600E00126B34FB448002EDCD13F
:1047A000001980780028D1D0481C0EAC0D46014677
:1047B000D0E70898C0B2401CC2B20092824201D039
:1047C00011B0F0BD4A1C0BA8643006900EA86430EE
:1047D00007900027059204E07F1CF8B200998842F8
:1047E000EED21006F8D0002609E0FEF75FFC642741
:1047F0003E46059AD0B2761CF1B28142ECD2F8B2B4
:104800000BA9085C8500994B5C19E078F1B20EAAFF
:10481000515C89005A180B46D1788142E9D1039343
:104820000495099208940196029700268F4DA85D81
:104830000024214600F032FAA85D072100F050FA6A
:10484000361D282EF3D1039FE85D0999497800F0C1
:1048500047FA049EA85D0899497800F041FAE85D9E
:10486000182100F01BFAA85D042100F017FA264673
:104870007F48047001252846FDF734FC7DA0875D44
:104880003846FEF791FC0A20FDF72CFC78480078AA
:10489000B84249D1701C082E0646E9D9099800781B
:1048A000714FB88308980078F88380213846FDF767
:1048B0005BFD0125E7480570002008E000216A4FF4
:1048C00000291ED0701CF1B2212900D39EE00646BB
:1048D0007E2420400A282946F2D0F0B2398881424D
:1048E0000A99EDD0B91C00231A460F2B05D0531C92
:1048F0008F1C098881423946F6D10F2ADED2012168
:10490000DDE70798007880005849095CF0B28842DA
:10491000D8D0069909788900544A515C8842D1D090
:10492000482100F0BBF9CDE70020089C099A08E077
:104930000021089C099A00291FD0781CF9B221296E
:1049400027D207467E2630400A282946F3D0F8B2FF
:104950004549098881420A99EDD04349891C0023C1
:104960001A460F2B05D0531C8C1C09888142214606
:10497000F6D10F2ADCD20121DBE71178F8B28842A8
:10498000DBD021788842D8D0482100F087F9099AF5
:10499000D3E70A20FDF7A6FB099A0020324F03E077
:1049A000681CE9B221292AD2054630400A2801D1E3
:1049B000012116E0E8B2398881420A9911D0B91C68
:1049C00000231A460F2B05D0531C8C1C09888142EA
:1049D0002146F6D10F2A01D3002100E00121089CD5
:1049E000099A0029DCD11178E8B28842D8D0217820
:1049F0008842D5D0042100F051F9099AD0E764200B
:104A0000FDF770FB059A029F019EF3E67D20C00032
:104A1000FDF768FB002508E0002100291ED0681C76
:104A2000E9B22129054600D3DFE6284620400A28BE
:104A300011D0E8B2398881420A99EED0B91C00231E
:104A40001A460F2B05D0531C8E1C09888142314613
:104A5000F6D10F2AE0D201210029E0D1E8B20421E9
:104A600000F01CF9DBE7C046020600205365000891
:104A70002008002048656C6C6F576F726C640000F2
:104A8000F0B581B00546CB4F3878FFF723FE0446DA
:104A9000B878FFF71FFE06463879FFF71BFE710056
:104AA000091980000818012D01D00721081AC0B289
:104AB0000149085C01B0F0BD5859000801246004A8
:104AC0002146FDF7F1FEA0042146FDF7EDFEE004CE
:104AD0002146FDF7E9FE20052146FDF7E5FEFDF73D
:104AE000DBFAFDF785FA4B200002FEF78FFA0A2069
:104AF000002739463A46FFF711FE0B2021463A4679
:104B0000FFF70CFE494E4A494A4D30462A46234695
:104B1000FDF7A0FB2836484930462A462346FDF7D4
:104B200099FB00F0D9F900281ED04448808A21283A
:104B300005D8C0B2482100F0B1F84148047000F037
:104B400057FC6420FDF7CEFA3E48006880B2FCF7BF
:104B500038F902460B463C483C49FBF7C9FEFBF7D7
:104B600089FE3B49086009E000F00AFA7D20C00098
:104B7000FDF7B8FAFFF750FD314908706003394678
:104B8000FDF7F2FF2D48818B212905D8C08B212804
:104B900002D8FEF78BFA27462E4D2F702E4E3EA4DC
:104BA0003078002803D000203070FEF795FB28787D
:104BB0000928F5D87844007940008744080B072B72
:104BC0002E310734070400F0D7FBE9E7E8E7FFF7E9
:104BD000B1FDE5E721A0FEF7C3FA1D200101214840
:104BE000FEF7FCFA20A0FEF7BBFA25A0FEF7B8FA04
:104BF00028780128D4D100272046FEF7B1FA642096
:104C0000FDF770FA781C2978302FC9D8012907469A
:104C1000F2D0C5E700F0E0F9C2E7FFF737FBBFE7E6
:104C200000F0D6F8BCE7FFF753FBB9E730000240CD
:104C300004380140210800200444004002060020FE
:104C40009407002054240140333333333333B340CB
:104C5000380800209C0700208E0700200A0A0A0A54
:104C60000D0000003004002057656C636F6D6520F7
:104C7000746F2050696E46696E6465720A0D00009B
:104C8000707265737320656E74657220746F206333
:104C90006F6E74696E7565002E000000B0B5062356
:104CA00043431D4CE05C421E032A16D80920C0066F
:104CB0007A4412795200974406010305194802E02C
:104CC000174800E01548054AD17003219170E1189A
:104CD000498811801146FDF72FFDB0BDE806002080
:104CE000B0B50A46062141430B4B585C441E032CC9
:104CF00011D80920C006C0467C4424796400A7442A
:104D000006010305074802E0054800E0034859187A
:104D10000979FDF772FDB0BDA2590008000C0048EA
:104D20000008004800040048F0B589B004461F4858
:104D3000FEF716FA0E2060431D490D182846FEF7AF
:104D40000FFA2846FBF7B2FB0D280CD000262020D6
:104D5000FEF72AFA2846FBF7A9FB0D21081A761C54
:104D6000F1B28842F3D86600124FBB5B01AD12A1CD
:104D700028462246FBF760FA2846FEF7F1F9202C78
:104D800011D2BC192820FEF70FFA2088222801D35F
:104D90000DA003E0052141430A484018FEF7E0F961
:104DA0002920FEF701FA09B0F0BDC0467F5F000878
:104DB000B00000200206002028253269293A20256B
:104DC00035692000000000206E6F74207365740048
:104DD000F0B589B000242E4E1FE001AD284634A165
:104DE0002246FBF729FA2846FEF7BAF93078052162
:104DF000414331484018FEF7B3F93846FCF710F943
:104E000002460B4628462DA1FBF716FA2846FEF768
:104E1000A7F9361D641C0D2C31D01E48005D0028FA
:104E2000F7D03078FEF710FAFBF7D3FF05460F46B0
:104E300019480068FCF7F4F802460B462846394644
:104E4000FBF7CAFF00252A46144BFBF7C5FF2A468D
:104E5000134BFBF7C1FFFBF70DFD07461148007828
:104E60000028BAD13846104900F025FC0028D0D1DE
:104E700038460E4900F014FC0028AED0C9E711A056
:104E8000FEF76EF97D200001FDF72CF909B0F0BDA9
:104E900024590008EC0600203808002000003F409C
:104EA0000000303F310800200000A04100003442E3
:104EB00025692D3E00000000000000203A256656BE
:104EC0000A0D00003D3D3D3D3D3D3D3D3D3D3D3DEF
:104ED0003D3D3D3D0A0D000010B5A0B06C4680215F
:104EE0002046FDF7EDF94020205A0749884207D1B6
:104EF000384869468022FBF7FBFA012020B010BD3C
:104F0000002020B010BDC046ABDC0000B0B5314B76
:104F10001888174A118881421FD10020C143921C72
:104F20009B1C3E2912D09C1C951C491C1B88128876
:104F30009A4223462A46F4D00E4A012313700E4AA1
:104F40000A2313700D4A10703F290FD3094801211D
:104F50000170094802210170B0BD064801210170AD
:104F600005480A210170054800210170B0BDC04606
:104F7000A00700208E0700209C07002014070020B7
:104F800070B50025E34C07E0012000281CD0681C08
:104F9000E9B2212905461CD27E2028400A28F3D0F8
:104FA000E8B221888142EFD0A11C00231A460F2BC2
:104FB00005D0531C8E1C098881423146F6D10F2A38
:104FC000E2D300200028E2D1E8B24821FFF766FED4
:104FD000DDE770BD02060020F0B583B0CD4D6888D6
:104FE000FF38414241412888FF38424242410A434A
:104FF000A888FF38414241411143012900D050E1C6
:1050000001200290012203E00122012900D048E1A1
:10501000C14801920270FFF7F3F91E20FDF762F814
:10502000002408E00D5D681E85410D55B94D641CD6
:10503000222C00D1B3E0FE26204630400A2801D1C0
:10504000012115E0A0B229888142029910D0A91C43
:1050500000231A460F2B05D0531C8D1C0988814252
:105060002946F6D10F2A01D3002100E00121A94DE4
:105070000029DCD1A8480078401E0528D7D8C046B2
:105080007844007940008744021827465B69E7B2FC
:105090003846FFF71FFB00250028284603D19F480C
:1050A000005D411E88419D4908553846FFF712FBB7
:1050B000002828469A4A23D125E0E7B23846FFF770
:1050C00009FB00250028284603D19448005D411EB5
:1050D0008841924908550CE0E7B23846FFF7FAFAE2
:1050E0000025002828468D4A02D0105D411E8841C7
:1050F00010553846FFF7EEFA00282846884A02D1B4
:10510000105D411E884110553846FFF7E3FA00282C
:1051100084498AD086E7E7B23846FFF7DBFA0025F4
:10512000002828467D4A02D0105D411E8841105556
:105130003846FFF7CFFA00282846794A26D122E0E0
:10514000E7B23846FFF7C6FA002500282846734A1A
:1051500002D0105D411E884110550DE0E7B238467F
:10516000FFF7B8FA00250028284603D16B48005DF8
:10517000411E8841694908553846FFF7ABFA0028B7
:105180002846674A02D0105D411E884110553846B6
:10519000FFF7A0FA0028634900D046E742E70199EB
:1051A0004A1C062900D233E700245F4F5C4903E024
:1051B0007F1D641C222C23D05848005D002807D096
:1051C0002C805AA0FDF7CCFF3846FDF7C9FF5449A3
:1051D000085D002807D06C8057A0FDF7C1FF384656
:1051E000FDF7BEFF4E494F48005D0028E0D0AC807F
:1051F00054A0FDF7B5FF3846FDF7B2FF4849D7E7A1
:1052000022240127454821463A46FBF7B2F9444893
:1052100021463A46FBF7ADF9424821463F4C3A4613
:10522000FBF7A7F928880190002102E0491C2229F8
:1052300024D00A4632400A2A3B4616D08AB2019848
:105240009042029B11D0AB1C00252C460F2D05D09F
:10525000651C981C1B8893420346F6D10F2C01D382
:10526000002300E001232B4D2C4C002BDED000202E
:105270002B4A505460542B4A5054D7E7A988FF3921
:10528000484248416A88FF3A514251412A88FF2AE0
:10529000029A00D00A46002A029900D0B4E60146DC
:1052A000B2E62B48002505604560856029480078F6
:1052B00000282DD028A0FDF753FF164A908851886A
:1052C00012882B4B2E4602E0ED1C422D15D05F5D5F
:1052D000BA4204D0B94207D0B842F5D109E05C190E
:1052E000A478A619B942F7D15C19A478A619B842D6
:1052F000EAD15C19A478A619E6E7F0B2002804D038
:10530000032802D01B48FDF72BFF0020114908702D
:1053100003B0F0BD02060020820600202407002012
:10532000480700206C070020000000200D0A4841BB
:105330004C4C413A000000000D0A48414C4C423AA6
:10534000000000000D0A48414C4C433A00000000A8
:10535000342C0140210700200D0A446574656374F4
:10536000696F6E2073756365737366756C000000FA
:10537000605900085F640008B0B5164C2078FFF74C
:105380007FFB154D2978884207D02078FFF778FBFE
:10539000287012490870FFF733F84A201049095A5B
:1053A000104800684843104901258842294600DC1E
:1053B000002121707D21C90000F06AF8FBF701FD92
:1053C000EA079143FBF7B8FC084908604860886029
:1053D000B0BDC04600060020010600208206002065
:1053E0000206002034080020E7030000342C0140AE
:1053F00070B586B0144C2046FCF786FD0125680286
:105400002946FDF77BFA00260596A8020290202087
:105410000190A8040490009669462046FCF78CFD94
:1054200020462946FCF768FD0F21204632463346C8
:10543000FCF79AFD2846FCF7C3FD20462946FCF7F9
:10544000B5FD06B070BDC0460024014043088B4244
:105450001AD3002203098B4279D3030A8B425ED30D
:10546000030B8B4242D3030C8B4227D30902FF224A
:1054700012BA030C8B4202D31212090203D0030B9F
:105480008B4233D31AE0D3E0411A8041401C70476D
:1054900003460B4371D443088B42F5D30022030922
:1054A0008B4254D3030A8B4239D3030B8B421DD357
:1054B000030C8B4202D394466EE0090AC30B8B4265
:1054C00001D3CB03C01A5241830B8B4201D38B0310
:1054D000C01A5241430B8B4201D34B03C01A5241B5
:1054E000030B8B4201D30B03C01A5241C30A8B42F8
:1054F00001D3CB02C01A5241830A8B4201D38B02E3
:10550000C01A5241430A8B4201D34B02C01A524186
:10551000030A8B4201D30B02C01A5241CDD2C309F8
:105520008B4201D3CB01C01A524183098B4201D374
:105530008B01C01A524143098B4201D34B01C01A5F
:10554000524103098B4201D30B01C01A5241C308D7
:105550008B4201D3CB00C01A524183088B4201D346
:105560008B00C01A524143088B4201D34B00C01A32
:105570005241411A524110007047CA0F00D04942AF
:10558000031000D34042534000229C4603098B4243
:105590002DD3030A8B4212D38901FC2212BA030ACB
:1055A0008B420CD3890192118B4208D3890192114D
:1055B0008B4204D3890137D0921100E08909C309D5
:1055C0008B4201D3CB01C01A524183098B4201D3D4
:1055D0008B01C01A524143098B4201D34B01C01ABF
:1055E000524103098B4201D30B01C01A5241C30837
:1055F0008B4201D3CB00C01A524183088B4201D3A6
:105600008B00C01A5241D9D243088B4201D34B00C0
:10561000C01A5241411A00D2014652411046634617
:105620005B1000D34042704763465B1000D340429A
:1056300001B50021004201D0C9430846C046C0461A
:1056400002BDF8B5040C8BB2264682B25E4310460A
:1056500058430D0C370C3604002180191646794149
:105660006E43370C36048019264679416E438919FA
:10567000F8BD00004900CA020243100000D0042017
:105680004A0D01D001221043044A490D914201D133
:1056900002210843012800D105207047FF070000C0
:1056A00010B500F033F8EFF30080800001D5012041
:1056B00010BD002010BD10B500F052F8EFF30080CF
:1056C0004000800F012801D0012010BD002010BD36
:1056D00030380A2801D201207047002070470000AE
:1056E00010B500290AD00878002807D0054878446A
:1056F000FAF768FF002801D0002010BD0248784466
:1057000010BD0000AE0E0000A60E00000123DB0558
:1057100002000A430DD4DA4203D49A4207D48842E5
:105720007047D84214D4D94212D48842704780427C
:105730007047DA4203D59A42F9D5814270475B003F
:105740004200DA4204D24A00DA4201D28142704772
:1057500010B5024AFCF7D4FA10BD00BF09001304CB
:105760000123DB0502000A430DD4DA4203D49A4236
:1057700007D488427047D84214D4D94212D4884200
:10578000704780427047DA4203D59A42F9D5814288
:1057900070475B004200DA4204D24A00DA4201D28A
:1057A0008142704710B5024AFCF7AAFA10BD00BF4B
:1057B0000900160403B402487844844603BC6047D9
:1057C00005BBFFFF3031323334353637383941428B
:1057D0004344454640305800303132333435363753
:1057E00038396162636465664030780004000008FF
:1057F0000000000000000002000100001080807F17
:105800007E7D7C7B7A797877767675747372717128
:10581000706F6E6E6D6C6C6B6A6A696868676666DD
:10582000656464636362616160605F5F5E5E5D5D6D
:105830005C5C5B5B5A5A59595858575756565555E0
:10584000555454535352525251515050504F4F4F40
:105850004E4E4D4D4D4C4C4C4B4B4B4A4A4A494990
:1058600049484848474747474646464545454444D2
:1058700044444343434342424242414141000000C9
:1058800002400000000000A00000000005400000F1
:10589000000000C8000000000C4000000000409C18
:1058A00000000000194000000020BCBE0000000005
:1058B00034400000BFC91B8E00000004B54000004A
:1058C000504BCFD06607E2CF010000006C410000D2
:1058D0003E8251AADFEEA73401000000D942000049
:1058E000DCB5A0E23A301F97FFFFFFFFB445000090
:1058F000FD25A0C8E9A3C14FFFFFFFFFFF3F000048
:105900000000008000000000FF3F00000000008059
:105910000000000000000000010203040102030473
:105920000607080900000000010001000200020053
:105930000300030004000400050005000600060043
:10594000070007000D0008000E0009000F000A0004
:1059500017000B0000000000000305040102060010
:10596000000201010201020201050201080401090D
:1059700004010C02010E04011002011702011A06B3
:10598000011B06011C06010601000701000D0100B4
:105990001101001201001506001606002105000085
:1059A00000000100010000000100020001000100F0
:1059B00004000200010008000300010010000400C0
:1059C00001002000050001004000060001008000E9
:1059D0000700010000080B00010000100C0001008E
:1059E00000200D00010000400E00010000800F00AB
:1059F0000200010000000200020001000200040099
:105A0000020002000800030002001000040002006F
:105A10002000050002004000060002008000070090
:105A20000200000108000200000209000200000458
:105A30000A00020000080B00020000100C00030026
:105A400000200D00030000400E00030000800F0046
:105A50000400010000000400020001000400040032
:105A600002000400080003000400800007000D0A83
:105A70000A5468697320746F6F6C20616C6C6F7767
:105A800020796F7520746F206D6F6469667920616D
:105A90006E64207669657720616C6C207361766531
:105AA000642070696E6F75747320616E6420736515
:105AB0007474696E67730A0D0A0D55736167653AF0
:105AC00020205B636F6D6D616E645D203C6164647A
:105AD000726573733E203C76616C75653E0A0D0AF3
