:020000040800F2
:1000000068080020650100089101000893010008BC
:1000100000000000000000000000000000000000E0
:100020000000000000000000000000009501000832
:10003000000000000000000097010008010B00080C
:100040009B0100089B0100089B0100089B01000820
:100050009B0100089B0100089B0100089B01000810
:100060009B0100089B010008C90500089B010008CE
:100070005D030008DD0C00089B010008A50D0008C9
:100080009B01000800000000000000009B01000828
:10009000000000009B0100089B0100089B01000874
:1000A000000000009B0100089B0100089B01000864
:1000B0009B010008000000009B01000800000000F8
:1000C00000F002F800F03EF80CA030C80838241800
:1000D0002D18671EA246AB4654465D46AC4201D180
:1000E00000F030F87E460F3EB6460FCC0126334274
:1000F00000D0FB1A3343A246AB461847081D000048
:10010000281D0000103A02D378C878C1FAD85207E7
:1001100001D330C830C101D504680C6070470000BD
:100120000023002400250026103A01D378C1FBD813
:10013000520700D330C100D50B6070471FB51FBDFB
:1001400010B510BD00F0D6F81146FFF7F7FF01F02B
:10015000B1FB00F0EEF803B4FFF7F2FF03BC00F0D0
:10016000F5F80000104880F3088810481049016035
:1001700010480168090E104A914205D10F480C49F8
:1001800001600F480F4901600F4880470F48004742
:10019000FEE7FEE7FEE7FEE7FEE7FEE70C480D4957
:1001A0000D4A0E4B70470000680800206020024096
:1001B00001000000040000001F00000018100240B1
:1001C00000000140000000001D0B0008C1000008F5
:1001D00068020020680800206804002068040020ED
:1001E000704770477047000030B50346CA02400DA3
:1001F0001043164D164C0A1502D02043002A06DB88
:10020000AA1A002A12DDD040FF2A0BDC30BD5205AD
:10021000520D01D140004008AA1A07D4D0404042F4
:10022000FF2A01DD002030BD0028FCDD4A00002B44
:1002300001D0012000E00020101801225205D04218
:10024000F0D8C817C043604030BD00001E04000055
:10025000000000800346CA02400D10B510430A1585
:1002600004D00124E4072043002A05DB0A4CA21A2B
:1002700004D4D040FF2A00DD002010BD4A00002B2E
:1002800001D0012000E00020101801225205D042C8
:10029000F2D8C817C04310BD1E0400001F22030C73
:1002A00002D10F22000402D0030E03D004E000208C
:1002B000014670470002083A030F01D10001121FE6
:1002C000830F01D18000921E002801DB4000521EE6
:1002D000120551184205C012411810467047C10F4F
:1002E000C90700D04042012292071143D6E70121FD
:1002F0008907D3E7754600F025F8AE460500694644
:100300005346C008C000854618B020B5FFF746FF29
:1003100060BCB64600260027C0C5C0C5C0C5C0C564
:10032000C0C5C0C5C0C5C0C5403D490849008D46CF
:10033000704710B50446C046C0462046FFF70BFF85
:1003400010BD000000487047280000200149182017
:10035000ABBEFEE72600020070470000B0B5144DAA
:1003600001242846214600F04BF800281FD02846DB
:10037000214600F02DF8286A0E490860286B0E49C6
:100380000C700E4908600E4C207801F01FFA0D4DDC
:100390002978884207D0207801F018FA28700A4995
:1003A000087001F08DF809480168491C0160B0BD72
:1003B000002401405C02002087010020240200206C
:1003C000040000200500002010000020340200205E
:1003D000012900D0022142690A43426170474A1E46
:1003E0009141426801239A435118416070474A1E67
:1003F00091418900826804239A43511881607047B3
:10040000491E4A1E91414269CA400120104070476E
:100410008368012905D10121002A05D00B4383609F
:1004200070470221002AF9D18B4383607047000096
:1004300042680B4B134043604A680B6813434268A1
:100440001A4342608268074B134083600A694B6914
:1004500013438968194382680A4382607047C04623
:100460000FBCFFFF8FF1F9FF10B50F229202446815
:1004700094434460102B00D29B0242681A434260AE
:1004800001228A40C3689343C360C3681343C360B7
:100490000804800F04D0034801680C220A4302605C
:1004A00010BDC046042401404A1E914109020122A8
:1004B000120283689343591881607047F0B581B088
:1004C0000925EC06082102262046324600F06FF985
:1004D00020462946324600F06AF90A212046324673
:1004E00000F065F91D4D0D212846324600F05FF9F8
:1004F0000E212846324600F05AF90F21284632468E
:1005000000F055F96E46304600F066F91448009048
:100510002046314600F003F901277802308020465A
:10052000314600F0FCF8B80230802046314600F039
:10053000F6F8780330802846314600F0F0F8B8032A
:1005400030802846314600F0EAF8F803308028462B
:10055000314600F0E4F801B0F0BDC04600040048A8
:100560000001031810B50E4800687D21C90001F094
:1005700049FB411E080E00D0FEE70A480A4A5160B6
:100580000A490B6803400324A4071B190B600023CE
:100590009360072313600A6802400A6010BDC046DA
:1005A00000000020FFFFFF0010E000E020ED00E071
:1005B00081B0009003480099016001680029FCD1D6
:1005C00001B070475402002010B50124600200F011
:1005D0002BF8002804D0200200F004F801F03EFAC5
:1005E00010BD00000F4908607047C0460268012333
:1005F0009A430A430260704780B501680122914323
:1006000001600021016041608160C160C0B20838B2
:10061000052101F0F7FA0F218140024802680A43E0
:10062000026080BD04000240024909680840411E82
:100630008841704700000240002A03D002680A4344
:100640000260704702688A4302607047B0B5114A81
:1006500014461034036823400C7A8D7D25430C7CAE
:100660002C434D7C25434C8A2C438D8A25430C8B8F
:100670002C434D8B2543ACB21C43046003681340EC
:100680008A8B1A430260CA6842600A6882604968BD
:10069000C160B0BDFF7FFFFFF0B58BB0019317467F
:1006A0000291044601252846294600F059F92046C2
:1006B000FFF7A2FF03AE304600F026F80020B0831B
:1006C0002021B175B08230720990E803079001983B
:1006D000069004970298039020463146FFF7B6FF34
:1006E0000226204631462A46FFF7A6FF0548314636
:1006F0002A4600F021FE20462946FFF777FF0BB07F
:10070000F0BDC04600380140002181838161017243
:1007100001604160C1600161818281757047F0B5FF
:1007200083B0CB780F221C4602921440DD06019361
:1007300001D58D782C4300910A880026374603E0C6
:10074000361D7F1C082F0CD01546FD40ED07F7D055
:100750002546B540029BB340016899432943016097
:10076000EEE70099098800910D0A0026374603E05C
:10077000361D7F1C082F0CD02946F940C907F7D039
:100780002146B140029BB34042689A430A4342600B
:10079000EEE70199482903D0282906D1143000E05A
:1007A00010300168009A1143016003B0F0BDB0B58C
:1007B000082901D3242300E02023C4584907C90E87
:1007C0000F258D40AC438A402243C250B0BD8068A3
:1007D0000840411E8841704702494180024901801A
:1007E0007047C04602040000FFFF0000002A02D04C
:1007F00010228150704714228150704770B582B02A
:10080000134C0D21062520462A46FFF7D0FF0E2166
:1008100020462A46FFF7CBFF0F2120462A46FFF746
:10082000C6FF0C48019001AD20462946FFF777FF2F
:100830000126B003288020462946FFF770FFF00309
:10084000288020462946FFF76AFF02B070BDC046E7
:100850000008004800200304014802490160704775
:1008600000300040AAAA000080B582B001AA01238E
:10087000937051701070104600F002F802B080BD05
:1008800070B501788278002A15D0FC220A400D4B01
:10089000D4588D07ED0EFF26AE40B443407880015A
:1008A000C0B2A8402043D0501F2008400121814001
:1008B0000548016070BD1F200140012088400349A8
:1008C000086070BD00E400E000E100E080E100E0CD
:1008D00010B50246124B002018601F48006801281E
:1008E000044603DB1D4C2468002C00D41C60511A04
:1008F0000C4A146811600A1B192424015443C900CE
:100900001A6851180919154A136899420A4602DDF6
:10091000814203DD10BD1A468142FBDC104610BD4A
:10092000400200202C0200200A490A6813180B60BC
:1009300009480268934210460ADC0848026893425C
:10094000184602DD934203DB704710469342FBDA00
:100950000A60704738020020080000200C000020C8
:10096000054A002903D011680143116070471168DE
:10097000814311607047C04614100240054A0029A7
:1009800003D0116801431160704711688143116001
:100990007047C0461C100240054A002903D0116868
:1009A0000143116070471168814311607047C04670
:1009B00018100240154908680C2202400C2A01D088
:1009C000C54800E012480A681206120F114B9A5CE3
:1009D000D04009684905490F595CC8407047C04676
:1009E0000A4908680C2202400C2A01D0BA4800E0EB
:1009F00007480A681206120F064B9A5CD040096835
:100A00008904490F595CC8407047C0460410024031
:100A1000409C000011000020F0B585B0304800680F
:100A2000F2490968081A01AC2E49884202D32E48BF
:100A3000002101602D48007800284FD0E61C0934C1
:100A400001A8012585702A490180EA4800682070C4
:100A500025490988642779433171264A12880A2377
:100A600053433370020EE270020CA270000A6070F1
:100A7000080A7071180A70701F480068FFF72FFC91
:100A8000EA079143FFF7B0FBC117090D4018000BAF
:100A90007843B070000AF070002118480B4602E05D
:100AA000531C0C2A10D01A4601AB9B5C1B02594008
:100AB000082303E029465B1E1D06F1D04D0009B254
:100AC0000029F7D54540F5E72171080A607101A8B2
:100AD0000F2100F015FC00200449087005B0F0BD9E
:100AE0001C020020E9030000580200200802002038
:100AF000CDAB0000100200203C02002021100000BD
:100B000005480168002902D00168491E0160B74804
:100B10000168491C0160704754020020F0B58BB099
:100B2000644F386801221043386078686249014098
:100B300079603868614901403960900439688143BF
:100B40003960C320000479688143796038685C4962
:100B5000014039609F200004B86000200A90039093
:100B600009901404386820433860029250043968B0
:100B7000014009910A99491C0A910999002904D157
:100B8000052109020A9A8A42F1D13968014201D14C
:100B9000002000E0029809900998012800D087E021
:100BA000484D49482860494E306810210143316062
:100BB00030680721884330602868401E444901F0AE
:100BC00021F831680143316078687860786878602E
:100BD0000298800279680143796003200190000443
:100BE00079688143796038683A49084038607868A4
:100BF000204378602B68039801461F4606460491FF
:100C0000701C0590344D039C06E033496D18641C3C
:100C1000002F079206901ED0402C18D00897374618
:100C2000284605991E4600F0EDFF3346311A00D2E2
:100C3000C11A3E46089F8F42304600D806988F4220
:100C4000224600D8079A8F42DFD30F46DDE704998A
:100C5000002906D009E00027079206900299002992
:100C600003D1059804280646C9D1124A10681949CB
:100C700008401060079880060699C9B2090501432B
:100C800010680843106001200006116801431160DC
:100C900010688001FCD55068019988435060506805
:100CA00002210143516050680C2101400829FAD10A
:100CB0000BB0F0BD001002400CC0FFF8FFFFF6FEC5
:100CC000FFFF8F000000002000D8B8050020024080
:100CD00000366E01FFFF0F0000127A0080B5EA486F
:100CE000202100F002F980BDF0B58DB00E460190D4
:100CF0002948401C01242146FFF74EFE0AAF384622
:100D000000F0B0FA0025BD723D813E80BD700198B3
:100D10000B90DD48394600F063FA06AE304600F02D
:100D200011FA6002B0812002708175720421B170E5
:100D3000308019480790D44D2846314600F078F9A4
:100D40002846314600F0A2F92846314600F0CCF999
:100D50002846214600F0AFF820212846224600F020
:100D60005CF92846214600F0CCF802AE304600F08F
:100D700099F8A003B0810948049009480290200422
:100D800003902846314600F07EF82846214600F0C0
:100D9000B0F80DB0F0BDC046FF0700000010002005
:100DA0000008000880B50D4801680D4800F04CFFB0
:100DB0000C4908600C4A1278002A01D0012003E097
:100DC000404208600020C04308490968084A116091
:100DD00008490A681018086080BDC0463400004009
:100DE000803801004402002004000020340200206A
:100DF0002802002014020020F0B587B00D460090B4
:100E00000126304631460196FFF7B8FD04AF38465B
:100E100000F028FA0024BC723C813D80BC70009830
:100E20000590B5072846394600F0DAF902AE30469B
:100E300000F0EDF8B480852040020290284631464B
:100E400000F06CF802212846019C224600F0E5F8EB
:100E50002846214600F07DF904262846314600F058
:100E600009FA4021284600F07DF92846314600F075
:100E7000B1F98021284600F07BF92846214600F090
:100E800038F807B0F0BD0A884B8813438A881A43A4
:100E9000CB8813430A891A434B8913438989194321
:100EA000416470470021818141810181C18081803D
:100EB0004180018070474A1E9141426801239A4354
:100EC0005118416070478A4001238B40016A994361
:100ED0001143016270470C2906D08A4004238B40DD
:100EE000016A994311430162704702698A430261B2
:100EF00070474A1E9141026801239A4351180160CC
:100F000070474A1E9141C9030122D203436C9343A7
:100F1000591841647047416170470000B0B50B78C3
:100F20000222D341032B71D87B441B795B009F4481
:100F3000011835508369F324A3438C788D882D01E3
:100F400025431D438561036A93434A781A4301236D
:100F50001343036282690C239A43C9781143816168
:100F6000B0BDF3221202836993438A7812028C88FF
:100F7000240314431C438461026A20239A434B7860
:100F80001B01134310221A43026203229202836957
:100F90009343C978090219438161B0BDC269F32343
:100FA0009A438B788C8824011C431443C461032228
:100FB0001202036A93434A7812021A4301231B0266
:100FC00013430362C2690C239A43C9781143C16178
:100FD000B0BDF3221202C36993438A7812028C884F
:100FE000240314431C43C46103221303046A9C4377
:100FF0004B781B032343012424031C430462920205
:10100000C3699343C97809021943C161B0BD002186
:1010100081800122428001807047002A03D0C2688B
:101020000A43C2607047C2688A43C26070470000CA
:10103000B0B5826970239A430B78134383610A7AAF
:101040004B781343046A032294431C4304624B68A5
:101050004363824B984205D07E4B984202D07E4B30
:1010600098420FD14B7A8C781C43036A0C25AB4312
:10107000234303624B8989891943120243689343CE
:101080000B434360B0BDC046002C0140B0B5072201
:101090001203836993430A7812021A438261026A37
:1010A00030239A430B7A4C781C4323011343036289
:1010B0004A688263224A131F984200D0B0BD036A77
:1010C000C024A3434C7A8D7825432C011C43046231
:1010D000032080021368834348898989014388007B
:1010E00018431060B0BDC04670B5C26970239A4302
:1010F0000B781343C36103221302046A9C430B7AE7
:101100004D781D432B02234303624B68C3630C4B92
:101110001C1FA04200D070BD9402056AA5434C7A02
:101120008E78264334022C43046210031A688243EB
:1011300048898989014308011043186070BDC04681
:10114000042C014000218170018041608160818117
:1011500070474A1E9141C901426880239A43511841
:1011600041607047826870239A430A4382607047E7
:10117000826880239A430A438260704710B5012336
:101180008B40046A9C4304620223D941032920D87E
:101190007944097949008F4401070F15816970234B
:1011A00099431143816110BD0721090383698B4372
:1011B00011021943816110BDC16970239943114324
:1011C000C16110BD07210903C3698B431102194393
:1011D000C16110BD826807239A430A438260704749
:1011E00003221202036893430A891A430260184AD1
:1011F000904209DD174A90421CD0174A904219D0FC
:10120000164A904207D01BE001229207904202D07A
:10121000134A904214D1026870239A438B78134387
:1012200003600E4A904205D00A4A904202D00A4A10
:10123000904205D1026BFF239A438B7AD218026346
:101240004A68C26209888162012141617047C046D3
:10125000FF2B01400048014000440140002C0140A8
:101260000004004000210181018081728170C94326
:1012700041607047026804239A430A430260704742
:10128000F0B585B006460124A0032146FFF784FB94
:101290006F46384600F09BF800253D733D72BD71E6
:1012A00030203871182078810096464E30463946F5
:1012B00000F04EF83046214600F038F86C4C06211C
:1012C00020462A46FFF773FA0425032220462946C2
:1012D000FFF76DFA04AE3046FFF77EFA0748049038
:1012E00020463146FFF71BFAF5701020308020466B
:1012F0003146FFF714FA05B0F0BDC04640000318B0
:1013000070B5002910D00C4605462E4E297830467F
:1013100000F05AF8641E0121304600F014F800284D
:10132000F9D06D1C2004F1D170BDC0468269012343
:101330009A430A43826170478169022399435200AC
:101340000A438261704780680840411E88417047A7
:1013500070B50D460446C0693021884329790143A0
:10136000E161E06944218843A9790143E161E069D1
:1013700003218843297A0143E161A0691821884348
:1013800069890143A161A06904218843297B014344
:10139000A1610C48844203D0FFF70CFB064602E033
:1013A000FFF71EFB06462968304600F02BFC0009BB
:1013B00020622968304600F025FC0F21014061625F
:1013C00070BDC04600380140C9B2016070470021BD
:1013D00001731822428101728171302101714B2108
:1013E000C901016070470000F0B587B06D4628461E
:1013F000FFF7F2F90124670238462146FFF7CCFADD
:101400001A4800901A482946FFF789F98020288059
:101410000920C0062946FFF782F9002606960397A1
:1014200020200290A00405900196124D01A92846A3
:10143000FEF7FEFF28462146FEF7D9FF2846214643
:10144000FEF7CDFFA7020221284632463B46FFF7B2
:101450000BF80621284622463B46FFF705F82846AA
:1014600021462246FEF7D4FF07B0F0BD020003007C
:101470000004004800240140B0B50C480178202940
:1014800001D30021017001788A00094B9C58094D55
:101490002D689D50491C0170074801686918091B97
:1014A0000160481105490860B0BDC0462002002017
:1014B00088010020440200200C02002010020020BD
:1014C000F0B581B0A4480078401EA44C052839D856
:1014D0004000C0467844808840008744050055009D
:1014E0008200AF00DD000A01042500950026204699
:1014F00029463246FFF7E7FC204629463246FFF7E9
:10150000EAFC6027204631463A46FFF737FE0122C3
:1015100020463146FFF7D7FC204631463246FFF7DA
:10152000DAFC0825204629463A46FFF727FE2046E2
:1015300029463246FFF7C7FC20462946009AFFF7A6
:10154000CAFC02E10025204629462A46FFF7BBFCDB
:10155000204629462A46FFF7BEFC0426204631468F
:101560002A46FFF7B0FC204631462A46FFF7B3FC77
:101570000826204631462A46FFF7A5FC204631467C
:101580002A46FFF7A8FCE0E00025204629462A4627
:10159000FFF799FC204629462A46FFF79CFC0426C3
:1015A0006022009220463146FFF7E8FD01222046E6
:1015B0003146FFF788FC204631462A46FFF78BFC70
:1015C000082720463946009AFFF7D8FD20463946BD
:1015D0002A46FFF778FC204639463246FFF77BFC67
:1015E000B3E008260025204631462A46FFF76BFC6B
:1015F000204631462A46FFF76EFC04266027204627
:1016000031463A46FFF7BAFD012220463146FFF740
:101610005AFC204631462A46FFF75DFC2046294603
:101620003A46FFF7ABFD204629462A46FFF74BFC1A
:10163000204629463246FFF74EFC86E004250095F9
:101640000026204629463246FFF73DFC2046294623
:101650003246FFF740FC08256027204629463A46D7
:10166000FFF78CFD012220462946FFF72CFC20467F
:1016700029463246FFF72FFC204631463A46FFF70F
:101680007DFD204631463246FFF71DFC204631469F
:10169000009AFFF720FC58E00025204629462A46FC
:1016A000FFF711FC204629462A46FFF714FC0827BD
:1016B0006026204639463246FFF760FD012220466B
:1016C0003946FFF700FC204639462A46FFF703FC5F
:1016D0000427204639463246FFF750FD204639465A
:1016E0002A46FFF7F0FB204639463A46FFF7F3FB60
:1016F0002BE008260025204631462A46FFF7E3FB6B
:10170000204631462A46FFF7E6FB6026204629465A
:101710003246FFF733FD012220462946FFF7D3FB6F
:10172000204629462A46FFF7D6FB0427204639469D
:101730003246FFF723FD204639462A46FFF7C3FB12
:10174000204639463A46FFF7C6FB20212046FFF7E0
:10175000E2FB01B0F0BDC04610000020002C0140AB
:1017600010B582B001AB0124DC709A70597018700A
:10177000184600F003F802B010BD000070B5017803
:10178000C278002A15D0FC220A400D4BD4588D0790
:10179000ED0EFF26AE40B44380788001C0B2A84071
:1017A0002043D0501F20084001218140054801609E
:1017B00070BD1F200140012088400349086070BDB2
:1017C00000E400E000E100E080E100E0F0B581B07D
:1017D0000646012569039E4F3846FEF7F8FF009044
:1017E000A9033846FEF7F3FF0446E9033846FEF73F
:1017F000EEFF012E09D1611E8C416100009A8A180A
:10180000411E8841810011430DE00099002903D158
:101810000721002C03D103E00621002C00D0FE316B
:10182000002800D0FC31C8B20149085C01B0F0BD0D
:10183000FA1D0008F0B581B0012460042146FFF7CD
:101840008FF8A0042146FFF78BF8E0042146FFF74C
:1018500087F820052146FFF783F8154800900920F6
:10186000C0066D462946FEF75AFF04272F80794EA1
:1018700030462946FEF753FF082028803046294687
:10188000FEF74DFF2F80704E30462946FEF747FF8A
:10189000EF702020288030462946FEF740FF600286
:1018A000288030462946FEF73AFF01B0F0BDC04619
:1018B0000010031082B0FFF7BDFFFEF79FFFA7489F
:1018C0006421FFF799FAFEF7F9FD5C4800242146F0
:1018D000FFF70AFAFEF746FE0D2001252946FEF71E
:1018E000C3FF0F202946FEF7BFFFFFF77DFD0C2049
:1018F00021462A46FFF734FF4B200002FFF7C0FCC9
:101900000A2021462246FFF72BFF4D484D49904AB9
:101910002B46FEF7C1FEB948046044600194846020
:10192000494C042120462A46FEF760FF202120462C
:10193000FEF74DFF6F02002818D0012520463946DA
:101940002A46FEF753FF2846FEF732FE00222046C5
:101950003946FEF74BFF2846FEF72AFEFEF77CFFCE
:1019600020212046FEF733FF0028E6D10520FEF7B0
:101970001FFE364801252946FEF796FD344E6903C1
:101980003046FEF724FF02460920C0062B49491CB9
:10199000FEF72CFFA9033046FEF719FF024604218B
:1019A0002C4C2046FEF722FFE9033046FEF70FFFDE
:1019B000024608212046FEF719FF274800688A4999
:1019C0000968081A0B2805D300F0D4F88648006887
:1019D0002149086020211C4C2046FEF7F8FE002813
:1019E00002D1FEF739FFCAE70198844908604860D0
:1019F00088600326012220463946FEF7F7FE0A25B5
:101A00002846FEF7D5FD002220463946FEF7EEFEB9
:101A10002846FEF7CDFD761EECD102E000BFFEF7B2
:101A20001BFF20212046FEF7D2FE0028F6D104211C
:101A300000222046FEF7DAFEFEE7C046FF0F000058
:101A400030000240043801400004004800240140F6
:101A500000080048000C004830020020F0B50022C9
:101A60003A49885E3A4B1B78002803D52F2B6CD15E
:101A7000002008800C8825B236484355631C0B8033
:101A8000002C62D09CB2022C0DD1324840783649ED
:101A90000870022834D001282ED0002855D12E48B5
:101AA00008210170F0BD1CB22B4B1B789C424CDB13
:101AB0002A4D0D8021188C1E2478491E09780902B0
:101AC0000919032B21D31A18D21E0024244B0646D1
:101AD00002E06E1C954217D03546367836027440C7
:101AE000082603E03C46761E3706F2D0670024B293
:101AF000002CF7D55F40F5E717480B210170F0BDCA
:101B000015480A210170F0BDA2B291421DD1817821
:101B100001291AD134490968124A1160124B1B7805
:101B2000002B03D0012B0CD1C31D00E0431D1B78FB
:101B30000E4C23700423C3561B02C07818182D4B7B
:101B4000186011600A4801210170F0BD18020020E0
:101B500048020020880000201A020020FFFF000039
:101B6000211000001C0200201B0200206002002047
:101B700008020020B0B5FEF74FFFFFF77DFC1948C3
:101B8000006819490968081AFF21F631884204D310
:101B90001648002101601648016014480168154D7F
:101BA0002868FEF795FE322100F04EF8FEF7BCFEE5
:101BB00004462868002800D104460F4804602046E7
:101BC000FEF78DFB0125EA079143FEF743FB0B4926
:101BD00008604860002C00DC0025094A1570886008
:101BE000B0BDC046280200203402002010020020B0
:101BF00044020020580200203C020020342C014006
:101C00000400002043088B421AD3002203098B42B0
:101C100079D3030A8B425ED3030B8B4242D3030C6E
:101C20008B4227D30902FF2212BA030C8B4202D344
:101C30001212090203D0030B8B4233D31AE0D3E014
:101C4000411A8041401C704703460B4371D443083E
:101C50008B42F5D3002203098B4254D3030A8B42F3
:101C600039D3030B8B421DD3030C8B4202D3944612
:101C70006EE0090AC30B8B4201D3CB03C01A524159
:101C8000830B8B4201D38B03C01A5241430B8B420F
:101C900001D34B03C01A5241030B8B4201D30B03F8
:101CA000C01A5241C30A8B4201D3CB02C01A52411F
:101CB000830A8B4201D38B02C01A5241430A8B42E2
:101CC00001D34B02C01A5241030A8B4201D30B02CB
:101CD000C01A5241CDD2C3098B4201D3CB01C01AE5
:101CE000524183098B4201D38B01C01A52414309EF
:101CF0008B4201D34B01C01A524103098B4201D3DD
:101D00000B01C01A5241C3088B4201D3CB00C01A49
:101D1000524183088B4201D38B00C01A52414308C1
:101D20008B4201D34B00C01A5241411A524110005C
:101D30007047CA0F00D04942031000D340425340BD
:101D400000229C4603098B422DD3030A8B4212D3F7
:101D50008901FC2212BA030A8B420CD38901921129
:101D60008B4208D3890192118B4204D3890137D069
:101D7000921100E08909C3098B4201D3CB01C01A3B
:101D8000524183098B4201D38B01C01A524143094E
:101D90008B4201D34B01C01A524103098B4201D33C
:101DA0000B01C01A5241C3088B4201D3CB00C01AA9
:101DB000524183088B4201D38B00C01A5241D9D2C1
:101DC00043088B4201D34B00C01A5241411A00D242
:101DD00001465241104663465B1000D340427047B3
:101DE00063465B1000D3404201B50021004201D0A0
:101DF000C9430846C046C04602BD000305040102AF
:101E000006000000281E0008000000202800000036
:101E100004010008501E00082800002040080000AF
:101E2000200100080000000000D8B80501010000F2
:101E3000FF0F000001F0FFFF01000000000102039E
:101E40000401020304060708090000000000000066
:04000005080000C12E
:00000001FF
