:020000040800F2
:10000000B006002075010008A1010008A301000846
:1000100000000000000000000000000000000000E0
:10002000000000000000000000000000A501000822
:100030000000000000000000A7010008350B0008C8
:10004000AB010008AB010008AB010008AB010008E0
:10005000AB010008AB010008AB010008AB010008D0
:10006000AB010008AB01000871070008AB010008F4
:1000700011050008150D0008AB010008DD0D000892
:10008000AB0100080000000000000000AB01000808
:1000900000000000AB010008AB010008AB01000844
:1000A00000000000AB010008AB010008AB01000834
:1000B000AB01000800000000AB01000800000000D8
:1000C00000F002F800F046F80CA030C808382418F8
:1000D0002D18671EA246AB4654465D46AC4201D180
:1000E00000F038F87E460F3EB6460FCC012633426C
:1000F00000D0FB1A3343A246AB461847D81B00007A
:10010000F81B0000103A02D378C878C1FAD8520719
:1001100001D330C830C101D504680C6070470000BD
:100120000023002400250026103A01D378C1FBD813
:10013000520700D330C100D50B60704710B5692954
:1001400002D100F09FF810BD002010BD1FB51FBDEB
:1001500010B510BD00F0A9F91146FFF7F7FF01F047
:100160007DFB00F0C1F903B4FFF7F2FF03BC00F020
:10017000C7F90000104880F3088810481049016052
:1001800010480168090E104A914205D10F480C49E8
:1001900001600F480F4901600F4880470F48004732
:1001A000FEE7FEE7FEE7FEE7FEE7FEE70C480D4947
:1001B0000D4A0E4B70470000B00600206020024040
:1001C00001000000040000001F00000018100240A1
:1001D0000000014000000000550B0008C1000008AD
:1001E000B0000020B0060020B0020020B0020020C5
:1001F0000FB41CB5074B06AA7B44694600900598CE
:1002000000F027F90020694600F036F91CBC08BC54
:1002100004B018477D020000F8B50E4604460020E1
:1002200020622046E1688847002829D0252802D08E
:100230006268A16820E0E168204600278847050041
:100240001ED028464138192802D80127FF02203540
:100250003246204627602946FFF770FF002808D065
:10026000012804D0F61DF608F6000836D9E7361D39
:10027000D7E762682846A1689047206A401CCFE70C
:10028000206AF8BDF7B5002575291068009914A6F5
:1002900011D0C046C046002802DA404211A608E04C
:1002A000009909688A0701D50FA602E0490704D51D
:1002B0000EA6012501E0C046C046009F0024243759
:1002C00004E000F0DEF830313955641C0028F8D124
:1002D0002B4632462146009800F05EF8FEBD000035
:1002E000000000002D0000002B0000002000000096
:1002F00070477047704700000346CA02400D10B5B2
:1003000010430A1504D00124E4072043002A05DB2A
:100310000A4CA21A04D4D040FF2A00DD002010BDF0
:100320004A00002B01D0012000E00020101801221B
:100330005205D042F2D8C817C04310BD1E040000B9
:100340001F22030C02D10F22000402D0030E03D09F
:1003500004E00020014670470002083A030F01D173
:100360000001121F830F01D18000921E002801DBC3
:100370004000521E120551184205C0124118104685
:100380007047C10FC90700D04042012292071143B4
:10039000D6E701218907D3E7FFB504460D4681B0B2
:1003A000243000902168880604D51022E06991432A
:1003B000216000E00120A84201DD471B00E000278A
:1003C0000498A1697A191018081AA0612078C0064B
:1003D00002D42046C046C046002608E00398626862
:1003E000A168805D9047206A401C761C20620498BA
:1003F0008642F3DB2078C0060AD52046C046C046B8
:1004000006E06268A16830209047206A401C2062A4
:1004100038467F1E0028F4DC07E000986268A16877
:10042000405D9047206A401C206228466D1E0028CF
:10043000F3DC2046C046C0462078000602D50220E4
:1004400005B0F0BD0120FBE701694A1C0261087894
:10045000704700B58FB002910021059105490193C5
:1004600079440391114604906846FFF7D5FE0FB01A
:1004700000BD0000E5FFFFFF0A681070521C0A6013
:10048000704701468008081A02091018020A10185D
:10049000020C1018C008820012185200891A01E0DC
:1004A000401C0A390A29FBD27047754600F024F82F
:1004B000AE46050069465346C008C000854618B0E0
:1004C00020B5FFF773FE60BCB64600260027C0C506
:1004D000C0C5C0C5C0C5C0C5C0C5C0C5C0C5403DFC
:1004E000490849008D46704710B50446C046C046CD
:1004F0002046FFF738FE10BD00487047200000205E
:1005000001491820ABBEFEE726000200704700003C
:10051000B0B5124D01242846214600F045F80028C8
:100520001BD02846214600F027F8286A0C490860AD
:10053000286B0C490C700C4908600C4C207801F0B9
:1005400019F90B4D2978884207D0207801F012F96B
:1005500028700849087000F087FFB0BD00240140F2
:10056000A80000208000002084000020040000205B
:100570000500002006000020012900D00221426968
:100580000A43426170474A1E9141426801239A43DF
:100590005118416070474A1E9141890082680423C6
:1005A0009A43511881607047491E4A1E9141426921
:1005B000CA400120104070478368012905D10121FC
:1005C000002A05D00B43836070470221002AF9D12D
:1005D0008B4383607047000042680B4B13404360BD
:1005E0004A680B68134342681A4342608268074BAB
:1005F000134083600A694B69134389681943826811
:100600000A4382607047C0460FBCFFFF8FF1F9FFBD
:1006100010B50F229202446894434460102B00D21C
:100620009B0242681A43426001228A40C368934396
:10063000C360C3681343C3600804800F04D0034839
:1006400001680C220A43026010BDC0460424014028
:100650004A1E9141090201221202836893435918EC
:1006600081607047F0B581B00925EC0608210226AB
:100670002046324600F071F920462946324600F005
:100680006CF90A212046324600F067F91D4D0D2114
:100690002846324600F061F90E212846324600F025
:1006A0005CF90F212846324600F057F96E46304675
:1006B00000F068F9144800902046314600F005F932
:1006C0000127780230802046314600F0FEF8B8025B
:1006D00030802046314600F0F8F878033080284614
:1006E000314600F0F2F8B80330802846314600F079
:1006F000ECF8F80330802846314600F0E6F801B007
:10070000F0BDC046000400480001031810B50E48B3
:1007100000687D21C90001F0DDF9411E080E00D0FE
:10072000FEE70A480A4A51600A490B68034003245D
:10073000A4071B190B6000239360072313600A684A
:1007400002400A6010BDC04600000020FFFFFF000D
:1007500010E000E020ED00E081B000900348009937
:10076000016001680029FCD101B070479C000020A5
:1007700010B50124600200F02DF8002804D02002FA
:1007800000F006F80148047010BDC046A400002027
:100790000F4908607047C046026801239A430A4324
:1007A0000260704780B50168012291430160002119
:1007B000016041608160C160C0B20838052101F06C
:1007C00089F90F218140024802680A43026080BD16
:1007D00004000240024909680840411E88417047F0
:1007E00000000240002A03D002680A4302607047FA
:1007F00002688A4302607047B0B5114A144610344B
:10080000036823400C7A8D7D25430C7C2C434D7C62
:1008100025434C8A2C438D8A25430C8B2C434D8BCE
:100820002543ACB21C430460036813408A8B1A430F
:100830000260CA6842600A6882604968C160B0BDEF
:10084000FF7FFFFFF0B58BB001931746029104467E
:1008500001252846294600F011F92046FFF7A2FF9E
:1008600003AE304600F026F80020B0832021B17599
:10087000B08230720990E8030790019806900497BF
:100880000298039020463146FFF7B6FF0226204625
:1008900031462A46FFF7A6FF054831462A4600F0B2
:1008A00047FD20462946FFF777FF0BB0F0BDC04655
:1008B0000038014000218183816101720160416043
:1008C000C1600161818281757047F0B583B0CB78DA
:1008D0000F221C4602921440DD06019301D58D784B
:1008E0002C4300910A880026374603E0361D7F1C02
:1008F000082F0CD01546FD40ED07F7D02546B54032
:10090000029BB3400168994329430160EEE70099D7
:10091000098800910D0A0026374603E0361D7F1C2A
:10092000082F0CD02946F940C907F7D02146B1401D
:10093000029BB34042689A430A434260EEE7019942
:10094000482903D0282906D1143000E0103001686E
:10095000009A1143016003B0F0BDB0B5082901D37E
:10096000242300E02023C4584907C90E0F258D40D9
:10097000AC438A402243C250B0BD80680840411E4B
:100980008841704702494180024901807047C04652
:1009900002040000FFFF0000002A02D01022815054
:1009A000704714228150704770B582B0134C0D21EE
:1009B000062520462A46FFF7D0FF0E2120462A466C
:1009C000FFF7CBFF0F2120462A46FFF7C6FF0C4852
:1009D000019001AD20462946FFF777FF0126B003BD
:1009E000288020462946FFF770FFF0032880204624
:1009F0002946FFF76AFF02B070BDC04600080048F4
:100A000000200304014802490160704700300040A3
:100A1000AAAA000080B582B001AA01239370517088
:100A20001070104600F002F802B080BD70B5017879
:100A30008278002A15D0FC220A400D4BD4588D072D
:100A4000ED0EFF26AE40B44340788001C0B2A8400E
:100A50002043D0501F2008400121814005480160FB
:100A600070BD1F200140012088400349086070BD0F
:100A700000E400E000E100E080E100E0054A002938
:100A800003D0116801431160704711688143116000
:100A90007047C04614100240054A002903D011686F
:100AA0000143116070471168814311607047C0466F
:100AB0001C100240054A002903D01168014311604F
:100AC00070471168814311607047C046181002409A
:100AD000154908680C2202400C2A01D08C4800E01D
:100AE00012480A681206120F114B9A5CD04009682E
:100AF0004905490F595CC8407047C0460A49086813
:100B00000C2202400C2A01D0814800E007480A6804
:100B10001206120F064B9A5CD04009688904490FEF
:100B2000595CC8407047C04604100240409C000019
:100B30000700002005480168002902D00168491E0D
:100B4000016003480168491C016070479C00002057
:100B50008C000020F0B58BB0644F38680122104340
:100B600038607868624901407960386861490140BD
:100B700039609004396881433960C3200004796882
:100B80008143796038685C49014039609F200004E6
:100B9000B86000200A90039009901404386820433C
:100BA0003860029250043968014009910A99491C41
:100BB0000A910999002904D1052109020A9A8A4259
:100BC000F1D13968014201D1002000E0029809907A
:100BD0000998012800D087E0484D49482860494ECF
:100BE000306810210143316030680721884330604C
:100BF0002868401E444900F06DFF316801433160B0
:100C00007868786078687860029880027968014333
:100C10007960032001900004796881437960386825
:100C20003A49084038607868204378602B68039818
:100C300001461F4606460491701C0590344D039CE6
:100C400006E033496D18641C002F079206901ED0F1
:100C5000402C18D008973746284605991E4600F0C4
:100C600039FF3346311A00D2C11A3E46089F8F42DF
:100C7000304600D806988F42224600D8079A8F4205
:100C8000DFD30F46DDE70499002906D009E00027ED
:100C9000079206900299002903D105980428064678
:100CA000C9D1124A10681949084010600798800697
:100CB0000699C9B209050143106808431060012074
:100CC000000611680143116010688001FCD550686E
:100CD0000199884350605068022101435160506877
:100CE0000C2101400829FAD10BB0F0BD00100240E0
:100CF0000CC0FFF8FFFFF6FEFFFF8F000000002092
:100D000000D8B8050020024000366E01FFFF0F003A
:100D100000127A0080B5D348202100F0D5F880BDBC
:100D2000F0B58DB00E4601902948401C01242146A3
:100D3000FFF7C0FE0AAF384600F082FA0025BD7208
:100D40003D813E80BD7001980B90C648394600F049
:100D500035FA06AE304600F0E3F96002B0812002B9
:100D6000708175720421B170308019480790BD4DB3
:100D70002846314600F04AF92846314600F074F919
:100D80002846314600F09EF92846214600F082F8B8
:100D900020212846224600F02EF92846214600F060
:100DA0009FF802AE304600F06CF8A003B08109480D
:100DB000049009480290200403902846314600F030
:100DC00051F82846214600F083F80DB0F0BDC0462A
:100DD000FF070000001000200008000800BF704757
:100DE000F0B587B00D460090012630463146019699
:100DF000FFF752FE04AF384600F022FA0024BC721E
:100E00003C813D80BC7000980590B5072846394666
:100E100000F0D4F902AE304600F0E7F8B480852047
:100E2000400202902846314600F066F82846019CB0
:100E3000214600F07CF904262846314600F008FAE5
:100E40004021284600F07CF92846314600F0B0F9F0
:100E50008021284600F07AF92846214600F038F82B
:100E600007B0F0BD0A884B8813438A881A43CB88A1
:100E700013430A891A434B891343898919434164EF
:100E800070470021818141810181C1808180418041
:100E9000018070474A1E9141426801239A435118CC
:100EA000416070478A4001238B40016A9943114396
:100EB000016270470C2906D08A4004238B40016AE6
:100EC000994311430162704702698A430261704786
:100ED0004A1E9141026801239A43511801607047EC
:100EE0004A1E9141C9030122D203436C934359180E
:100EF0004164704741617047B0B50B780222D3411D
:100F0000032B71D87B441B795B009F44011835503B
:100F10008369F324A3438C788D882D0125431D43D9
:100F20008561036A93434A781A430123134303629A
:100F300082690C239A43C97811438161B0BDF322C1
:100F40001202836993438A7812028C882403144323
:100F50001C438461026A20239A434B781B0113438C
:100F600010221A4302620322920283699343C978D2
:100F7000090219438161B0BDC269F3239A438B789A
:100F80008C8824011C431443C46103221202036AA7
:100F900093434A7812021A4301231B02134303624C
:100FA000C2690C239A43C9781143C161B0BDF322D1
:100FB0001202C36993438A7812028C882403144373
:100FC0001C43C46103221303046A9C434B781B0334
:100FD0002343012424031C4304629202C369934304
:100FE000C97809021943C161B0BD00218180012285
:100FF000428001807047002A03D0C2680A43C26061
:101000007047C2688A43C26070470000B0B5826909
:1010100070239A430B78134383610A7A4B78134306
:10102000046A032294431C4304624B684363824B6B
:10103000984205D07E4B984202D07E4B98420FD109
:101040004B7A8C781C43036A0C25AB432343036221
:101050004B89898919431202436893430B434360C8
:10106000B0BDC046002C0140B0B507221203836911
:1010700093430A7812021A438261026A30239A4328
:101080000B7A4C781C432301134303624A68826342
:10109000224A131F984200D0B0BD036AC024A34364
:1010A0004C7A8D7825432C011C4304620320800276
:1010B0001368834348898989014388001843106075
:1010C000B0BDC04670B5C26970239A430B78134314
:1010D000C36103221302046A9C430B7A4D781D43BB
:1010E0002B02234303624B68C3630C4B1C1FA042BB
:1010F00000D070BD9402056AA5434C7A8E782643D1
:1011000034022C43046210031A6882434889898997
:10111000014308011043186070BDC046042C014013
:1011200000218170018041608160818170474A1E89
:101130009141C901426880239A4351184160704728
:10114000826870239A430A438260704782688023D2
:101150009A430A438260704710B501238B40046AAA
:101160009C4304620223D941032920D87944097998
:1011700049008F4401070F1581697023994311437A
:10118000816110BD0721090383698B431102194353
:10119000816110BDC169702399431143C16110BDC4
:1011A00007210903C3698B4311021943C16110BDB3
:1011B000826807239A430A4382607047032212021F
:1011C000036893430A891A430260184A904209DD72
:1011D000174A90421CD0174A904219D0164A9042A2
:1011E00007D01BE001229207904202D0134A90429E
:1011F00014D1026870239A438B78134303600E4A1C
:10120000904205D00A4A904202D00A4A904205D143
:10121000026BFF239A438B7AD21802634A68C26238
:1012200009888162012141617047C046FF2B01405E
:101230000048014000440140002C014000040040EF
:1012400000210181018081728170C9434160704732
:10125000026804239A430A4302607047F0B585B0E0
:1012600006460124A0032146FFF724FC6F463846BA
:1012700000F0A9F800253D733D72BD713020387132
:101280001820788100964D4E3046394600F05CF8C3
:101290003046214600F046F8714C062120462A4689
:1012A000FFF75BFB0425032220462946FFF755FB89
:1012B00004AE3046FFF766FB0748049020463146EF
:1012C000FFF703FBF5701020308020463146FFF712
:1012D000FCFA05B0F0BDC04640000318B0B50446A6
:1012E000007800280ED0354DC1B2284600F068F8CD
:1012F0000121284600F023F80028F9D06078641C0A
:101300000028F1D1B0BDC04610B501462B4C204697
:1013100000F056F80121204600F011F80028F9D01D
:1013200010BDC046826901239A430A438261704717
:1013300081690223994352000A43826170478068A1
:101340000840411E8841704770B50D460446C0698B
:101350003021884329790143E161E06944218843D0
:10136000A9790143E161E06903218843297A0143B6
:10137000E161A0691821884369890143A161A069DD
:1013800004218843297B0143A1610C48844203D096
:10139000FFF79EFB064602E0FFF7B0FB0646296812
:1013A000304600F097FB000920622968304600F0C3
:1013B00091FB0F210140616270BDC04600380140C1
:1013C000C9B2016070470021017318224281017285
:1013D0008171302101714B21C9010160704700000A
:1013E000F0B587B06D462846FFF7CCFA01246602B7
:1013F00030462146FFF75EFB184800901848294602
:10140000FFF763FA802028800920C0062946FFF7ED
:101410005CFA00250695039620200290A004059012
:101420000195104E01A93046FFF7D6F83046214607
:10143000FFF7B1F830462146FFF7A5F8A7020221D1
:1014400030462A463B46FFF7E3F80621304622465F
:101450003B46FFF7DDF807B0F0BDC04602000300D1
:101460000004004800240140F0B581B0A448007891
:10147000401EA44C052839D84000C04678448088D6
:1014800040008744050055008200AF00DD000A01DE
:10149000042500950026204629463246FFF702FD26
:1014A000204629463246FFF705FD60272046314693
:1014B0003A46FFF751FE012220463146FFF7F2FC83
:1014C000204631463246FFF7F5FC082520462946DE
:1014D0003A46FFF741FE204629463246FFF7E2FC36
:1014E00020462946009AFFF7E5FC02E10025204648
:1014F00029462A46FFF7D6FC204629462A46FFF70A
:10150000D9FC0426204631462A46FFF7CBFC20466C
:1015100031462A46FFF7CEFC0826204631462A46A9
:10152000FFF7C0FC204631462A46FFF7C3FCE0E047
:101530000025204629462A46FFF7B4FC20462946C6
:101540002A46FFF7B7FC0426602200922046314667
:10155000FFF702FE012220463146FFF7A3FC20469A
:1015600031462A46FFF7A6FC082720463946009A4E
:10157000FFF7F2FD204639462A46FFF793FC204646
:1015800039463246FFF796FCB3E008260025204690
:1015900031462A46FFF786FC204631462A46FFF7A9
:1015A00089FC04266027204631463A46FFF7D4FDE1
:1015B000012220463146FFF775FC204631462A4677
:1015C000FFF778FC204629463A46FFF7C5FD20463E
:1015D00029462A46FFF766FC204629463246FFF791
:1015E00069FC86E0042500950026204629463246FF
:1015F000FFF758FC204629463246FFF75BFC0825DA
:101600006027204629463A46FFF7A6FD01222046DC
:101610002946FFF747FC204629463246FFF74AFC99
:10162000204631463A46FFF797FD2046314632467E
:10163000FFF738FC20463146009AFFF73BFC58E0A4
:101640000025204629462A46FFF72CFC204629463D
:101650002A46FFF72FFC08276026204639463246E7
:10166000FFF77AFD012220463946FFF71BFC204692
:1016700039462A46FFF71EFC0427204639463246E3
:10168000FFF76AFD204639462A46FFF70BFC204645
:1016900039463A46FFF70EFC2BE008260025204687
:1016A00031462A46FFF7FEFB204631462A46FFF721
:1016B00001FC6026204629463246FFF74DFD0122F7
:1016C00020462946FFF7EEFB204629462A46FFF72B
:1016D000F1FB0427204639463246FFF73DFD204600
:1016E00039462A46FFF7DEFB204639463A46FFF7E1
:1016F000E1FB20212046FFF7FDFB01B0F0BDC04615
:1017000006000020002C014010B582B001AB01247E
:10171000DC709A7059701870184600F003F802B027
:1017200010BD000070B50178C278002A15D0FC22E7
:101730000A400D4BD4588D07ED0EFF26AE40B44342
:1017400080788001C0B2A8402043D0501F200840BC
:10175000012181400548016070BD1F20014001202A
:1017600088400349086070BD00E400E000E100E04B
:1017700080E100E0F0B581B0064601256903B04F75
:101780003846FFF7FAF80090A9033846FFF7F5F856
:101790000446E9033846FFF7F0F8012E09D1611E2F
:1017A0008C416100009A8A18411E884181001143D2
:1017B0000DE00099002903D10721002C03D103E09B
:1017C0000621002C00D0FE31002800D0FC31C8B228
:1017D0000149085C01B0F0BDCA1C0008F0B581B039
:1017E000012460042146FFF749F9A0042146FFF7D0
:1017F00045F9E0042146FFF741F920052146FFF7AE
:101800003DF9154800900920C0066D462946FFF7AE
:101810005CF804272F808B4E30462946FFF755F899
:101820000820288030462946FFF74FF82F80814E48
:1018300030462946FFF749F860022880304629469D
:10184000FFF743F8EF702020288030462946FFF745
:101850003CF801B0F0BDC0460010011086B0FFF7A3
:10186000BDFFFFF7A1F86E4800252946FFF7B8FA3B
:10187000FEF7F8FE6B482946FFF752FAFEF746FFDF
:101880000D2001242146FFF7C5F80F202146FFF760
:10189000C1F8FFF7A5FD0C2029462246FFF734FFCB
:1018A0004B200002FFF7DAFC0A20294601952A4660
:1018B000FFF72AFF5C485D495D4A2346FEF7C2FFF9
:1018C0005C4F042138462246FFF766F8202138464F
:1018D000FFF753F86602002818D001243846314635
:1018E0002246FFF759F82046FEF736FF0022384619
:1018F0003146FFF751F82046FEF72EFFFFF782F83A
:1019000020213846FFF739F80028E6D10520FEF7F8
:1019100023FF7D20C0004849086048608860474D2B
:10192000012428462146FEF793FE284621460094CE
:101930002246FEF741FE06E0042100223846FFF76A
:101940002BF8FFF75FF8009C61033D4D2846FFF739
:1019500014F802460920C0063249491CFFF71CF85A
:10196000A1032846FFF709F802460421354D284611
:10197000FFF712F8E1033248FEF7FFFF02460821A5
:101980002846314CFFF708F82078002805D0284871
:101990000078FFF7B9FC019820702C4D28780028BA
:1019A0000BD02B48026802AC20462AA1FEF720FC8F
:1019B0002046FFF793FC019828702A4800682A49BE
:1019C0000968081A042805D300F050F82648006872
:1019D0002449086020213846FEF7CFFF0028B0D008
:1019E0000325012238463146FEF7D6FF0A24204659
:1019F000FEF7B2FE002238463146FEF7CDFF204604
:101A0000FEF7AAFE6D1EECD102E000BFFEF7FAFF62
:101A100020213846FEF7B1FF0028F6D18CE7C046FA
:101A2000FFFF0000FF0F00003000024004380140BB
:101A30009000002000040048342C014000240140A4
:101A400000080048000C0048A4000020800000208E
:101A5000A8000020564241543A20256920560A0D1C
:101A600000000000880000208C000020B0B5134862
:101A7000016832224A4312490B689C180C601149D4
:101A80006218521E104B9A4206D88C4202DB00218B
:101A9000C94300E0012101602046FEF772FC0125E8
:101AA000EA079143FEF728FC084908604860002CCB
:101AB00000DC0025064A15708860B0BD18000020C3
:101AC000A000002024FAFFFF46F4FFFF342C014061
:101AD0000400002043088B421AD3002203098B42E2
:101AE00079D3030A8B425ED3030B8B4242D3030CA0
:101AF0008B4227D30902FF2212BA030C8B4202D376
:101B00001212090203D0030B8B4233D31AE0D3E045
:101B1000411A8041401C704703460B4371D443086F
:101B20008B42F5D3002203098B4254D3030A8B4224
:101B300039D3030B8B421DD3030C8B4202D3944643
:101B40006EE0090AC30B8B4201D3CB03C01A52418A
:101B5000830B8B4201D38B03C01A5241430B8B4240
:101B600001D34B03C01A5241030B8B4201D30B0329
:101B7000C01A5241C30A8B4201D3CB02C01A524150
:101B8000830A8B4201D38B02C01A5241430A8B4213
:101B900001D34B02C01A5241030A8B4201D30B02FC
:101BA000C01A5241CDD2C3098B4201D3CB01C01A16
:101BB000524183098B4201D38B01C01A5241430920
:101BC0008B4201D34B01C01A524103098B4201D30E
:101BD0000B01C01A5241C3088B4201D3CB00C01A7B
:101BE000524183088B4201D38B00C01A52414308F3
:101BF0008B4201D34B00C01A5241411A524110008E
:101C00007047CA0F00D04942031000D340425340EE
:101C100000229C4603098B422DD3030A8B4212D328
:101C20008901FC2212BA030A8B420CD3890192115A
:101C30008B4208D3890192118B4204D3890137D09A
:101C4000921100E08909C3098B4201D3CB01C01A6C
:101C5000524183098B4201D38B01C01A524143097F
:101C60008B4201D34B01C01A524103098B4201D36D
:101C70000B01C01A5241C3088B4201D3CB00C01ADA
:101C8000524183088B4201D38B00C01A5241D9D2F2
:101C900043088B4201D34B00C01A5241411A00D273
:101CA00001465241104663465B1000D340427047E4
:101CB00063465B1000D3404201B50021004201D0D1
:101CC000C9430846C046C04602BD000305040102E0
:101CD00006000000F81C00080000002020000000A2
:101CE00004010008181D00082000002090060000D4
:101CF000200100080000000000D8B8050101010023
:101D000000000001020304010203040607080900A1
:081D10000100000000000000CA
:04000005080000C12E
:00000001FF
