:020000040800F2
:10000000900A00209D010008C9010008CB010008EA
:1000100000000000000000000000000000000000E0
:10002000000000000000000000000000CD010008FA
:100030000000000000000000CF0100083916000891
:10004000D3010008D3010008D3010008D301000840
:10005000D3010008D3010008D3010008D301000830
:10006000D3010008D301000829100008D3010008BB
:10007000750B0008C9170008D30100089D18000877
:10008000ED1800080000000000000000D301000887
:1000900000000000D3010008D3010008D3010008CC
:1000A00000000000D3010008D3010008D3010008BC
:1000B000D301000800000000D30100080000000088
:1000C00000F002F800F03EF80CA030C80838241800
:1000D0002D18671EA246AB4654465D46AC4201D180
:1000E00000F030F87E460F3EB6460FCC0126334274
:1000F00000D0FB1A3343A246AB461847F82D000048
:10010000182E0000103A02D378C878C1FAD85207E6
:1001100001D330C830C101D504680C6070470000BD
:100120000023002400250026103A01D378C1FBD813
:10013000520700D330C100D50B6070471FB51FBDFB
:1001400010B510BD00F0E2FC1146FFF7F7FF02F01A
:1001500009FA00F0FAFC03B4FFF7F2FF03BC00F069
:1001600001FD000070B505460C46164602E00FCCB6
:100170000FC5103E102EFAD2082E02D303CC03C5B1
:10018000083E042E07D301CC01C5361F03E02178B9
:100190002970641C6D1C761EF9D270BD104880F366
:1001A000088810481049016010480168090E104A7B
:1001B000914205D10F480C4901600F480F49016079
:1001C0000F4880470F480047FEE7FEE7FEE7FEE7DF
:1001D000FEE7FEE70C480D490D4A0E4B7047000044
:1001E000900A00206020024001000000040000008E
:1001F0001F00000018100240000001400000000035
:1002000055160008C100000890040020900A002044
:100210009006002090060020F8B5042A2CD383070E
:1002200012D00B78491C0370401C521E83070BD060
:100230000B78491C0370401C521E830704D00B78B6
:10024000491C0370401C521E8B079B0F05D0C91A16
:10025000DF002023DE1B08C90AE0FFF783FFF8BD9B
:100260001D4608C9FD401C46B4402C4310C0121F57
:10027000042AF5D2F308C91A521EF0D40B78491C8F
:100280000370401C521EEAD40B78491C0370401CBA
:10029000012AE4D409780170F8BD704770477047AF
:1002A0000246C80FC00781434B0030B54B405B008E
:1002B0009B0D20D01923DB06C91801231B05994289
:1002C00020DB0324A40704251346AB400BD3002BEB
:1002D00004D1EB0613409B00E34204D401246407DD
:1002E000002312195941FF231B0599420BD2C90063
:1002F0000143500F09E0CB0204D501430803024338
:1003000005D0054830BDFF21C905084330BD08466A
:1003100007210905884330BD0000C07FF0B5F94DC5
:100320000C091E092C402E402F468BB0A7437DD0D0
:10033000B543FCD0002E7AD0002CFCD00D465D4099
:10034000ED0F2543AC1BFF25AD0464190894C502CD
:10035000440DC9022143500DDC0204430120C007B3
:1003600001430443D2020191200C110C00958C46EC
:10037000010423468B430A9161460904E24D8A43F6
:100380000991010A7D4449198039097805464D4390
:1003900001266D18F605751B6943C90C640B891C91
:1003A0004C436418B5012C1B250C2E04B4434C435C
:1003B0004D43210C691889090591009DE90701D079
:1003C0000121C90704912C4601996708CD072F43E5
:1003D0004C08059DE10B4D432D0C2946664675439F
:1003E00002950D4645432E46029D7D1BB441009566
:1003F0000D465D4301942C0C2F040D465543AE462B
:100400002D0C3D43029503947546049C2D04641BFA
:10041000049406D2029C039D641C0026754103953A
:10042000029401AC70CC009F7D1B01E03EE162E1D3
:10043000B44109040095079101940599A40861430A
:10044000090C0C464443650BE7040C4666467443AE
:10045000A646640B3C43039502947446049DE40451
:100460002C1B049406D2029C039D641C002675413B
:100470000395029401AC70CC009F7D1BB4410194A4
:100480000C465C430095650FE7000C465443A646B6
:10049000640F3C43039502947446049DE4002C1BB6
:1004A000049406D2029C039D641C002675410395AA
:1004B000029401AC70CC009F7D1BB441AE09AF0625
:1004C000049DC900AD092F43049DA406AD06049503
:1004D000079D344369180791059DE10B4D432D0C91
:1004E00029466646754302950D4645432E46029DB4
:1004F0007D1BB44100950D465D4301942C0C2F04E7
:100500000D465543AE462D0C3D430295039475466A
:10051000049C2D04641B049406D2029C039D641C5D
:10052000002675410395029401AC70CC009F7D1BA1
:10053000B44101948C050694079C890A61180095C2
:100540000791019C0599A4086143090C0D46454398
:10055000680BEF040D46644665436C0B3C43049FF7
:10056000ED047D1BAC4602D20025641C6841009E50
:10057000019D371B85410846584301950C46460F9F
:10058000C5005443600F28436546E4002C1B02D28B
:100590000025401C6E41019D3F1AB5412846BD090A
:1005A000800628438446A009BF064E020699A40689
:1005B00076180743079D002068410A990790194360
:1005C0000020099B00906046FF1913434041E20F51
:1005D00064003A43A4460446D71A8C41A04203D98A
:1005E0000120009020463A46C70F941840416246C9
:1005F000D20F2243644664000494009CBE4664000B
:10060000D71AA446044602978C417746002F01D1A1
:10061000A04204D96046401C8446029A2046C40F7A
:10062000A64694184041049A0546D20F22436446D8
:100630006400D31A8D417146002901D1A84202D924
:1006400028461A46641C10430122002800D0164395
:1006500061020020079B891904465C410223002C9B
:1006600002DB491813466441089DCE0A2D145D191A
:100670004B056705E10A2C050D1908993E43C9078A
:100680006940002B08D0934006D30022761C5141CC
:10069000002B01D1760876001C4A002D43DB154261
:1006A00041D0AA433FD030460BB0F0BD06180D46EE
:1006B0004D41174C7642AC411AD395181C465C410B
:1006C000134A6D42A24113D3012252054C00D44279
:1006D0000AD15C00D4420BD04B4002D592021143A8
:1006E000E2E749004908DFE75940C90FC90718E0A8
:1006F00000200849D8E7054801420DD10342F7D050
:10070000F2E700000000FF07B22900000000F07FC0
:100710000000E0FF0000F87F114859400143C0127B
:1007200041400020C0E70123089A9B069A4205DC5D
:10073000032252078918C90FC907B5E705225207D6
:100740008918074A1143D2125140ADE770B51546DA
:100750001C4602460B4628462146FFF7DFFD70BDCA
:10076000FFFFFF7F30B50346CA02400D1043164D10
:10077000164C0A1502D02043002A06DBAA1A002ACA
:1007800012DDD040FF2A0BDC30BD5205520D01D1E5
:1007900040004008AA1A07D4D0404042FF2A01DD99
:1007A000002030BD0028FCDD4A00002B01D00120D4
:1007B00000E00020101801225205D042F0D8C817DE
:1007C000C043604030BD00001E04000000000080F7
:1007D0000346CA02400D10B510430A1504D0012487
:1007E000E4072043002A05DB0A4CA21A04D4D040B7
:1007F000FF2A00DD002010BD4A00002B01D001209F
:1008000000E00020101801225205D042F2D8C8178B
:10081000C04310BD1E0400001F22030C02D10F2292
:10082000000402D0030E03D004E00020014670470C
:100830000002083A030F01D10001121F830F01D1FA
:100840008000921E002801DB4000521E1205511844
:100850004205C012411810467047C10FC90700D0A9
:100860004042012292071143D6E701218907D3E7CD
:10087000F0B58B4C0F09254689B0BD437BD01D09CF
:100880002646AE43FAD00E465E402740F60F3E4362
:10089000254071D024012142FBD0FF24AD19A404CE
:1008A0002D1B039501252D05DB02DB0AC9022B4315
:1008B000C90A29431E010901040F130F0501214331
:1008C0001701880B820391432D098C46A90B1E4307
:1008D0008A039543B30B9A0396433F09BA0B9403DB
:1008E000A74302962E467E430497B6464E19D71963
:1008F0000C460196544305977E43371B7646BF1B33
:100900003601B646BE0B361900967646BC0437193A
:10091000009C01D3641C00946400002F01D00126C8
:100920003443029E049F754366467E4304967600D8
:1009300034196E0034190094029C019E1C19664300
:10094000751BAE46069465464519059C05956C4396
:10095000594375460891691A0191049E0146514315
:10096000A41B0491611A009C0791E10605D061095E
:100970000122114302E072E06EE06109089D002748
:100980002C0A2D066918049D7C412A0A2D06691837
:10099000019D6241AC0DAD026D185441079A910D55
:1009A000920255196141029A644658435443069B8A
:1009B000059A5A43121A131B9A0E9B015B187A412F
:1009C000010B0005C3185141220A200644195A415F
:1009D0009A4200D2491C01204002814203D31523D0
:1009E0000226F64302E014230326F6432020C51A0C
:1009F000A9401746AF40DA400A4320460399D84041
:100A00000914731819055118039A3843D207514035
:100A1000AC4009D00122944006D30022401C514131
:100A2000002C01D1400840001E4A934212D30122FB
:100A300003989206904207DB0520400709181A48E0
:100A40000143C012414004E0032040070818C10FD1
:100A5000C907002009B0F0BD0020F107FAE705182A
:100A60000C464C4111486D42A04115D394181A46CA
:100A70005A410E48644290410ED301204A0040057D
:100A8000824209D35A00824206D35940C90F084A0C
:100A9000C90700201143DDE700200649DAE700001E
:100AA0000000FF07FE070000FFFFFF7F0000E0FFE0
:100AB0000000F07F0000F87F0121C90501234118E3
:100AC00042001B06D3185B0E0AD0C1100722D206C3
:100AD000891840075242D14201D552008918704707
:100AE000090208D50146002A03D0C10FC90700201A
:100AF000704710467047420202D0002002497047FA
:100B0000072109050143F4E70000F87F754600F06E
:100B100025F8AE46050069465346C008C000854624
:100B200018B020B5FFF756FB60BCB646002600277C
:100B3000C0C5C0C5C0C5C0C5C0C5C0C5C0C5C0C58D
:100B4000403D490849008D46704710B50446C046EF
:100B5000C0462046FFF7FFFA10BD0000004870476E
:100B6000A800002001491820ABBEFEE726000200C5
:100B700070470000F0B581B0834F0221384600F085
:100B80005BF9002807D00221384600F036F97F488B
:100B9000802100F025FF01253846294600F054F950
:100BA000002800D1EEE07A4C20787E280BD88048CF
:100BB000807E01F001FA82490A68101808602078E6
:100BC000401C2070DAE07F281FD17D4D2868C009C5
:100BD00028605427764EF05B002837D001216A4800
:100BE00000F0F4F8F05B684F2988401881B20025C6
:100BF00038462A4600F0FDF8718B7348425D9142F9
:100C00001AD02D1D842DF9D11BE0624C207801F003
:100C10004DFC614E317888422CD0207801F046FCA2
:100C20005E49087001F07CFA207801F03FFC3178D1
:100C300088420FD9002117E040198178384600F02A
:100C4000CEF802210122384600F006F92078401C37
:100C5000207092E0207801F029FC6840327806216B
:100C600051400143481E81414D480170207801F0F8
:100C70001DFC3070786D80B2FFF7EFFD02460B4629
:100C800048484949FFF74AFBFFF70AFB4749086014
:100C90000F464220464C205AFFF7E7FD05460E4618
:100CA000207E01F089F9FFF7E0FD02460B46284659
:100CB0003146FFF7DDFD05460E463868FFF7FCFEBE
:100CC00002460B4628463146FFF7D2FD0025394B38
:100CD0002A46FFF7CDFD384B2A46FFF7C9FDFFF73F
:100CE00041FD36490860A07E01F066F906464420C1
:100CF000205AFFF7BAFD07460C4631480068301A03
:100D0000FFF7B3FD02460B4638462146FFF7B0FD1C
:100D100004460E4625480068FFF7CEFE02460B4605
:100D200020463146FFF7A4FD2A46224BFFF7A0FDDF
:100D30002A46214BFFF79CFDFFF714FD214C206054
:100D400001F0CAF901F080F9194B5220195A8A1E94
:100D50000E481B2A02D822688A4209DC5C21595AB3
:100D60000A46153A4E2A05D8144A12688A4201DA10
:100D7000002100E0012100F029FE034F0121384647
:100D800000F042F801B0F0BD00240140002C014009
:100D9000D003002004000020050000209000002067
:100DA000E0030020333333333333B3408004002077
:100DB00010000020000059400000303F7C0400205B
:100DC000BC030020B8030020BA2D00084A1E914140
:100DD0004900426802239A435118416070470F222C
:100DE0001203836893438360090382680A43826025
:100DF00070470904891801617047012900D0022158
:100E000042690A4342617047012900D002214269C8
:100E10000A43426170474A1E9141426801239A4346
:100E20005118416070474A1E91418900826804232D
:100E30009A43511881607047491E4A1E9141426988
:100E4000CA40012010407047491E4A1E9141426924
:100E5000CA400120104070478368012905D1012153
:100E6000002A05D00B43836070470221002AF9D184
:100E70008B4383607047000042680B4B1340436014
:100E80004A680B68134342681A4342608268074B02
:100E9000134083600A694B69134389681943826868
:100EA0000A4382607047C0460FBCFFFF8FF1F9FF15
:100EB00010B50F229202446894434460102B00D274
:100EC0009B0242681A43426001228A40C3689343EE
:100ED000C360C3681343C3600804800F04D00E4886
:100EE00001680C220A43026010BDC0464A1E9141AF
:100EF00009020122120283689343591881607047E6
:100F00000C2100280A4600D10246034803688B439F
:100F1000134303607047C04604240140F0B581B01C
:100F20000925EC06082102262046324600F06FF91A
:100F300020462946324600F06AF90A212046324608
:100F400000F065F91D4D0D212846324600F05FF98D
:100F50000E212846324600F05AF90F212846324623
:100F600000F055F96E46304600F066F914480090DE
:100F70002046314600F003F90127780230802046F0
:100F8000314600F0FCF8B80230802046314600F0CF
:100F9000F6F8780330802846314600F0F0F8B803C0
:100FA00030802846314600F0EAF8F80330802846C1
:100FB000314600F0E4F801B0F0BDC046000400483E
:100FC0000001031810B50E4800687D21C90001F02A
:100FD000B9FD411E080E00D0FEE70A480A4A5160DA
:100FE0000A490B6803400324A4071B190B60002364
:100FF0009360072313600A6802400A6010BDC04670
:1010000000000020FFFFFF0010E000E020ED00E006
:1010100081B0009003480099016001680029FCD16B
:1010200001B07047F403002010B50124600200F005
:101030002BF8002804D0200200F004F801F082FC14
:1010400010BD00000F4908607047C04602680123C8
:101050009A430A430260704780B5016801229143B8
:1010600001600021016041608160C160C0B2083848
:10107000052101F067FD0F218140024802680A4303
:10108000026080BD04000240024909680840411E18
:101090008841704700000240002A03D002680A43DA
:1010A0000260704702688A4302607047B0B5114A17
:1010B00014461034036823400C7A8D7D25430C7C44
:1010C0002C434D7C25434C8A2C438D8A25430C8B25
:1010D0002C434D8B2543ACB21C4304600368134082
:1010E0008A8B1A430260CA6842600A688260496853
:1010F000C160B0BDFF7FFFFFF0B58BB00193174615
:101100000291044601252846294600F0CBF92046E5
:10111000FFF7A2FF03AE304600F026F80020B083B0
:101120002021B175B08230720990E80307900198D0
:10113000069004970298039020463146FFF7B6FFC9
:101140000226204631462A46FFF7A6FF05483146CB
:101150002A4600F04BFE20462946FFF777FF0BB0EA
:10116000F0BDC046003801400021818381610172D9
:1011700001604160C1600161818281757047F0B595
:1011800083B0CB780F221C4602921440DD060193F7
:1011900001D58D782C4300910A880026374603E05C
:1011A000361D7F1C082F0CD01546FD40ED07F7D0EB
:1011B0002546B540029BB34001689943294301602D
:1011C000EEE70099098800910D0A0026374603E0F2
:1011D000361D7F1C082F0CD02946F940C907F7D0CF
:1011E0002146B140029BB34042689A430A434260A1
:1011F000EEE70199482903D0282906D1143000E0F0
:1012000010300168009A1143016003B0F0BDB0B521
:10121000082901D3242300E02023C4584907C90E1C
:101220000F258D40AC438A402243C250B0BD806838
:101230000840411E884170470249418002490180AF
:101240007047C04602040000FFFF0000002A02D0E1
:10125000102281507047142281507047F0B589B038
:101260000191029000240126EA4F02E0E41C632C65
:101270001BD03A48005D7988091A4A424A413988A8
:101280008142314600D01146BA88131A5A425A4157
:101290000029314600D111460129E7D12F490D1906
:1012A000697801F0B7FAAD78E0E7012420462146DD
:1012B00000F006F902200090214600F001F905AE89
:1012C000304600F03DFD0027B7723781019830802D
:1012D000B770029806900295002D01D0A50700E096
:1012E0001F4D2846314600F0E9FC03AE304600F0C1
:1012F000FCFBB7800320000403902846314600F031
:101300007BFB28460099224600F0F5FB2846214643
:1013100000F08DFC04262846314600F019FD4021DE
:10132000284600F08DFC2846314600F0C1FC8021A3
:10133000284600F08BFC2846214600F03FFB08A819
:10134000847044700299002901D00F2100E010211F
:10135000017000F02BF809B0F0BDC046EA2D00087E
:1013600000040040B0B5AB4D28780424214601F0BC
:1013700029FAA878214601F025FA2879214601F0BA
:1013800021FAB0BD014802490160704700300040B9
:10139000AAAA000080B582B001AA012393705170FF
:1013A0001070104600F002F802B080BD70B50178F0
:1013B0008278002A15D0FC220A400D4BD4588D07A4
:1013C000ED0EFF26AE40B44340788001C0B2A84085
:1013D0002043D0501F200840012181400548016072
:1013E00070BD1F200140012088400349086070BD86
:1013F00000E400E000E100E080E100E0B0B502467A
:101400001F480068244B1D688542044603DA1D4CC2
:101410002468A54200DC1C60511A214A146811603E
:101420000A1B9624544389001A6851180919154A51
:10143000136899420A4602DD814203DDB0BD1A46B7
:101440008142FBDC1046B0BD80B514490A68131810
:101450000B600B4800688342024607DC09480068BD
:1014600083421A4600DC0246834200DA08604A20C2
:101470006849085A50437D21490101F085FB80BD30
:10148000080000200C0000200348002101600348F0
:101490000160034801607047DC030020D403002092
:1014A000C4030020054A002903D0116801431160DC
:1014B00070471168814311607047C04614100240A4
:1014C000054A002903D01168014311607047116873
:1014D000814311607047C0461C100240054A002934
:1014E00003D0116801431160704711688143116096
:1014F0007047C04618100240154908680C22024087
:101500000C2A01D0144800E012480A681206120F93
:10151000124B9A5CD04009684905490F595CC84094
:101520007047C0460A4908680C2202400C2A01D0C4
:10153000094800E007480A681206120F074B9A5C38
:10154000D04009688904490F595CC8407047C046BB
:1015500004100240409C000000127A00910000201C
:10156000F0B585B05E20CB490A5A2B480068F54B90
:101570001B681B1A01A8934202D9284A0023136052
:10158000274A1278002A43D0C21C093001AD254BEE
:101590002B80254B1E689670244B1F681771EB4BF0
:1015A0001B6803704C24095DA970310AD170390A97
:1015B00051711F4909880A244C431470190EC170D7
:1015C000190C8170190A4170210A517000221949C1
:1015D000154602E05D1C0C2B10D02B4601AC645D5F
:1015E00024026240082503E032466D1E2C06F1D02D
:1015F000560012B2002AF7D54E40F5E70271110AE3
:10160000417101A80F2100F051FC0020044908702D
:1016100005B0F0BD10000020B0030020F80300204A
:1016200094030020CDAB0000A40300209C03002005
:10163000A00300202110000005480168002902D005
:101640000168491E0160BF480168491C016070477C
:10165000F4030020F0B589B0514E306801221043E8
:10166000306070684F490140716030684E490140F8
:1016700031609004316881433160C3200004716897
:101680008143716030684949014031609F20000406
:10169000B060306802921043306030688007FCD53B
:1016A000434C44482060444D286810210143296080
:1016B00028680721884328602068401E3F4901F0C0
:1016C00041FA296801432960706870607068706031
:1016D00003200190000471688143716030683849CB
:1016E000084030602368002001461F4603900646EC
:1016F0000491701C0590334D039C06E031496D1830
:10170000641C002F079206901ED0402C18D008971A
:101710003746284605991E4601F014FA3346311A19
:1017200000D2C11A3E46089F8F42304600D8069824
:101730008F42224600D8079A8F42DFD30F46DDE75B
:101740000499002906D009E0002707920690029923
:10175000002903D1059804280646C9D1104A10680B
:10176000174B18401060079880060699C9B2090502
:101770000143106808431060581C11680143116050
:1017800050680199884350605068022101435160BC
:1017900050680C2101400829FAD109B0F0BDC046BB
:1017A000001002400CC0FFF8FFFFF6FEFFFF8F00A5
:1017B0000000002000A24A040020024000366E0112
:1017C000FFFF0F00001BB70080B5E648202100F0A6
:1017D000F1F880BDF0B58DB00E4601900124E00215
:1017E0002146FFF77BFE0AAF384600F0A9FA002534
:1017F000BD723D813E80BD7001980B90D94839463D
:1018000000F05CFA06AE304600F00AFA0420B07030
:1018100020023080B581758150201E4F385A411EFC
:101820008841C00070720795CE4D2846314600F0C1
:101830006DF92846314600F097F92846314600F008
:10184000C1F92846214600F09BF82021284622466F
:1018500000F051F92846214600F0B8F802AE3046B3
:1018600000F085F820033081A003B0815420385A5D
:10187000411E884140037081074802902004039074
:101880002846314600F064F82846214600F096F8D4
:101890000DB0F0BD100000200008000810B50120B8
:1018A00084070221204600F09DF8002808D0606BD4
:1018B00001F038F9214908600221204600F07AF849
:1018C0001F480078002803D11C490A6852420A6068
:1018D0001C4909681C4A1160012801D00020C0433E
:1018E0001A490A681018086010BDC04610B5124C9D
:1018F0000221204600F076F8002808D0606B01F045
:1019000011F90E4908600221204600F053F80C48F6
:101910000078002803D109490A6852420A6009493F
:101920000968094A1160012801D00020C043074915
:101930000A681018086010BD00040040E40300208D
:10194000E0030020CC030020C0030020A8030020F7
:101950000A884B8813438A881A43CB8813430A8921
:101960001A434B8913438989194341647047002105
:10197000818141810181C1808180418001807047E6
:101980004A1E9141426801239A43511841607047B1
:101990008A4001238B40016A9943114301627047D9
:1019A0000C2906D08A4004238B40016A99431143D5
:1019B0000162704702698A43026170474A1E914181
:1019C000026801239A435118016070474A1E9141F1
:1019D000C9030122D203436C9343591841647047F1
:1019E0004161704702690A4204D0C0680840411E44
:1019F0008841704700207047B0B50B780222D34170
:101A0000032B71D87B441B795B009F440118355030
:101A10008369F324A3438C788D882D0125431D43CE
:101A20008561036A93434A781A430123134303628F
:101A300082690C239A43C97811438161B0BDF322B6
:101A40001202836993438A7812028C882403144318
:101A50001C438461026A20239A434B781B01134381
:101A600010221A4302620322920283699343C978C7
:101A7000090219438161B0BDC269F3239A438B788F
:101A80008C8824011C431443C46103221202036A9C
:101A900093434A7812021A4301231B021343036241
:101AA000C2690C239A43C9781143C161B0BDF322C6
:101AB0001202C36993438A7812028C882403144368
:101AC0001C43C46103221303046A9C434B781B0329
:101AD0002343012424031C4304629202C3699343F9
:101AE000C97809021943C161B0BD0021818001227A
:101AF000428001807047002A03D0C2680A43C26056
:101B00007047C2688A43C26070470000B0B58269FE
:101B100070239A430B78134383610A7A4B781343FB
:101B2000046A032294431C4304624B684363824B60
:101B3000984205D07E4B984202D07E4B98420FD1FE
:101B40004B7A8C781C43036A0C25AB432343036216
:101B50004B89898919431202436893430B434360BD
:101B6000B0BDC046002C0140B0B507221203836906
:101B700093430A7812021A438261026A30239A431D
:101B80000B7A4C781C432301134303624A68826337
:101B9000224A131F984200D0B0BD036AC024A34359
:101BA0004C7A8D7825432C011C430462032080026B
:101BB000136883434889898901438800184310606A
:101BC000B0BDC04670B5C26970239A430B78134309
:101BD000C36103221302046A9C430B7A4D781D43B0
:101BE0002B02234303624B68C3630C4B1C1FA042B0
:101BF00000D070BD9402056AA5434C7A8E782643C6
:101C000034022C43046210031A688243488989898C
:101C1000014308011043186070BDC046042C014008
:101C200000218170018041608160818170474A1E7E
:101C30009141C901426880239A435118416070471D
:101C4000826870239A430A438260704782688023C7
:101C50009A430A438260704710B501238B40046A9F
:101C60009C4304620223D941032920D8794409798D
:101C700049008F4401070F1581697023994311436F
:101C8000816110BD0721090383698B431102194348
:101C9000816110BDC169702399431143C16110BDB9
:101CA00007210903C3698B4311021943C16110BDA8
:101CB000826807239A430A43826070470322120214
:101CC000036893430A891A430260184A904209DD67
:101CD000174A90421CD0174A904219D0164A904297
:101CE00007D01BE001229207904202D0134A904293
:101CF00014D1026870239A438B78134303600E4A11
:101D0000904205D00A4A904202D00A4A904205D138
:101D1000026BFF239A438B7AD21802634A68C2622D
:101D200009888162012141617047C046FF2B014053
:101D30000048014000440140002C014000040040E4
:101D400000210181018081728170C9434160704727
:101D5000026804239A430A4302607047F0B585B0D5
:101D600005460124A0032146FFF7B8FB6004214685
:101D7000FFF7A6FB01AE304600F0B0F8002737733E
:101D80003772B77130203071182000907081019542
:101D9000514D2846314600F035F82846214600F0DE
:101DA0001FF80E4C834E06E00099E05D00F00AFD3E
:101DB000FF1C632F0FD0E05DB18B814202D0F18B0D
:101DC0008142F5D1E519697800F024FDA878002852
:101DD000EAD10421E9E705B0F0BDC046E62E0008CF
:101DE000826901239A430A43826170478169022311
:101DF000994352000A438261704780680840411E3F
:101E00008841704770B50D460446C069302188434B
:101E100029790143E161E06944218843A9790143BB
:101E2000E161E06903218843297A0143E161A06906
:101E30001821884369890143A161A069042188436D
:101E4000297B0143A1612448844202D0FFF754FB5F
:101E500001E0FFF767FB2968064E304600F072FE8E
:101E6000000920622968304600F06CFE0F21014015
:101E7000616270BD00A24A04C9B2016070470000EF
:101E8000B0B50446007800280ED0134DC1B22846E4
:101E9000FFF7F2FF01212846FFF7AFFF0028F9D036
:101EA0006078641C0028F1D1B0BDC04670B500292F
:101EB00010D00C460546084E29783046FFF7DCFF67
:101EC000641E01213046FFF798FF0028F9D06D1CF1
:101ED0002004F1D170BDC0460038014000210173DB
:101EE0001822428101728171302101714B21C90197
:101EF00001607047F0B587B001277C022046394663
:101F0000FFF7ECFA00250695039420200290B80410
:101F100005900195264C01A92046FEF7ADFF20460D
:101F20003946FEF780FFBB020F2120462A46009368
:101F3000FEF7BEFF3846FEF7E3FF20463946FEF7C0
:101F40006AFF1C4E308B202814D8C0B200273946B7
:101F500000F038FC318B3A48C25D914203D03F1DFE
:101F6000842FF9D106E0C019418800222046009B49
:101F7000FEF79EFF708B202813D8C0B2294600F0D0
:101F800021FC718B2E48425D914203D02D1D842D82
:101F9000F9D106E04019418800222046009BFEF757
:101FA00087FF012120460A46FEF756FF07B0F0BD25
:101FB00000240140100000200021214A13788342B0
:101FC00004D0121D491C2129F8D1212188001C4967
:101FD0000818408809280CD87844007940008744C4
:101FE000040B0F13171B1F232B271648006880B202
:101FF0007047002080B270471248406880B2704736
:102000001048806880B270470E48C06880B2704740
:102010000C48006980B270470A48406980B2704736
:102020000848806980B270470648C06980B270472E
:102030000448406A80B270470248006A80B2704724
:10204000BA2D000818240140B0B50C480178402989
:1020500001D30021017001788A00094B9C58094D79
:102060002D689D50491C0170074801686918091BBB
:102070000160881105490860B0BDC046100300200A
:102080000C020020B80300200C0300209C03002059
:10209000B0B50C480178202901D3002101700178E6
:1020A0008A00094B9C58094D2D689D50491C0170B0
:1020B000074801686918091B016048110549086053
:1020C000B0BDC046B403002014030020E403002088
:1020D00098030020A0030020B0B50C480178202907
:1020E00001D30021017001788A00094B9C58094DE9
:1020F0002D689D50491C0170074801686918091B2B
:102100000160481105490860B0BDC0468804002040
:10211000FC0300207C04002084040020A403002091
:10212000F0B581B0A4480078401EA44C052839D8E9
:102130004000C04678448088400087440500550030
:102140008200AF00DD000A0104250095002620462C
:1021500029463246FFF71CFC204629463246FFF747
:102160001FFC6027204631463A46FFF775FD0122E5
:1021700020463146FFF70CFC204631463246FFF739
:102180000FFC0825204629463A46FFF765FD204604
:1021900029463246FFF7FCFB20462946009AFFF706
:1021A000FFFB02E10025204629462A46FFF7F0FB07
:1021B000204629462A46FFF7F3FB042620463146EF
:1021C0002A46FFF7E5FB204631462A46FFF7E8FBA3
:1021D0000826204631462A46FFF7DAFB20463146DC
:1021E0002A46FFF7DDFBE0E00025204629462A4687
:1021F000FFF7CEFB204629462A46FFF7D1FB0426EF
:102200006022009220463146FFF726FD012220463B
:102210003146FFF7BDFB204631462A46FFF7C0FB9B
:10222000082720463946009AFFF716FD2046394612
:102230002A46FFF7ADFB204639463246FFF7B0FB92
:10224000B3E008260025204631462A46FFF7A0FBCA
:10225000204631462A46FFF7A3FB04266027204686
:1022600031463A46FFF7F8FC012220463146FFF797
:102270008FFB204631462A46FFF792FB204629462F
:102280003A46FFF7E9FC204629462A46FFF780FB3D
:10229000204629463246FFF783FB86E00425009559
:1022A0000026204629463246FFF772FB2046294683
:1022B0003246FFF775FB08256027204629463A4637
:1022C000FFF7CAFC012220462946FFF761FB2046A2
:1022D00029463246FFF764FB204631463A46FFF76F
:1022E000BBFC204631463246FFF752FB20463146C2
:1022F000009AFFF755FB58E00025204629462A465C
:10230000FFF746FB204629462A46FFF749FB0827E8
:102310006026204639463246FFF79EFC01222046C1
:102320003946FFF735FB204639462A46FFF738FB8A
:102330000427204639463246FFF78EFC20463946B0
:102340002A46FFF725FB204639463A46FFF728FB89
:102350002BE008260025204631462A46FFF718FBC9
:10236000204631462A46FFF71BFB602620462946B9
:102370003246FFF771FC012220462946FFF708FB91
:10238000204629462A46FFF70BFB042720463946FC
:102390003246FFF761FC204639462A46FFF7F8FA35
:1023A000204639463A46FFF7FBFA20212046FFF740
:1023B00017FB01B0F0BDC04690000020002C01408A
:1023C00010B5062141431A4A505C431E032B09D81D
:1023D0000920C0067B441B795B009F440801050768
:1023E000164804E0002010BD134800E011485118C1
:1023F0004988FEF71CFF10BDB0B50A4606214143CF
:102400000B4B585C441E032C11D80920C006C04653
:102410007C4424796400A74406010305FB4802E0DC
:10242000F94800E0F74859184988FEF70FFFB0BD9A
:10243000202E0008000C0048000800480004004856
:1024400010B582B001AB0124DC709A70597018701D
:10245000184600F003F802B010BD000070B5017816
:10246000C278002A15D0FC220A400D4BD4588D07A3
:10247000ED0EFF26AE40B44380788001C0B2A84084
:102480002043D0501F2008400121814005480160B1
:1024900070BD1F200140012088400349086070BDC5
:1024A00000E400E000E100E080E100E0F0B581B090
:1024B0000546B84F3878FFF783FF0446B878FFF732
:1024C0007FFF06463879FFF77BFF7100091980000E
:1024D0000818012D01D00721081AC0B20149085C73
:1024E00001B0F0BDE22D000810B5012460042146C2
:1024F000FEF7D8FFA0042146FEF7D4FFE0042146F2
:10250000FEF7D0FF20052146FEF7CCFFA14CE08866
:10251000202803D8C0B2102100F054F920892028C7
:1025200003D8C0B2102100F04DF96089202803D8EB
:10253000C0B2102100F046F9A08A202803D8C0B20A
:10254000102100F03FF9608A202803D8C0B204218E
:1025500000F038F9208A202803D8C0B2102100F0FA
:1025600031F910BD82B0FEF72DFD00F077F900289B
:1025700000D1CCE0FFF7B8FFFEF7F4FE8248006818
:10258000824900F0DFFA01468148FEF767FEFEF758
:10259000C5FC4A207F4E305A00242146FFF71AF925
:1025A0000D2001252946FEF7F5FEFFF7A3FC0C20C0
:1025B00021462A46FFF744FF4820305AFFF7CEFB5A
:1025C0000A20214601942246FFF73AFF72487349D8
:1025D000734A2B46FEF790FDB08A202825D832207A
:1025E000FEF716FD307D0121FFF706FF10E0C0B2B7
:1025F0000121FFF701FF02252846FEF709FD307C87
:102600000021FFF7F9FE2846FEF702FDFEF7BAFEAD
:10261000B07CFFF7D5FE002807D0308A2028E6D905
:1026200000BF00BFFEF7AEFEF2E7308A202811D8C7
:102630000524307C0121FFF7DFFE32252846FEF716
:10264000E7FC307C0021FFF7D7FE2846FEF7E0FCD0
:10265000641EEED153480121FEF748FC52A0FFF75B
:102660000FFC554F554C01E0FEF78CFEB5793078E4
:10267000FFF7A6FE01462846FFF7BEFE357AB07882
:10268000FFF79EFE01462846FFF7B6FEB57A307981
:10269000FFF796FE01462846FFF7AEFE3868216830
:1026A000081A022803D300F0DDF920683860B08AE8
:1026B0002028D9D8B07CFFF783FE0028D4D040482A
:1026C0000199016041608160308A202815D8032576
:1026D000307C0121FFF790FE96242046FEF798FCFF
:1026E000307C0021FFF788FE2046FEF791FC6D1E2E
:1026F000EED102E000BFFEF745FEB07CFFF760FEC2
:102700000028F7D1307D0021FFF776FEFEE7012497
:1027100060042146FEF7C6FEA0042146FEF7C2FE75
:10272000E0042146FEF7BEFE20052146FEF7BAFE74
:102730007D20C40002E02046FEF76AFC0025284602
:102740000C38C0B240087E2803D8E8B2482100F017
:1027500039F8681CE9B220290546F0D32046FEF777
:1027600057FC002504E0681CE9B220290546E2D2A6
:1027700028460C38C0B240087E28F4D8E8B2282198
:1027800000F020F8EFE7C04600000020A08601001E
:10279000FFFF00001000002030000240043801401C
:1027A000E80300200024014068656C6C6F20576FBF
:1027B000726C640A0D000000C8030020CC030020E6
:1027C000342C0140B0B506234343204CE05C421E4C
:1027D000032A16D80920C0067A4412795200974479
:1027E000060103051C4802E01A4800E01848084AA0
:1027F000D17003219170E118498811801146FEF7CC
:10280000BEFCB0BD000C00480008004800040048B1
:1028100008010020B0B50A46062141430B4B585C25
:10282000441E032C11D80920C006C0467C442479DC
:102830006400A74406010305074802E0054800E0DC
:10284000034859180979FEF7E2FCB0BD202E0008B4
:10285000000C00480008004800040048F0B5A1B092
:1028600000203549794A0B46C5010C466E187F2574
:10287000ED435F198021795A914202D1AD1CF8D104
:1028800008E08033401C10282146EDD110202B4C4D
:10289000264600E0294C102800D10026002E16D034
:1028A0002548864201D0803E344611A84025214665
:1028B0002A46FDF7B1FC655D20464030467842343B
:1028C00001A83E222146FDF7A7FC300246191C480C
:1028D00086422DD1994C11A9402520462A46FDF764
:1028E0009BFC66532046423001A93E22FDF794FC32
:1028F00060880121002221280B4600D3134620883E
:102900002128084600D310461840A388212B0B46E7
:1029100000D313461840A38B212B0B4600D313463C
:102920001840E38B212B00D31146084021B0F0BDA5
:10293000002021B0F0BDC046007C00088083000864
:10294000ABDC0000F0B500223C49885E3C4B1B78B4
:10295000002803D52F2B6FD1002008800C8825B2CA
:1029600038484355631C0B80002C65D09CB2022C68
:102970000DD13448407838490870022830D00128F9
:1029800032D0002858D1304808210170F0BD1CB267
:102990002D4B1B789C424FDB2C4D0D8021188C1E3B
:1029A0002478491E097809020919032B21D31A1822
:1029B000D21E0024264B064602E06E1C954217D01C
:1029C0003546367836027440082603E03C46761ECB
:1029D0003706F2D0670024B2002CF7D55F40F5E748
:1029E00019480A210170F0BD17480B210170F0BD94
:1029F000A2B2914220D14C21504A515A8278914240
:102A00001AD141490968134A1160134B1B78002BF6
:102A100003D0012B0CD1C31D00E0431D1B780F4CCC
:102A200023700423C3561B02C0781818394B186052
:102A300011600B4801210170F0BDC046AC030020BD
:102A4000E80300200C010020AE030020FFFF00007F
:102A500021100000B0030020AF03002089040020F3
:102A60009403002070B5002525484057002800D465
:102A700070BDFEF775FDFFF70BFB22480068224989
:102A80000968081AFB2804D3204800210160204867
:102A90000160582029490A5A1E4C2068002A11D08A
:102AA0001B490968FEF7AAFC322100F06DF8FEF719
:102AB000CBFC19490860206800280DD10D60FEF795
:102AC000E3FC09E04A228A5A42437D20C1001046B5
:102AD00000F05AF8104908600F4804682046FDF7D6
:102AE000BCFE0126F2079143FDF772FE0B49086018
:102AF0004860002C00DC2E46094A1670886070BDC4
:102B0000D0030020C0030020CC030020A00300203D
:102B1000E4030020F8030020D8030020342C0140F7
:102B20000400002080B54E21044A525A42430A2133
:102B30005143034800F006F880BDC0461000002055
:102B40000087930343088B421AD3002203098B4268
:102B500079D3030A8B425ED3030B8B4242D3030C1F
:102B60008B4227D30902FF2212BA030C8B4202D3F5
:102B70001212090203D0030B8B4233D31AE0D3E0C5
:102B8000411A8041401C704703460B4371D44308EF
:102B90008B42F5D3002203098B4254D3030A8B42A4
:102BA00039D3030B8B421DD3030C8B4202D39446C3
:102BB0006EE0090AC30B8B4201D3CB03C01A52410A
:102BC000830B8B4201D38B03C01A5241430B8B42C0
:102BD00001D34B03C01A5241030B8B4201D30B03A9
:102BE000C01A5241C30A8B4201D3CB02C01A5241D0
:102BF000830A8B4201D38B02C01A5241430A8B4293
:102C000001D34B02C01A5241030A8B4201D30B027B
:102C1000C01A5241CDD2C3098B4201D3CB01C01A95
:102C2000524183098B4201D38B01C01A524143099F
:102C30008B4201D34B01C01A524103098B4201D38D
:102C40000B01C01A5241C3088B4201D3CB00C01AFA
:102C5000524183088B4201D38B00C01A5241430872
:102C60008B4201D34B00C01A5241411A524110000D
:102C70007047CA0F00D04942031000D3404253406E
:102C800000229C4603098B422DD3030A8B4212D3A8
:102C90008901FC2212BA030A8B420CD389019211DA
:102CA0008B4208D3890192118B4204D3890137D01A
:102CB000921100E08909C3098B4201D3CB01C01AEC
:102CC000524183098B4201D38B01C01A52414309FF
:102CD0008B4201D34B01C01A524103098B4201D3ED
:102CE0000B01C01A5241C3088B4201D3CB00C01A5A
:102CF000524183088B4201D38B00C01A5241D9D272
:102D000043088B4201D34B00C01A5241411A00D2F2
:102D100001465241104663465B1000D34042704763
:102D200063465B1000D3404201B50021004201D050
:102D3000C9430846C046C04602BD80807F7E7D7C78
:102D40007B7A7978777676757473727171706F6E3D
:102D50006E6D6C6C6B6A6A696868676666656464E8
:102D6000636362616160605F5F5E5E5D5D5C5C5B72
:102D70005B5A5A59595858575756565555555454E1
:102D8000535352525251515050504F4F4F4E4E4D3F
:102D90004D4D4C4C4C4B4B4B4A4A4A49494948488B
:102DA00048474747474646464545454444444443CB
:102DB000434343424242424141410000000001007E
:102DC00001000200020003000300040004000500EB
:102DD000050006000600070007000D0008000E00B1
:102DE00009000003050401020600000401010201BC
:102DF0000202010601000701000D01001007011188
:102E000007011207011304011702011A06011B062C
:102E1000011C06010000000000000000000000008E
:102E20000100010000000100020001000100040097
:102E3000020001000800030001001000040001006E
:102E4000200005000100400006000100800007008E
:102E5000010000080B00010000100C000100002020
:102E60000D00010000400E00010000800F00020074
:102E70000100000002000200010002000400020044
:102E800002000800030002001000040002002000FD
:102E9000050002004000060002008000070002005A
:102EA00000010800020000020900020000040A00FC
:102EB000020000080B00020000100C0003000020BC
:102EC0000D00030000400E00030000800F0004000E
:102ED00001000000040002000100040004000200E0
:102EE0000400080003001003011103001300011483
:102EF00000000000182F000800000020A8000000BB
:102F000004010008C02F0008A8000020E809000004
:102F1000200100080000000000A24A040101000096
:102F2000A00F000060F0FFFFFFFFFFFFFFFFFFFFAC
:102F3000FFFFFFFFFFFFFFFFFFFFFFFFFFFFFFFFA1
:102F4000FFFFFFFFFFFFFFFFFFFFFFFFFFFFFFFF91
:102F5000FFFFFFFFFFFFFFFFFFFFFFFFFFFFFFFF81
:102F6000FFFFFFFFFFFFFFFFABDC1F00FA000000C9
:102F7000004B002001001E0000000A002C0101008F
:102F8000010010A4007DE803000000000000000024
:102F90000000000000000000000000000000000031
:102FA000000000000000000001000000000102031A
:102FB00004010203040607080900000000000000E5
:04000005080000C12E
:00000001FF
