:020000040800F2
:1000000078060020650100089101000893010008AE
:1000100000000000000000000000000000000000E0
:100020000000000000000000000000009501000832
:10003000000000000000000097010008D104000843
:100040009B0100089B0100089B0100089B01000820
:100050009B0100089B0100089B0100089B01000810
:100060009B0100089B0100089B0100089B01000800
:100070009B010008B10600089B0100089B010008D5
:100080009B01000800000000000000009B01000828
:10009000000000009B0100089B0100089B01000874
:1000A000000000009B0100089B0100089B01000864
:1000B0009B010008000000009B01000800000000F8
:1000C00000F002F800F03EF80CA030C80838241800
:1000D0002D18671EA246AB4654465D46AC4201D180
:1000E00000F030F87E460F3EB6460FCC0126334274
:1000F00000D0FB1A3343A246AB461847040F00005A
:10010000240F0000103A02D378C878C1FAD85207F9
:1001100001D330C830C101D504680C6070470000BD
:100120000023002400250026103A01D378C1FBD813
:10013000520700D330C100D50B6070471FB51FBDFB
:1001400010B510BD00F04FF81146FFF7F7FF00F0B3
:10015000CFFD00F067F803B4FFF7F2FF03BC00F037
:100160006DF80000104880F30888104810490160BD
:1001700010480168090E104A914205D10F480C49F8
:1001800001600F480F4901600F4880470F48004742
:10019000FEE7FEE7FEE7FEE7FEE7FEE70C480D4957
:1001A0000D4A0E4B70470000780600206020024088
:1001B00001000000040000001F00000018100240B1
:1001C0000000014000000000F1040008C100000828
:1001D00078000020780600207802002078020020B5
:1001E000704770477047754600F024F8AE4605002A
:1001F00069465346C008C000854618B020B5FFF7D1
:10020000CDFF60BCB64600260027C0C5C0C5C0C52E
:10021000C0C5C0C5C0C5C0C5C0C5403D490849002E
:100220008D46704710B50446C046C0462046FFF7CD
:1002300092FF10BD004870470800002001491820B7
:10024000ABBEFEE72600020070470000F0B581B0AB
:100250000925EC06082102262046324600F0C0F8A7
:1002600020462946324600F0BBF80A212046324695
:1002700000F0B6F81D4D0D212846324600F0B0F8CA
:100280000E212846324600F0ABF80F2128463246B0
:1002900000F0A6F86E46304600F0B8F8144800901A
:1002A0002046314600F054F801277802308020467D
:1002B000314600F04DF8B80230802046314600F05B
:1002C00047F8780330802846314600F041F8B803FB
:1002D00030802846314600F03BF8F803308028464D
:1002E000314600F035F801B0F0BDC04600040048CA
:1002F0000001031810B5E84800687D21C90000F02E
:1003000083FD411E080E00D0FEE70948094A5160EE
:1003100009490B6803400324A4071B190B60002341
:100320009360072313600A6802400A6010BDC0464C
:10033000FFFFFF0010E000E020ED00E081B0009042
:1003400069480099016001680029FCD101B070473B
:10035000F0B583B0CB780F221C4602921440DD0624
:10036000019301D58D782C4300910A8800263746E9
:1003700003E0361D7F1C082F0CD01546FD40ED070D
:10038000F7D02546B540029BB34001689943294305
:100390000160EEE70099098800910D0A00263746B2
:1003A00003E0361D7F1C082F0CD02946F940C907F1
:1003B000F7D02146B140029BB34042689A430A43BA
:1003C0004260EEE70199482903D0282906D114306C
:1003D00000E010300168009A1143016003B0F0BDE5
:1003E000B0B5082901D3242300E02023C4584907CD
:1003F000C90E0F258D40AC438A402243C250B0BD88
:1004000080680840411E88417047000002494180D1
:10041000024901807047C04602040000FFFF00004F
:10042000002A02D010228150704714228150704758
:1004300080B582B001AA01239370517010701046EC
:1004400000F002F802B080BD70B501788278002A11
:1004500015D0FC220A400D4BD4588D07ED0EFF2617
:10046000AE40B44340788001C0B2A8402043D05091
:100470001F200840012181400548016070BD1F20F8
:100480000140012088400349086070BD00E400E09D
:1004900000E100E080E100E0054A002903D0116896
:1004A0000143116070471168814311607047C04675
:1004B00014100240054A002903D01168014311605D
:1004C00070471168814311607047C04618100240A0
:1004D00005480168002902D00168491E01600348EF
:1004E0000168491C016070476C0000206800002012
:1004F000F0B58BB0644F38680122104338607868DB
:10050000624901407960386861490140396090046E
:10051000396881433960C320000479688143796078
:1005200038685C49014039609F200004B8600020B1
:100530000A900390099014043868204338600292AE
:1005400050043968014009910A99491C0A91099996
:10055000002904D1052109020A9A8A42F1D1396899
:10056000014201D1002000E0029809900998012879
:1005700000D087E0484D49482860494E3068102136
:100580000143316030680721884330602868401E8D
:10059000444900F039FC3168014331607868786083
:1005A0007868786002988002796801437960032056
:1005B0000190000479688143796038683A490840BD
:1005C00038607868204378602B68039801461F469E
:1005D00006460491701C0590344D039C06E0334997
:1005E0006D18641C002F079206901ED0402C18D066
:1005F00008973746284605991E4600F005FC334605
:10060000311A00D2C11A3E46089F8F42304600D8A8
:1006100006988F42224600D8079A8F42DFD30F46B2
:10062000DDE70499002906D009E00027079206902B
:100630000299002903D1059804280646C9D1124A17
:100640001068194908401060079880060699C9B2D9
:100650000905014310680843106001200006116875
:100660000143116010688001FCD5506801998843EE
:100670005060506802210143516050680C210140D4
:100680000829FAD10BB0F0BD001002400CC0FFF8F1
:10069000FFFFF6FEFFFF8F000000002000D8B80526
:1006A0000020024000366E01FFFF0F0000127A00AA
:1006B000F0B583B0F64C2021204600F09DF9854826
:1006C0000078401E052800D9D2E0C0467844007961
:1006D00040008744021C47739DCF08260025204612
:1006E00031462A4600F076F9204631462A4600F087
:1006F00079F9602620462946324600F02FFA012279
:100700002046294600F066F92046294618E00025D3
:10071000204629462A4600F05DF9204629462A4609
:1007200000F060F90827602620463946324600F07E
:1007300015FA01222046394600F04CF92046394688
:100740002A4600F04FF9042720463946324600F089
:1007500005FA204639462A4600F03CF9204639463B
:100760003A467FE004250295002620462946324677
:1007700000F030F920462946324600F033F90825CA
:100780006027204629463A4600F0E8F90122204633
:10079000294600F01FF920462946324600F022F98A
:1007A000204631463A4600F0D9F9204631463246D5
:1007B00000F010F920463146029A53E00826002541
:1007C000204631462A4600F005F9204631462A46A1
:1007D00000F008F904266027204631463A4600F02A
:1007E000BDF901222046314600F0F4F8204631469A
:1007F0002A4600F0F7F8204629463A4600F0AEF9BE
:10080000204629462A4600F0E5F82046294628E0F9
:100810000025204629462A4600F0DCF820462946D5
:100820002A4600F0DFF80426602202922046314674
:1008300000F094F901222046314600F0CBF8204622
:1008400031462A4600F0CEF8082720463946029A5B
:1008500000F084F9204639462A4600F0BBF82046CD
:100860003946324600F0BEF81A490878461C0E7028
:1008700003B0F0BD042502950027204629463A46DC
:1008800000F0A8F8204629463A4600F0ABF860226E
:1008900001922046394600F061F90126204639468A
:1008A000324600F097F8204639463A4600F09AF86A
:1008B000082520462946019A00F050F9204629468D
:1008C0003A4600F087F820462946029A00F08AF856
:1008D0000049CCE770000020F0B58DB00E460190C5
:1008E0002948401C01242146FFF7E4FD0AAF3846A1
:1008F00000F0A2F90025BD723D813E80BD700198D7
:100900000B90CB48394600F055F906AE304600F062
:100910001DF96002B0812002708175720421B170EE
:10092000308019480790C24D2846314600F084F8BF
:100930002846314600F0AEF82846314600F0D8F897
:100940002846214600F03EF820212846224600F0A5
:1009500069F82846214600F05BF802AE304600F008
:1009600028F8A003B08109480490094802902004A7
:1009700003902846314600F00DF82846214600F045
:100980003FF80DB0F0BDC046FF070000001000208A
:10099000000800080A884B8813438A881A43CB88CA
:1009A00013430A891A434B891343898919434164C4
:1009B00070470021818141810181C1808180418016
:1009C000018070474A1E9141426801239A435118A1
:1009D000416070478A4001238B40016A994311436B
:1009E000016270470C2906D08A4004238B40016ABB
:1009F000994311430162704702698A43026170475B
:100A00004A1E9141026801239A43511801607047C0
:100A10004A1E9141C9030122D203436C93435918E2
:100A200041647047002A03D0C2680A43C26070471D
:100A3000C2688A43C2607047B0B5826970239A4326
:100A40000B78134383610A7A4B781343046A0322B9
:100A500094431C4304624B684363754B984205D032
:100A6000714B984202D0714B98420FD14B7A8C78DF
:100A70001C43036A0C25AB43234303624B898989DA
:100A800019431202436893430B434360B0BDC04611
:100A9000002C0140B0B507221203836993430A7802
:100AA00012021A438261026A30239A430B7A4C780D
:100AB0001C432301134303624A688263224A131FC3
:100AC000984200D0B0BD036AC024A3434C7A8D780D
:100AD00025432C011C4304620320800213688343D6
:100AE000488989890143880018431060B0BDC04619
:100AF00070B5C26970239A430B781343C361032214
:100B00001302046A9C430B7A4D781D432B02234346
:100B100003624B68C3630C4B1C1FA04200D070BD26
:100B20009402056AA5434C7A8E78264334022C43FE
:100B3000046210031A6882434889898901430801C5
:100B40001043186070BDC046042C01400021817024
:100B500001804160816081817047000010B50123F0
:100B60008B40046A9C4304620223D941032920D8A4
:100B70007944097949008F4401070F158169702371
:100B800099431143816110BD0721090383698B4398
:100B900011021943816110BDC1697023994311434A
:100BA000C16110BD07210903C3698B4311021943B9
:100BB000C16110BD03221202036893430A891A43DC
:100BC0000260184A904209DD174A90421CD0174A29
:100BD000904219D0164A904207D01BE0012292079A
:100BE000904202D0134A904214D1026870239A4373
:100BF0008B78134303600E4A904205D00A4A904214
:100C000002D00A4A904205D1026BFF239A438B7AA5
:100C1000D21802634A68C262098881620121416177
:100C20007047C046FF2B014000480140004401408E
:100C3000002C0140000400400021018101808172EC
:100C40008170C94341607047F0B581B001246004F0
:100C50002146FFF721FCA0042146FFF71DFCE0041C
:100C60002146FFF719FC20052146FFF715FC1F4818
:100C700000900920C0066D462946FFF769FB04264F
:100C80002E80604F38462946FFF762FB08202880F7
:100C900038462946FFF75CFB2E80584F38462946D8
:100CA000FFF756FB6002288038462946FFF750FBC5
:100CB0004820E87060032880514F38462946FFF7E6
:100CC00047FBA003288038462946FFF741FBE00395
:100CD000288038462946FFF73BFBEE70202028800D
:100CE00046482946FFF734FB01B0F0BD0010011063
:100CF00082B0FFF7A9FFFFF7A9FA3F480021FFF7ED
:100D0000EBFDFFF7F7FA0D2001242146FFF790FBDA
:100D10003A4E042130462246FFF782FB202130461E
:100D2000FFF76EFB01946702002816D001243046BD
:100D300039462246FFF774FB2046FFF7FFFA0022F0
:100D400030463946FFF76CFB2046FFF7F7FA2021C3
:100D50003046FFF755FB0028E8D10520FFF7EEFAF3
:100D6000019C610326480546FFF74AFB024609201D
:100D7000C0062149491CFFF753FBA1032846FFF792
:100D80003FFB024604211F4D2846FFF749FBE103C4
:100D90001B48FFF735FB024608212846FFF740FBBA
:100DA0000520FFF7CBFA20213046FFF729FB00286A
:100DB000D6D00325012230463946FFF731FB0A24FD
:100DC0002046FFF7BBFA002230463946FFF728FBE2
:100DD0002046FFF7B3FA6D1EECD100E000BF2021E2
:100DE0003046FFF70DFB0028F8D1042100223046E1
:100DF000FFF716FBB4E7C046FF0F000000040048F1
:100E000000080048000C004843088B421AD3002217
:100E100003098B4279D3030A8B425ED3030B8B42C7
:100E200042D3030C8B4227D30902FF2212BA030CD0
:100E30008B4202D31212090203D0030B8B4233D32D
:100E40001AE0D3E0411A8041401C704703460B432F
:100E500071D443088B42F5D3002203098B4254D34B
:100E6000030A8B4239D3030B8B421DD3030C8B42F5
:100E700002D394466EE0090AC30B8B4201D3CB0325
:100E8000C01A5241830B8B4201D38B03C01A5241CB
:100E9000430B8B4201D34B03C01A5241030B8B42CD
:100EA00001D30B03C01A5241C30A8B4201D3CB02B8
:100EB000C01A5241830A8B4201D38B02C01A52419D
:100EC000430A8B4201D34B02C01A5241030A8B42A0
:100ED00001D30B02C01A5241CDD2C3098B4201D3B8
:100EE000CB01C01A524183098B4201D38B01C01A36
:100EF000524143098B4201D34B01C01A52410309AD
:100F00008B4201D30B01C01A5241C3088B4201D35B
:100F1000CB00C01A524183088B4201D38B00C01A08
:100F2000524143088B4201D34B00C01A5241411A2F
:100F3000524110007047CA0F00D04942031000D33D
:100F40004042534000229C4603098B422DD3030AA2
:100F50008B4212D38901FC2212BA030A8B420CD3B2
:100F6000890192118B4208D3890192118B4204D3DB
:100F7000890137D0921100E08909C3098B4201D35E
:100F8000CB01C01A524183098B4201D38B01C01A95
:100F9000524143098B4201D34B01C01A524103090C
:100FA0008B4201D30B01C01A5241C3088B4201D3BB
:100FB000CB00C01A524183088B4201D38B00C01A68
:100FC0005241D9D243088B4201D34B00C01A52413F
:100FD000411A00D201465241104663465B1000D3CD
:100FE0004042704763465B1000D3404201B5002188
:100FF000004201D0C9430846C046C04602BD0000B9
:101000002010000800000020080000000401000873
:1010100028100008080000207006000020010008C9
:0810200000D8B8050000000033
:04000005080000C12E
:00000001FF
