:020000040800F2
:10000000400C0020B5010008E1010008E3010008F0
:1000100000000000000000000000000000000000E0
:10002000000000000000000000000000E5010008E2
:100030000000000000000000E7010008D5280008CB
:10004000EB010008EB010008EB010008EB010008E0
:10005000EB010008EB010008EB010008EB010008D0
:10006000EB010008EB010008E1220008EB010008A9
:10007000ED1E0008652A0008EB010008252B00088A
:10008000712B00080000000000000000EB010008D8
:1000900000000000EB010008EB010008EB01000884
:1000A00000000000EB010008EB010008EB01000874
:1000B000EB01000800000000EB0100080000000058
:1000C00000F002F800F04AF80CA030C808382418F4
:1000D0002D18671EA246AB4654465D46AC4201D180
:1000E00000F03CF87E460F3EB6460FCC0126334268
:1000F00000D0FB1A3343A246AB461847B05D000060
:10010000D05D00000023002400250026103A01D312
:1001100078C1FBD8520700D330C100D50B607047BF
:1001200010B5662902D104F007FF10BD692902D17C
:1001300000F0BAF810BD782902D100F0EBF810BD3C
:10014000002010BD1FB501F0E1F9040000200021DE
:1001500004F088FEE0601FBD10B510BD01F0BEFDCB
:100160001146FFF7EFFF04F039F901F0D6FD03B4B3
:10017000FFF7F2FF03BC01F081FE000070B50546F9
:100180000C46164602E00FCC0FC5103E102EFAD2D8
:10019000082E02D303CC03C5083E042E07D301CC9E
:1001A00001C5361F03E021782970641C6D1C761E82
:1001B000F9D270BD104880F30888104810490160DA
:1001C00010480168090E104A914205D10F480C49A8
:1001D00001600F480F4901600F4880470F480047F2
:1001E000FEE7FEE7FEE7FEE7FEE7FEE70C480D4907
:1001F0000D4A0E4B70470000400C0020602002406A
:1002000001000000040000001F0000001810024060
:100210000000014000000000F1280008C1000008B3
:1002200040060020400C002040080020400800202C
:100230000FB41CB5074B06AA7B446946009005988D
:1002400001F017F90020694601F026F91CBC08BC32
:1002500004B018475D12000070B504468569006857
:10026000C10601D5302600E02026C00707D070BDAA
:1002700062683046A1689047206A401C20626D1E6B
:10028000F6D570BD70B5044685690078C00707D102
:1002900070BD6268A16820209047206A401C2062DF
:1002A0006D1EF6D570BD0000F7B5002575291068E4
:1002B000009914A611D0C046C046002802DA404278
:1002C00011A608E0009909688A0701D50FA602E087
:1002D000490704D50EA6012501E0C046C046009F8F
:1002E0000024243704E001F0FCF830313955641C57
:1002F0000028F8D12B4632462146009800F052FEE5
:10030000FEBD0000000000002D0000002B000000DA
:100310002000000070B504460D4621461068C04616
:10032000C0462188090502D50F4A7A4402E00E4AE8
:100330007A440E3223460021243305E006070009E3
:10034000360F965D5E54491C0028F7D120780023B3
:10035000000705D5702D03D0002901D002231132EA
:10036000204600F01FFE70BD1A4C0000F3B5044695
:10037000002081B020622046E168884700287DD0B7
:10038000252802D06268A16883E0454F00257F449C
:100390002046E16888472028064608DB312E06D231
:1003A000B81920380078002801D00543F0E7A807E5
:1003B00001D5042085430020E0610746A0612A2E74
:1003C0000AD0304604F046FD002827D0B8000019B6
:1003D000303E0090866119E00298BA00121902C8F6
:1003E000916102902046E1688847012F064617D1A7
:1003F000E06900281FDA202085431CE000980A21CC
:100400008069484300998019303888612046E16846
:100410008847064604F01EFD0028EFD1012F0AD0C0
:100420002E2E08D12046E168884706462020054345
:100430007F1C022FC3DBA069002803DA4042A061C1
:1004400001200543E80701D010208543002E24D069
:1004500030464138192803D80120C0020543203610
:10046000204625603146029A1546FFF759FE0028BE
:100470000CD0012807D0ED1DE80800E00DE0C00019
:100480000830029077E72D1D029574E762683046C8
:10049000A1689047206A401C6CE7206AFEBD0000FE
:1004A000DE4B0000F8B5042A2CD3830712D00B785A
:1004B000491C0370401C521E83070BD00B78491C4B
:1004C0000370401C521E830704D00B78491C037034
:1004D000401C521E8B079B0F05D0C91ADF0020233A
:1004E000DE1B08C90AE0FFF749FEF8BD1D4608C932
:1004F000FD401C46B4402C4310C0121F042AF5D204
:10050000F308C91A521EF0D40B78491C0370401C22
:10051000521EEAD40B78491C0370401C012AE4D413
:1005200009780170F8BDD2B210B513029A181304FD
:100530009A1800F0B6FF10BD002203098B4273D356
:10054000030A8B4258D3030B8B423CD3030C8B42E0
:1005500021D312E003460B437FD4002243088B4291
:1005600074D303098B425FD3030A8B4244D3030B3A
:100570008B4228D3030C8B420DD30902FF2212BAFF
:10058000030C8B4202D31212090265D0030B8B427B
:1005900019D300E0090AC30B8B4201D3CB03C01A65
:1005A0005241830B8B4201D38B03C01A5241430B40
:1005B0008B4201D34B03C01A5241030B8B4201D330
:1005C0000B03C01A5241C30A8B4201D3CB02C01A9B
:1005D0005241830A8B4201D38B02C01A5241430A13
:1005E0008B4201D34B02C01A5241030A8B4201D302
:1005F0000B02C01A5241CDD2C3098B4201D3CB01A9
:10060000C01A524183098B4201D38B01C01A524157
:1006100043098B4201D34B01C01A524103098B425B
:1006200001D30B01C01A5241C3088B4201D3CB0046
:10063000C01A524183088B4201D38B00C01A524129
:1006400043088B4201D34B00C01A5241411A00D2D9
:1006500001465241104670475DE0CA0F00D0494242
:10066000031000D3404253409C46002203098B42B2
:100670002DD3030A8B4212D38901FC2212BA030A3A
:100680008B420CD3890192118B4208D389019211BC
:100690008B4204D389013AD0921100E08909C30941
:1006A0008B4201D3CB01C01A524183098B4201D343
:1006B0008B01C01A524143098B4201D34B01C01A2E
:1006C000524103098B4201D30B01C01A5241C308A6
:1006D0008B4201D3CB00C01A524183088B4201D315
:1006E0008B00C01A5241D9D243088B4201D34B0030
:1006F000C01A5241411A00D2014652411046634687
:100700005B1001D34042002B00D54942704763463D
:100710005B1000D3404201B50449002802DC491CAB
:10072000084000E00846C046C04602BDFFFFFF7F0C
:1007300070477047704700000246C80FC0078143EA
:100740004B0030B54B405B009B0D20D01923DB06DE
:10075000C91801231B05994220DB0324A4070425A3
:100760001346AB400BD3002B04D1EB0613409B0088
:10077000E34204D401246407002312195941FF23E2
:100780001B0599420BD2C9000143500F09E0CB026F
:1007900004D501430803024305D0054830BDFF21BD
:1007A000C905084330BD084607210905884330BD07
:1007B0000000C07FF0B5F94D0C091E092C402E40F9
:1007C0002F468BB0A7437DD0B543FCD0002E7AD006
:1007D000002CFCD00D465D40ED0F2543AC1BFF25E2
:1007E000AD0464190894C502440DC9022143500D9B
:1007F000DC0204430120C00701430443D2020191FB
:10080000200C110C00958C46010423468B430A9161
:1008100061460904E24D8A430991010A7D44491960
:100820008039097805464D4301266D18F605751B7C
:100830006943C90C640B891C4C436418B5012C1B1B
:10084000250C2E04B4434C434D43210C69188909EF
:100850000591009DE90701D00121C90704912C46AB
:1008600001996708CD072F434C08059DE10B4D43C7
:100870002D0C29466646754302950D4645432E4686
:10088000029D7D1BB44100950D465D4301942C0CE7
:100890002F040D465543AE462D0C3D43029503945F
:1008A0007546049C2D04641B049406D2029C039D8F
:1008B000641C002675410395029401AC70CC009F26
:1008C0007D1B01E03EE162E1B4410904009507911E
:1008D00001940599A4086143090C0C464443650B37
:1008E000E7040C4666467443A646640B3C430395F6
:1008F00002947446049DE4042C1B049406D2029CCA
:10090000039D641C002675410395029401AC70CCD4
:10091000009F7D1BB44101940C465C430095650F1C
:10092000E7000C465443A646640F3C4303950294EB
:100930007446049DE4002C1B049406D2029C039D83
:10094000641C002675410395029401AC70CC009F95
:100950007D1BB441AE09AF06049DC900AD092F430C
:10096000049DA406AD060495079D344369180791BC
:10097000059DE10B4D432D0C2946664675430295B6
:100980000D4645432E46029D7D1BB44100950D4604
:100990005D4301942C0C2F040D465543AE462D0C9F
:1009A0003D43029503947546049C2D04641B0494F6
:1009B00006D2029C039D641C002675410395029497
:1009C00001AC70CC009F7D1BB44101948C05069452
:1009D000079C890A611800950791019C0599A40854
:1009E0006143090C0D464543680BEF040D46644610
:1009F00065436C0B3C43049FED047D1BAC4602D267
:100A00000025641C6841009E019D371B85410846F6
:100A1000584301950C46460FC5005443600F2843C8
:100A20006546E4002C1B02D20025401C6E41019D4E
:100A30003F1AB5412846BD09800628438446A009CF
:100A4000BF064E020699A40676180743079D0020AC
:100A500068410A99079019430020099B009060465D
:100A6000FF1913434041E20F64003A43A446044691
:100A7000D71A8C41A04203D90120009020463A4663
:100A8000C70F941840416246D20F22436446640067
:100A90000494009CBE466400D71AA44604460297FC
:100AA0008C417746002F01D1A04204D96046401CFA
:100AB0008446029A2046C40FA64694184041049AE0
:100AC0000546D20F224364466400D31A8D41714615
:100AD000002901D1A84202D928461A46641C1043B5
:100AE0000122002800D0164361020020079B8919CB
:100AF00004465C410223002C02DB49181346644182
:100B0000089DCE0A2D145D194B056705E10A2C05D9
:100B10000D1908993E43C9076940002B08D093403E
:100B200006D30022761C5141002B01D176087600B5
:100B30001C4A002D43DB154241D0AA433FD030462A
:100B40000BB0F0BD06180D464D41174C7642AC4136
:100B50001AD395181C465C41134A6D42A24113D327
:100B6000012252054C00D4420AD15C00D4420BD081
:100B70004B4002D592021143E2E749004908DFE702
:100B80005940C90FC90718E000200849D8E70548AF
:100B900001420DD10342F7D0F2E700000000FF0749
:100BA000614700000000F07F0000E0FF0000F87FD8
:100BB000114859400143C01241400020C0E70123C1
:100BC000089A9B069A4205DC032252078918C90F2E
:100BD000C907B5E7052252078918074A1143D212FF
:100BE0005140ADE770B515461C4602460B462846F7
:100BF0002146FFF7DFFD70BDFFFFFF7F30B50346E5
:100C0000CA02400D1043164D164C0A1502D020435F
:100C1000002A06DBAA1A002A12DDD040FF2A0BDCCC
:100C200030BD5205520D01D140004008AA1A07D428
:100C3000D0404042FF2A01DD002030BD0028FCDD0D
:100C40004A00002B01D0012000E0002010180122F2
:100C50005205D042F0D8C817C043604030BD0000F4
:100C60001E040000000000800346CA02400D10B5BB
:100C700010430A1504D00124E4072043002A05DBB1
:100C80000A4CA21A04D4D040FF2A00DD002010BD77
:100C90004A00002B01D0012000E0002010180122A2
:100CA0005205D042F2D8C817C04310BD1E04000040
:100CB0001F22030C02D10F22000402D0030E03D026
:100CC00004E00020014670470002083A030F01D1FA
:100CD0000001121F830F01D18000921E002801DB4A
:100CE0004000521E120551184205C012411810460C
:100CF0007047C10FC90700D040420122920711433B
:100D0000D6E701218907D3E7F0B58B4C0F092546BB
:100D100089B0BD437BD01D092646AE43FAD00E46AE
:100D20005E402740F60F3E43254071D0240121420A
:100D3000FBD0FF24AD19A4042D1B039501252D051F
:100D4000DB02DB0AC9022B43C90A29431E01090140
:100D5000040F130F050121431701880B82039143F0
:100D60002D098C46A90B1E438A039543B30B9A03A6
:100D700096433F09BA0B9403A74302962E467E433F
:100D80000497B6464E19D7190C4601965443059759
:100D90007E43371B7646BF1B3601B646BE0B36195F
:100DA00000967646BC043719009C01D3641C00945D
:100DB0006400002F01D001263443029E049F754336
:100DC00066467E430496760034196E00341900940A
:100DD000029C019E1C196643751BAE46069465462F
:100DE0004519059C05956C43594375460891691A48
:100DF0000191049E01465143A41B0491611A009C79
:100E00000791E10605D061090122114302E072E079
:100E10006EE06109089D00272C0A2D066918049DC3
:100E20007C412A0A2D066918019D6241AC0DAD0274
:100E30006D185441079A910D920255196141029A19
:100E4000644658435443069B059A5A43121A131B8F
:100E50009A0E9B015B187A41010B0005C3185141A2
:100E6000220A200644195A419A4200D2491C012004
:100E70004002814203D315230226F64302E01423E5
:100E80000326F6432020C51AA9401746AF40DA4092
:100E90000A4320460399D8400914731819055118BC
:100EA000039A3843D2075140AC4009D00122944004
:100EB00006D30022401C5141002C01D140084000C3
:100EC0001E4A934212D3012203989206904207DBF6
:100ED0000520400709181A480143C012414004E0A8
:100EE000032040070818C10FC907002009B0F0BD52
:100EF0000020F107FAE705180C464C4111486D42F5
:100F0000A04115D394181A465A410E4864429041A4
:100F10000ED301204A004005824209D35A00824282
:100F200006D35940C90F084AC90700201143DDE71D
:100F300000200649DAE700000000FF07FE07000076
:100F4000FFFFFF7F0000E0FF0000F07F0000F87F60
:100F50000121C9050123411842001B06D3185B0E6D
:100F60000AD0C1100722D206891840075242D14246
:100F700001D5520089187047090208D50146002A98
:100F800003D0C10FC90700207047104670474202C6
:100F900002D0002002497047072109050143F4E708
:100FA0000000F87FFFB504460D4681B02430009064
:100FB0002168880604D51022E0699143216000E091
:100FC0000120A84201DD471B00E000270498A16929
:100FD0007A191018081AA0612078C00602D4204699
:100FE000FFF73AF9002608E003986268A168805D7F
:100FF0009047206A401C761C206204988642F3DBEE
:101000002078C0060AD52046FFF726F906E0626878
:10101000A16830209047206A401C206238467F1E1D
:101020000028F4DC07E000986268A168405D904702
:10103000206A401C206228466D1E0028F3DC2046F2
:10104000FFF720F92078000602D5022005B0F0BD98
:101050000120FBE7FFB50C461E468FB003CA08907F
:1010600009914F007D0D00D16D1E00210846002022
:10107000C0460321099A89050840002A03DA820044
:10108000801840080840800D01280A9002DD0020E9
:10109000C0430A90089807430DD0F048F04928183B
:1010A00048430714189800281DD07542291E1DDDDD
:1010B0000A9842421BE01898012802D000203021F3
:1010C00004E00020F24305E02154401CB042FBDB69
:1010D00030460022189B002121540F998B600A6032
:1010E000486013B0F0BDBD1B6D1CDFE70A9A0029F4
:1010F00000DA69420BA800F08FFA0BAB07CB03AB09
:1011000007C30899099800F0F3FA6B4607C3014634
:10111000D4480918002D00910BDDD24903980A9A92
:1011200049424018002303A90390684600F050FD8F
:1011300008E003990A9A0023081803A90390684657
:1011400000F0F0FC6B4607C30004000C03D0002045
:10115000C043410800E01046189A002A03D000223C
:10116000009215461EE0751E05D400F0D3F930320A
:1011700062556D1EF9D501220843079602D0002260
:101180007F1C04E02078302801D100227F1E002A35
:10119000069787D01EE0112D07DA00F0BBF9303238
:1011A00062556D1C02460A43F5D1084303D00098EE
:1011B000002819D00EE00021681E05E0235C625C67
:1011C00063542254401E491C8142F7DBA81B401E79
:1011D00007950690079A18990020A0540F98079B2E
:1011E000069A81600CC07CE711260020189059E710
:1011F000D21DF0B50D460446D10893B0C90003C90D
:101200000C900D9103F0F8FD02460D98C00F01D02F
:101210002D2007E02068810701D52B2002E0400740
:10122000C00F4001032A0F9001D0072A05DB0346B7
:101230002946204600F0ACF90EE12078800601D561
:10124000E76900E006272846652D04D0662814D0FB
:10125000672D69D12DE00020112F009001DB1123B3
:1012600000E07B1C0CAA03A910A8FFF7F3FE11995C
:10127000002610987D1C0E9142E001203B460CAAEE
:10128000C0070B900120009003A910A8FFF7E2FE11
:10129000119D12981099002600280E9501D1781CF6
:1012A0000D18781B02D446427D1C761EE81B009068
:1012B0003AE0012F00DA01270020112F009001DD14
:1012C000112300E03B460CAA03A910A8FFF7C2FEB9
:1012D00011993D46109800260E91217809070BD4EC
:1012E0000E99A94200DA0D4603A9012D04DD4A1921
:1012F000203AD27F302A06D0B84201DA011D04DA42
:10130000012100910FE06D1EEFE7002802DC861935
:101310002D1A03E0411CA94200DD0D46801B401C34
:1013200000900120C0070B902078000705D400989A
:10133000A84202DB0020C043009069460020C8722A
:101340000B98012102AF0337C907884225D002203C
:1013500010902B2011900B9800280BDA40420B9034
:101360002D20119006E00B9800F0BBF830317F1E65
:101370000B9039701099481E00291090F3DC0B98DF
:101380000028F0D111987F1E38702088000501D503
:10139000452000E065207F1E387001A8C01BC01DDD
:1013A0000B900F98002800D0012041190098C01719
:1013B00009180B980818A169081A401EA061207826
:1013C000C00602D42046FEF747FF0F98002805D03C
:1013D0006268A1689047206A401C20622078C0069D
:1013E00025D52046FEF738FF21E0002E07DB0E98BA
:1013F000B04204DD03A86268805DA16802E0626813
:10140000A16830209047206A761C401C206200981A
:10141000401E002800900AD100F078F8C068626889
:101420000168405CA1689047206A401C2062284601
:101430006D1E0028D9DC07E062683878A1687F1C3F
:101440009047206A401C20620B99481E00290B908F
:10145000F2DC2046FEF716FF032042E601FCFFFF08
:10146000104D0000E1DFFFFF01694A1C02610878AE
:10147000704700B58FB00291002105910549019395
:1014800079440391114604906846FEF76FFF0FB050
:1014900000BD0000E5FFFFFF0A681070521C0A60E3
:1014A000704701E004C0091F0429FBD28B0701D556
:1014B0000280801CC90700D00270704700290BD041
:1014C000C30702D00270401C491E022904D38307BF
:1014D00002D50280801C891EE3E70022EEE700228D
:1014E000DFE701468008081A02091018020A1018DE
:1014F000020C1018C008820012185200891A01E06C
:10150000401C0A390A29FBD2704700000048704786
:10151000100300200B4670B5024689078008084377
:1015200019469D08141AA941250908070543080909
:101530002C194841250A01060D43010A2C19414185
:10154000200C0D0428430D0C00194D4100214019B9
:101550004D41C00869070843E908840F8D00254301
:10156000840024184D4124196D41121BAB4107E042
:101570000925ED432C11521963410024401C61419F
:101580001C460A250026551BB441F1D270BD00004F
:10159000F8B51F46044601230068DB020326014616
:1015A0001840072A05DB002801D017A506E017A57B
:1015B00004E0002801D016A500E016A51020814304
:1015C0002160A069C01E002FA06101D0401EA06153
:1015D0002046FEF741FE002F09D038466268A16818
:1015E0009047206A401C2062C01C206206E0206AEE
:1015F000FAE762682878A1686D1C9047761EF8D2D9
:101600002046FEF73FFEF8BD4E414E006E616E0073
:10161000494E4600696E6600F7B516468AB03348F3
:1016200078446C4603467C33C06F5A689B680DC48F
:101630002E487844763003AC0DC80DC43720C00165
:10164000081837211B30FEF785FF05460C46803D04
:101650001B3C02D56442012000E0002000270990D5
:1016600010E0E0070CD00C20204978437944324642
:101670004C3941186846012300F054FA6B4607C301
:1016800064107F1C002CECD1184F7F442E3F16E0D5
:10169000E80712D02001C0190EC8069108930792DE
:1016A0000068F04201D1981908903246012306A93A
:1016B00003A800F037FA03AB07C36D10641C002DBC
:1016C000E6D10998002806D032466946012303A8CE
:1016D00000F07EFA05E001233246694603A800F0D7
:1016E00021FA0A9B07C30DB0F0BD0000E0390000ED
:1016F000034640000A4610B5400D0BD00121C90732
:101700000F24A40200191C0364082143540D214333
:10171000D20207E000210120F2E7D40F4900214363
:101720005200401E0029F8DADB0FDB07184310BD1A
:10173000FFB50D46144685B04868516803F043FB79
:1017400000910190A868A16803F03DFB029103900D
:10175000A868616803F037FB029A1218824202926D
:1017600001D2012000E00020019A0B18D2180028B5
:10177000019202D08A4202D903E08A4201D20120BA
:1017800000E000200099081800906868A16803F044
:101790001AFB029A12188242029201D2012000E042
:1017A0000020019A0B18D2180028019202D08A4218
:1017B00002D903E08A4201D2012000E00020009912
:1017C000081800902868216840004900400849082E
:1017D0004018FA49471814E001994000C90F08431E
:1017E0000090019802994000C90F084301900298A7
:1017F00003994000C90F08430290039840007F1EE0
:10180000039000980028E7DA0898002801D0EC4EF1
:1018100000E00026B74201DA012000E000200028A5
:1018200004902AD0F71BF806C00E15D0029B202189
:10183000091A039A8B401A430392029A019BC240F1
:101840008B401A430292019A009BC2408B40009940
:101850001A430192C14000917B110DD06F460320C5
:10186000C11A03D500218200B95003E08A0081002B
:10187000BA587A50401EF3D537460398029900288B
:1018800000D00120014308980291002808460CD09E
:10189000002800D001200199019A4905084301213F
:1018A000D20AC902D202019200E001210E9B01225C
:1018B000D207012B02D0002B03D013E0002807D160
:1018C00020E0904204D890420CD1019B0B4209D0F9
:1018D000019B5918019105D10099491C009101D132
:1018E0007F1C009200280DD0102108460020C04621
:1018F0000498002806D00F98002803D00821084635
:101900000020C04628682168019B009A4840C10F0A
:101910000598C90739430EC009B0F0BDFFB587B0BF
:10192000099A0898089953689268406889689646A9
:101930000022039317469446089A12685300099AA6
:101940005B081268520052089A1A9E4BD4180A9AE1
:10195000002A01D0352200E0402206920022012315
:1019600015460492DB07059324E0002D05D175464A
:101970000346039E4D1BB34109D375466646039B40
:10198000491B049D9841059B7519AC465F41634610
:101990003B4308D0059B049EDD0776082E435B0879
:1019A0000496059301E0521E641EC50FED07491809
:1019B0004041521C069B9A42D7DB002D04D175464C
:1019C000039A6B1A824101D203200CE0039A0B4662
:1019D0006B404240134303D0014303D0012002E097
:1019E000022000E000206146019100210097029151
:1019F0000A99002905D0614640020143704B0191CC
:101A000002E08007002302909C4201DA012000E0FE
:101A1000002007003AD01A1BD006C00E15D0029D38
:101A20002021019C091AC5408C402543029C8C4012
:101A300000D001242543019C0295009DC4408D40A7
:101A400000992C430194C140009154111DD06D4662
:101A50000221002202290CD10320001B07E00028EC
:101A600004DB8600AE59002E00D00122401C032862
:101A7000F5DB081B02D588002A5004E080002858B6
:101A800010438A00A850491EE3D51C460A98002836
:101A900002980CD0002800D001200199019A490534
:101AA00008430121D20AC902D202019200E00121B9
:101AB000109B0122D207012B02D0002B03D013E090
:101AC000002807D11FE0904204D890420CD1019B1E
:101AD0000B4209D0019B5918019105D10099491C6D
:101AE000009101D1641C009200280CD010210846FE
:101AF0000020C046002F06D01198002803D00821EE
:101B000008460020C04608980999019A009B006881
:101B100009684840C10F0798C907214382600AC07D
:101B20000BB0F0BD00B585B0019300920A460146A6
:101B3000002302A8FFF7FCFD02A807C805B000BDFE
:101B4000FFB50A461F4685B007990193012300910E
:101B5000014602A8FFF7ECFD02990398049ECA0F04
:101B60004900D20700920F22490892028C1A0021E4
:101B7000002800DB0C46450013486D08844214D34E
:101B8000079A002A04DA441E0026104DF64302E0AC
:101B900004460D460E46102108460020C046002F80
:101BA00003D0042108460020C0462005E90A084366
:101BB000009908436905F20A1143ADE602C0FFFF30
:101BC000013C0000FF3F0000FF070000FFFFFF7F18
:101BD00000B585B0019300920A460146002302A891
:101BE000FFF79CFE02A807C8A8E7FFB50A461F46F4
:101BF00085B00799019301230091014602A8FFF7E0
:101C00008DFE02990398049ECA0F4900D2070092E4
:101C10000F22490892028C1A0021002800DB0C4692
:101C2000450011486D08844214D3079A002A04DA4B
:101C3000441E00260D4DF64302E004460D460E46B6
:101C4000102108460020C046002F03D0042108467A
:101C50000020C0462005E90A0843009908436905A9
:101C6000F20A114358E60000FF070000FFFFFF7F64
:101C700010B5FF231B0644009C421DD84C009C421B
:101C80001AD80346124A0B4307D4401A02D3EFF383
:101C9000008010BDEFF3008010BD081A03D3EFF3EE
:101CA0000080904305E0EFF3008001219043C907D5
:101CB000084380F3008810BD0D231B041A4204D092
:101CC0001146002000F08AF810BD00F09FF810BD0A
:101CD0000000009000487047F00200207546FFF7B2
:101CE000F9FFAE46050069465346C008C000854668
:101CF00018B020B5FEF77AFA60BCB6460026002779
:101D0000C0C5C0C5C0C5C0C5C0C5C0C5C0C5C0C5AB
:101D1000403D490849008D46704710B50446C0460D
:101D2000C0462046FEF723FA10BD000082078B074D
:101D30009A423FD170B5920F0AD0032402780B78F3
:101D4000401C491C002A33D09A4231D12042F5D19F
:101D5000214EF40104C808C9951B9543254018D1AC
:101D60009A420FD104C808C9951B9543254010D14C
:101D70009A4207D104C808C9951B9543254008D14C
:101D80009A42E7D012BA1BBA01209A4200D24042CE
:101D900070BD12BA1BBA2DBA18241000E040190009
:101DA000E140401A05D12E00E64002D1083CF4D1B2
:101DB000D01A70BD02780B78401C491C002A09D04B
:101DC0009A4207D102780B78401C491C002A01D0A6
:101DD0009A42EFD0D01A704701010101C80212D512
:101DE0004803400F002804D0C803C04301218840A5
:101DF0007047EFF300800001000903210907084341
:101E000080F30088704700207047000010B502483A
:101E100000F004F810BD00000000C07F10B50C46B3
:101E20001107090F092904D00A290AD008290CD161
:101E300004E011460820FFF7D1FF06E0510606D561
:101E400001E0510601D50120C007214610BDD10691
:101E500007D501010909CC084907000E0006044313
:101E600009E0410F20024907000A0143200E000645
:101E70001D22D14101430846E7E70000014918202F
:101E8000ABBEFEE726000200704770B58D180478DF
:101E9000401CA207920F01D10278401C231106D1E9
:101EA0000378401C03E00678401C0E70491C521E4B
:101EB000F9D1002B15D002780C2634408A1A401C28
:101EC0000C2C03D0A401121B9B1C08E004782402F4
:101ED000121B401CF8E714780C70491C521C5B1E46
:101EE000F9D5A942D3D3002070BD0000F0B581B070
:101EF0007E4C0221204600F0FBF8002807D002218A
:101F0000204600F0D2F84048802100F0A9FE0125CB
:101F10002046294600F0F4F8002873D03B4E307874
:101F20007E2808D8401C3070A06B80B23C490A68FB
:101F30001018086062E07F281ED1394F3868C00948
:101F4000386001252046294600F098F84B20800093
:101F50003988081881B20022204600F0A2F8082132
:101F6000204600F094F8022120462A4600F0D0F8DE
:101F70003078401C307041E0E06B80B2FEF7B9FE73
:101F8000234A244BFEF7C0FE0026234F32463B4631
:101F9000FEF7BAFEFEF732FE20490860A06B20492A
:101FA000096880B2401AFEF7ACFE1E4A1E4BFEF7CF
:101FB000ABFE32463B46FEF7A7FEFEF71FFE1B4F69
:101FC000386001F005FF01F0DFFE386818498842EB
:101FD00000DB35460C48294600F038FE154D2878C0
:101FE00002F0C8F9144E3178884207D0287802F000
:101FF000C1F930701149087001F0E0FF012120465D
:1020000000F05AF801B0F0BD002C01400D05002091
:10201000DBF97E6ABC74A33F000059403006002003
:10202000F8040020333333333333D33FF404002038
:10203000E90300005802002059020020DA020020C3
:10204000B0B586B0294C204600F046F8012568025C
:10205000294600F0FDFB00200590A90202912021F5
:102060000191A904049100906946204600F060F8AF
:102070002046294600F027F806B0B0BD4A1E91411F
:102080004900426802239A435118416070470F2269
:102090001203836893438360090382680A43826062
:1020A00070470904891801617047012900D0022195
:1020B00042690A4342617047012900D00221426906
:1020C0000A43426170474A1E9141426801239A4384
:1020D000511841607047000080B50449884200D023
:1020E00080BD0120400202F03BF980BD0024014088
:1020F000491E4A1E91414269CA4001201040704762
:10210000491E4A1E91414269CA4001201040704751
:102110008368012905D10121002A05D00B43836082
:1021200070470221002AF9D18B4383607047000079
:1021300042680B4B134043604A680B681343426884
:102140001A4342608268074B134083600A694B69F7
:1021500013438968194382680A4382607047C04606
:102160000FBCFFFF8FF1F9FF10B50F2292024468F8
:1021700094434460102B00D29B0242681A43426091
:1021800001228A40C3689343C360C3681343C3609A
:102190000804800F04D00E4801680C220A43026034
:1021A00010BDC0464A1E91410902012212028368F5
:1021B00093435918816070470C2100280A4600D1CA
:1021C0000246034803688B43134303607047C046CD
:1021D00004240140F0B581B00925EC06082102264F
:1021E0002046324600F0EAFA20462946324600F000
:1021F000E5FA0A212046324600F0E0FA1D4D0D2195
:102200002846324600F0DAFA0E212846324600F01F
:10221000D5FA0F212846324600F0D0FA6E463046F5
:1022200000F0E2FA144800902046314600F07EFAB1
:102230000127780230802046314600F077FAB80254
:1022400030802046314600F071FA7803308028460D
:10225000314600F06BFAB80330802846314600F072
:1022600065FAF80330802846314600F05FFA01B085
:10227000F0BDC046000400480001031810B50E4828
:1022800000687D21C90002F0A3FC411E080E00D0A9
:10229000FEE70A480A4A51600A490B6803400324D2
:1022A000A4071B190B6000239360072313600A68BF
:1022B00002400A6010BDC04684000020FFFFFF00FE
:1022C00010E000E020ED00E081B0009003480099AC
:1022D000016001680029FCD101B07047A005002011
:1022E00010B50124600200F031F8002808D0200267
:1022F00000F00AF80348007800F07CFE01F056F97F
:1023000010BDC046940500200F4908607047C046C4
:10231000026801239A430A430260704780B501684E
:102320000122914301600021016041608160C16030
:10233000C0B20838052102F04BFC0F218140024851
:1023400002680A43026080BD040002400249096835
:102350000840411E8841704700000240002A03D017
:1023600002680A430260704702688A43026070474D
:10237000B0B5114A14461034036823400C7A8D7DA1
:1023800025430C7C2C434D7C25434C8A2C438D8A61
:1023900025430C8B2C434D8B2543ACB21C4304606E
:1023A000036813408A8B1A430260CA6842600A6855
:1023B00082604968C160B0BDFF7FFFFFF0B58BB0A0
:1023C000019317460291044601252846294600F04C
:1023D00023FA2046FFF7A2FF03AE304600F026F8AE
:1023E0000020B0832021B175B08230720990E803DB
:1023F0000790019806900497029803902046314672
:10240000FFF7B6FF0226204631462A46FFF7A6FF11
:10241000054831462A4600F08DFD20462946FFF743
:1024200077FF0BB0F0BDC04600380140002181832A
:102430008161017201604160C160016181828175C9
:1024400070470000F0B587B00C4607460125EE0244
:10245000304602F0BDFB21464143B14200D0FEE7C9
:1024600000237B49B44202D91E4606912AE0012886
:10247000029000D8029562080592012A00D80595BD
:102480000026DD4A0D4601960497039323467343C5
:102490005B190693022C059B0D4610D32F8897429B
:1024A00004D15B1EAD1C002BF8D109E00919761C84
:1024B000029B9E42049F039B654DE7D102E0019E73
:1024C000049F039BB042184600D00698002809D00C
:1024D0005F49884200D16048011B38462246FDF71B
:1024E000E1FF00E0DC43204607B0F0BDF0B587B067
:1024F0000E4605460127FC02204602F069FB3146E4
:102500004143A14200D0FEE73346394605900026FC
:102510004F4FA34230460497069327D805980128C9
:10252000019000D8019158080390012800D8039128
:102530000020B14A3C46009019464343DB190493FE
:102540000229039B02940FD32188914204D15B1E80
:10255000A41C002BF8D108E0069B029CE418401C48
:1025600001998842E8D101E00098069B05998142D3
:1025700000D0049E81421ED11C4600F0CBF83846A4
:1025800000F06CF800F096F800F0C4F8314800F064
:1025900065F800F08FF800F0BDF8640852D000260E
:1025A0002988384600F08EF8AD1CBF1C761CB0B2EE
:1025B000A042F5D346E0274CE01A864217D11F46C9
:1025C00000F0A8F8204600F049F800F073F800F099
:1025D000A1F87C0836D000272988304600F072F830
:1025E000AD1CB61C7F1CB8B2A042F5D32AE01A4835
:1025F000C01A05901C4600F08DF80598864214D14B
:10260000384600F02BF800F055F800F083F8640825
:1026100018D000272988304600F054F8AD1CB61CAD
:102620007F1CB8B2A042F5D30CE064080AD00027A2
:102630002988304600F046F8AD1CB61C7F1CB8B2A5
:10264000A042F5D300F036F8069807B0F0BDC046BA
:10265000007C0008008000080084000810B51849BC
:102660000B68022213430B60486008684023034351
:102670000B600F4B0C1F2068C00708D12068400773
:10268000104607D42068C00603D5032002E00120CD
:1026900000E004205B1C012801D1002BEAD10022BC
:1026A0000A6034212160002B00D1052010BDC046F6
:1026B00001F0FFFF0248016880220A430260704770
:1026C0001020024010B5124A546801231C43546084
:1026D000018000211068C00718460AD11068400721
:1026E00004D41068C00603D5032002E0022000E0F5
:1026F00004204C1C012802D10E292146EAD10021D8
:102700005160342111600F2C00D1052010BDC0464E
:102710000C200240024803490160034901607047F0
:102720000420024023016745AB89EFCDF0B583B0AB
:10273000CB780F221C4602921440DD06019301D58E
:102740008D782C4300910A880026374603E0361D19
:102750007F1C082F0CD01546FD40ED07F7D025460D
:10276000B540029BB3400168994329430160EEE7FD
:102770000099098800910D0A0026374603E0361DAE
:102780007F1C082F0CD02946F940C907F7D02146F5
:10279000B140029BB34042689A430A434260EEE76D
:1027A0000199482903D0282906D1143000E01030BF
:1027B0000168009A1143016003B0F0BDB0B508296B
:1027C00001D3242300E02023C4584907C90E0F2554
:1027D0008D40AC438A402243C250B0BD806808405F
:1027E000411E884170470000024941800249018032
:1027F0007047C04602040000FFFF000000200449AB
:10280000044A435C1354401C0C28FAD17047C0465C
:10281000E8F7FF1F69040020054A002903D011686A
:102820000143116070471168814311607047C046D1
:1028300014100240054A002903D0116801431160B9
:1028400070471168814311607047C0461C100240F8
:10285000054A002903D011680143116070471168CF
:10286000814311607047C04618100240154908683E
:102870000C2202400C2A01D0144800E012480A68D9
:102880001206120F124B9A5CD04009684905490F95
:10289000595CC8407047C0460A4908680C2202408B
:1028A0000C2A01D0094800E007480A681206120FF6
:1028B000074B9A5CD04009688904490F595CC840AD
:1028C0007047C04604100240409C000000127A008D
:1028D000DB02002005480168002902D00168491E7A
:1028E0000160B8480168491C01607047A0050020DC
:1028F000F0B589B0514E30680122104330607068E5
:102900004F490140716030684E4901403160900488
:10291000316881433160C320000471688143716074
:1029200030684949014031609F200004B060306840
:1029300002921043306030688007FCD5434C444815
:102940002060444D28681021014329602868072130
:10295000884328602068401E3F4902F039F9296801
:102960000143296070687060706870600320019096
:1029700000047168814371603068384908403060F4
:102980002368002001461F46039006460491701CF0
:102990000590334D039C06E031496D18641C002FEF
:1029A000079206901ED0402C18D00897374628462C
:1029B00005991E4602F00CF93346311A00D2C11AAD
:1029C0003E46089F8F42304600D806988F422246E6
:1029D00000D8079A8F42DFD30F46DDE7049900291C
:1029E00006D009E00027079206900299002903D13A
:1029F000059804280646C9D1104A1068174B18409C
:102A00001060079880060699C9B20905014310684D
:102A100008431060581C1168014311605068019907
:102A200088435060506802210143516050680C2176
:102A300001400829FAD109B0F0BDC046001002409B
:102A40000CC0FFF8FFFFF6FEFFFF8F0084000020A0
:102A500000A24A040020024000366E01FFFF0F0072
:102A6000001BB70080B59F48202100F0E3F880BD2F
:102A7000F0B58DB00E4601900124E0022146FFF72B
:102A8000E7FE0AAF384600F001FA0025BD723D812D
:102A90003E80BD7001980B909248394600F0B4F921
:102AA00006AE304600F07CF975720420B07020024A
:102AB0003080B572F572357375730795F14D284600
:102AC000314600F0E3F82846314600F00DF928467B
:102AD000314600F037F92846214600F091F82021D0
:102AE0002846224600F0C8F82846214600F0AEF8F5
:102AF00002AE304600F07BF8A003B0810748049096
:102B000007480290200403902846314600F060F800
:102B10002846214600F092F80DB0F0BD00100020CC
:102B200000080008B0B50125AC070221204600F0DE
:102B300099F8002808D0606B02F016F81F49086069
:102B40000221204600F076F81D480078002805D1C3
:102B50001A480168494201600020C54319480068CD
:102B6000194908601948016849190160B0BDC0469B
:102B700010B5C54C0221204600F074F8002808D09A
:102B8000606B01F0F1FF0D4908600221204600F062
:102B900051F80B480078002801D0012005E00748D3
:102BA0000168494201600020C04306490968064A9D
:102BB000116006490A681018086010BD90050020D1
:102BC000580200200805002000050020EC04002029
:102BD0000A884B8813438A881A43CB8813430A898F
:102BE0001A434B8913438989194341647047002173
:102BF000818141810181C180818041800180704754
:102C00004A1E9141426801239A435118416070471E
:102C10008A4001238B40016A994311430162704746
:102C20000C2906D08A4004238B40016A9943114342
:102C30000162704702698A43026170474A1E9141EE
:102C4000026801239A435118016070474A1E91415E
:102C5000C9030122D203436C93435918416470475E
:102C60004161704702690A4204D0C0680840411EB1
:102C70008841704700207047002A03D0C2680A4389
:102C8000C2607047C2688A43C2607047B0B582694B
:102C900070239A430B78134383610A7A4B7813436A
:102CA000046A032294431C4304624B684363754BDC
:102CB000984205D0714B984202D0714B98420FD187
:102CC0004B7A8C781C43036A0C25AB432343036285
:102CD0004B89898919431202436893430B4343602C
:102CE000B0BDC046002C0140B0B507221203836975
:102CF00093430A7812021A438261026A30239A438C
:102D00000B7A4C781C432301134303624A688263A5
:102D1000224A131F984200D0B0BD036AC024A343C7
:102D20004C7A8D7825432C011C43046203208002D9
:102D300013688343488989890143880018431060D8
:102D4000B0BDC04670B5C26970239A430B78134377
:102D5000C36103221302046A9C430B7A4D781D431E
:102D60002B02234303624B68C3630C4B1C1FA0421E
:102D700000D070BD9402056AA5434C7A8E78264334
:102D800034022C43046210031A68824348898989FB
:102D9000014308011043186070BDC046042C014077
:102DA0000021817001804160816081817047000055
:102DB00010B501238B40046A9C4304620223D9416D
:102DC000032920D87944097949008F4401070F1558
:102DD0008169702399431143816110BD0721090363
:102DE00083698B4311021943816110BDC16970234E
:102DF00099431143C16110BD07210903C3698B4386
:102E000011021943C16110BD0322120203689343EA
:102E10000A891A430260184A904209DD174A904213
:102E20001CD0174A904219D0164A904207D01BE096
:102E300001229207904202D0134A904214D10268B4
:102E400070239A438B78134303600E4A904205D057
:102E50000A4A904202D00A4A904205D1026BFF23EF
:102E60009A438B7AD21802634A68C26209888162E7
:102E7000012141617047C046FF2B014000480140DD
:102E800000440140002C0140000400400021018169
:102E9000018081728170C94341607047F0B585B08F
:102EA00005460124A0032146FFF7D2FC6004214619
:102EB000FFF7C0FC6F46384600F0C2F800263E73AC
:102EC0003E72BE71302038711820788100955B4DBC
:102ED0002846394600F03AF82846214600F024F802
:102EE0000F4C062120463246FFF768FC04250322DA
:102EF00020462946FFF762FC04AE3046FFF774FC1B
:102F00000848049020463146FFF710FCF570102069
:102F1000308020463146FFF709FC05B0F0BDC046C1
:102F20000004004840000318826901239A430A43C1
:102F30008261704781690223994352000A4382618A
:102F4000704780680840411E8841704770B50D4643
:102F50000446C0693021884329790143E161E06971
:102F600044218843A9790143E161E0690321884351
:102F7000297A0143E161A0691821884369890143E5
:102F8000A161A06904218843297B0143A1612B48E9
:102F9000844202D0FFF76AFC01E0FFF77DFC29685C
:102FA000064E304601F014FE0009206229683046C2
:102FB00001F00EFE0F210140616270BD00A24A04C3
:102FC000C9B2016070470000B0B50446007800281F
:102FD0000ED01A4DC1B22846FFF7F2FF0121284654
:102FE000FFF7AFFF0028F9D06078641C0028F1D10A
:102FF000B0BDC04610B50146104C2046FFF7E0FFBB
:1030000001212046FFF79DFF0028F9D010BDC046E2
:1030100070B5002910D00C460546084E2978304678
:10302000FFF7CEFF641E01213046FFF78AFF00281C
:10303000F9D06D1C2004F1D170BDC04600380140AC
:1030400000210173182242810172817130210171C6
:103050004B21C9010160704709281BD8800001A1DC
:10306000085887468D3000089B300008A3300008C0
:10307000AB300008B3300008BB300008C330000894
:10308000CB300008DB300008D3300008154800685A
:1030900080B27047002080B270471248406880B20A
:1030A00070471048806880B270470E48C06880B290
:1030B00070470C48006980B270470A48406980B286
:1030C00070470848806980B270470648C06980B27E
:1030D00070470448406A80B270470248006A80B274
:1030E0007047C04618240140F0B5A7B0E34C2078E3
:1030F000801E082800D9CCE04000C0467844808873
:103100004000874408001C006700E600C60032014A
:103110008B009700C300FFF771FBF148FFF754FFE6
:103120001D200101EF48FFF773FFEF48FFF74CFF49
:10313000EE480078002800D149E1EE4848E1E44833
:10314000FFF742FFE3480121017000BF00BF017893
:103150000029FAD12078032800D09AE0CA4C012532
:1031600020462946FFF772FD7D2040016063A06381
:10317000E063CF48212739462A46FDF7D4F9D648DF
:1031800039462A46FDF7CFF9D44E304639462A460D
:10319000FDF7C9F9BE480188002209E00020CE4BA6
:1031A0009854C34B9854B054521C212A00D107E1C3
:1031B00093B29942F2D0B648871C002420460F2CC7
:1031C00005D0441CBD1C3F889F422F46F6D10E28D7
:1031D000E4D9E9E7BC48FFF7F7FE0025AC4CAD4E5B
:1031E00002E06D1C212D56D0A8B221888142F8D072
:1031F000A11C00231A460F2B05D0531C8F1C0988D5
:1032000081423946F6D10F2AEBD30C216943705C19
:1032100071188988482201F0A3F9E2E79E48FFF778
:10322000D3FE9E48002101709D4801709D48018099
:103230009D484BE09348FFF7C7FE934C0121204681
:10324000FFF704FD00206063A063E0638F4908601E
:103250008F4D29880C2671438E4F785C79188988A8
:103260000424224601F07CF969887143785C79185E
:103270008988224601F074F9A9887143785C79182D
:103280008988224601F06CF927B0F0BD7C48FFF731
:103290009BFE27B0F0BD2088002303E001224B1CD9
:1032A000002A12D01946DAB29042F7D0A31C0026A9
:1032B00035460F2E05D06E1C9F1C1B8893423B4643
:1032C000F6D10F2DEAD30022E9E78048017027B03C
:1032D000F0BD7848FFF778FE6B4D01242846214663
:1032E000FFF7B4FC129460036863A863E863724854
:1032F0000025057000F062FEFEF7A2FE704B644EE2
:103300002F46119519E069681298830200266B48D0
:103310003246FEF729FF286844435E49085D0919D3
:103320008988324601F01CF9129A119D644B584E5F
:103330006448C2557F1C0A2F3CD00C242146794397
:10334000585C328882422A46F2D05D18B11C0023B4
:103350001A460F2B05D0531C8E1C0988814231461A
:10336000F6D10F2ACFD20022DFE75048FFF72CFE1C
:103370000024474D474E02E0641C212C89D0A0B2A6
:1033800029888142F8D0A91C00231A460F2B05D0AA
:10339000531C8F1C098881423946F6D10F2AEBD382
:1033A0000C216143705C7118898800F089FF4049E5
:1033B0000855E1E701214148FEF7F4FE27B0F0BDD2
:1033C000FF20334948808880088027B0F0BD4848F6
:1033D000FFF7FAFD48480068FDF7BAFD1290119119
:1033E00046480178109141780F918478C578067924
:1033F000477981790E91C1790D91017A427A837A68
:10340000C07A089109920A930B90109800900F9837
:1034100001A9F1C10E9806900D98079013AC384998
:103420002046129A119BFCF703FF2046FFF7CCFDC4
:103430003448FFF7C9FD34A0FFF7C6FD3A48FFF74F
:10344000C3FD3A48FFF7C0FD3948FFF7BDFD3948D5
:10345000FFF7BAFD3848FFF7B7FD38A0FFF7B4FD16
:1034600044A0FFF7B1FD4BA0FFF7AEFD4E48084961
:103470008022FDF717F827B0F0BDC0460C050020EC
:10348000E15D00085A5A0008002C0140A805002000
:103490005A02002018510008005D00086204002054
:1034A0006504002066040020A60500203D540008A5
:1034B00080040020FB540008DA02002000240140B0
:1034C0009850000858040020A4520008A4050020C9
:1034D000445C00083D060020A4040020C80400202D
:1034E000545A000888000020C15D0008040500202F
:1034F000365E00084C5E0008340600206904002097
:10350000F05B00082B5B000820202831292D417535
:10351000746F2064657465637420616C6C207069DD
:103520006E732E0A0D000000AC5B0008885B00087B
:10353000065B0008CD5B0008665B0008202028378A
:10354000292D4D6F6469667920636F6E66696775B2
:10355000726174696F6E73206D616E75616C6C79E8
:1035600020627920636F6D6D616E64206C696E6599
:103570002E0A0D0020202838292D54657374206DE3
:103580006F746F7220726F746174696F6E2E0A0DA2
:103590000000000020202839292D506F7765722007
:1035A0006F66662E0A0D3E0010050020F0B5A5B02E
:1035B000B44C2078401E092800D90CE34000C046D6
:1035C0007844808840008744090015003100490094
:1035D0005B00060379009800D3000E01AA4800782A
:1035E0000D2802D00A2800D0F5E2A8480121017078
:1035F00002205DE0A44800783138082800D9EAE2CA
:103600004000C04678448088400087440800230278
:1036100028022D02320234023D0242024A029B4835
:103620000121017003202070994829E39648007811
:103630000A2805D0792800D1C5E10D2800D0CAE2BA
:1036400093480078002800D1BBE190480121017027
:10365000042020708F4800210160B4E18A4E307848
:1036600001466239182900D9D7E101228A408A4BE4
:103670001A4200D1A9E1772800D1CDE00422CCE0A4
:10368000814800780A2805D0662800D12CE10D2851
:1036900000D030E17E480178002900D141E17F4926
:1036A0000978002900D13CE1784801210170072008
:1036B000207078480021016025B0F0BD7248007884
:1036C0000A2805D0652800D140E10D2800D082E20B
:1036D0007348028873490B88934200D039E1022273
:1036E000802A00D1AFE1835A8D5A921C9D42F7D0B7
:1036F0006648012101700A20CFE1634800780A285A
:1037000005D0202800D12DE10D2800D02EE1664CF7
:10371000207801466539132900D910E24900C046D6
:103720007944898849008F441300360258026C029C
:103730003602360236026E02360236023602360291
:1037400036028002360236023602360288029802BB
:1037500005AC8025FF2220462946FCF7E4FE2046E2
:103760002946FEF7C3FE002800D17BE24F487AE2EB
:10377000454800780A38232800D92CE24000C0468A
:1037800078448088400087442300260226022300D4
:1037900026022602260226022602260226022602E9
:1037A00026022602260226022602260226022602D9
:1037B00026022602260226022602260226022602C9
:1037C00026022602260226022602020126020D01F8
:1037D0002E48012101700220207035480021FFF79A
:1037E00035FA25B0F0BD284800786E2800D12AE1CE
:1037F00079280FD12A488021FEF778FE002800D1D1
:103800001EE12CA0FFF7E0FB2048012101700220FF
:10381000207018E12DA097E148222E4800780C2155
:1038200041432D4B585C5918898800F099FE1C4D76
:103830003278623A182A00D962E1A91D27A0520005
:103840007A4492885200974418005B015B015B0147
:103850005B0140015B015B015B015B0144015B01BA
:103860005B015B015B015B014F015B015B01480197
:103870005B015B015B015B014C0129460A31194880
:1038800032E1C0460C05002094050020F004002021
:1038900068040020A005002021042901040500205F
:1038A0005A0200201005002065040020655E000813
:1038B000002C01400D0A636F6E6669677572617452
:1038C000696F6E2073617665640D0A000D0A592FC9
:1038D0004E3F0000A4050020185100080D0A4C4579
:1038E00044523A00975D0008E74801784A424A414D
:1038F000027025B0F0BD3038092800D96BE10C21E9
:103900004143E2484058E74C2083E1A0FFF75CFBCD
:10391000208B8000E04908180421FFF779FB25B0CF
:10392000F0BDE0490B88DD4A15889D4208D102238D
:10393000802B00D187E0CD5AD65A9B1CAE42F7D0DF
:10394000D94901220A700A212170A8E0D448012136
:1039500096E1D548012101700A202070FC48002121
:10396000017038E1DA480178491C89E1D8490978C1
:10397000022900D117E1012900D122E1002900D05C
:1039800029E1D4490A78002A00D024E1D4E0CD48C6
:103990000268E12189008A4200DB0A466432026043
:1039A00001AC08E0C7480268C7498A4200DC0A4601
:1039B000643A026005ACC5492046FCF739FC204654
:1039C000C2E000F08DFEEC4869E0112925D1E44CFD
:1039D00020780C214143E34A505C511889884822E1
:1039E00000F0BEFD2078AF490A8802E00F2E00D318
:1039F000A1E0030601D0401E00E02020C3B29A429D
:103A0000F7D08D1C00273E460F2FEFD0771CAC1C43
:103A10002D889D422546F6D1E8E70D2802D00A28D8
:103A200000D0D8E0CA480078002800D190E09E4835
:103A30000121017005202070C7480021016089E044
:103A40009AA0FFF7C1FA9848012101700220207066
:103A500025B0F0BD94480121017003201DE092487B
:103A600001210170042018E08F4801210170052018
:103A700013E0C44868E0B7480078002863D08A485B
:103A800001210170072008E087480121017008200A
:103A900003E085480121017009202070AC48002115
:103AA000EEE0AC48007800284DD0B448FFF78CFA1F
:103AB0007C48808A0C214143EB4A505C511889882C
:103AC000042200F04DFD25B0F0BD29460831A9487B
:103AD0000AE029460E31A54806E029460C31A448E3
:103AE00002E029461031A048DE4C22780A80FFF718
:103AF0006BFA20788000994908180421FFF788FAAA
:103B0000D8480078298801E00F2E14D2C2B2202AAA
:103B100001D0401C00E00020C2B29142F6D0AB1CA4
:103B200000273E460F2FEFD0771C9C1C1B8893422A
:103B30002346F6D1E8E7CB49087025B0F0BD002850
:103B400029D100BF91E08E48FFF73EFA25B0F0BDC5
:103B500000F0C6FD0024534DC34E02E0641C212C2E
:103B600039D0A0B229888142F8D0A91C00231A4676
:103B70000F2B05D0531C8F1C098881423946F6D182
:103B80000F2AEBD30C216143705C711889880422E1
:103B900000F0E6FCE2E766A0FFF716FA2078FFF7F0
:103BA00029FA66A05FE001463039C9B2092912D866
:103BB0005E490A880A235343C0183038088025B06C
:103BC000F0BD3038C1B2092905D856490A780A2310
:103BD00053431818B0E725B0F0BD45A0FFF7F4F93E
:103BE0000026304F49A4BA5B05AD28462146FCF7B4
:103BF0001FFB2846FFF7E8F9B61C802EF3D145A03D
:103C000031E047482FE00024264F444D3B8805AE65
:103C1000304629462246FCF70BFB3046FFF7D4F925
:103C2000BF1C641C402CF1D11FE03E4802783F2AA3
:103C300016D850001B490B5A08E03A4802783F2A30
:103C40000ED8500039490B8816490B5205AC334940
:103C50002046FCF7EDFA204605E000F041FD04E0C7
:103C6000314800E01CA0FFF7AFF93848FFF7ACF986
:103C70002C4800210170174801702C48018014481D
:103C8000017025B0F0BDC046A50500209850000881
:103C90000D0A564241543A00000000201005002051
:103CA000750400205A020020F00400200D0A45454A
:103CB00050524F4D207772697465206661696C655A
:103CC000640D0A00A80500207CFCFFFFE45C0008EE
:103CD000A6050020650400200D0A454550524F4DB1
:103CE000206572617365206661696C65640000001F
:103CF0000D0A75696E7431365F742070696E737465
:103D00006F726167655B36345D3D7B0025692C20F1
:103D10000000000008087D3B000000003C5E000839
:103D2000F655000862040020535E00086604002077
:103D30000D0A436F6D6D616E6422000022646F6531
:103D400073206E6F7420657869737400F15C0008ED
:103D50006804002004050020A005002000000020C9
:103D6000A405002018510008D75D0008AC5D0008CC
:103D70009F5D0008B95D00083D0600206E5D0008EB
:103D80005B5D0008425D0008B0B50C480178402931
:103D900001D30021017001788A00094B9C58094D1C
:103DA0002D689D50491C0170074801686918091B5E
:103DB0000160881105490860B0BDC0466304002059
:103DC00054030020F4040020540400207804002050
:103DD000B0B50C480178202901D300210170017889
:103DE0008A00094B9C58094D2D689D50491C017053
:103DF000074801686918091B0160481105490860F6
:103E0000B0BDC0463C060020B005002030060020B2
:103E1000380600207C04002070B50F4C20680F4D40
:103E20002968081AC92816D30D4E3078002801D009
:103E3000482200E028220B4800780C214143524BD5
:103E4000585C5918898800F08BFB2868206030780E
:103E500041424141317070BDFC0400200805002042
:103E600064040020A405002018510008F0B581B0BA
:103E70004348007800284BD0424EB18AFF20B082E0
:103E800071820C246143404F785C79188988042240
:103E900000F066FB002502E06D1C212D1DD0A8B2AC
:103EA00031888142F8D00021C943B21C0E2908D0C4
:103EB000931C491C128882421A46F7D10F29EBD372
:103EC00002E00F210F29E7D321466943785C791876
:103ED0008988482200F044FBDEE700F07BF92B499B
:103EE0000870002844D02A48FFF76EF8708A8000D6
:103EF000284D281804242146FFF78AF826A0FFF74A
:103F000063F8B08A800028182146FFF781F832E074
:103F100000251C4E284F02E06D1C212D2ED0ACB286
:103F20003088A042F8D0B01C002211460F2A05D0DC
:103F30004A1C831C0088A0421846F6D10F29EBD3F7
:103F4000785D0028E8D10C2169430F4A505C511874
:103F5000898800F0B5F90028DED074820C48FFF79C
:103F600033F8A8000B4908180421FFF751F8D3E7EC
:103F70000CA0FFF729F800200149087001B0F0BD3E
:103F8000750400205A020020185100080405002082
:103F9000CD5D0008000000200D0A4C617463683A92
:103FA00000000000576F726B61726F756E6420665F
:103FB00061696C656400000080040020F0B581B088
:103FC00082480078401E824C052829D87844007920
:103FD00040008744023D6083A6C904260025204690
:103FE00031462A46FEF714FE204631462A46FEF7A1
:103FF00017FE6026204629463246FEF7D9FE0122EA
:1040000020462946FEF704FE204629462A46FEF7AA
:1040100007FE0825204629463246FEF7C9FEC5E0C0
:104020000025204629462A46FEF7F2FD04262046B2
:1040300029463246FEF7F4FD204631462A46FEF771
:10404000E7FD204631463246FEF7EAFD0825ADE0A1
:104050000025204629462A46FEF7DAFD2046294655
:104060002A46FEF7DDFD0427602620463946324603
:10407000FEF79EFE012220463946FEF7C9FD204686
:1040800039462A46FEF7CCFD082520462946324609
:10409000FEF78EFE8AE008260025204631462A4695
:1040A000FEF7B6FD204631462A46FEF7B9FD042745
:1040B0006026204639463246FEF77AFE0122204627
:1040C0003946FEF7A5FD204639462A46FEF7A8FDEB
:1040D000204629463246FEF76BFE67E0042600259F
:1040E000204631462A46FEF793FD204631462A46B1
:1040F000FEF796FD08276026204639463246FEF731
:1041000057FE012220463946FEF782FD20463946F9
:104110002A46FEF785FD204629463246FEF748FE30
:1041200044E00025204629462A46FEF771FD204638
:1041300029462A46FEF774FD0827602620463946A0
:104140003246FEF735FE012220463946FEF760FD75
:10415000204639462A46FEF763FD042520462946B7
:104160003246FEF725FE21E008260025204631468E
:104170002A46FEF74DFD204631462A46FEF750FD01
:104180006026204629463246FEF712FE01222046CE
:104190002946FEF73DFD204629462A46FEF740FD0A
:1041A0000425204629463246FEF702FE002220461C
:1041B0002946FEF72DFD042220462946FEF730FD54
:1041C00020212046FEF74CFD01B0F0BDDA020020B0
:1041D000002C0140F0B585B000F0D0FC33485438D5
:1041E00001210391FDF7DEFF6420FEF76DF8002446
:1041F000C34A214605E00199029C641C212CC04A57
:1042000041D0A6B21088B0420294F5D00191901C22
:10421000002211460F2A05D04A1C831C0088B04298
:104220001846F6D10F29E6D30C21614320480468D3
:104230001E4800680090B64A505C5518A9880422B0
:1042400000F08EF92F46281D04903234009885B274
:104250000A35019903E016480068A042CCD81348FB
:10426000006880B2134A1060A842F4D9049801880B
:104270003878482200F074F9A14886820A20FEF7B7
:1042800023F80399E7E70948006880B20C46FCF779
:1042900030FD02460B4608480849FCF78BFAFCF74C
:1042A0004BFAF2490860E0B205B0F0BD5424014079
:1042B00008050020AC050020333333333333B340DB
:1042C00080B5421E032A0BD80920C0067A44127911
:1042D000520097440C01070BB048FEF77FFA80BDEF
:1042E000002080BDAC48FEF779FA80BDA948FEF7F2
:1042F00075FA80BD10B582B001AB0124DC709A70F4
:1043000059701870184600F003F802B010BD000094
:1043100070B50178C278002A15D0FC220A400D4BF6
:10432000D4588D07ED0EFF26AE40B443807880014F
:10433000C0B2A8402043D0501F2008400121814036
:104340000548016070BD1F200140012088400349DD
:10435000086070BD00E400E000E100E080E100E002
:1043600003490A6802430A600A6882430A60704788
:104370000C100240F0B583B00290F24F39880C2443
:104380006143634D685C69188988FFF799FF019064
:1043900079886143685C69188988FFF791FF064650
:1043A000B9886143685C69188988FFF789FF0299B9
:1043B000012905D17100019A89188000081806E0CA
:1043C0007100019A8918800008180721081AC0B2E4
:1043D0000149085C03B0F0BD1051000882B001250E
:1043E00068042946FEF718FAA8042946FEF714FACD
:1043F000E8042946FEF710FA28052946FEF70CFACC
:104400003F4E1320F0831120B083FDF737FFFDF7F7
:10441000E1FE680300242146FEF72AFB4B20000240
:10442000FEF73CFD0A20214601942246FFF762FF79
:1044300034483549354A2B46FDF7C0FF00F036F9C0
:1044400000280AD0B08A0C214143314A505C5118EF
:104450008988482200F084F809E000F07DF97D2089
:10446000C000FDF731FFFFF7B5FE2A4908702A4F5B
:104470003D702A4D39A62878002803D0019828706D
:10448000FEF732FE3878401E0828F4D878440079C8
:10449000400087440807282B2E073107040000F04E
:1044A00031FBE8E7E7E71EA0FEF78EFD1D200101C6
:1044B0001D48FEF7ADFD1DA0FEF786FD21A0FEF70D
:1044C00083FD38780128D6D1019C3046FEF77CFD6B
:1044D0006420FDF7F9FE601C3978302CCBD8012917
:1044E0000446F2D0C7E700F05FF9C4E7FFF794FC99
:1044F000C1E700F057F8BEE7FFF7B8FCBBE7C046DE
:104500005A02002030000240043801409405002087
:1045100018510008040500200C050020F0040020BC
:104520000A0A0A0A0D0000008800002057656C6323
:104530006F6D6520746F2050696E46696E64657298
:104540000A0D0000707265737320656E74657220C9
:10455000746F20636F6E74696E7565002E000000C5
:1045600010B5431E032B14D80920C0067B441B79C9
:104570005B009F4406010305084802E0064800E08E
:104580000448074BDA7003229A7019801946FEF727
:10459000CDF810BD000C0048000800480004004899
:1045A00050030020F0B589B000242E4E1FE001AD6D
:1045B000284634A12246FBF73BFE2846FEF704FDC1
:1045C00030688000314908180421FEF721FD384683
:1045D000FCF7BEFC02460B4628462DA1FBF728FE41
:1045E0002846FEF7F1FC0C36641C0A2C31D01E481C
:1045F000005D0028F7D03089FEF72EFDFCF781FB27
:1046000005460F4619480068FCF7A2FC02460B4617
:1046100028463946FCF778FB00252A46144BFCF760
:1046200073FB2A46134BFCF76FFBFCF785F8074634
:10463000114800780028BAD13846104900F0FDFB37
:104640000028D0D138460E4900F0ECFB0028AED04F
:10465000C9E711A0FEF7B8FC7D200001FDF734FE8C
:1046600009B0F0BD9850000858040020340600201E
:1046700000003F400000303FA50500200000A041A1
:104680000000344225692D3E00000000000000209B
:104690003A2566560A0D00003D3D3D3D3D3D3D3D00
:1046A0003D3D3D3D3D3D3D3D0A0D000010B5A0B0F6
:1046B0006C4680212046FDF7C5FE4020205A074960
:1046C000884207D1374869468022FBF7EBFE01207C
:1046D00020B010BD002020B010BDC046ABDC0000F3
:1046E000B0B5F84B1888184A118881421FD10020B4
:1046F000C143921C9B1C3E2912D09C1C951C491C3A
:104700001B8812889A4223462A46F4D00F4A012376
:1047100013700F4A0A2313700E4A10703F290FD3EB
:104720000A48012101700A4802210170B0BD074802
:104730000121017006480A2101700648002101701C
:10474000B0BDC0465A02002010050020F004002031
:104750000C05002068040020F0B581B00024D94D7C
:10476000DA4E02E0641C212C19D0A0B229888142C3
:10477000F8D0A91C00231A460F2B05D0531C8F1C00
:10478000098881423946F6D10F2AEBD30C216143C7
:10479000705C711889884822FFF7E2FEE2E701B0F9
:1047A000F0BDC0465A020020F0B583B0C54C608809
:1047B000FF38414241412088FF38424242410A438A
:1047C000A088FF38414241411143012900D072E1E4
:1047D000012002900121BE4E03E00129019900D081
:1047E00069E1B94801910170FFF7E8FB1E20FDF770
:1047F0006BFD00270AE0B848C55D681E8541B648D4
:10480000C555B34E7F1C212F00D1DCE0B8B2218802
:104810008142F7D0A11C00231A460F2B05D0531C50
:104820008D1C098881422946F6D10F2AEAD3A64871
:104830000078401E0528E5D8784400794000874478
:1048400002233A6384990C217943A04A505C56189C
:10485000B188FFF735FD321D00250028284603D119
:104860009B48C05D411E88419949C85500921188F6
:104870003078FFF725FD00282846964A02D0D05D03
:10488000411E8841D05536E00C2179438F4A505C57
:104890005618B188FFF714FD321D00250028284660
:1048A00003D18B48C05D411E88418949C855118894
:1048B0003078009214E00C217943844A505C5618F9
:1048C000B188FFF7FDFC331D002500282846804AEB
:1048D00002D0D05D411E8841D055198830780093B0
:1048E000FFF7EEFC0028284603D17A48C05D411E40
:1048F00088417849C855009801883078FFF7E0FC76
:10490000002800D077E77AE70C2179436F4A505CA2
:104910005618B188FFF7D4FC331D0025002828461F
:104920006B4A02D0D05D411E8841D055198830783D
:104930000093FFF7C5FC0028284603D16548C05DF9
:10494000411E88416349C85534E00C2179435F4AD0
:10495000505C5618B188FFF7B3FC331D00250028C2
:1049600028465B4A02D0D05D411E8841D055009355
:10497000198814E00C217943544A505C5618B188C8
:10498000FFF79EFC321D00250028284603D1504821
:10499000C05D411E88414E49C8550092118830784B
:1049A000FFF78EFC002828464A4A02D0D05D411EFF
:1049B0008841D055009801883078FFF781FC0028A5
:1049C00000D01CE717E70199481C0629014600D2D0
:1049D00007E70025414F03E03F1D6D1C212D23D02B
:1049E000705D002807D025803DA0FEF7EDFA042178
:1049F0003846FEF70DFB3748405D002807D065803C
:104A00003AA0FEF7E1FA04213846FEF701FB3248EE
:104A1000405D0028E0D0A58037A0FEF7D5FA04213C
:104A20003846FEF7F5FAD7E72121019101273046F4
:104A30003A46FBF778FD2748019D29463A46FBF7A1
:104A400072FD25482946234D01973A46FBF76BFD39
:104A500020880021029B07E000226A5472541E4FF6
:104A60007A54491C212913D08AB29042F4D0A31C55
:104A7000002635460F2E05D06E1C9F1C1B889342C6
:104A80003B46F6D10E2D029B114E124DE4D9E8E7BC
:104A9000A188FF39484248416288FF3A514251415A
:104AA0002288FF2A1A4600D00A46002A194600D05A
:104AB00093E6014691E62B48002101604160816048
:104AC00003B0F0BD5A020020DA020020185100089D
:104AD00080040020A4040020C8040020000000205E
:104AE0000D0A48414C4C413A000000000D0A484173
:104AF0004C4C423A000000000D0A48414C4C433AED
:104B00000000000070B5134C2078FFF733FC124D05
:104B10002978884207D02078FFF72CFC28700F49AD
:104B20000870FFF74BFA7D20C1000D480568680347
:104B300000F070F8FCF7DDF80126F2079143FCF76E
:104B400093F8084908604860002D00DC00262670B4
:104B5000886070BD5802002059020020DA0200204F
:104B6000A8050020342C014080B54B218900414329
:104B7000014800F02DF880BD00879303F0B587B0A1
:104B8000124D2846FDF7A8FA012460022146FDF7E0
:104B90005FFE00260696A702039720200290A0043D
:104BA0000590019601A92846FDF7C2FA284621463C
:104BB000FDF789FA0F21284632463B46FDF7D4FA25
:104BC0002046FDF7F9FA07B0F0BDC04600240140C9
:104BD00043088B421AD3002203098B4279D3030A7C
:104BE0008B425ED3030B8B4242D3030C8B4227D301
:104BF0000902FF2212BA030C8B4202D312120902DD
:104C000003D0030B8B4233D31AE0D3E0411A804127
:104C1000401C704703460B4371D443088B42F5D3C5
:104C2000002203098B4254D3030A8B4239D3030B6E
:104C30008B421DD3030C8B4202D394466EE0090ACB
:104C4000C30B8B4201D3CB03C01A5241830B8B425F
:104C500001D38B03C01A5241430B8B4201D34B0348
:104C6000C01A5241030B8B4201D30B03C01A5241AD
:104C7000C30A8B4201D3CB02C01A5241830A8B4232
:104C800001D38B02C01A5241430A8B4201D34B021B
:104C9000C01A5241030A8B4201D30B02C01A52417F
:104CA000CDD2C3098B4201D3CB01C01A5241830933
:104CB0008B4201D38B01C01A524143098B4201D36D
:104CC0004B01C01A524103098B4201D30B01C01A98
:104CD0005241C3088B4201D3CB00C01A5241830812
:104CE0008B4201D38B00C01A524143088B4201D33F
:104CF0004B00C01A5241411A524110007047CA0F6E
:104D000000D04942031000D34042534000229C4649
:104D100003098B422DD3030A8B4212D38901FC2253
:104D200012BA030A8B420CD3890192118B4208D329
:104D3000890192118B4204D3890137D0921100E08E
:104D40008909C3098B4201D3CB01C01A524183099F
:104D50008B4201D38B01C01A524143098B4201D3CC
:104D60004B01C01A524103098B4201D30B01C01AF7
:104D70005241C3088B4201D3CB00C01A5241830871
:104D80008B4201D38B00C01A5241D9D243088B42C7
:104D900001D34B00C01A5241411A00D20146524180
:104DA000104663465B1000D34042704763465B1079
:104DB00000D3404201B50021004201D0C94308465A
:104DC000C046C04602BDF8B5040C8BB2264682B27E
:104DD0005E43104658430D0C370C360400218019F1
:104DE000164679416E43370C3604801926467941C0
:104DF0006E438919F8BD00004900CA020243100041
:104E000000D004204A0D01D001221043044A490D6C
:104E1000914201D102210843012800D105207047A9
:104E2000FF07000010B500F033F8EFF300808000BA
:104E300001D5012010BD002010BD10B500F052F8C2
:104E4000EFF300804000800F012801D0012010BD49
:104E5000002010BD30380A2801D201207047002000
:104E60007047000010B500290AD00878002807D044
:104E700005487844FCF75AFF002801D0002010BDF7
:104E80000248784410BD00005A1000005210000083
:104E90000123DB0502000A430DD4DA4203D49A420F
:104EA00007D488427047D84214D4D94212D48842D9
:104EB000704780427047DA4203D59A42F9D5814261
:104EC00070475B004200DA4204D24A00DA4201D263
:104ED0008142704710B5024AFCF7CAFE10BD00BF00
:104EE000090013040123DB0502000A430DD4DA4252
:104EF00003D49A4207D488427047D84214D4D94286
:104F000012D48842704780427047DA4203D59A42F1
:104F1000F9D5814270475B004200DA4204D24A0070
:104F2000DA4201D28142704710B5024AFCF7A0FE76
:104F300010BD00BF0900160403B40248784484463B
:104F400003BC6047B1C2FFFF3031323334353637EE
:104F500038394142434445464030580030313233BD
:104F600034353637383961626364656640307800BD
:104F70000400000800000000000000020001000022
:104F80001080807F7E7D7C7B7A79787776767574E9
:104F900073727171706F6E6E6D6C6C6B6A6A69683A
:104FA00068676666656464636362616160605F5FD1
:104FB0005E5E5D5D5C5C5B5B5A5A59595858575749
:104FC00056565555555454535352525251515050B0
:104FD000504F4F4F4E4E4D4D4D4C4C4C4B4B4B4A02
:104FE0004A4A494949484848474747474646464547
:104FF0004545444444444343434342424242414181
:105000004100000002400000000000A0000000007D
:1050100005400000000000C8000000000C40000037
:105020000000409C00000000194000000020BCBEB1
:105030000000000034400000BFC91B8E00000004C7
:10504000B5400000504BCFD06607E2CF0100000012
:105050006C4100003E8251AADFEEA734010000003F
:10506000D9420000DCB5A0E23A301F97FFFFFFFFF6
:10507000B4450000FD25A0C8E9A3C14FFFFFFFFF15
:10508000FF3F00000000008000000000FF3F000024
:105090000000008000000000000000000000000090
:1050A00000000000010000000100000001000000FD
:1050B00002000000020000000200000003000000E7
:1050C00003000000030000000400000004000000D2
:1050D00004000000050000000500000005000000BD
:1050E00006000000060000000600000007000000A7
:1050F00007000000070000000D000000080000008D
:10510000080000000E000000090000000900000077
:105110000003050401020600010000000100000078
:10512000000000000100000002000000010000007B
:105130000100000004000000020000000100000067
:105140000800000003000000010000001000000043
:105150000400000001000000200000000500000025
:1051600001000000400000000600000001000000F7
:10517000800000000700000001000000000800009F
:105180000B00000001000000001000000C000000F7
:1051900001000000002000000D00000001000000E0
:1051A000004000000E000000010000000080000030
:1051B0000F000000020000000100000000000000DD
:1051C00002000000020000000100000002000000D8
:1051D00004000000020000000200000008000000BF
:1051E00003000000020000001000000004000000A6
:1051F0000200000020000000050000000200000086
:1052000040000000060000000200000080000000D6
:10521000070000000200000000010000080000007C
:10522000020000000002000009000000020000006F
:10523000000400000A000000020000000008000056
:105240000B00000002000000001000000C00000035
:1052500003000000002000000D000000030000001B
:10526000004000000E00000003000000008000006D
:105270000F0000000400000001000000000000001A
:105280000400000002000000010000000400000013
:1052900004000000020000000400000008000000FC
:1052A000030000000A0D416C6C2070696E7320775A
:1052B000696C6C2062652073657420686967682C6E
:1052C000207468652073656C65637465642070691B
:1052D0006E2077696C6C20626C696E6B2C20746830
:1052E0006520616C72656164792073617665642004
:1052F00070696E732077696C6C2072656D61696E80
:10530000206F66662E2049662061204C454420644B
:105310006F6573206E6F74206C6967687420757098
:105320002C2069742069732062726F6B656E2E0D7C
:105330000A7072657373205720746F20676F207432
:105340006F206E6578742070696E0D0A70726573D7
:1053500073205320746F20676F20746F2070726504
:1053600076696F75732070696E0A0D50726573737C
:10537000205220746F2073617665206173207265FE
:1053800064204C45440D0A507265737320472074A5
:105390006F207361766520617320677265656E208A
:1053A0004C45440D0A5072657373204220746F207F
:1053B0007361766520617320626C7565204C45448D
:1053C000286F72206F72616E6765206F6E20736F39
:1053D0006D6520626F617264290D0A507265737386
:1053E000205520746F20736176652061732075707D
:1053F000706572204C45440D0A5072657373204CE1
:1054000020746F2073617665206173206C6F7765FF
:1054100072204C45440D0A707265737320456E749A
:10542000657220746F20676F206261636B20746FF8
:10543000206D61696E206D656E750D0A000D0A5054
:105440007265737320616E642072656C656173654B
:1054500020706F77657220627574746F6E206F6E46
:10546000636520746F20646574656374206175746E
:105470006F6D617469636C790D0A49662062757499
:10548000746F6E207072657373206973206E6F7411
:1054900020726567697374657265642C70726573D8
:1054A00073204520746F20656E61626C65206669AB
:1054B000782C2074686520626F617264206D617958
:1054C0002061636964656E746C7920706F776572B2
:1054D000206F66660D0A707265737320456E746581
:1054E0007220746F2072657475726E20746F206DF7
:1054F00061696E206D656E750D0A000D0A41206CA4
:10550000697374206F662070696E20616E64207606
:105510006F6C746167652077696C6C2062652064CC
:105520006973706C617965642C20636865636B20B6
:1055300074686520626F61726420696E7075742092
:10554000766F6C746167652077697468206D756C1F
:1055500074696D6574657220616E642073656C6535
:1055600063742074686520636C6F73657374206F57
:105570006E652E0D0A7072657373204620746F205D
:10558000746F67676C65206175746F6D61746963B2
:105590002070696E2066696C746572696E670D0AA9
:1055A000707265737320746865206E756D626572C4
:1055B000206174207468652066726F6E74206F6657
:1055C0002070696E20746F20736176652069740D98
:1055D0000A707265737320656E74657220746F2033
:1055E00072657475726E20746F206D61696E206DC6
:1055F000656E750D0A000D0A0A5468697320746F90
:105600006F6C20616C6C6F7720796F7520746F20E0
:105610006D6F6469667920616E64207669657720B4
:10562000616C6C2073617665642070696E6F75744F
:105630007320616E642073657474696E67730A0DFC
:105640000A0D55736167653A20205B636F6D6D616C
:105650006E645D203C616464726573733E203C76C9
:10566000616C75653E0A0D0A0D436F6D6D616E6468
:10567000733A200A0D0A0D20722020202020726526
:10568000616420736176656420646174610A0D2031
:10569000772020202020777269746520646174610E
:1056A0000A0D20682020202020646973706C6179C5
:1056B00020746869732068656C7020706167650A82
:1056C0000D206C20202020206C69737420616C6C8C
:1056D00020646174610A0D20672020202020676506
:1056E0006E65726174652070696E73746F72616744
:1056F00065207661726961626C6520696E697469A2
:10570000616C697A657220746F20636F70792069AB
:105710006E206669726D776172650A0D20652020C2
:10572000202020657261736520616C6C2064617457
:10573000610A0D207820202020206578697420637C
:105740006F6D6D616E64206C696E6520746F6F6C37
:1057500020616E6420676F206261636B20746F202C
:105760006D61696E206D656E750A0D0A0D41646488
:1057700072657373206465736372697074696F6EA8
:105780003A0A0D0A0D30203A2048414C4C207365EE
:105790006E736F7220412070696E0A0D31203A20BD
:1057A00048414C4C2073656E736F722042207069C3
:1057B0006E0A0D32203A2048414C4C2073656E73BE
:1057C0006F7220422070696E0A0D33203A20726594
:1057D00064204C45442070696E0A0D34203A2067DD
:1057E0007265656E204C45442070696E0A0D352047
:1057F0003A20626C7565204C45442070696E0A0D34
:1058000036203A207570706572204C4544207069CE
:105810006E0A0D37203A206C6F776572204C454434
:105820002070696E0A0D38203A2042757A7A6572C6
:105830002070696E0A0D39203A20427574746F6EBB
:105840002070696E0A0D3130203A206C61746368F3
:105850002070696E0A0D3131203A206368617267E9
:1058600065722070696E0A0D3132203A20626174CF
:105870007465727920766F6C746167652070696EEB
:105880000A0D3133203A20746F74616C2063757295
:1058900072656E742044432070696E0A0D313420A5
:1058A0003A20554152542054582070696E0A0D31E7
:1058B00035203A20554152542052582070696E0AC2
:1058C0000D31367E3232203A20726573657276650C
:1058D000640A0D3233203A206F7665722063757248
:1058E00072656E742070726F74656374696F6E2078
:1058F00070696E0A0D3234203A206F76657220632B
:10590000757272656E742070726F74656374696FFE
:105910006E20636F6D70617261746F722072656664
:1059200072656E63652070696E0A0D32357E3331A3
:105930003A72657365727665640A0D0A0D33332019
:105940003A207662617420646976696465720A0D32
:105950003334203A2069746F74616C20646976690D
:105960006465720A0D3335203A2069706861736589
:1059700020646976696465720A0D3336203A2062C4
:105980006175640A0D3337203A2070776D20726597
:10599000736F6C7574696F6E0A0D3338203A20731B
:1059A0006C6176652049440A0D3339203A207769C5
:1059B0006E64696E67730A0D3430203A20696E7622
:1059C000657274206C6F77736964650A0D343120D9
:1059D0003A20736F66742063757272656E74206C02
:1059E000696D69740A0D3432203A2068617264204E
:1059F0006C696D697420617764670A0D3433203AED
:105A000020554152540A0D3434203A207069640AFA
:105A10000D3435203A2062617420313030250A0D72
:105A20003436203A206261742030250A0D34372044
:105A30003A2073657269616C2074696D656F757465
:105A40000A0D34387E3634203A20726573657276DA
:105A500065640A000A0A0A0A0D000D0A5465737487
:105A600020746865206D6F746F7220776974682088
:105A700068616C6C2073656E736F7220636F6D6DFF
:105A800075746174696F6E0D0A7072657373202B83
:105A900020746F20696E6372656173652073706531
:105AA00065640D0A7072657373202D20746F206415
:105AB000656372656173652073706565640D0A6E58
:105AC0006567617469766520737065656420746FBD
:105AD000207370696E206261636B776172640D0A76
