:020000040800F2
:10000000F008002091010008C3010008C5010008A4
:10001000C7010008C9010008CB010008000000006A
:10002000000000000000000000000000CD010008FA
:10003000CF01000800000000D1010008A90E00084F
:10004000D5010008D5010008D5010008D501000838
:10005000D5010008D5010008D5010008D501000828
:10006000D5010008D5010008F10700080B080008B9
:10007000D501000845100008D501000859110008F5
:10008000B1110008D5010008D5010008D50100080C
:10009000D5010008D5010008D5010008D5010008E8
:1000A000D5010008D5010008D5010008D5010008D8
:1000B000D501000800F002F800F03EF80CA030C8AE
:1000C000083824182D18671EA246AB4654465D46D4
:1000D000AC4201D100F030F87E460F3EB6460FCC60
:1000E0000126334200D0FB1A3343A246AB461847E1
:1000F0002C2700004C270000103A02D378C878C1A2
:10010000FAD8520701D330C830C101D504680C6059
:10011000704700000023002400250026103A01D378
:1001200078C1FBD8520700D330C100D50B607047AF
:100130001FB51FBD10B510BD00F02BFA1146FFF71B
:10014000F7FF01F0B1FC00F043FA03B4FFF7F2FF50
:1001500003BC00F049FA000070B505460C4616468F
:1001600002E00FCC0FC5103E102EFAD2082E02D39B
:1001700003CC03C5083E042E07D301CC01C5361FAE
:1001800003E021782970641C6D1C761EF9D270BDC5
:10019000144880F3088814480168090E134A9142F4
:1001A000FFD11348134901601348144901601448F2
:1001B000124901600E4813490160134880471348F3
:1001C0000047FEE7FEE7FEE7FEE7FEE7FEE7FEE7A5
:1001D000FEE7FEE7FEE700000D480E490E4A0F4B12
:1001E00070470000F0080020040000001F0000001D
:1001F0001C100240000000041868004012000000BB
:100200001C68004000000000C50E0008B500000892
:10021000F0020020F0080020F0040020F00400208C
:10022000F8B5042A2CD3830712D00B78491C03702D
:10023000401C521E83070BD00B78491C0370401CD6
:10024000521E830704D00B78491C0370401C521EB9
:100250008B079B0F05D0C91ADF002023DE1B08C9BE
:100260000AE0FFF779FFF8BD1D4608C9FD401C46AE
:10027000B4402C4310C0121F042AF5D2F308C91A47
:10028000521EF0D40B78491C0370401C521EEAD455
:100290000B78491C0370401C012AE4D409780170D2
:1002A000F8BD01E004C0091F0429FBD28B0701D56A
:1002B0000280801CC90700D00270704700290BD053
:1002C000C30702D00270401C491E022904D38307D1
:1002D00002D50280801C891EE3E70022EEE700229F
:1002E000DFE77047704770470346CA02400D10B5FC
:1002F00010430A1504D00124E4072043002A05DB3B
:100300000A4CA21A04D4D040FF2A00DD002010BD00
:100310004A00002B01D0012000E00020101801222B
:100320005205D042F2D8C817C04310BD1E040000C9
:100330001F22030C02D10F22000402D0030E03D0AF
:1003400004E00020014670470002083A030F01D183
:100350000001121F830F01D18000921E002801DBD3
:100360004000521E120551184205C0124118104695
:100370007047C10FC90700D04042012292071143C4
:10038000D6E701218907D3E7F0B5FF252D04C6097B
:10039000C209FF2704462E400137CB093E4348409F
:1003A0002A402B400746002A6BD0002B69D0AA4276
:1003B00067D0AB4265D0002800DA32460125ED0552
:1003C00029432C4309022002090AD21A4B0C7F242C
:1003D000E31A434C000A7C44E35C7D242404121994
:1003E00014145B00A218884201D3521C00E04000A4
:1003F00049420C465C4324115C43DB016415E3185D
:10040000040A5C43C502200D0C4644436419250AC6
:100410005D432303EC0C0D46654300030019EB1804
:100420004C42A34201D35B18401CD4052018002B7A
:1004300007D05B00C91804D3401C002901D1400833
:1004400040003F2189048A4209D3002A08DC1106B2
:10045000090F04D0032149074018C00FC007F0BDA1
:1004600001224100120689187F2252069142F6D2DB
:1004700005214907C84201D59010F0BDFF20C005F5
:10048000F0BD002F00DA32461648AA4207D2AB422E
:1004900005D21902090E17D0F80FC007F0BDFF25CD
:1004A00063002D06AB42F9D84900A942F6D8AB4209
:1004B00001D1A942F2D0A94201D1002101E061009D
:1004C0004908D0050843F0BD1102090EFBD0FF20FA
:1004D0000243D005F0BD0A460146104654E700002D
:1004E000762200000000C07F10B501469E24000265
:1004F000CA15A307002A02D01843002A04DBA21A57
:10050000002A0CDDD04010BD1206120E01D14000B1
:100510004008A21A03D4D04040420028F3DDFF2255
:1005200048001206904201D9002010BDC817C043F0
:10053000584010BD1F22030C02D10F2200041CD012
:10054000030E01D10002083A030F01D10001121F6E
:10055000830F01D18000921E002801DB4000521E53
:10056000D2055118021251181922904004D3491C87
:10057000002801D14908490008467047C10FC90742
:1005800000D04042012292071143D3E7012189079D
:10059000D0E7754600F024F8AE460500694653469C
:1005A000C008C000854618B020B5FFF715FE60BC36
:1005B000B64600260027C0C5C0C5C0C5C0C5C0C559
:1005C000C0C5C0C5C0C5403D490849008D467047FB
:1005D00010B50446C046C0462046FFF7B6FD10BD24
:1005E000004870479800002001491820ABBEFEE784
:1005F0002600020070474A1E9141426801239A4337
:100600005118416070474A1E914189008268042355
:100610009A43511881607047002A03D082680A43C8
:100620008260704782688A438260704710B5426872
:10063000084B13404A681A430B68134343608268AF
:10064000054B13400A694C691C43144389682143D4
:10065000816010BD0080FFFF800000FF10B50F22F9
:100660009202446894439A02224342601F2905D8AB
:1006700001228A40C1681143C16010BDFA2906D029
:10068000FF2908D1C168054A0A43C26010BDC1688C
:10069000014A0A40C26010BD0000FFFFFFCF00000A
:1006A0004A1E91410902012212028368934359189C
:1006B000816070470A490A68002808D00820024370
:1006C0000A600120C20388681043886070470820D0
:1006D00082430A600120C2038868904388607047A3
:1006E00004240140F0B581B00925EC06082102265A
:1006F0002046324600F0A3F920462946324600F053
:100700009EF90A212046324600F099F91D4D0D212F
:100710002846324600F093F90E212846324600F072
:100720008EF90F212846324600F089F96E46304690
:1007300000F09CF9144800902046314600F01EF964
:100740000127780230802046314600F017F9B802C0
:1007500030802046314600F011F978033080284679
:10076000314600F00BF9B80330802846314600F0DE
:1007700005F9F80330802846314600F0FFF801B053
:10078000F0BDC046000400480001031810B50E4833
:1007900000687D21C90001F059FD411E080E00D0FE
:1007A000FEE70A480A4A51600A490B6803400324DD
:1007B000A4071B190B6000239360072313600A68CA
:1007C00002400A6010BDC04600000020FFFFFF008D
:1007D00010E000E020ED00E081B0009003480099B7
:1007E000016001680029FCD101B07047DC020020E3
:1007F00010B50124600200F05BF8002804D020024C
:1008000000F010F801F00AFC10BD10B501246004DE
:1008100000F04EF8002804D0200400F003F801F0A6
:10082000FDFB10BD214908607047C0464A1E91413A
:10083000026801239A435118016070470168012240
:10084000914301600021016041608160C1601149F4
:1008500088420BDD1049884210D01049884210D0E0
:100860000F49884215D10F2000040EE00D4988423F
:100870000AD00D4988420CD1F02006E00F2000027A
:1008800003E00F20000300E00F2008490A6802433C
:100890000A6070472F0002403000024044000240CE
:1008A00058000240080002401C00024004000240C0
:1008B000024909680840411E884170470000024013
:1008C000002A03D002680A430260704702688A4324
:1008D00002607047B0B502680C4B13408C681C4333
:1008E0000D6A4B6A8A6A25430C692C434D6925437E
:1008F0008C692C43CD6925431D4315430560CA68A7
:1009000042600A6882604968C160B0BD0F80FFFF25
:10091000F0B58DB01E46009201910446012528468F
:10092000294600F0E1F92046FFF788FF02AF38467C
:1009300000F01FF800200C900B9020210A910990E4
:1009400008908021079106900596049000980390E6
:100950000198029020463946FFF7BCFF022120464D
:100960002A46FFF7ADFF20462946FFF75FFF0DB08F
:10097000F0BD80B52C21FFF7B2FC80BDF0B586B08C
:10098000CA780F23144605931C400392D20601D562
:100990008A78144309880A060494009023D00246FA
:1009A0001432029202461032019202680026374643
:1009B000039805E02B60049C361D7F1C082F10D087
:1009C0000123BB400B42F7D02546B540059CB440FF
:1009D000A2432A432828029DECD04828EBD1019D50
:1009E000E8E7009802600A0A27D002461432029211
:1009F00002461032019247680020064605E01D605D
:100A0000049C001D761C082E15D001231D02B54044
:100A10002B460B40AB42F4D123468340059C8440D7
:100A2000A7431F43039A282A029BE8D0039A482A27
:100A3000E6D1019BE3E70098476006B0F0BDB0B592
:100A4000082901D3242300E02023C4584907C90EF4
:100A50000F258D40AC43C450C4588A402243C25035
:100A6000B0BD80680840411E8841704702494180FE
:100A7000024901807047C04602040000FFFF0000E9
:100A8000002A02D0102281507047142281507047F2
:100A9000F0B58DB002910390002401268A4F02E048
:100AA000E41C422C1BD03948005D7988091A4A425F
:100AB0004A4139888142314600D01146BA88131A1A
:100AC0005A425A410029314600D111460129E7D145
:100AD0002E490D19697801F009FAAD78E0E7012493
:100AE0002046214600F00EF902200190214600F038
:100AF00009F907AE304600F0BBFD002737740A97AE
:100B0000029807900398099008970395002D01D04B
:100B1000A50700E01E4D2846314600F061FD04AEF9
:100B2000304600F05FFC378103200590049728468B
:100B3000314600F0BBFB28460199224600F05AFCE2
:100B40002846214600F026FD2846214600F09AFD61
:100B50004021284600F02AFD0421284600F036FDF9
:100B60008021284600F028FD2846214600F07AFB27
:100B70000CA8847044700399002901D00F2100E073
:100B80001021017000F02AF80DB0F0BDD426000845
:100B900000040040B0B5BB4D28780424214601F084
:100BA00083F9A878214601F07FF92879214601F0E0
:100BB0007BF9B0BD01480249016070470030004038
:100BC000AAAA000080B582B001AA012393705170D7
:100BD0001070104600F002F802B080BD70B50178C8
:100BE0008278002A15D0FC220A400D4BD4588D077C
:100BF000ED0EFF26AE40B44340788001C0B2A8405D
:100C00002043D0501F200840012181400548016049
:100C100070BD1F200140012088400349086070BD5D
:100C200000E400E000E100E080E100E070B5451A7A
:100C30000A2169432948026851180160204A146852
:100C4000A142224603DA1F4A1268914200DC026088
:100C500024490E680D600068642101F019FBA91B8E
:100C6000B4224A43A9004018801816490A689042E5
:100C7000014603DDA04204DD204670BD1146A042BE
:100C8000FADC0C46204670BD80B515490A68131879
:100C90000B600B4800688342024607DC0948006885
:100CA00083421A4600DC0246834200DA08604A208A
:100CB0007449085A50437D21490101F0E9FA80BD89
:100CC000080000200C000020100000200348002134
:100CD000016003480160034801607047C4020020BE
:100CE000BC020020A8020020054A002903D0116898
:100CF0000143116070471168814311607047C0461D
:100D000014100240054A002903D011680143116004
:100D100070471168814311607047C0461C10024043
:100D2000054A002903D0116801431160704711681A
:100D3000814311607047C04618100240B0B50446A8
:100D40001E4D28680C2101400C2912D01C4808298E
:100D50001CD1291F0A68920E521C09684902490FCA
:100D6000491C2B68DB0306D4B548504301F06EFAEA
:100D70000CE015480AE02B689B0303D4504301F0B4
:100D800065FA03E00F48504301F060FA20602868DC
:100D90000006000F0D490A5C2068D04060602A6898
:100DA0005205520F8A5C0346D340A3602A6892041E
:100DB000520F895CC840E060B0BDC04604100240DC
:100DC00000127A0000093D00409C000090260008B7
:100DD000F0B585B05E20DD490A5A2B480068F24B19
:100DE0001B681B1A01A8934202D9284A00231360EA
:100DF000274A1278002A43D0C21C093001AD254B86
:100E00002B80254B1E689670244B1F681771E74B8B
:100E10001B6803704C24095DA970310AD170390A2E
:100E200051711F4909880A244C431470190EC1706E
:100E3000190C8170190A4170210A51700022194958
:100E4000154602E05D1C0C2B10D02B4601AC645DF6
:100E500024026240082503E032466D1E2C06F1D0C4
:100E6000560012B2002AF7D54E40F5E70271110A7A
:100E7000417101A80F2100F0D7FC0020044908703F
:100E800005B0F0BD100000209C020020E002002010
:100E90007C020020CDAB00009002002084020020E4
:100EA0008C0200202110000005480168002902D0B2
:100EB0000168491E0160D4480168491C01607047FF
:100EC000DC020020F0B589B0554E30680122104395
:100ED0003060706853490140716030685249014088
:100EE000316090043168814331607F200004716873
:100EF0008143716030684D4F384030609F2000045E
:100F0000B060306802921043306030688007FCD5D2
:100F1000474C48482060484D28681021014329600B
:100F200028680721884328602068401E434901F053
:100F30008DF929680143296070687060706870607D
:100F400002988002716801437160032001900004DF
:100F500071688143716030683840306023680020D8
:100F600001461F46039006460491701C0590344DBF
:100F7000039C06E032496D18641C002F079206900E
:100F80001ED0402C18D008973746284605991E4693
:100F900001F05CF93346311A00D2C11A3E46089F6F
:100FA0008F42304600D806988F42224600D8079AD2
:100FB0008F42DFD30F46DDE70499002906D009E010
:100FC0000027079206900299002903D1059804286A
:100FD0000646C9D1124A10681449084010600798A3
:100FE00080060699C9B209050143106808431060DC
:100FF0000120000611680143116010688001FCD5D2
:101000005068019988435060506802210143516043
:1010100050680C2101400829FAD109B0F0BDC04642
:10102000001002400000FFF0FFFFF6FEFFFF0F0080
:101030000000002000D8B8050020024000366E01F4
:10104000001BB70080B54048202100F007F980BDA3
:10105000F0B58FB00E4601900125E8022946FFF752
:101060005FFE0AAF384600F003FB00243C740D9489
:101070000A9601980C900B943348394600F0B0FA68
:1010800006AE304600F07CFA5020304F385A411EF0
:101090008841C000708104200790280401900690C8
:1010A00009942948314600F0AFF9F448314600F080
:1010B000E7F9F248314600F025FAF048064629469D
:1010C00000F0C0F8202130462A4600F093F930465F
:1010D000294600F0D3F802AE304600F0AAF8280303
:1010E0003081A803B0815425785B411E88414003BC
:1010F00070811748029001980390E048314600F053
:1011000089F8785B002818D1388E222815D3F88DFD
:10111000212812D8C0B2042100F0C6FE0D4D02E015
:10112000241D102C09D0295DF88D8842F8D1291989
:101130008978C0B200F0DAFEF2E70121ED4800F054
:1011400091F80FB0F0BDC046002C01401000002007
:10115000000800081627000810B5012084070221A6
:10116000204600F099F8002808D0606B01F05EF886
:10117000234908600221204600F070F821480078D9
:10118000002803D11E490A6852420A601E490968B4
:101190001E4A1160012801D00020C0431C490A6882
:1011A0001018086010BDC046B40200209402002050
:1011B00010B5124C0221204600F06EF8002808D02D
:1011C000606B01F033F80E4908600221204600F000
:1011D00045F80C480078002803D109490A685242B2
:1011E0000A6009490968094A1160012801D00020F4
:1011F000C04307490A681018086010BD0004004089
:10120000CC020020C8020020B4020020A40200206A
:10121000940200200A884B8813438A881A43CB889B
:1012200013430A891A434B8913438989194341643B
:1012300070470021818141810181C180818041808D
:10124000018070474268002903D001210A434260AF
:10125000704789490A4042607047C046C9430161EE
:10126000704700000268002903D001210A43026090
:10127000704781490A4002607047C046426C054B86
:10128000002903D0591C0A43426470471A40426443
:101290007047C046FF7F000002690A40531E9A4112
:1012A000C0680840411E884110407047B0B50A88A8
:1012B000082A22D0042A42D0002A62D1444A134686
:1012C0000B33046A1C4004628B880C8924011C4384
:1012D0008369F325AB4323439BB2046A83610A23EA
:1012E0009C434B88234301241C43A3B203628369BC
:1012F00013408361C988183064E0354A1346F43BD3
:10130000046A1C4004628B880C8924011C43F3236B
:10131000DB43C5691D402543ABB2046AC3612D4B55
:1013200023404C8824021C4301231B0223439BB20D
:101330000362C3691340C361C9881C3042E0244A78
:10134000121F036A134003628269234B13400A8908
:1013500012039A188B881B0213439AB2036A8261A4
:10136000A02293434A8812011A43102313439AB2CE
:1013700002628269604B134083611830C988090298
:1013800020E0026A154B134003628A8812020B891F
:101390001B031343C269104C14401C43A2B2036ADE
:1013A000C2610F4A1A404B881B03134301221203E8
:1013B0001A4392B20262C2694F4B1340C3611C30A0
:1013C000C988090289B202680A430260B0BDC046FA
:1013D000F3FF0000FFF40000FF0C0000FFEF00002F
:1013E000FF4F000000210181C180012282804180E5
:1013F00001807047002A03D0C2680A43C260704768
:10140000C2688A43C2607047F0B5026AC14B13409C
:101410000362026A02239A430B8913434A881A43E0
:1014200045680B8884698F4EB04206DC894EB04215
:1014300009D0874EB04206D013E08B4EB04202D0A6
:101440008A4EB0420DD10C26B2434E890427BE43CA
:1014500016438A883243824E35408E892E43CD8989
:101460003543ADB24560454D2C401C438461C9886D
:10147000416391B20162F0BDFEFF0000002C01400B
:10148000F0B5026A1A4B13400362036A20229343A9
:101490004A880C89144322011A4345680C888369E1
:1014A0006B4EB04202D06B4EB04214D1C026B24354
:1014B0004E8936014027BE4316438A8812013243C3
:1014C0000D4E35408E89B6000C4F37402F43CD89E5
:1014D000AD003D43ADB2ADB24560094D2B40240295
:1014E0001C43A3B28361C988816391B20162F0BDDC
:1014F000EFFF0000002C0140FFF30000FCF70000AC
:10150000FF8C0000F0B5026A194B13400362012200
:101510005202036A93434A880C89144322021A43F5
:1015200045680B88C4694A4EB04202D0494EB04269
:1015300012D10326B602B2434E8936020D4F374010
:1015400017438A8812023A430B4E3540CE898F8961
:1015500037433E012E43B5B2ADB24560074D2C4036
:101560001C43C461C988C16391B20162F0BDC04629
:10157000FFFE000000FBFFFFFFCF00008CFF00001C
:101580000021C181818141810181C18081804180AF
:10159000018070474268002903D080210A434260DD
:1015A000704709490A4042607047C04682682B4B29
:1015B00013400B43836070478268034B1340836082
:1015C00082680A43826070477FFF00008268034B95
:1015D0001340836082680A4382607047F8FF00000E
:1015E00002681A4B984207DC01239B07984209D0F6
:1015F000194B984206D00AE0154B984202D0154B81
:10160000984204D1154B1A404B68134300E013462F
:10161000134A1A408B89134303608A68C2620A68BE
:101620008262104A904206DC0A4A904209D0084A77
:10163000904206D007E00C4A904202D00B4A9042FA
:1016400001D1097C0163012141617047FF0701401D
:10165000002C014000080140000400408FFF000002
:10166000FFFC0000FF4301400048014000440140EE
:101670000021034A0174016041608260C1607047CB
:10168000FFFF00000268002903D004210A43026022
:10169000704702490A4002607047C046FBFF0000E5
:1016A000F0B585B00D4607460124A0032146FFF79B
:1016B00037FB60042146FFF725FB01AE304600F002
:1016C000E1F80020B0813020029001970320C0048F
:1016D0000390012D01D0684D00E0684D2846314649
:1016E00000F04EF82846214600F008F8022128466E
:1016F000224600F011F805B0F0BDC046826900290D
:1017000003D001210A438261704702490A40826185
:101710007047C046FEFF0000002A03D082690A43DA
:101720008261704782698A4382617047F0B581B0F7
:10173000012100240E4DDB4E07E01821285D00F04A
:10174000B3FBF978241D282C0FD0285DB28B824280
:1017500002D0F28B8242F5D12F19797800F0C6FBC6
:10176000B8780028E9D10421E8E7C8B201B0F0BD9B
:10177000F227000880680840411E88417047000039
:1017800070B584B00D460446FF20D030E169814336
:10179000A888EA880243288910430843E061A889A1
:1017A00069890143A0691F2290430843A0616E46E6
:1017B0003046FFF7C3FA3048844201D00C3600E0CF
:1017C00008363068296800F041FD010921620F21C7
:1017D0000140616204B070BDC9B201607047000091
:1017E000F0B581B0017800291CD00446224D234E6B
:1017F000234F03E06178641C002913D03878012856
:10180000304600D02846C9B2FFF7E6FF04E00121C8
:10181000FFF7B0FF0028EDD1387801283046F6D028
:101820002846F4E701B0F0BDF0B581B00091002981
:101830001FD00546104E114F114C03E06D1C00984F
:10184000000416D020780128384600D03046297888
:10185000FFF7C2FF0098401E009004E00121FFF74F
:1018600089FF0028EAD1207801283846F6D0304692
:10187000F4E701B0F0BDC04600440040003801402C
:10188000900000200021818130210322D2044B23CB
:10189000DB0103604160826070470000F0B587B0F3
:1018A0000126740220463146FFF73AFA00250695D4
:1018B000039420200290B00405900195264C01A9C4
:1018C0002046FEF7B3FE20463146FEF79CFE0F2170
:1018D00020462A463346FEF7C1FE3046FEF7EAFEB2
:1018E00020463146FEF787FE6E4F388B212814D8EC
:1018F000C0B20026314600F0D7FA398B1748825D16
:10190000914203D0361D342EF9D106E0801981783A
:10191000002201232046FEF7A1FE788B212813D850
:10192000C0B2294600F0C0FA798B0C48425D914262
:1019300003D02D1D342DF9D106E040198178002205
:1019400001232046FEF78AFE012120460A46FEF7C3
:1019500063FE07B0F0BDC04600240140A026000889
:10196000B0B50C480178202901D30021017001781D
:101970008A00094B9C58094D2D689D50491C0170E7
:10198000074801686918091B01604811054908608A
:10199000B0BDC046A0020020FC010020CC02002007
:1019A000800200208C02002010B5062141431A4A13
:1019B000505C431E032B09D80920C0067B441B79C9
:1019C0005B009F4408010507164804E0002010BD95
:1019D000134800E0114851184988FFF742F810BD3C
:1019E000B0B50A46062141430B4B585C441E032CFC
:1019F00011D80920C006C0467C4424796400A7445D
:101A000006010305074802E0054800E003485918AD
:101A10004988FFF735F8B0BD26270008000C0048BC
:101A2000000800480004004810B501246004214665
:101A3000FFF75AF9A0042146FFF756F9E0042146C2
:101A4000FFF752F920052146FFF74EF9FC4CE088DC
:101A5000212803D8C0B2102100F026FA20892128BD
:101A600003D8C0B2102100F01FFA6089212803D8E2
:101A7000C0B2102100F018FAA08A212803D8C0B201
:101A8000102100F011FA608A212803D8C0B2042185
:101A900000F00AFA208A212803D8C0B2102100F0F1
:101AA00003FA10BD1000002088B0FEF76FFE00F0B2
:101AB00041FA002834D0FFF7B7FFFFF76BF8DD4895
:101AC0000068DD4900F0C2FB0146DC48FEF7E0FF9C
:101AD000FEF708FE4A20DA4F385A00242146FFF765
:101AE000B7FA0D200121FFF76DF8FFF7D7FE0C20A4
:101AF00001942146FFF766F8FFF718FE0146D14C26
:101B000021704820385AFFF7CBFD2178CE480129B3
:101B100042D1D049CE4A0123FEF7FAFE0A2042E024
:101B2000012460042146FFF7DFF8A0042146FFF7F7
:101B3000DBF8E0042146FFF7D7F820052146FFF740
:101B4000D3F87D20C40002E02046FEF745FE0025C4
:101B500028460C38C0B240087E2803D8E8B2482195
:101B600000F0A2F9681CE9B220290546F0D320460E
:101B7000FEF732FE002504E0681CE9B22029054684
:101B8000E2D228460C38C0B240087E28F4D8E8B229
:101B9000282100F089F9EFE72830AC49AC4A01234D
:101BA000FEF7B6FE0B200121FFF70CF8B88A2128BA
:101BB0002DD86420FEF710FE387D0121FFF710FFBD
:101BC000B87CFFF7F1FE002821D0788A21281ED8A2
:101BD000388A21280FD8C0B20121FFF701FF022463
:101BE0002046FEF7F9FD387C0021FFF7F9FE20467C
:101BF000FEF7F2FD01E000BF00BFFEF7DBFFB87C9F
:101C0000FFF7D2FE002802D0788A2228E0D3388A53
:101C1000212811D80525387C0121FFF7E1FE322467
:101C20002046FEF7D9FD387C0021FFF7D9FE20467B
:101C3000FEF7D2FD6D1EEED187480121FEF730FD83
:101C400086A0FFF7CDFD5C203E5A3046FEF79EFC95
:101C500004465A200790385A801BFEF78FFC8349B0
:101C6000FEF792FB0646824900F032FC214600F066
:101C7000E9FBFEF739FC02907E49304600F028FC73
:101C8000214600F0DFFBFEF72FFC03907A49304637
:101C900000F01EFC214600F0D5FBFEF725FC049069
:101CA0007649304600F014FC214600F0CBFBFEF7ED
:101CB0001BFC05907249304600F00AFC214600F0FA
:101CC000C1FBFEF711FC0690734D744C01E0FEF76A
:101CD00071FF0798385A6B4940186B4988420ED8F3
:101CE0006A4801680A204843069988421EDDB8798F
:101CF00000263146FFF774FE387A012120E0BE79D4
:101D00003878FFF751FE01463046FFF769FE3E7A0C
:101D1000B878FFF749FE01463046FFF761FEBE7A0C
:101D20003879FFF741FE014630460DE005998842BB
:101D30002FDDB8790021FFF753FE387A01263146AE
:101D4000FFF74EFEB87A3146FFF74AFE5148006869
:101D50002968081A022804D300F0F0F928684D49D0
:101D6000086021682868411A4D4A914205D32060D5
:101D7000474A1078414241411170B88A2128A6D8BB
:101D8000788A2128A3D8C0B2FFF70EFE00289ED083
:101D900028E0049988420BDDB87900263146FFF728
:101DA0001FFE387A3146FFF71BFEB87A0121CBE7D8
:101DB0000399884207DDB87901263146FFF710FE06
:101DC000387A0021BCE7FA880299884202DDD0B255
:101DD000012102E02E480178D0B2FFF701FE387AE7
:101DE0000026ACE72F480199016041608160388A84
:101DF000212815D80325387C0121FFF7F1FD962411
:101E00002046FEF7E9FC387C0021FFF7E9FD20467B
:101E1000FEF7E2FC6D1EEED102E000BFFEF7CAFE47
:101E2000B87CFFF7C1FD0028F7D1387D0021FFF70E
:101E3000D7FDFEE700000020A0860100FFFF0000A4
:101E400010000020900000203000024004440040B8
:101E5000D0020020043801400024014068656C6C09
:101E60006F20576F726C640A0D0000000000C842BA
:101E7000000020410000A0410000484200007042E4
:101E800000008C42DFB1FFFFC6AF0000E40200207B
:101E900088020020B0020020B4020020AC02002022
:101EA000BD020000342C0140B0B5062343431D4C55
:101EB000E05C421E032A16D80920C0067A44127933
:101EC0005200974406010305194802E0174800E054
:101ED0001548054AD17003219170E1184988118095
:101EE0001146FEF74BFDB0BDF8000020B0B50A4624
:101EF000062141430B4B585C441E032C11D809208A
:101F0000C006C0467C4424796400A744060103054A
:101F1000074802E0054800E0034859180979FEF730
:101F20008EFDB0BD26270008000C004800080048C0
:101F300000040048F0B5A1B000203549794A0B46AD
:101F4000C5010C466E187F25ED435F198021795A33
:101F5000914202D1AD1CF8D108E08033401C10281A
:101F60002146EDD110202B4C264600E0294C1028AC
:101F700000D10026002E16D02548864201D0803E92
:101F8000344611A8402521462A46FEF749F9655DE9
:101F9000204640304678423401A83E222146FEF7D2
:101FA0003FF9300246191C4886422DD1A54C11A993
:101FB000402520462A46FEF733F966532046423034
:101FC00001A93E22FEF72CF9608801210022222877
:101FD0000B4600D3134620882228084600D310461B
:101FE0001840A388222B0B4600D313461840A38B1E
:101FF000222B0B4600D313461840E38B222B00D331
:102000001146084021B0F0BD002021B0F0BDC0460F
:1020100000780008807F0008ABDC0000F0B50022EB
:102020003C49885E3C4B1B78002803D52F2B6FD191
:10203000002008800C8825B238484355631C0B806B
:10204000002C65D09CB2022C0DD134484078384920
:102050000870022830D0012832D0002858D13048EA
:1020600008210170F0BD1CB22D4B1B789C424FDB48
:102070002C4D0D8021188C1E2478491E09780902E8
:102080000919032B21D31A18D21E0024264B064609
:1020900002E06E1C954217D0354636783602744001
:1020A000082603E03C46761E3706F2D0670024B2CD
:1020B000002CF7D55F40F5E719480A210170F0BD03
:1020C00017480B210170F0BDA2B2914220D14C21E2
:1020D0005C4A515A827891421AD14A490968134A96
:1020E0001160134B1B78002B03D0012B0CD1C31DA7
:1020F00000E0431D1B780F4C23700423C3561B02C2
:10210000C0781818454B186011600B480121017008
:10211000F0BDC04698020020D0020020FC00002044
:102120009A020020FFFF0000211000009C02002006
:102130009B020020E80200207C020020B0B50024B1
:102140002E480057002800D4B0BDFEF741FEFFF72F
:1021500007FC2B4800682B490968081AFB2804D3A0
:10216000294800210160294801605C203549085A4E
:10217000274A8218274B9A4209D8274A12680A230D
:102180005343834203DA26480021016021E05820AE
:102190000A5A224D2868002A11D01C490968FEF706
:1021A00045FD322100F074F8FEF76EFD1C49086011
:1021B000286800280DD10C60FEF788FD09E04A224E
:1021C0008A5A42437D20C100104600F061F814494C
:1021D00008601348006801250028294600DC2146D4
:1021E000104A1170FEF7C5F8EA079143FEF77CF834
:1021F0000D49086048608860B0BDC046B802002044
:10220000A4020020B40200208C020020CC02002096
:10221000DFB1FFFFC6AF0000E4020020E0020020B3
:10222000C002002004000020342C014080B54E2163
:10223000044A525A42430A215143034800F006F827
:1022400080BDC046100000200087930343088B42E6
:102250001AD3002203098B4279D3030A8B425ED33F
:10226000030B8B4242D3030C8B4227D30902FF227C
:1022700012BA030C8B4202D31212090203D0030BD1
:102280008B4233D31AE0D3E0411A8041401C70479F
:1022900003460B4371D443088B42F5D30022030954
:1022A0008B4254D3030A8B4239D3030B8B421DD389
:1022B000030C8B4202D394466EE0090AC30B8B4297
:1022C00001D3CB03C01A5241830B8B4201D38B0342
:1022D000C01A5241430B8B4201D34B03C01A5241E7
:1022E000030B8B4201D30B03C01A5241C30A8B422A
:1022F00001D3CB02C01A5241830A8B4201D38B0215
:10230000C01A5241430A8B4201D34B02C01A5241B8
:10231000030A8B4201D30B02C01A5241CDD2C3092A
:102320008B4201D3CB01C01A524183098B4201D3A6
:102330008B01C01A524143098B4201D34B01C01A91
:10234000524103098B4201D30B01C01A5241C30809
:102350008B4201D3CB00C01A524183088B4201D378
:102360008B00C01A524143088B4201D34B00C01A64
:102370005241411A524110007047CA0F00D04942E1
:10238000031000D34042534000229C4603098B4275
:102390002DD3030A8B4212D38901FC2212BA030AFD
:1023A0008B420CD3890192118B4208D3890192117F
:1023B0008B4204D3890137D0921100E08909C30907
:1023C0008B4201D3CB01C01A524183098B4201D306
:1023D0008B01C01A524143098B4201D34B01C01AF1
:1023E000524103098B4201D30B01C01A5241C30869
:1023F0008B4201D3CB00C01A524183088B4201D3D8
:102400008B00C01A5241D9D243088B4201D34B00F2
:10241000C01A5241411A00D2014652411046634649
:102420005B1000D34042704763465B1000D34042CC
:1024300001B50021004201D0C9430846C046C0464C
:1024400002BD000070B50125ED0704004C4020D40A
:10245000441A01D2001B0919C60D4B00F2B2FF2A23
:1024600029D01B0E2CD000020C0228432C43D31A77
:10247000DC40051910D2280A02D3401C6D0611D089
:10248000761EF6058019FF2A00DA70BDC00DC00562
:1024900070BD694000F07AF801200543C541521C27
:1024A000761CE8E764089C40C90161408900E7D1D7
:1024B0000124A043E4E71B0E440200D0034870BD92
:1024C000002AFCD1C00FC00770BD00BF0000C07F54
:1024D00070B5420064414B005C41120E39D01B0EB6
:1024E00038D0FF2A3CD0FF2B3AD0D2187F3A400296
:1024F0004902400A490A4518ED0106004E43000A08
:10250000090A48430104731A4019190C4318990F1A
:1025100004D05B08012149075B1A521CD80904D377
:10252000401CF50301D19D0607D0FF2A08D2D5052E
:1025300006D0E4072043401970BD0125A843F4E705
:10254000002A01DCE00770BD2402FF202043C00503
:1025500070BD1B0EFF2A03D0FF2B01D0E00770BD1A
:10256000FF2636064500B54206D84D00B54203D8D1
:10257000D218FF2A00D0E7E7004870BD0000C07FF6
:1025800070B50125ED0704004C4022D4441A02D254
:102590006C40001B0919C60D4B00F2B2FF2A4BD04C
:1025A0001B0E50D000020C02A8432C43D31ADC406F
:1025B000051B05D5AD0019D36D08761E521E37D008
:1025C000F605280A01D2801970BD70416D0603D04E
:1025D00070BD6940FFF73CFF9C4009026140490023
:1025E00001D0401E70BD0124A04370BD6D081DD0F8
:1025F00001202B0C01D12D0410302B0E01D12D0206
:1026000008302B0F01D12D01001DAB0F01D1AD0002
:10261000801CEB0F01D16D00401C361A121A6D00A0
:10262000680AF5054019012A02DB70BD002070BD63
:10263000C036300AC00770BD1B0E440201D1FF2B0B
:1026400000D1024870BD002AF0D070BD0000C07FEC
:102650008182838485868788898B8C8D8E8F9192E9
:1026600093959697999A9C9D9FA0A2A3A5A7A8AA87
:10267000ACAEB0B2B3B5B7B9BCBEC0C2C5C7C9CCA9
:10268000CED1D4D7D9DCDFE2E6E9ECF0F3F7FAFEFD
:102690000000000001020304010203040607080908
:1026A000000000000100010002000200030003001E
:1026B00004000400050005000600060007000700EE
:1026C0000D0008000E0009000F000A0017000B00A3
:1026D00000000000000201010201020201050201E6
:1026E0000804010904010C02010E04011002011783
:1026F00002011A06011B06011C0601060100070162
:10270000000D01001101001201001506001606005F
:102710002105000000000600020008000600190064
:1027200002001E0000000100010000000100020084
:102730000100010004000200010008000300010084
:102740001000040001002000050001004000060008
:10275000010080000700010000080B0001000010CC
:102760000C00010000200D00010000400E000100DF
:1027700000800F00020001000000020002000100C2
:102780000200040002000200080003000200100022
:1027900004000200200005000200400006000200C4
:1027A000800007000200000108000200000209008A
:1027B000020000040A00020000080B0002000010E2
:1027C0000C00030000200D00030000400E00030079
:1027D00000800F000400010000000400020001005E
:1027E000040004000200040008000300040080004C
:1027F000070013000100140000001500000016007F
:1028000001001D0301001E0300000201010203017B
:102810000002060300020C0100020000402800082C
:102820000000002098000000F8000008D8280008E8
:102830009800002058080000140100080000000063
:1028400000D8B80501000000A00F000060F0FFFFF5
:10285000FFFFFFFFFFFFFFFFFFFFFFFFFFFFFFFF88
:10286000FFFFFFFFFFFFFFFFFFFFFFFFFFFFFFFF78
:10287000FFFFFFFFFFFFFFFFFFFFFFFFFFFFFFFF68
:10288000FFFFFFFFFFFFFFFFFFFFFFFFFFFFFFFF58
:10289000ABDC1F00FA000000004B002001001E000E
:1028A00000000A002C010100010010A4007DE803D3
:1028B0000000000000000000000000000000000018
:1028C0000000000000000000000000000000000008
:0828D0000100000000000000FF
:04000005080000B53A
:00000001FF
