:020000040800F2
:10000000980A00209D010008C9010008CB010008E2
:1000100000000000000000000000000000000000E0
:10002000000000000000000000000000CD010008FA
:100030000000000000000000CF0100084D1800087B
:10004000D3010008D3010008D3010008D301000840
:10005000D3010008D3010008D3010008D301000830
:10006000D3010008D3010008291200084312000838
:100070007D0D0008DD190008D3010008F11A000801
:10008000491B00080000000000000000D301000828
:1000900000000000D3010008D3010008D3010008CC
:1000A00000000000D3010008D3010008D3010008BC
:1000B000D301000800000000D30100080000000088
:1000C00000F002F800F03EF80CA030C80838241800
:1000D0002D18671EA246AB4654465D46AC4201D180
:1000E00000F030F87E460F3EB6460FCC0126334274
:1000F00000D0FB1A3343A246AB46184788340000B1
:10010000A8340000103A02D378C878C1FAD8520750
:1001100001D330C830C101D504680C6070470000BD
:100120000023002400250026103A01D378C1FBD813
:10013000520700D330C100D50B6070471FB51FBDFB
:1001400010B510BD00F0E7FD1146FFF7F7FF02F014
:1001500039FB00F0FFFD03B4FFF7F2FF03BC00F032
:1001600005FE000070B505460C46164602E00FCCB1
:100170000FC5103E102EFAD2082E02D303CC03C5B1
:10018000083E042E07D301CC01C5361F03E02178B9
:100190002970641C6D1C761EF9D270BD104880F366
:1001A000088810481049016010480168090E104A7B
:1001B000914205D10F480C4901600F480F49016079
:1001C0000F4880470F480047FEE7FEE7FEE7FEE7DF
:1001D000FEE7FEE70C480D490D4A0E4B7047000044
:1001E000980A002060200240010000000400000086
:1001F0001F00000018100240000001400000000035
:1002000069180008C100000898040020980A00201E
:100210009806002098060020F8B5042A2CD38307FE
:1002200012D00B78491C0370401C521E83070BD060
:100230000B78491C0370401C521E830704D00B78B6
:10024000491C0370401C521E8B079B0F05D0C91A16
:10025000DF002023DE1B08C90AE0FFF783FFF8BD9B
:100260001D4608C9FD401C46B4402C4310C0121F57
:10027000042AF5D2F308C91A521EF0D40B78491C8F
:100280000370401C521EEAD40B78491C0370401CBA
:10029000012AE4D409780170F8BD704770477047AF
:1002A0000246C80FC00781434B0030B54B405B008E
:1002B0009B0D20D01923DB06C91801231B05994289
:1002C00020DB0324A40704251346AB400BD3002BEB
:1002D00004D1EB0613409B00E34204D401246407DD
:1002E000002312195941FF231B0599420BD2C90063
:1002F0000143500F09E0CB0204D501430803024338
:1003000005D0054830BDFF21C905084330BD08466A
:1003100007210905884330BD0000C07FF0B5F94DC5
:100320000C091E092C402E402F468BB0A7437DD0D0
:10033000B543FCD0002E7AD0002CFCD00D465D4099
:10034000ED0F2543AC1BFF25AD0464190894C502CD
:10035000440DC9022143500DDC0204430120C007B3
:1003600001430443D2020191200C110C00958C46EC
:10037000010423468B430A9161460904E24D8A43F6
:100380000991010A7D4449198039097805464D4390
:1003900001266D18F605751B6943C90C640B891C91
:1003A0004C436418B5012C1B250C2E04B4434C435C
:1003B0004D43210C691889090591009DE90701D079
:1003C0000121C90704912C4601996708CD072F43E5
:1003D0004C08059DE10B4D432D0C2946664675439F
:1003E00002950D4645432E46029D7D1BB441009566
:1003F0000D465D4301942C0C2F040D465543AE462B
:100400002D0C3D43029503947546049C2D04641BFA
:10041000049406D2029C039D641C0026754103953A
:10042000029401AC70CC009F7D1B01E03EE162E1D3
:10043000B44109040095079101940599A40861430A
:10044000090C0C464443650BE7040C4666467443AE
:10045000A646640B3C43039502947446049DE40451
:100460002C1B049406D2029C039D641C002675413B
:100470000395029401AC70CC009F7D1BB4410194A4
:100480000C465C430095650FE7000C465443A646B6
:10049000640F3C43039502947446049DE4002C1BB6
:1004A000049406D2029C039D641C002675410395AA
:1004B000029401AC70CC009F7D1BB441AE09AF0625
:1004C000049DC900AD092F43049DA406AD06049503
:1004D000079D344369180791059DE10B4D432D0C91
:1004E00029466646754302950D4645432E46029DB4
:1004F0007D1BB44100950D465D4301942C0C2F04E7
:100500000D465543AE462D0C3D430295039475466A
:10051000049C2D04641B049406D2029C039D641C5D
:10052000002675410395029401AC70CC009F7D1BA1
:10053000B44101948C050694079C890A61180095C2
:100540000791019C0599A4086143090C0D46454398
:10055000680BEF040D46644665436C0B3C43049FF7
:10056000ED047D1BAC4602D20025641C6841009E50
:10057000019D371B85410846584301950C46460F9F
:10058000C5005443600F28436546E4002C1B02D28B
:100590000025401C6E41019D3F1AB5412846BD090A
:1005A000800628438446A009BF064E020699A40689
:1005B00076180743079D002068410A990790194360
:1005C0000020099B00906046FF1913434041E20F51
:1005D00064003A43A4460446D71A8C41A04203D98A
:1005E0000120009020463A46C70F941840416246C9
:1005F000D20F2243644664000494009CBE4664000B
:10060000D71AA446044602978C417746002F01D1A1
:10061000A04204D96046401C8446029A2046C40F7A
:10062000A64694184041049A0546D20F22436446D8
:100630006400D31A8D417146002901D1A84202D924
:1006400028461A46641C10430122002800D0164395
:1006500061020020079B891904465C410223002C9B
:1006600002DB491813466441089DCE0A2D145D191A
:100670004B056705E10A2C050D1908993E43C9078A
:100680006940002B08D0934006D30022761C5141CC
:10069000002B01D1760876001C4A002D43DB154261
:1006A00041D0AA433FD030460BB0F0BD06180D46EE
:1006B0004D41174C7642AC411AD395181C465C410B
:1006C000134A6D42A24113D3012252054C00D44279
:1006D0000AD15C00D4420BD04B4002D592021143A8
:1006E000E2E749004908DFE75940C90FC90718E0A8
:1006F00000200849D8E7054801420DD10342F7D050
:10070000F2E700000000FF07E42F00000000F07F88
:100710000000E0FF0000F87F114859400143C0127B
:1007200041400020C0E70123089A9B069A4205DC5D
:10073000032252078918C90FC907B5E705225207D6
:100740008918074A1143D2125140ADE770B51546DA
:100750001C4602460B4628462146FFF7DFFD70BDCA
:10076000FFFFFF7F30B50346CA02400D1043164D10
:10077000164C0A1502D02043002A06DBAA1A002ACA
:1007800012DDD040FF2A0BDC30BD5205520D01D1E5
:1007900040004008AA1A07D4D0404042FF2A01DD99
:1007A000002030BD0028FCDD4A00002B01D00120D4
:1007B00000E00020101801225205D042F0D8C817DE
:1007C000C043604030BD00001E04000000000080F7
:1007D0000346CA02400D10B510430A1504D0012487
:1007E000E4072043002A05DB0A4CA21A04D4D040B7
:1007F000FF2A00DD002010BD4A00002B01D001209F
:1008000000E00020101801225205D042F2D8C8178B
:10081000C04310BD1E0400001F22030C02D10F2292
:10082000000402D0030E03D004E00020014670470C
:100830000002083A030F01D10001121F830F01D1FA
:100840008000921E002801DB4000521E1205511844
:100850004205C012411810467047C10FC90700D0A9
:100860004042012292071143D6E701218907D3E7CD
:10087000F0B58B4C0F09254689B0BD437BD01D09CF
:100880002646AE43FAD00E465E402740F60F3E4362
:10089000254071D024012142FBD0FF24AD19A404CE
:1008A0002D1B039501252D05DB02DB0AC9022B4315
:1008B000C90A29431E010901040F130F0501214331
:1008C0001701880B820391432D098C46A90B1E4307
:1008D0008A039543B30B9A0396433F09BA0B9403DB
:1008E000A74302962E467E430497B6464E19D71963
:1008F0000C460196544305977E43371B7646BF1B33
:100900003601B646BE0B361900967646BC0437193A
:10091000009C01D3641C00946400002F01D00126C8
:100920003443029E049F754366467E4304967600D8
:1009300034196E0034190094029C019E1C19664300
:10094000751BAE46069465464519059C05956C4396
:10095000594375460891691A0191049E0146514315
:10096000A41B0491611A009C0791E10605D061095E
:100970000122114302E072E06EE06109089D002748
:100980002C0A2D066918049D7C412A0A2D06691837
:10099000019D6241AC0DAD026D185441079A910D55
:1009A000920255196141029A644658435443069B8A
:1009B000059A5A43121A131B9A0E9B015B187A412F
:1009C000010B0005C3185141220A200644195A415F
:1009D0009A4200D2491C01204002814203D31523D0
:1009E0000226F64302E014230326F6432020C51A0C
:1009F000A9401746AF40DA400A4320460399D84041
:100A00000914731819055118039A3843D207514035
:100A1000AC4009D00122944006D30022401C514131
:100A2000002C01D1400840001E4A934212D30122FB
:100A300003989206904207DB0520400709181A48E0
:100A40000143C012414004E0032040070818C10FD1
:100A5000C907002009B0F0BD0020F107FAE705182A
:100A60000C464C4111486D42A04115D394181A46CA
:100A70005A410E48644290410ED301204A0040057D
:100A8000824209D35A00824206D35940C90F084A0C
:100A9000C90700201143DDE700200649DAE700001E
:100AA0000000FF07FE070000FFFFFF7F0000E0FFE0
:100AB0000000F07F0000F87F0121C90501234118E3
:100AC00042001B06D3185B0E0AD0C1100722D206C3
:100AD000891840075242D14201D552008918704707
:100AE000090208D50146002A03D0C10FC90700201A
:100AF000704710467047420202D0002002497047FA
:100B0000072109050143F4E70000F87FF0B5FF2550
:100B10002D04C609C209FF2704462E400137CB0920
:100B20003E4348402A402B400746002A6BD0002B0A
:100B300069D0AA4267D0AB4265D0002800DA3246BD
:100B40000125ED0529432C4309022002090AD21A86
:100B50004B0C7F24E31A434C000A7C44E35C7D2465
:100B60002404121914145B00A218884201D3521CE9
:100B700000E0400049420C465C4324115C43DB0129
:100B80006415E318040A5C43C502200D0C46444377
:100B90006419250A5D432303EC0C0D4665430003ED
:100BA0000019EB184C42A34201D35B18401CD4053A
:100BB0002018002B07D05B00C91804D3401C002963
:100BC00001D1400840003F2189048A4209D3002A0C
:100BD00008DC1106090F04D0032149074018C00F93
:100BE000C007F0BD01224100120689187F2252067B
:100BF0009142F6D205214907C84201D59010F0BDB7
:100C0000FF20C005F0BD002F00DA32461648AA4288
:100C100007D2AB4205D21902090E17D0F80FC00750
:100C2000F0BDFF2563002D06AB42F9D84900A9426B
:100C3000F6D8AB4201D1A942F2D0A94201D100219C
:100C400001E061004908D0050843F0BD1102090E1A
:100C5000FBD0FF200243D005F0BD0A4601461046F6
:100C600054E700008E2800000000C07F10B5014648
:100C70009E240002CA15A307002A02D01843002AA6
:100C800004DBA21A002A0CDDD04010BD1206120EA1
:100C900001D140004008A21A03D4D04040420028AD
:100CA000F3DDFF2248001206904201D9002010BD5A
:100CB000C817C043584010BD1F22030C02D10F2299
:100CC00000041CD0030E01D10002083A030F01D129
:100CD0000001121F830F01D18000921E002801DB4A
:100CE0004000521ED205511802125118192290408C
:100CF00004D3491C002801D149084900084670471F
:100D0000C10FC90700D04042012292071143D3E727
:100D100001218907D0E7754600F024F8AE460500AA
:100D200069465346C008C000854618B020B5FFF795
:100D300051FA60BCB64600260027C0C5C0C5C0C574
:100D4000C0C5C0C5C0C5C0C5C0C5403D49084900F3
:100D50008D46704710B50446C046C0462046FFF792
:100D6000FAF910BD00487047A8000020014918207A
:100D7000ABBEFEE72600020070470000F0B581B070
:100D8000804F0221384600F057F9002807D0022191
:100D9000384600F032F97C48802100F04FFF0125F1
:100DA0003846294600F050F9002800D1E7E0774C9A
:100DB00020787E280BD87D48807E01F061FA7F493B
:100DC0000A68101808602078401C2070D3E07F2843
:100DD0001FD17A4D2868C00928605427734EF05BF4
:100DE000002837D00121674800F0F0F8F05B654F2C
:100DF0002988401881B2002538462A4600F0F9F8C3
:100E0000718B7148425D91421AD02D1D282DF9D168
:100E10001BE05F4C207801F077FC5E4E3178884211
:100E20002DD0207801F070FC5B49087001F0DCFAED
:100E3000207801F069FC3178884210D9002118E04F
:100E400040198178384600F0CAF80221012238465C
:100E500000F002F92078401C20704A4F8BE0207887
:100E600001F052FC68403278062151400143481E8F
:100E700081414A480170207801F046FC3070786D5D
:100E800080B2FFF7EAFC02460B4645484549FFF7AA
:100E900045FAFFF705FA444908600F464220434CE3
:100EA000205AFFF7E2FC05460E46207E01F0E8F9E5
:100EB000FFF7DBFC02460B4628463146FFF7D8FC1D
:100EC00005460E463868FFF7F7FD02460B462846F2
:100ED0003146FFF7CDFC0025354B2A46FFF7C8FC0D
:100EE000344B2A46FFF7C4FCFFF73CFC324908604C
:100EF000A07E01F0C5F906464420205AFFF7B5FC54
:100F000007460C462D480068301AFFF7AEFC024633
:100F10000B4638461B4F2146FFF7AAFC04460E46F7
:100F200021480068FFF7C8FD02460B4620463146BF
:100F3000FFF79EFC2A461E4BFFF79AFC2A461D4BE4
:100F4000FFF796FCFFF70EFC1D4C206001F028FA1D
:100F500001F0DEF952201549085A01466539194A4F
:100F6000914208D8642141432068884203DD064845
:100F700045638563C5630121384600F045F801B03B
:100F8000F0BDC04600240140002C0140D8030020E1
:100F9000040000200500002090000020E80300204D
:100FA000333333333333B340880400201000002040
:100FB000000059400000303F84040020C00300209E
:100FC000BC030020520B00002C3400084A1E914143
:100FD0004900426802239A435118416070470F222A
:100FE0001203836893438360090382680A43826023
:100FF00070470904891801617047012900D0022156
:1010000042690A4342617047012900D002214269C6
:101010000A43426170474A1E9141426801239A4344
:101020005118416070474A1E91418900826804232B
:101030009A43511881607047491E4A1E9141426986
:10104000CA40012010407047491E4A1E9141426922
:10105000CA400120104070478368012905D1012151
:10106000002A05D00B43836070470221002AF9D182
:101070008B4383607047000042680B4B1340436012
:101080004A680B68134342681A4342608268074B00
:10109000134083600A694B69134389681943826866
:1010A0000A4382607047C0460FBCFFFF8FF1F9FF13
:1010B00010B50F229202446894434460102B00D272
:1010C0009B0242681A43426001228A40C3689343EC
:1010D000C360C3681343C3600804800F04D00E4884
:1010E00001680C220A43026010BDC0464A1E9141AD
:1010F00009020122120283689343591881607047E4
:101100000C2100280A4600D10246034803688B439D
:10111000134303607047C04604240140F0B581B01A
:101120000925EC06082102262046324600F071F916
:1011300020462946324600F06CF90A212046324604
:1011400000F067F91D4D0D212846324600F061F987
:101150000E212846324600F05CF90F21284632461F
:1011600000F057F96E46304600F068F914480090D8
:101170002046314600F005F90127780230802046EC
:10118000314600F0FEF8B80230802046314600F0CB
:10119000F8F8780330802846314600F0F2F8B803BA
:1011A00030802846314600F0ECF8F80330802846BD
:1011B000314600F0E6F801B0F0BDC046000400483A
:1011C0000001031810B50E4800687D21C90001F028
:1011D000CBFE411E080E00D0FEE70A480A4A5160C5
:1011E0000A490B6803400324A4071B190B60002362
:1011F0009360072313600A6802400A6010BDC0466E
:1012000000000020FFFFFF0010E000E020ED00E004
:1012100081B0009003480099016001680029FCD169
:1012200001B07047FC03002010B50124600200F0FB
:1012300037F8002804D0200200F010F801F07CFDFF
:1012400010BD10B50124600400F02AF8002804D075
:10125000200400F003F801F06FFD10BD0F49086095
:101260007047C046026801239A430A4302607047F0
:1012700080B5016801229143016000210160416055
:101280008160C160C0B20838052101F06DFE0F21F8
:101290008140024802680A43026080BD04000240A7
:1012A000024909680840411E884170470000024019
:1012B000002A03D002680A430260704702688A432A
:1012C00002607047B0B5114A1446103403682340D9
:1012D0000C7A8D7D25430C7C2C434D7C25434C8A18
:1012E0002C438D8A25430C8B2C434D8B2543ACB26C
:1012F0001C430460036813408A8B1A430260CA6867
:1013000042600A6882604968C160B0BDFF7FFFFF2C
:10131000F0B58BB00193174602910446012528468B
:10132000294600F0C9F92046FFF7A2FF03AE304678
:1013300000F01CF82020B0750020B08230720990B7
:10134000E8030790019806900497029803902046BE
:101350003146FFF7B7FF022120462A46FFF7A8FFD4
:1013600020462946FFF77EFF0BB0F0BD00218183A8
:101370008161017201604160C1600161818281759A
:101380007047F0B583B0CB780F221C460292144010
:10139000DD06019301D58D782C4300910A88002643
:1013A000374603E0361D7F1C082F0CD01546FD4044
:1013B000ED07F7D02546B540029BB340016899433D
:1013C00029430160EEE70099098800910D0A002683
:1013D000374603E0361D7F1C082F0CD02946F94004
:1013E000C907F7D02146B140029BB34042689A43F7
:1013F0000A434260EEE70199482903D0282906D123
:10140000143000E010300168009A1143016003B00D
:10141000F0BDB0B5082901D3242300E02023C4582F
:101420004907C90E0F258D40AC438A402243C25064
:10143000B0BD80680840411E884170470249418024
:10144000024901807047C04602040000FFFF00000F
:10145000002A02D010228150704714228150704718
:10146000F0B589B00191029000240126EE4F02E010
:10147000E41C2A2C1BD03A48005D7988091A4A429C
:101480004A4139888142314600D01146BA88131A40
:101490005A425A410029314600D111460129E7D16B
:1014A0002F490D19697801F0AFFBAD78E0E7012411
:1014B0002046214600F00EF902200090214600F05F
:1014C00009F905AE304600F069FD0027B772378193
:1014D00001983080B770029806900295002D01D0D7
:1014E000A50700E01F4D2846314600F015FD03AE6C
:1014F000304600F028FCB780032000040390284603
:10150000314600F0A7FB28460099224600F021FC56
:101510002846214600F0B9FC04262846314600F052
:1015200045FD4021284600F0B9FC2846314600F030
:10153000EDFC8021284600F0B7FC2846214600F04B
:101540006BFB08A8847044700299002901D00F2118
:1015500000E01021017000F02BF809B0F0BDC0468A
:101560005C34000800040040B0B5AF4D2878042476
:10157000214601F027FBA878214601F023FB2879BA
:10158000214601F01FFBB0BD0148024901607047D0
:1015900000300040AAAA000080B582B001AA012351
:1015A000937051701070104600F002F802B080BDC8
:1015B00070B501788278002A15D0FC220A400D4BC4
:1015C000D4588D07ED0EFF26AE40B443407880011D
:1015D000C0B2A8402043D0501F20084001218140C4
:1015E0000548016070BD1F2001400120884003496B
:1015F000086070BD00E400E000E100E080E100E090
:1016000070B5451A0A2169432848026851180160DB
:10161000204A1468A142224603DA1F4A1268914206
:1016200000DC026023490E680D600068642101F04F
:10163000BDFCA91BB4224A43A900401880181649D2
:101640000A689042014603DDA04204DD204670BDD9
:101650001146A042FADC0C46204670BD80B5144904
:101660000A6813180B600B4800688342024607DCC7
:101670000948006883421A4600DC0246834200DAC9
:1016800008604A206849085A50437D21490101F009
:101690008DFC80BD080000200C00002003480021C4
:1016A000016003480160034801607047E4030020C3
:1016B000DC030020C8030020054A002903D011687C
:1016C0000143116070471168814311607047C04643
:1016D00014100240054A002903D01168014311602B
:1016E00070471168814311607047C0461C1002406A
:1016F000054A002903D01168014311607047116841
:10170000814311607047C0461810024015490868AF
:101710000C2202400C2A01D0144800E012480A684A
:101720001206120F124B9A5CD04009684905490F06
:10173000595CC8407047C0460A4908680C220240FC
:101740000C2A01D0094800E007480A681206120F67
:10175000074B9A5CD04009688904490F595CC8401E
:101760007047C04604100240409C000000127A00FE
:1017700091000020F0B585B05E20DA490A5A2B4866
:101780000068EF4B1B681B1A01A8934202D9284A34
:1017900000231360274A1278002A43D0C21C093064
:1017A00001AD254B2B80254B1E689670244B1F687E
:1017B0001771E44B1B6803704C24095DA970310A52
:1017C000D170390A51711F4909880A244C43147099
:1017D000190EC170190C8170190A4170210A5170DB
:1017E00000221949154602E05D1C0C2B10D02B4637
:1017F00001AC645D24026240082503E032466D1EA0
:101800002C06F1D0560012B2002AF7D54E40F5E76B
:101810000271110A417101A80F2100F095FC00200E
:101820000449087005B0F0BD10000020B40300208A
:101830000004002094030020CDAB0000A80300208A
:101840009C030020A403002021100000054801682B
:10185000002902D00168491E0160D1480168491C75
:1018600001607047FC030020F0B589B0514E30682C
:1018700001221043306070684F4901407160306848
:101880004E49014031609004316881433160C3208A
:1018900000047168814371603068494901403160DA
:1018A0009F200004B06030680292104330603068BE
:1018B0008007FCD5434C44482060444D28681021E3
:1018C0000143296028680721884328602068401E5A
:1018D0003F4901F049FB2968014329607068706045
:1018E000706870600320019000047168814371602A
:1018F00030683849084030602368002001461F46A0
:10190000039006460491701C0590334D039C06E03D
:1019100031496D18641C002F079206901ED0402C90
:1019200018D008973746284605991E4601F01CFB3B
:101930003346311A00D2C11A3E46089F8F423046C4
:1019400000D806988F42224600D8079A8F42DFD3EC
:101950000F46DDE70499002906D009E00027079229
:1019600006900299002903D1059804280646C9D19A
:10197000104A1068174B18401060079880060699A7
:10198000C9B209050143106808431060581C11686A
:1019900001431160506801998843506050680221EA
:1019A0000143516050680C2101400829FAD109B067
:1019B000F0BDC046001002400CC0FFF8FFFFF6FE6D
:1019C000FFFF8F000000002000A24A040020024018
:1019D00000366E01FFFF0F00001BB70080B5F8480E
:1019E000202100F015F980BDF0B58DB00E460190B4
:1019F0000125E8022946FFF77BFE0AAF384600F0D2
:101A0000CDFA0024BC723C813E80BC7001980B90E2
:101A1000EB48394600F080FA06AE304600F02EFA68
:101A20000420B07028023080B481748150202D4F82
:101A3000385A411E8841C00070720794E048314610
:101A400000F092F9DE48314600F0BCF9DC4831463E
:101A500000F0E6F9DA4E3046294600F0BFF82021C2
:101A600030462A4600F075F93046294600F0DCF889
:101A700002AE304600F0A9F828033081A803B081F7
:101A800054200190385A411E884140037081164805
:101A9000029028040390CA48314600F087F8019864
:101AA000385A002818D1388E212815D3F88D2028CF
:101AB00012D8C0B2042101F085F80C4D02E0241DBB
:101AC000102C09D0295DF88D8842F8D12919897820
:101AD000C0B201F099F8F2E70121B94800F09CF892
:101AE0000DB0F0BD1000002000080008863400088A
:101AF00010B5012084070221204600F0A1F800283B
:101B000008D0606B01F020FA2349086002212046CA
:101B100000F07EF821480078002803D11E490A68A9
:101B200052420A601E4909681E4A1160012801D00C
:101B30000020C0431C490A681018086010BDC04648
:101B4000D4030020AC03002010B5124C0221204623
:101B500000F076F8002808D0606B01F0F5F90E4926
:101B600008600221204600F053F80C480078002855
:101B700003D109490A6852420A6009490968094AB9
:101B80001160012801D00020C04307490A681018DD
:101B9000086010BD00040040EC030020E8030020B2
:101BA000D4030020C4030020AC0300200A884B8823
:101BB00013438A881A43CB8813430A891A434B89F3
:101BC0001343898919434164704700218181418110
:101BD0000181C18081804180018070474A1E91410E
:101BE000426801239A435118416070478A4001239B
:101BF0008B40016A99431143016270470C2906D05A
:101C00008A4004238B40016A994311430162704763
:101C100002698A43026170474A1E914102680123AA
:101C20009A435118016070474A1E9141C90301222D
:101C3000D203436C93435918416470474161704724
:101C400002690A4204D0C0680840411E88417047BA
:101C500000207047B0B50B780222D341032B71D816
:101C60007B441B795B009F44011835508369F32442
:101C7000A3438C788D882D0125431D438561036A1C
:101C800093434A781A4301231343036282690C2366
:101C90009A43C97811438161B0BDF322120283696E
:101CA00093438A7812028C88240314431C43846172
:101CB000026A20239A434B781B01134310221A43D4
:101CC00002620322920283699343C978090219438D
:101CD0008161B0BDC269F3239A438B788C8824015B
:101CE0001C431443C46103221202036A93434A78DB
:101CF00012021A4301231B0213430362C2690C231D
:101D00009A43C9781143C161B0BDF3221202C3697D
:101D100093438A7812028C88240314431C43C461C1
:101D200003221303046A9C434B781B0323430124BF
:101D300024031C4304629202C3699343C9780902D5
:101D40001943C161B0BD0021818001224280018020
:101D50007047002A03D0C2680A43C2607047C26855
:101D60008A43C26070470000B0B5826970239A430D
:101D70000B78134383610A7A4B781343046A032276
:101D800094431C4304624B684363824B984205D0E2
:101D90007E4B984202D07E4B98420FD14B7A8C7882
:101DA0001C43036A0C25AB43234303624B89898997
:101DB00019431202436893430B434360B0BDC046CE
:101DC000002C0140B0B507221203836993430A78BF
:101DD00012021A438261026A30239A430B7A4C78CA
:101DE0001C432301134303624A688263224A131F80
:101DF000984200D0B0BD036AC024A3434C7A8D78CA
:101E000025432C011C430462032080021368834392
:101E1000488989890143880018431060B0BDC046D5
:101E200070B5C26970239A430B781343C3610322D0
:101E30001302046A9C430B7A4D781D432B02234303
:101E400003624B68C3630C4B1C1FA04200D070BDE3
:101E50009402056AA5434C7A8E78264334022C43BB
:101E6000046210031A688243488989890143080182
:101E70001043186070BDC046042C014000218170E1
:101E8000018041608160818170474A1E9141C90192
:101E9000426880239A4351184160704782687023DA
:101EA0009A430A4382607047826880239A430A43B8
:101EB0008260704710B501238B40046A9C43046222
:101EC0000223D941032920D87944097949008F4454
:101ED00001070F158169702399431143816110BD7A
:101EE0000721090383698B4311021943816110BDE6
:101EF000C169702399431143C16110BD07210903D2
:101F0000C3698B4311021943C16110BD8268072365
:101F10009A430A4382607047032212020368934384
:101F20000A891A430260184A904209DD174A904212
:101F30001CD0174A904219D0164A904207D01BE095
:101F400001229207904202D0134A904214D10268B3
:101F500070239A438B78134303600E4A904205D056
:101F60000A4A904202D00A4A904205D1026BFF23EE
:101F70009A438B7AD21802634A68C26209888162E6
:101F8000012141617047C046FF2B014000480140DC
:101F900000440140002C0140000400400021018168
:101FA000018081728170C9434160704702680423D7
:101FB0009A430A4302607047F0B585B00D46064665
:101FC0000124A0032146FFF793FB60042146FFF79D
:101FD00081FB01AF384600F0E5F800203873387215
:101FE000B87130203871182078810196012D01D008
:101FF000694D00E0694D2846394600F043F828460F
:10200000214600F007F802212846224600F008F891
:1020100005B0F0BD826901239A430A43826170478B
:1020200081690223994352000A438261704700008C
:10203000F0B581B0012100240E4D904E07E018212B
:10204000285D00F0BFFDF978241D282C0FD0285DF5
:10205000B28B824202D0F28B8242F5D12F1979786D
:1020600000F0D2FDB8780028E9D10421E8E7C8B231
:1020700001B0F0BD5C35000880680840411E884111
:102080007047000070B50D460446C0693021884392
:1020900029790143E161E06944218843A979014339
:1020A000E161E06903218843297A0143E161A06984
:1020B0001821884369890143A161A06904218843EB
:1020C000297B0143A1613548844202D0FFF71EFB02
:1020D00001E0FFF731FB2968064E304600F044FF6F
:1020E000000920622968304600F03EFF0F210140C0
:1020F000616270BD00A24A04C9B20160704700006D
:10210000F0B581B0017800291CD00446224D234E41
:10211000234F03E06178641C002913D0387801282C
:10212000304600D02846C9B2FFF7E6FF04E001219F
:10213000FFF7A2FF0028EDD1387801283046F6D00D
:102140002846F4E701B0F0BDF0B581B00091002958
:102150001FD00546104E114F114C03E06D1C009826
:10216000000416D020780128384600D0304629785F
:10217000FFF7C2FF0098401E009004E00121FFF726
:102180007BFF0028EAD1207801283846F6D0304677
:10219000F4E701B0F0BDC046004400400038014003
:1021A000A100002000210173182242810172817177
:1021B000302101714B21C90101607047F0B587B032
:1021C00001277C0220463946FFF792FA0025069542
:1021D000039420200290B80405900195264C01A993
:1021E0002046FEF749FF20463946FEF71CFFBB029A
:1021F0000F2120462A460093FEF75AFF3846FEF785
:102200007FFF20463946FEF706FF1C4E308B202804
:1022100014D8C0B20027394600F0D4FC318B3A48BC
:10222000C25D914203D03F1D282FF9D106E0C019AD
:10223000418800222046009BFEF73AFF708B202841
:1022400013D8C0B2294600F0BDFC718B2E48425D08
:10225000914203D02D1D282DF9D106E04019418867
:1022600000222046009BFEF723FF012120460A465C
:10227000FEF7F2FE07B0F0BD002401401000002080
:102280000021214A1378834204D0121D491C0A29D7
:10229000F8D10A2188001C490818408809280CD860
:1022A0007844007940008744040B0F13171B1F2349
:1022B0002B271648006880B27047002080B2704714
:1022C0001248406880B270471048806880B27047FA
:1022D0000E48C06880B270470C48006980B27047F1
:1022E0000A48406980B270470848806980B27047E8
:1022F0000648C06980B270470448406A80B270479F
:102300000248006A80B270472C340008182401404B
:10231000B0B50C480178402901D300210170017843
:102320008A00094B9C58094D2D689D50491C01702D
:10233000074801686918091B016088110549086090
:10234000B0BDC046100300200C020020BC030020DA
:102350000C0300209C030020B0B50C480178202914
:1023600001D30021017001788A00094B9C58094D66
:102370002D689D50491C0170074801686918091BA8
:102380000160481105490860B0BDC046B80300208F
:1023900014030020EC03002098030020A403002075
:1023A000B0B50C480178202901D3002101700178D3
:1023B0008A00094B9C58094D2D689D50491C01709D
:1023C000074801686918091B016048110549086040
:1023D000B0BDC04690040020040400208404002006
:1023E0008C040020A8030020F0B581B0A448007838
:1023F000401EA44C052839D84000C0467844808847
:1024000040008744050055008200AF00DD000A014E
:10241000042500950026204629463246FFF7E6FBB4
:10242000204629463246FFF7E9FB60272046314621
:102430003A46FFF73FFD012220463146FFF7D6FB23
:10244000204631463246FFF7D9FB0825204629466B
:102450003A46FFF72FFD204629463246FFF7C6FBD6
:1024600020462946009AFFF7C9FB02E100252046D5
:1024700029462A46FFF7BAFB204629462A46FFF797
:10248000BDFB0426204631462A46FFF7AFFB204617
:1024900031462A46FFF7B2FB0826204631462A4637
:1024A000FFF7A4FB204631462A46FFF7A7FBE0E0F2
:1024B0000025204629462A46FFF798FB2046294654
:1024C0002A46FFF79BFB04266022009220463146F5
:1024D000FFF7F0FC012220463146FFF787FB20463C
:1024E00031462A46FFF78AFB082720463946009ADC
:1024F000FFF7E0FC204639462A46FFF777FB2046E7
:1025000039463246FFF77AFBB3E00826002520461D
:1025100031462A46FFF76AFB204631462A46FFF736
:102520006DFB04266027204631463A46FFF7C2FC81
:10253000012220463146FFF759FB204631462A4604
:10254000FFF75CFB204629463A46FFF7B3FC2046DE
:1025500029462A46FFF74AFB204629463246FFF71E
:102560004DFB86E00425009500262046294632468C
:10257000FFF73CFB204629463246FFF73FFB082584
:102580006027204629463A46FFF794FC0122204660
:102590002946FFF72BFB204629463246FFF72EFB44
:1025A000204631463A46FFF785FC20463146324602
:1025B000FFF71CFB20463146009AFFF71FFB58E04F
:1025C0000025204629462A46FFF710FB20462946CB
:1025D0002A46FFF713FB0827602620463946324675
:1025E000FFF768FC012220463946FFF7FFFA204634
:1025F00039462A46FFF702FB042720463946324671
:10260000FFF758FC204639462A46FFF7EFFA2046E6
:1026100039463A46FFF7F2FA2BE008260025204615
:1026200031462A46FFF7E2FA204631462A46FFF7AE
:10263000E5FA6026204629463246FFF73BFC012298
:1026400020462946FFF7D2FA204629462A46FFF7B8
:10265000D5FA0427204639463246FFF72BFC2046A0
:1026600039462A46FFF7C2FA204639463A46FFF76E
:10267000C5FA20212046FFF7E1FA01B0F0BDC046BF
:1026800090000020002C014010B5062141431A4A59
:10269000505C431E032B09D80920C0067B441B79DC
:1026A0005B009F4408010507164804E0002010BDA8
:1026B000134800E0114851184988FEF7BAFE10BDD2
:1026C000B0B50A46062141430B4B585C441E032C0F
:1026D00011D80920C006C0467C4424796400A74470
:1026E00006010305074802E0054800E003485918C1
:1026F0004988FEF7ADFEB0BD96340008000C0048D6
:102700000008004800040048F0B581B005462C4F91
:102710003878FFF7B9FF0446B878FFF7B5FF0646EB
:102720003879FFF7B1FF7100091980000818012DF1
:1027300001D00721081AC0B20149085C01B0F0BD00
:102740005434000810B5012460042146FEF7B4FF9C
:10275000A0042146FEF7B0FFE0042146FEF7ACFFDF
:1027600020052146FEF7A8FFFC4CE088202803D86E
:10277000C0B2102100F026FA2089202803D8C0B268
:10278000102100F01FFA6089202803D8C0B2102160
:1027900000F018FAA08A202803D8C0B2102100F057
:1027A00011FA608A202803D8C0B2042100F00AFA86
:1027B000208A202803D8C0B2102100F003FA10BDEF
:1027C0001000002088B0FEF7FDFC00F041FA002860
:1027D00034D0FFF7B7FFFEF7C7FEDD480068DD49DC
:1027E00000F0C2FB0146DC48FEF73AFEFEF796FC1D
:1027F0004A20DA4F385A00242146FFF7F5F80D2019
:102800000121FEF7C9FEFFF7D9FC0C2001942146F7
:10281000FEF7C2FEFFF70CFC0146D14C21704820A8
:10282000385AFFF7C9FB2178CE48012942D1D04957
:10283000CE4A0123FEF76CFD0A2042E00124600429
:102840002146FEF739FFA0042146FEF735FFE004DC
:102850002146FEF731FF20052146FEF72DFF7D20A2
:10286000C40002E02046FEF7D3FC002528460C38C1
:10287000C0B240087E2803D8E8B2482100F0A2F98F
:10288000681CE9B220290546F0D32046FEF7C0FCBB
:10289000002504E0681CE9B220290546E2D228465A
:1028A0000C38C0B240087E28F4D8E8B2282100F0E5
:1028B00089F9EFE72830AC49AC4A0123FEF728FD3F
:1028C0000B200121FEF768FEB88A20282DD864204D
:1028D000FEF79EFC387D0121FFF7F2FEB87CFFF782
:1028E000D3FE002821D0788A20281ED8388A2028B4
:1028F0000FD8C0B20121FFF7E3FE02242046FEF705
:1029000087FC387C0021FFF7DBFE2046FEF780FCC9
:1029100001E000BF00BFFEF737FEB87CFFF7B4FE52
:10292000002802D0788A2128E0D3388A202811D8BC
:102930000525387C0121FFF7C3FE32242046FEF72F
:1029400067FC387C0021FFF7BBFE2046FEF760FCE9
:102950006D1EEED187480121FEF7C8FB86A0FFF768
:10296000CFFB5C203E5A3046FEF7D2F904465A208F
:102970000790385A801BFEF7C3F98349FEF7C6F863
:102980000646824900F032FC214600F0E9FBFEF7E2
:102990006DF902907E49304600F028FC214600F097
:1029A000DFFBFEF763F903907A49304600F01EFC26
:1029B000214600F0D5FBFEF759F9049076493046E0
:1029C00000F014FC214600F0CBFBFEF74FF9059018
:1029D0007249304600F00AFC214600F0C1FBFEF7C8
:1029E00045F90690734D744C01E0FEF7CDFD079854
:1029F000385A6B4940186B4988420ED86A480168BA
:102A00000A204843069988421EDDB87900263146DF
:102A1000FFF756FE387A012120E0BE793878FFF7BB
:102A200033FE01463046FFF74BFE3E7AB878FFF79B
:102A30002BFE01463046FFF743FEBE7A3879FFF79A
:102A400023FE014630460DE0059988422FDDB87916
:102A50000021FFF735FE387A01263146FFF730FEB8
:102A6000B87A3146FFF72CFE514800682968081AE9
:102A7000022804D300F0F0F928684D490860216865
:102A80002868411A4D4A914205D32060474A107880
:102A9000414241411170B88A2028A6D8788A20285E
:102AA000A3D8C0B2FFF7F0FD00289ED028E004991B
:102AB00088420BDDB87900263146FFF701FE387AEF
:102AC0003146FFF7FDFDB87A0121CBE70399884233
:102AD00007DDB87901263146FFF7F2FD387A00218B
:102AE000BCE7FA880299884202DDD0B2012102E0F7
:102AF0002E480178D0B2FFF7E3FD387A0026ACE724
:102B00002F480199016041608160388A202815D8DA
:102B10000325387C0121FFF7D3FD96242046FEF7DC
:102B200077FB387C0021FFF7CBFD2046FEF770FBDA
:102B30006D1EEED102E000BFFEF726FDB87CFFF768
:102B4000A3FD0028F7D1387D0021FFF7B9FDFEE78E
:102B500000000020A0860100FFFF00001000002000
:102B6000A10000203000024004440040F003002097
:102B7000043801400024014068656C6C6F20576F79
:102B8000726C640A0D0000000000C8420000204181
:102B90000000A041000048420000704200008C424A
:102BA000DFB1FFFFC6AF000084040020A0030020B7
:102BB000D0030020D4030020CC030020BD0200007D
:102BC000342C0140B0B5062343431D4CE05C421E4B
:102BD000032A16D80920C0067A4412795200974475
:102BE00006010305194802E0174800E01548054AA8
:102BF000D17003219170E118498811801146FEF7C8
:102C0000C0FBB0BD08010020B0B50A460621414313
:102C10000B4B585C441E032C11D80920C006C0463B
:102C20007C4424796400A74406010305074802E0B8
:102C3000054800E0034859180979FEF7EAFBB0BDE2
:102C400096340008000C00480008004800040048C2
:102C5000F0B5A1B000203549794A0B46C5010C46B4
:102C60006E187F25ED435F198021795A914202D178
:102C7000AD1CF8D108E08033401C10282146EDD16E
:102C800010202B4C264600E0294C102800D10026AD
:102C9000002E16D02548864201D0803E344611A829
:102CA000402521462A46FDF7B7FA655D20464030AB
:102CB0004678423401A83E222146FDF7ADFA3002A3
:102CC00046191C4886422DD1A54C11A94025204605
:102CD0002A46FDF7A1FA66532046423001A93E225A
:102CE000FDF79AFA60880121002221280B4600D3C3
:102CF000134620882128084600D310461840A38890
:102D0000212B0B4600D313461840A38B212B0B46D7
:102D100000D313461840E38B212B00D31146084003
:102D200021B0F0BD002021B0F0BDC0460078000801
:102D3000807F0008ABDC0000F0B500223C49885ED3
:102D40003C4B1B78002803D52F2B6FD10020088027
:102D50000C8825B238484355631C0B80002C65D085
:102D60009CB2022C0DD134484078384908700228B2
:102D700030D0012832D0002858D1304808210170C5
:102D8000F0BD1CB22D4B1B789C424FDB2C4D0D80AF
:102D900021188C1E2478491E097809020919032B71
:102DA00021D31A18D21E0024264B064602E06E1CC0
:102DB000954217D03546367836027440082603E02F
:102DC0003C46761E3706F2D0670024B2002CF7D5B9
:102DD0005F40F5E719480A210170F0BD17480B2143
:102DE0000170F0BDA2B2914220D14C215C4A515AEF
:102DF000827891421AD14A490968134A1160134BEB
:102E00001B78002B03D0012B0CD1C31D00E0431D08
:102E10001B780F4C23700423C3561B02C07818186C
:102E2000454B186011600B4801210170F0BDC04690
:102E3000B0030020F00300200C010020B2030020AA
:102E4000FFFF000021100000B4030020B3030020A6
:102E5000910400209403002070B500252E484057AF
:102E6000002800D470BDFEF785FCFFF775FA2B48EB
:102E700000682B490968081AFB2804D32948002157
:102E80000160294801605C203549085A274A8218A8
:102E9000274B9A4209D8274A12680A235343834290
:102EA00003DA26480021016021E058200A5A224C0A
:102EB0002068002A11D01C490968FEF7A1FB3221C5
:102EC00000F074F8FEF7CAFB1C490860206800286F
:102ED0000DD10D60FEF7E2FB09E04A228A5A424317
:102EE0007D20C100104600F061F8144908601348C5
:102EF00004682046FDF7B1FC0126F2079143FDF777
:102F000067FC0F4908604860002C00DC2E460D4A23
:102F10001670886070BDC046D8030020C40300202E
:102F2000D4030020A4030020EC030020DFB1FFFF46
:102F3000C6AF00008404002000040020E00300204D
:102F4000342C01400400002080B54E21044A525A1E
:102F500042430A215143034800F006F880BDC046B1
:102F6000100000200087930343088B421AD30022ED
:102F700003098B4279D3030A8B425ED3030B8B4246
:102F800042D3030C8B4227D30902FF2212BA030C4F
:102F90008B4202D31212090203D0030B8B4233D3AC
:102FA0001AE0D3E0411A8041401C704703460B43AE
:102FB00071D443088B42F5D3002203098B4254D3CA
:102FC000030A8B4239D3030B8B421DD3030C8B4274
:102FD00002D394466EE0090AC30B8B4201D3CB03A4
:102FE000C01A5241830B8B4201D38B03C01A52414A
:102FF000430B8B4201D34B03C01A5241030B8B424C
:1030000001D30B03C01A5241C30A8B4201D3CB0236
:10301000C01A5241830A8B4201D38B02C01A52411B
:10302000430A8B4201D34B02C01A5241030A8B421E
:1030300001D30B02C01A5241CDD2C3098B4201D336
:10304000CB01C01A524183098B4201D38B01C01AB4
:10305000524143098B4201D34B01C01A524103092B
:103060008B4201D30B01C01A5241C3088B4201D3DA
:10307000CB00C01A524183088B4201D38B00C01A87
:10308000524143088B4201D34B00C01A5241411AAE
:10309000524110007047CA0F00D04942031000D3BC
:1030A0004042534000229C4603098B422DD3030A21
:1030B0008B4212D38901FC2212BA030A8B420CD331
:1030C000890192118B4208D3890192118B4204D35A
:1030D000890137D0921100E08909C3098B4201D3DD
:1030E000CB01C01A524183098B4201D38B01C01A14
:1030F000524143098B4201D34B01C01A524103098B
:103100008B4201D30B01C01A5241C3088B4201D339
:10311000CB00C01A524183088B4201D38B00C01AE6
:103120005241D9D243088B4201D34B00C01A5241BD
:10313000411A00D201465241104663465B1000D34B
:103140004042704763465B1000D3404201B5002106
:10315000004201D0C9430846C046C04602BD000037
:1031600070B50125ED0704004C4020D4441A01D26B
:10317000001B0919C60D4B00F2B2FF2A29D01B0E05
:103180002CD000020C0228432C43D31ADC40051932
:1031900010D2280A02D3401C6D0611D0761EF60507
:1031A0008019FF2A00DA70BDC00DC00570BD6940EE
:1031B00000F07AF801200543C541521C761CE8E76F
:1031C00064089C40C90161408900E7D10124A04303
:1031D000E4E71B0E440200D0034870BD002AFCD176
:1031E000C00FC00770BD00BF0000C07F70B54200B7
:1031F00064414B005C41120E39D01B0E38D0FF2ABF
:103200003CD0FF2B3AD0D2187F3A40024902400A04
:10321000490A4518ED0106004E43000A090A4843D1
:103220000104731A4019190C4318990F04D05B0854
:10323000012149075B1A521CD80904D3401CF5032D
:1032400001D19D0607D0FF2A08D2D50506D0E40794
:103250002043401970BD0125A843F4E7002A01DC92
:10326000E00770BD2402FF202043C00570BD1B0E87
:10327000FF2A03D0FF2B01D0E00770BDFF263606E2
:103280004500B54206D84D00B54203D8D218FF2AF2
:1032900000D0E7E7004870BD0000C07F70B5012591
:1032A000ED0704004C4022D4441A02D26C40001BAB
:1032B0000919C60D4B00F2B2FF2A4BD01B0E50D09D
:1032C00000020C02A8432C43D31ADC40051B05D591
:1032D000AD0019D36D08761E521E37D0F605280AA8
:1032E00001D2801970BD70416D0603D070BD694078
:1032F000FFF73CFF9C4009026140490001D0401E9D
:1033000070BD0124A04370BD6D081DD001202B0CA1
:1033100001D12D0410302B0E01D12D0208302B0FBE
:1033200001D12D01001DAB0F01D1AD00801CEB0FB1
:1033300001D16D00401C361A121A6D00680AF5059D
:103340004019012A02DB70BD002070BDC036300A72
:10335000C00770BD1B0E440201D1FF2B00D10248F3
:1033600070BD002AF0D070BD0000C07F80807F7EDD
:103370007D7C7B7A797877767675747372717170EB
:103380006F6E6E6D6C6C6B6A6A696868676666659D
:103390006464636362616160605F5F5E5E5D5D5C2B
:1033A0005C5B5B5A5A59595858575756565555559C
:1033B0005454535352525251515050504F4F4F4EFC
:1033C0004E4D4D4D4C4C4C4B4B4B4A4A4A4949494A
:1033D000484848474747474646464545454444448C
:1033E00044434343434242424241414181828384B8
:1033F00085868788898B8C8D8E8F919293959697F1
:10340000999A9C9D9FA0A2A3A5A7A8AAACAEB0B272
:10341000B3B5B7B9BCBEC0C2C5C7C9CCCED1D4D76D
:10342000D9DCDFE2E6E9ECF0F3F7FAFE0000000099
:103430000100010002000200030003000400040078
:103440000500050006000600070007000D00080043
:103450000E0009000003050401020600000401013A
:1034600002010202010601000701000D0100100720
:10347000011107011207011304011702011A0601C5
:103480001B06011C060104000300060002000A00DE
:103490000700190002000100010000000100020005
:1034A0000100010004000200010008000300010007
:1034B000100004000100200005000100400006008B
:1034C000010080000700010000080B00010000104F
:1034D0000C00010000200D00010000400E00010062
:1034E00000800F0002000100000002000200010045
:1034F00002000400020002000800030002001000A5
:103500000400020020000500020040000600020046
:10351000800007000200000108000200000209000C
:10352000020000040A00020000080B000200001064
:103530000C00030000200D00030000400E000300FB
:1035400000800F00040001000000040002000100E0
:10355000040004000200040008000300100301013D
:103560001103000113000101140000010201010216
:1035700003010002060300020C0100021404010210
:1035800015040002A835000800000020A800000073
:103590000401000850360008A8000020F0090000CF
:1035A000200100080000000000A24A040101000000
:1035B000A00F000060F0FFFFFFFFFFFFFFFFFFFF16
:1035C000FFFFFFFFFFFFFFFFFFFFFFFFFFFFFFFF0B
:1035D000FFFFFFFFFFFFFFFFFFFFFFFFFFFFFFFFFB
:1035E000FFFFFFFFFFFFFFFFFFFFFFFFFFFFFFFFEB
:1035F000FFFFFFFFFFFFFFFFABDC1F00FA00000033
:10360000004B002001001E0000000A002C010100F8
:10361000010010A4007DE80300000000000000008D
:10362000000000000000000000000000000000009A
:103630000000000000000000010000000001020383
:10364000040102030406070809010000000000004D
:04000005080000C12E
:00000001FF
