:020000040800F2
:10000000A006002075010008A1010008A301000856
:1000100000000000000000000000000000000000E0
:10002000000000000000000000000000A501000822
:100030000000000000000000A7010008950A000869
:10004000AB010008AB010008AB010008AB010008E0
:10005000AB010008AB010008AB010008AB010008D0
:10006000AB010008AB010008D1060008AB01000895
:1000700071040008750C0008AB010008410D000870
:10008000AB0100080000000000000000AB01000808
:1000900000000000AB010008AB010008AB01000844
:1000A00000000000AB010008AB010008AB01000834
:1000B000AB01000800000000AB01000800000000D8
:1000C00000F002F800F046F80CA030C808382418F8
:1000D0002D18671EA246AB4654465D46AC4201D180
:1000E00000F038F87E460F3EB6460FCC012633426C
:1000F00000D0FB1A3343A246AB461847781A0000DB
:10010000981A0000103A02D378C878C1FAD852077A
:1001100001D330C830C101D504680C6070470000BD
:100120000023002400250026103A01D378C1FBD813
:10013000520700D330C100D50B60704710B5692954
:1001400002D100F09FF810BD002010BD1FB51FBDEB
:1001500010B510BD00F059F91146FFF7F7FF01F097
:1001600007FB00F071F903B4FFF7F2FF03BC00F0E6
:1001700077F90000104880F30888104810490160A2
:1001800010480168090E104A914205D10F480C49E8
:1001900001600F480F4901600F4880470F48004732
:1001A000FEE7FEE7FEE7FEE7FEE7FEE70C480D4947
:1001B0000D4A0E4B70470000A00600206020024050
:1001C00001000000040000001F00000018100240A1
:1001D0000000014000000000B50A0008C10000084E
:1001E000A0000020A0060020A0020020A002002005
:1001F0000FB41CB5074B06AA7B44694600900598CE
:1002000000F0D7F80020694600F0E6F81CBC08BCF6
:1002100004B01847DD010000F8B50E460446002082
:1002200020622046E1688847002829D0252802D08E
:100230006268A16820E0E168204600278847050041
:100240001ED028464138192802D80127FF02203540
:100250003246204627602946FFF770FF002808D065
:10026000012804D0F61DF608F6000836D9E7361D39
:10027000D7E762682846A1689047206A401CCFE70C
:10028000206AF8BDF7B5002575291068009914A6F5
:1002900011D0C046C046002802DA404211A608E04C
:1002A000009909688A0701D50FA602E0490704D51D
:1002B0000EA6012501E0C046C046009F0024243759
:1002C00004E000F08EF830313955641C0028F8D174
:1002D0002B4632462146009800F00DF8FEBD000086
:1002E000000000002D0000002B0000002000000096
:1002F000704770477047FFB504460D4681B0243003
:1003000000902168880604D51022E069914321609D
:1003100000E00120A84201DD471B00E0002704980F
:10032000A1697A191018081AA0612078C00602D4B1
:100330002046C046C046002608E003986268A168CF
:10034000805D9047206A401C761C2062049886429B
:10035000F3DB2078C0060AD52046C046C04606E03A
:100360006268A16830209047206A401C20623846AD
:100370007F1E0028F4DC07E000986268A168405DF9
:100380009047206A401C206228466D1E0028F3DC3E
:100390002046C046C0462078000602D5022005B09F
:1003A000F0BD0120FBE7000001694A1C02610878EA
:1003B000704700B58FB00291002105910549019366
:1003C00079440391114604906846FFF725FF0FB06A
:1003D00000BD0000E5FFFFFF0A681070521C0A60B4
:1003E000704701468008081A02091018020A1018FE
:1003F000020C1018C008820012185200891A01E07D
:10040000401C0A390A29FBD27047754600F024F8CF
:10041000AE46050069465346C008C000854618B080
:1004200020B5FFF7C3FE60BCB64600260027C0C556
:10043000C0C5C0C5C0C5C0C5C0C5C0C5C0C5403D9C
:10044000490849008D46704710B50446C046C0466D
:100450002046FFF788FE10BD0048704718000020B6
:1004600001491820ABBEFEE72600020070470000DD
:10047000B0B5124D01242846214600F045F8002869
:100480001AD02846214600F027F8286A0C4908604F
:10049000286B0C490C700C490860204601F0F4F8F8
:1004A0000A4D2978884207D0204601F0EDF82870DF
:1004B0000749087007480470B0BDC04600240140D9
:1004C00098000020780000207C000020040000201C
:1004D0000500002079000020012900D00221426996
:1004E0000A43426170474A1E9141426801239A4380
:1004F0005118416070474A1E914189008268042367
:100500009A43511881607047491E4A1E91414269C1
:10051000CA400120104070478368012905D101219C
:10052000002A05D00B43836070470221002AF9D1CD
:100530008B4383607047000042680B4B134043605D
:100540004A680B68134342681A4342608268074B4B
:10055000134083600A694B691343896819438268B1
:100560000A4382607047C0460FBCFFFF8FF1F9FF5E
:1005700010B50F229202446894434460102B00D2BD
:100580009B0242681A43426001228A40C368934337
:10059000C360C3681343C3600804800F04D00348DA
:1005A00001680C220A43026010BDC04604240140C9
:1005B0004A1E91410902012212028368934359188D
:1005C00081607047F0B581B00925EC06082102264C
:1005D0002046324600F071F920462946324600F0A6
:1005E0006CF90A212046324600F067F91D4D0D21B5
:1005F0002846324600F061F90E212846324600F0C6
:100600005CF90F212846324600F057F96E46304615
:1006100000F068F9144800902046314600F005F9D2
:100620000127780230802046314600F0FEF8B802FB
:1006300030802046314600F0F8F8780330802846B4
:10064000314600F0F2F8B80330802846314600F019
:10065000ECF8F80330802846314600F0E6F801B0A7
:10066000F0BDC046000400480001031810B50E4854
:1006700000687D21C90001F07DF9411E080E00D0FF
:10068000FEE70A480A4A51600A490B6803400324FE
:10069000A4071B190B6000239360072313600A68EB
:1006A00002400A6010BDC04600000020FFFFFF00AE
:1006B00010E000E020ED00E081B0009003480099D8
:1006C000016001680029FCD101B070479000002052
:1006D00010B50124600200F02DF8002804D020029B
:1006E00000F006F80148047010BDC04694000020D8
:1006F0000F4908607047C046026801239A430A43C5
:100700000260704780B501680122914301600021B9
:10071000016041608160C160C0B20838052101F00C
:1007200029F90F218140024802680A43026080BD16
:1007300004000240024909680840411E8841704790
:1007400000000240002A03D002680A43026070479A
:1007500002688A4302607047B0B5114A14461034EB
:10076000036823400C7A8D7D25430C7C2C434D7C03
:1007700025434C8A2C438D8A25430C8B2C434D8B6F
:100780002543ACB21C430460036813408A8B1A43B0
:100790000260CA6842600A6882604968C160B0BD90
:1007A000FF7FFFFFF0B58BB001931746029104461F
:1007B00001252846294600F011F92046FFF7A2FF3F
:1007C00003AE304600F026F80020B0832021B1753A
:1007D000B08230720990E803079001980690049760
:1007E0000298039020463146FFF7B6FF02262046C6
:1007F00031462A46FFF7A6FF054831462A4600F053
:1008000049FD20462946FFF777FF0BB0F0BDC046F3
:1008100000380140002181838161017201604160E3
:10082000C1600161818281757047F0B583B0CB787A
:100830000F221C4602921440DD06019301D58D78EB
:100840002C4300910A880026374603E0361D7F1CA2
:10085000082F0CD01546FD40ED07F7D02546B540D2
:10086000029BB3400168994329430160EEE7009978
:10087000098800910D0A0026374603E0361D7F1CCB
:10088000082F0CD02946F940C907F7D02146B140BE
:10089000029BB34042689A430A434260EEE70199E3
:1008A000482903D0282906D1143000E0103001680F
:1008B000009A1143016003B0F0BDB0B5082901D31F
:1008C000242300E02023C4584907C90E0F258D407A
:1008D000AC438A402243C250B0BD80680840411EEC
:1008E0008841704702494180024901807047C046F3
:1008F00002040000FFFF0000002A02D010228150F5
:10090000704714228150704770B582B0134C0D218E
:10091000062520462A46FFF7D0FF0E2120462A460C
:10092000FFF7CBFF0F2120462A46FFF7C6FF0C48F2
:10093000019001AD20462946FFF777FF0126B0035D
:10094000288020462946FFF770FFF00328802046C4
:100950002946FFF76AFF02B070BDC0460008004894
:100960000020030401480249016070470030004044
:10097000AAAA000080B582B001AA01239370517029
:100980001070104600F002F802B080BD70B501781A
:100990008278002A15D0FC220A400D4BD4588D07CE
:1009A000ED0EFF26AE40B44340788001C0B2A840AF
:1009B0002043D0501F20084001218140054801609C
:1009C00070BD1F200140012088400349086070BDB0
:1009D00000E400E000E100E080E100E0054A0029D9
:1009E00003D01168014311607047116881431160A1
:1009F0007047C04614100240054A002903D0116810
:100A00000143116070471168814311607047C0460F
:100A10001C100240054A002903D0116801431160EF
:100A200070471168814311607047C046181002403A
:100A3000154908680C2202400C2A01D08C4800E0BD
:100A400012480A681206120F114B9A5CD0400968CE
:100A50004905490F595CC8407047C0460A490868B3
:100A60000C2202400C2A01D0814800E007480A68A5
:100A70001206120F064B9A5CD04009688904490F90
:100A8000595CC8407047C04604100240409C0000BA
:100A90000600002005480168002902D00168491EAF
:100AA000016003480168491C016070479000002004
:100AB00080000020F0B58BB0644F386801221043ED
:100AC000386078686249014079603868614901405E
:100AD00039609004396881433960C3200004796823
:100AE0008143796038685C49014039609F20000487
:100AF000B86000200A9003900990140438682043DD
:100B00003860029250043968014009910A99491CE1
:100B10000A910999002904D1052109020A9A8A42F9
:100B2000F1D13968014201D1002000E0029809901A
:100B30000998012800D087E0484D49482860494E6F
:100B400030681021014331603068072188433060EC
:100B50002868401E444900F00DFF316801433160B0
:100B600078687860786878600298800279680143D4
:100B700079600320019000047968814379603868C6
:100B80003A49084038607868204378602B680398B9
:100B900001461F4606460491701C0590344D039C87
:100BA00006E033496D18641C002F079206901ED092
:100BB000402C18D008973746284605991E4600F065
:100BC000D9FE3346311A00D2C11A3E46089F8F42E1
:100BD000304600D806988F42224600D8079A8F42A6
:100BE000DFD30F46DDE70499002906D009E000278E
:100BF000079206900299002903D105980428064619
:100C0000C9D1124A10681949084010600798800637
:100C10000699C9B209050143106808431060012014
:100C2000000611680143116010688001FCD550680E
:100C30000199884350605068022101435160506817
:100C40000C2101400829FAD10BB0F0BD0010024080
:100C50000CC0FFF8FFFFF6FEFFFF8F000000002032
:100C600000D8B8050020024000366E01FFFF0F00DB
:100C700000127A0080B5D448202100F0D7F800F0A7
:100C8000A5FB80BDF0B58DB00E4601902948401CF3
:100C900001242146FFF7BEFE0AAF384600F082FA73
:100CA0000025BD723D813E80BD7001980B90C64805
:100CB000394600F035FA06AE304600F0E3F960023E
:100CC000B0812002708175720421B17030801948A2
:100CD0000790BD4D2846314600F04AF92846314676
:100CE00000F074F92846314600F09EF92846214666
:100CF00000F082F820212846224600F02EF92846EE
:100D0000214600F09FF802AE304600F06CF8A003D8
:100D1000B0810948049009480290200403902846B5
:100D2000314600F051F82846214600F083F80DB016
:100D3000F0BDC046FF0700000010002000080008BA
:100D400000BF7047F0B587B00D46009001263046D1
:100D500031460196FFF750FE04AF384600F022FA04
:100D60000024BC723C813D80BC7000980590B507A2
:100D70002846394600F0D4F902AE304600F0E7F8D4
:100D8000B4808520400202902846314600F066F883
:100D90002846019C214600F07CF90426284631466D
:100DA00000F008FA4021284600F07CF92846314638
:100DB00000F0B0F98021284600F07AF92846214653
:100DC00000F038F807B0F0BD0A884B8813438A88D2
:100DD0001A43CB8813430A891A434B8913438989E1
:100DE0001943416470470021818141810181C180A3
:100DF00081804180018070474A1E914142680123F1
:100E00009A435118416070478A4001238B40016A20
:100E100099431143016270470C2906D08A4004238C
:100E20008B40016A994311430162704702698A430A
:100E3000026170474A1E9141026801239A4351188A
:100E4000016070474A1E9141C9030122D203436CDD
:100E5000934359184164704741617047B0B50B78AE
:100E60000222D341032B71D87B441B795B009F4442
:100E7000011835508369F324A3438C788D882D01A4
:100E800025431D438561036A93434A781A4301232E
:100E90001343036282690C239A43C9781143816129
:100EA000B0BDF3221202836993438A7812028C88C0
:100EB000240314431C438461026A20239A434B7821
:100EC0001B01134310221A43026203229202836918
:100ED0009343C978090219438161B0BDC269F32304
:100EE0009A438B788C8824011C431443C4610322E9
:100EF0001202036A93434A7812021A4301231B0227
:100F000013430362C2690C239A43C9781143C16138
:100F1000B0BDF3221202C36993438A7812028C880F
:100F2000240314431C43C46103221303046A9C4337
:100F30004B781B032343012424031C4304629202C5
:100F4000C3699343C97809021943C161B0BD002147
:100F500081800122428001807047002A03D0C2684C
:100F60000A43C2607047C2688A43C260704700008B
:100F7000B0B5826970239A430B78134383610A7A70
:100F80004B781343046A032294431C4304624B6866
:100F90004363824B984205D07E4B984202D07E4BF1
:100FA00098420FD14B7A8C781C43036A0C25AB43D3
:100FB000234303624B89898919431202436893438F
:100FC0000B434360B0BDC046002C0140B0B50722C2
:100FD0001203836993430A7812021A438261026AF8
:100FE00030239A430B7A4C781C432301134303624A
:100FF0004A688263224A131F984200D0B0BD036A38
:10100000C024A3434C7A8D7825432C011C430462F1
:10101000032080021368834348898989014388003B
:1010200018431060B0BDC04670B5C26970239A43C2
:101030000B781343C36103221302046A9C430B7AA7
:101040004D781D432B02234303624B68C3630C4B53
:101050001C1FA04200D070BD9402056AA5434C7AC3
:101060008E78264334022C43046210031A688243AC
:1010700048898989014308011043186070BDC04642
:10108000042C0140002181700180416081608181D8
:1010900070474A1E9141C901426880239A43511802
:1010A00041607047826870239A430A4382607047A8
:1010B000826880239A430A438260704710B50123F7
:1010C0008B40046A9C4304620223D941032920D83F
:1010D0007944097949008F4401070F15816970230C
:1010E00099431143816110BD0721090383698B4333
:1010F00011021943816110BDC169702399431143E5
:10110000C16110BD07210903C3698B431102194353
:10111000C16110BD826807239A430A438260704709
:1011200003221202036893430A891A430260184A91
:10113000904209DD174A90421CD0174A904219D0BC
:10114000164A904207D01BE001229207904202D03B
:10115000134A904214D1026870239A438B78134348
:1011600003600E4A904205D00A4A904202D00A4AD1
:10117000904205D1026BFF239A438B7AD218026307
:101180004A68C26209888162012141617047C04694
:10119000FF2B01400048014000440140002C014069
:1011A0000004004000210181018081728170C943E7
:1011B00041607047026804239A430A430260704703
:1011C000F0B585B006460124A0032146FFF722FCB6
:1011D0006F46384600F0A9F800253D733D72BD7199
:1011E000302038711820788100964D4E30463946AF
:1011F00000F05CF83046214600F046F8714C0621BC
:1012000020462A46FFF759FB04250322204629469B
:10121000FFF753FB04AE3046FFF764FB074804902A
:1012200020463146FFF701FBF57010203080204644
:101230003146FFF7FAFA05B0F0BDC046400003188A
:10124000B0B50446007800280ED0354DC1B228460E
:1012500000F068F80121284600F023F80028F9D0B2
:101260006078641C0028F1D1B0BDC04610B50146BD
:101270002B4C204600F056F80121204600F011F8D2
:101280000028F9D010BDC046826901239A430A4361
:101290008261704781690223994352000A43826147
:1012A000704780680840411E8841704770B50D4600
:1012B0000446C0693021884329790143E161E0692E
:1012C00044218843A9790143E161E069032188430E
:1012D000297A0143E161A0691821884369890143A2
:1012E000A161A06904218843297B0143A1610C48C5
:1012F000844203D0FFF79CFB064602E0FFF7AEFBFB
:1013000006462968304600F035FB0009206229684E
:10131000304600F02FFB0F210140616270BDC046D6
:1013200000380140C9B201607047002101731822E2
:10133000428101728171302101714B21C90101602B
:1013400070470000F0B587B06D462846FFF7CAFA2F
:101350000124660230462146FFF75CFB18480090E6
:1013600018482946FFF761FA802028800920C00626
:101370002946FFF75AFA0025069503962020029089
:10138000A00405900195104E01A93046FFF7D4F84E
:1013900030462146FFF7AFF830462146FFF7A3F865
:1013A000A702022130462A463B46FFF7E1F8062114
:1013B000304622463B46FFF7DBF807B0F0BDC0469B
:1013C000020003000004004800240140F0B581B091
:1013D00090480078401E904C052831D87844007918
:1013E00040008744024D6791BCE704250095002624
:1013F000204629463246FFF707FD20462946324659
:10140000FFF70AFD6027204631463A46FFF756FEB1
:10141000012220463146FFF7F7FC2046314632468E
:10142000FFF7FAFC0825204629463A46FFF746FE14
:10143000204629463246FFF7E7FC20462946E3E0EE
:101440000025204629462A46FFF7DEFC204629468D
:101450002A46FFF7E1FC0426204631462A46FFF7DC
:10146000D3FC204631462A46FFF7D6FC0826204604
:1014700031462A46FFF7C8FC204631462A46C4E0DA
:1014800008260025204631462A46FFF7BDFC2046A7
:1014900031462A46FFF7C0FC6026204629463246E0
:1014A000FFF70CFE012220462946FFF7ADFC20463F
:1014B00029466DE008260025204631462A46FFF7DA
:1014C000A3FC204631462A46FFF7A6FC04266027E7
:1014D000204631463A46FFF7F1FD012220463146CB
:1014E000FFF792FC204631462A46FFF795FC20463E
:1014F00029463A46FFF7E2FD204629462A46FFF7ED
:1015000083FC2046294628E00025204629462A4615
:10151000FFF77AFC204629462A46FFF77DFC042681
:101520006022009220463146FFF7C8FD0122204686
:101530003146FFF769FC204631462A46FFF76CFC2E
:10154000082720463946009AFFF7B8FD204639465D
:101550002A46FFF759FC20463946324655E0002519
:10156000204629462A46FFF74FFC204629462A46B0
:10157000FFF752FC08276026204639463246FFF71F
:101580009DFD012220463946FFF73EFC20463946A4
:101590002A46FFF741FC0427204639463246FFF72A
:1015A0008DFD204639462A46FFF72EFC2046394657
:1015B0003A462AE004250095002620462946324670
:1015C000FFF722FC204629463246FFF725FC082576
:1015D0006027204629463A46FFF770FD0122204643
:1015E0002946FFF711FC204629463246FFF714FC36
:1015F000204631463A46FFF761FD204631463246E5
:10160000FFF702FC20463146009AFFF705FC01B0C7
:10161000F0BDC04605000020002C014010B582B08E
:1016200001AB0124DC709A7059701870184600F0F4
:1016300003F802B010BD000070B50178C278002A2E
:1016400015D0FC220A400D4BD4588D07ED0EFF2615
:10165000AE40B44380788001C0B2A8402043D0504F
:101660001F200840012181400548016070BD1F20F6
:101670000140012088400349086070BD00E400E09B
:1016800000E100E080E100E0F0B581B00646012510
:101690006903AE4F3846FFF720F90090A90338469A
:1016A000FFF71BF90446E9033846FFF716F9012E48
:1016B00009D1611E8C416100009A8A18411E88413F
:1016C000810011430DE00099002903D10721002C6E
:1016D00003D103E00621002C00D0FE31002800D009
:1016E000FC31C8B20149085C01B0F0BD6A1B0008BA
:1016F000F0B581B0012460042146FFF76FF9A00422
:101700002146FFF76BF9E0042146FFF767F9200552
:101710002146FFF763F9154800900920C0066D4681
:101720002946FFF782F804272F80894E3046294644
:10173000FFF77BF80820288030462946FFF775F828
:101740002F807F4E30462946FFF76FF860022880D1
:1017500030462946FFF769F8EF7020202880304690
:101760002946FFF762F801B0F0BDC0460010011035
:1017700086B0FFF7BDFFFFF7C7F86C480025294684
:10178000FFF7E0FAFEF71EFF69482946FFF77AFAED
:10179000FEF76CFF0D2001242146FFF7EBF80F2028
:1017A0002146FFF7E7F8FFF7CDFD0C20294622463A
:1017B000FFF734FF4B200002FFF702FD0A20294605
:1017C00001952A46FFF72AFF5A485B495B4A2346A0
:1017D000FEF7E8FF5A4F042138462246FFF78CF8FF
:1017E00020213846FFF779F86602002818D0012436
:1017F000384631462246FFF77FF82046FEF75CFF69
:10180000002238463146FFF777F82046FEF754FFAE
:10181000FFF7A8F820213846FFF75FF80028E6D147
:101820000520FEF749FF7D20C000464948638863D4
:10183000C863454D012428462146FEF7B9FE2846D7
:10184000214600942246FEF767FE06E004210022AE
:101850003846FFF751F8FFF785F8009C61033B4DD0
:101860002846FFF73AF802460920C0063049491CCD
:10187000FFF742F8A1032846FFF72FF8024604219C
:10188000334D2846FFF738F8E1033048FFF725F8D5
:101890000246082128462F4CFFF72EF82078002812
:1018A00005D026480078FFF7E1FC019820702A4D0A
:1018B000287800280BD02948026802AC204628A1CD
:1018C000FEF796FC2046FFF7BBFC01982870284CD9
:1018D0002078002805D020211A48FFF7BDFA01988A
:1018E000207020213846FEF7F8FF0028B3D00325EA
:1018F000012238463146FEF7FFFF0A242046FEF754
:10190000DBFE002238463146FEF7F6FF2046FEF7A2
:10191000D3FE6D1EECD102E000BFFFF723F82021BB
:101920003846FEF7DAFF0028F6D18FE7FFFF000008
:10193000FF0F000030000240043801408400002006
:1019400000040048002C0140002401400008004829
:10195000000C00489400002078000020980000202F
:10196000564241543A20256920560A0D00000000D5
:101970007900002043088B421AD3002203098B42CE
:1019800079D3030A8B425ED3030B8B4242D3030C01
:101990008B4227D30902FF2212BA030C8B4202D3D7
:1019A0001212090203D0030B8B4233D31AE0D3E0A7
:1019B000411A8041401C704703460B4371D44308D1
:1019C0008B42F5D3002203098B4254D3030A8B4286
:1019D00039D3030B8B421DD3030C8B4202D39446A5
:1019E0006EE0090AC30B8B4201D3CB03C01A5241EC
:1019F000830B8B4201D38B03C01A5241430B8B42A2
:101A000001D34B03C01A5241030B8B4201D30B038A
:101A1000C01A5241C30A8B4201D3CB02C01A5241B1
:101A2000830A8B4201D38B02C01A5241430A8B4274
:101A300001D34B02C01A5241030A8B4201D30B025D
:101A4000C01A5241CDD2C3098B4201D3CB01C01A77
:101A5000524183098B4201D38B01C01A5241430981
:101A60008B4201D34B01C01A524103098B4201D36F
:101A70000B01C01A5241C3088B4201D3CB00C01ADC
:101A8000524183088B4201D38B00C01A5241430854
:101A90008B4201D34B00C01A5241411A52411000EF
:101AA0007047CA0F00D04942031000D34042534050
:101AB00000229C4603098B422DD3030A8B4212D38A
:101AC0008901FC2212BA030A8B420CD389019211BC
:101AD0008B4208D3890192118B4204D3890137D0FC
:101AE000921100E08909C3098B4201D3CB01C01ACE
:101AF000524183098B4201D38B01C01A52414309E1
:101B00008B4201D34B01C01A524103098B4201D3CE
:101B10000B01C01A5241C3088B4201D3CB00C01A3B
:101B2000524183088B4201D38B00C01A5241D9D253
:101B300043088B4201D34B00C01A5241411A00D2D4
:101B400001465241104663465B1000D34042704745
:101B500063465B1000D3404201B50021004201D032
:101B6000C9430846C046C04602BD00030504010241
:101B700006000000981B000800000020180000006C
:101B800004010008B01B00081800002088060000AF
:101B9000200100080000000000D8B8050101000085
:101BA0000000010203040102030406070809000003
:04000005080000C12E
:00000001FF
